:020000040800F2
:10000000B0200120A1010008DD8C0008496900082A
:10001000418A00083516000895C900080000000054
:10002000000000000000000000000000819B0008AC
:100030003D27000800000000C1950008A1A40008A9
:10004000BB010008BB010008BB010008BB010008A0
:10005000BB010008BB010008BB010008BB01000890
:10006000BB010008B9270008C5270008BB0100082C
:100070002D240008BB010008BB010008BB010008DB
:10008000BB010008BB010008BB010008BB01000860
:1000900039160008BB010008BB010008D127000881
:1000A000BB010008BB010008BB010008BB01000840
:1000B00075A5000885A50008BB010008BB01000864
:1000C000BB010008BB010008BB010008BB01000820
:1000D000BB010008C5AC0008BB010008D5AC000896
:1000E000BB010008BB010008BB010008BB01000800
:1000F000BB010008BB010008BB010008BB010008F0
:10010000BB010008BB010008BB010008BB010008DF
:10011000BB010008BB010008BB010008BB010008CF
:10012000BB010008BB010008BB010008BB010008BF
:10013000BB010008BB010008BB010008BB010008AF
:10014000BB01000849160008BB010008318F0008F8
:100150003D240008BB0100084D240008BB01000835
:10016000BB010008BB010008BB010008BB0100087F
:10017000BB010008BB010008BB0100080000000033
:1001800025680008BB010008DFF810D001F07AF8FC
:1001900000F0C0FD004800471DD40008B020012039
:1001A0000648804706480047FEE7FEE7FEE7FEE711
:1001B000FEE7FEE7FEE7FEE7FEE7FEE761A50008D3
:1001C000890100089FED1A1AF5EE000A40EE010AB7
:1001D000BDEEE00AF5EEC00A10EE100AF1EE10FADC
:1001E00038BF401E00EE100A1349F7EE001AB8EEB1
:1001F000C00A30EEC00ADFED0F0A20EE200AFCEE46
:10020000C00A10EE900AC0F3080000EE900A01EB5D
:100210008000F8EE600A90ED011A70EE600A90ED31
:10022000000A71EEE01A21EE800A00EE810A7047A2
:1002300083F9223E0000004418FC0008B5EEC00A15
:10024000F1EE10FA07D2DFED1E0AB4EEE00AF1EE8D
:1002500010FAA8BF7047DFED1B0AB5EEC00A60EECA
:10026000200ABDEEE01A11EE100AF1EE10FA38BFC6
:10027000401E00EE100A1549F7EE001AB8EEC00A4B
:1002800030EEC00ADFED100A60EE200ABCEEE00A94
:1002900010EE100AC0F3080000EE100A01EB800017
:1002A000B8EE400A90ED011A70EEC00A90ED000A17
:1002B00071EEE01A21EE800A00EE810A704700001C
:1002C000CD024CB483F9223E0000004418FC000823
:1002D00070B405880E884468D1F804C05368B542EC
:1002E00008D140884988884201BF11888D425188D1
:1002F000884203D070BC6FF00200704705FB00F12C
:10030000880827D094ED001ADCED000A94ED010A6C
:10031000DCED011A31EE201AD4ED020A70EE211A3A
:100320009CED020A83ED001AC3ED011A94ED031A45
:10033000DCED031A30EE800A401E71EE210A83EDD7
:10034000020A04F11004C3ED030A03F110030CF1D7
:10035000100CD7D111F0030030D0B0F1004F30D2E3
:1003600000282BDD211F1B1FACF1040210F0010F30
:100370000AD091ED010AD2ED010A091D121D30EEDD
:10038000200A83ED010A1B1D400817D091ED010AD8
:10039000D2ED010A401E30EE200A83ED010A91EDF4
:1003A000020AD2ED020A01F1080102F1080230EE60
:1003B000200A83ED020A03F10803E7D170BC002094
:1003C0007047B4EC010A401EFCEC010A30EE200A32
:1003D000A3EC010AF5D1F1E7018042804360704748
:1003E0002DE9F34F84B0049840680090486801906C
:1003F0000498B0F800E04588DFEDFE0A0020029086
:10040000B0EE600AAE4506D108884988884204BF2C
:100410007146864504D06FF0020006B0BDE8F08F4B
:1004200001985FEA010C18BFB7EE001A3DD000BF7B
:10043000BEEB0C0117D0B1F1004F80F01F820029F4
:1004400011DD021F11F0010F1CBFC2ED010A121DC8
:100450004B1006D0C2ED010AC2ED020A08325B1E43
:10046000F8D100EB8100BCF10102A0EC011A19D017
:10047000B2F1004F80F00882002A13DD031F12F052
:10048000010F1CBFC3ED010A1B1D511008D000BF96
:10049000C3ED010AC3ED020A491E03F10803F7D1B7
:1004A00000EB8200BCF1010CC2D14FF000080395B3
:1004B000002D14BFB0EE602A002000F0BF8100BF05
:1004C000009908FB05F001EB800B0199DBED002A98
:1004D00001EB80000346F0EE421AC64552D9AEEB5E
:1004E0000802ABEB850112F0010F17D001EB85017B
:1004F00091ED000AB5EEC00AF1EE10FA07DDB4EE98
:10050000E10AF1EE10FA09DDF0EE401A06E0B1EE74
:10051000400AF4EEC01AF1EE10FAF5D3521031D0C1
:1005200001EB850C9CED000AB5EEC00AF1EE10FA65
:1005300005DDB4EEE10AF1EE10FA09DD06E0B1EEF8
:10054000400AF4EEC01AF1EE10FA01D2F0EE401AB1
:1005500001EBC50191ED000AB5EEC00AF1EE10FA0B
:1005600005DDB4EEE10AF1EE10FA09DD06E0B1EEC8
:10057000400AF4EEC01AF1EE10FA01D2F0EE401A81
:10058000521ECDD1F5EEC01AF1EE10FA00F07381D3
:10059000F5EEC02A0126F1EE10FA0099D4BFB1EEB3
:1005A000620AB0EE620AB4EE610AF1EE10FA1CBF04
:1005B000AEEB0802B2F1010C47D005FB08F201EBEB
:1005C000820292ED001A00BFB0EE410A05FB06F46C
:1005D000B5EEC00A00EB8404F1EE10FACCBFF0EEE9
:1005E000400AF1EE400AF4EE610AF1EE10FA28D169
:1005F000B5EB080C11D0BCF1004F7DD2BCF1000F5F
:100600000BDD00BF92ED000AD1ED000ABCF1010C38
:10061000E2EC010AA1EC010AF4D129000ED0B1F1FB
:10062000004F6AD2002909DD94ED000AD0ED000ADE
:10063000491EE4EC010AA0EC010AF5D10120029068
:100640000BE0761CBCF1010CBED10298012804D04D
:10065000F5EEC02AF1EE10FA7ED09BED000AB5EB64
:1006600008009A465946064622D0B0F1004F74D28F
:1006700000281DDD091F10F0010F06D0F0EE400A22
:1006800080EEA01A81ED011A091D401010D000BFA4
:10069000D1ED010A401E80EE801A81ED011A91ED24
:1006A000021AC1EE000AC1ED020A01F10801EFD100
:1006B000280026D0B0F1004F7ED2002821DDAAF11B
:1006C000040110F0010F06D0D1ED010A80EE801A6E
:1006D00081ED011A091D401013D000BFD1ED010AB0
:1006E000401E80EE801A81ED011AD1ED020A80EEE3
:1006F000801A81ED021A01E0CBE0D6E001F1080199
:10070000ECD1DDE900124FF000095FEA0E0773D06B
:10071000C14504BF01EB860102EB850274D091ED67
:10072000000ADC465046331E35D01C46B6F1004F59
:100730007ED2002C2FDD0B1FABF1040C16F0010F45
:100740000FD0F0EE400ADCED011AB0EE601A00EEB8
:10075000E11A83ED011A01E08DE0B1E01B1D0CF1FF
:10076000040C741015D000BFD3ED010A9CED011AE2
:1007700040EE410AC3ED010AD3ED020A9CED021AD4
:100780000CF1080C40EE410AC3ED020A0833641E66
:10079000EAD101EB86012B0036D0B3F1004F72D2C3
:1007A000002B31DDA2F1040CAAF1040013F0010FBB
:1007B0000CD0DCED010A00E08BE090ED011A001D89
:1007C00040EE410ACCED010A0CF1040C5C1019D08A
:1007D000DCED010A90ED011A40EE410ACCED010A70
:1007E000DCED020A90ED021A083040EE410ACCED31
:1007F000020A03E0000000000DE005E0641E0CF1B9
:10080000080CE5D102EB830201EB88017F1E09F1A0
:1008100001097FF47DAF009808F10108001D0090E8
:100820000398401E03907FF44BAE0299012900E02B
:1008300058E004BF06B0BDE8F08F00BFB5EEC00AB7
:10084000F1EE10FA7FF4E9AD04990EFB05F3002BED
:100850004A684FF000010BD902EB810C9CED000AB5
:10086000B5EEC00AF1EE10FA02D1491C8B42F3D862
:100870008B427FF4D2AD6FF00400CEE5E0EC010ACC
:10088000491EFBD1EFE538E0E0EC010A521EFBD136
:1008900008E692ED000AD1ED000ABCF1010CE2EC91
:1008A000010AA1EC010AF4D1B7E694ED000AD0EDFB
:1008B000000A491EE4EC010AA0EC010AF5D1BDE6EC
:1008C000D1ED000A401E80EE801AA1EC011AF7D18A
:1008D000EEE6D3ED000A401E80EE801AA3EC011A6A
:1008E000F7D10EE7BCEC011AD1ED000A5B1E40EE19
:1008F000410AE1EC010AF5D14DE7B0EC011AD2ED65
:10090000000A5B1E40EE410AE2EC010AF5D17BE7EA
:100910002DE9F04F82B046685368019305884788F7
:100920004B88002000900888874201BFB2F800C0C1
:100930006545528893421EBF6FF0020002B0BDE8C9
:10094000F08F9FED412A4FEA970EC7F3400B00BF8F
:10095000DDE9000202EB800A4A6898464FF0000980
:10096000B0EE420AB4465FEA0E0025D092ED001ABE
:10097000DCED001A02EB8302DCED010A01EE810AD4
:1009800092ED001A02EB8302401ED2ED001A02EB38
:10099000830200EE810A9CED021ADCED030A0004DA
:1009A0000CF1100C000C01EE210A92ED001A02EB82
:1009B000830200EE810AD9D117F0030026D0ACF1F2
:1009C0000404A2EB830210F0010F08D002EB8302B3
:1009D000D4ED010A92ED001A241D00EE810A5FEAAF
:1009E0000B0013D002EB830CD4ED010A9CED001A2E
:1009F00002EBC302401E00EE810AD4ED020A92ED22
:100A0000001A04F1080400EE810AEBD109F101009B
:100A1000AAEC010A1FFA80F9486800EB8902A8F1E4
:100A200001001FFA80F8B8F1000F99D1009806EB89
:100A30008706184480B20090681E05042D0C87D1EB
:100A400002B00020BDE8F08F0000000070B40588FF
:100A50000E884468D1F804C05368B54208D1408874
:100A60004988884201BF11888D425188884203D04D
:100A700070BC6FF00200704705FB00F1880827D0BA
:100A800094ED001ADCED000A94ED010ADCED011A88
:100A900031EE601AD4ED020A70EE611A9CED020A82
:100AA00083ED001AC3ED011A94ED031ADCED031A6D
:100AB00030EEC00A401E71EE610A83ED020A04F1B5
:100AC0001004C3ED030A03F110030CF1100CD7D18D
:100AD00011F0030030D0B0F1004F30D200282BDDF0
:100AE000211F1B1FACF1040210F0010F0AD091ED81
:100AF000010AD2ED010A091D121D30EE600A83EDD4
:100B0000010A1B1D400817D091ED010AD2ED010A20
:100B1000401E30EE600A83ED010A91ED020AD2ED2B
:100B2000020A01F1080102F1080230EE600A83EDC9
:100B3000020A03F10803E7D170BC00207047B4EC4F
:100B4000010A401EFCEC010A30EE600AA3EC010A27
:100B5000F5D1F1E72DE9F04F02884768B0F802803F
:100B60004888D1F8049082B04FF0000A16468242BD
:100B700007BF098888456FF0020002B018BFBDE8C2
:100B8000F08F4FEA980B02EB42000190C8F340004F
:100B9000CDF8000009EB8A01BBF1000F33D00198BA
:100BA00001EB820C01EB80043B46E64601EBC205FB
:100BB0004FEA0B0093ED000A401E81ED000A93ED11
:100BC000010A01EB02118CED000A93ED020A0CEB15
:100BD000021C85ED000A93ED030A05EB021584ED76
:100BE000000A04EB021403F11003E3D10EEB8200C0
:100BF00000EB820000EB8201ABF10100504307EBF8
:100C00000B1701EB001118F0030C21D03B1FA1EBD7
:100C100082011CF0010F06D093ED010A01EB820165
:100C20001B1D81ED000A009880B100BF93ED010A01
:100C300001EB820401EBC20184ED000A93ED020A8C
:100C4000401E81ED000A03F10803EFD107EB8C078A
:100C50000AF101001FFA80FA701E0604360C99D1C1
:100C600002B00020BDE8F08F2DE9F05F05460020BE
:100C700092469B4688460646814640241BE028460D
:100C800041464746224600F047FA53465A46C01AA4
:100C9000914110D311461846224600F02EFA2D1A23
:100CA00067EB01084F4622460120002100F025FA9B
:100CB00017EB00094E41201EA4F10104DFDC484679
:100CC00031462A464346BDE8F09F40EA01039B07B0
:100CD00003D009E008C9121F08C0042AFAD203E0B1
:100CE00011F8013B00F8013B521EF9D27047D2B215
:100CF00001E000F8012B491EFBD270470022F6E705
:100D000010B513460A4604461946FFF7F0FF204681
:100D100010BD000070B5054C054D04E0204601688B
:100D200008448047241DAC42F8D170BD7405010809
:100D3000780501082DE9FE4F804681EA0300C00FC7
:100D40000C46009021F0004123F00045B8EB020072
:100D5000A94105D24046214690461C460B46024614
:100D600023F00040104347D0270DC7F30A00C3F318
:100D70000A510290401A019040286BDAC3F3130025
:100D800040F4801B0098924620B10023D2EB030A66
:100D900063EB0B0B01985946C0F14002504600F03E
:100DA000ACF906460D4650465946019A00F0C4F982
:100DB00010EB08006141002487EA115284EAE773CE
:100DC0001A4340D0009A62B3019A012A4FEA0752AF
:100DD00015DC001B61EB02014FF0004202EA0752F2
:100DE000CDE90042001C41F5801132462B4600F04F
:100DF000FBF903B0BDE8F08F40462146F9E7001B40
:100E000061EB0201001C41F5801300185B412018C2
:100E1000A2F5001747EB030140EAD570B6196D4102
:100E200011E06D084FEA360645EAC0754FEA0752F1
:100E3000001B61EB0201001C41F5801149084FEADB
:100E400030000019514132462B4603B0BDE8F04F47
:100E500000F0BBB90098012240000023D0EB020251
:100E600063EBE073009821464FEAE074B8EB0000B2
:100E700061EB0401E9E783F000435BE781F00041A7
:100E800058E72DE9FE4F81EA030404F0004421F005
:100E9000004100944FF0000B23F0004350EA01049E
:100EA0005ED052EA03045BD0C3F30A54C1F30A557F
:100EB0002C44A4F2F3340194A0FB0254C1F31301B7
:100EC00041F48011C3F3130343F4801301FB024484
:100ED00000FB034E840A970A44EA815447EA835789
:100EE000A4FB076802958D0A05FB07854FEA932C42
:100EF00004FB0C542705029D4FEA065847EA1637B3
:100F0000B5EB08056EEB070C870E920E47EA8117CA
:100F100042EA8312A7FB0201B6EB0B0164EB00046B
:100F20002B0D43EA0C335E1844EB1C50DA46514655
:100F3000E7FB0201C5F313044FEA0B3343EA1453F2
:100F40004FEA0432019C43EA0603A4F10C04029424
:100F5000009CCDE900B400F047F903B0BDE8F08F84
:100F600000200146F9E72DE9F04D81EA030404F081
:100F7000004B21F0004514464FF0000A23F00041D9
:100F800050EA050220D054EA01021DD0C5F30A57E9
:100F90000246C5F31303C1F31300C1F30A5640F42C
:100FA000801543F48013A7EB0608101BD64608F201
:100FB000FD3873EB050002D308F1010801E0921837
:100FC0005B41B8F1000F03DA00200146BDE8F08D67
:100FD00000204FF48011064684460EE0171B73EB89
:100FE000050705D3121B63EB050306434CEA010C0E
:100FF00049084FEA300092185B4150EA0107EDD1F1
:1010000052EA030012D082EA040083EA0501084391
:1010100005D0101BAB4106D20122002306E00022BE
:101020004FF0004302E06FF0010253101AEB06008C
:101030004CEB085110EB0A0041EB0B01BDE8F04D01
:1010400000F0C3B80EB540F2334102910021CDE962
:1010500000110A460B4600F0C7F803B000BD70B59A
:10106000C1F30A5201F000450024C1F3130140F21C
:10107000FF3341F480119A4201DA002070BD40F242
:1010800033439A42A2F2334203DC524200F044F866
:1010900000E090402C43F1D0404270BD00F000428F
:1010A00030F000400AD0C10D01F56071C0F31600A8
:1010B00042EA0151C208400711437047002001462F
:1010C000704701F0004330B421F0004150EA0102C2
:1010D00006D00A0DA2F56072C1F31301002A02DCEA
:1010E00030BC00207047440F44EAC104C100E0183E
:1010F00030BC00EBC25000F031B8202A04DB203AAB
:1011000000FA02F1002070479140C2F1200320FA5A
:1011100003F3194390407047202A04DB203A21FA58
:1011200002F00021704721FA02F3D040C2F1200200
:101130009140084319467047202A06DBCB17203A16
:1011400041FA02F043EAE07306E041FA02F3D040CC
:10115000C2F1200291400843194670470029A8BFF8
:101160007047401C490008BF20F00100704710B4D0
:10117000B0FA80FC00FA0CF050EA010404BF10BC85
:10118000704749B1CCF1200421FA04F411FA0CF1B2
:1011900018BF012121430843A3EB0C01CB1D4FEAEB
:1011A00000614FEA102042BF002010BC704700EBE6
:1011B000C35010440029A4BF10BC7047401C490014
:1011C00008BF20F0010010BC704710B5141E73F169
:1011D000000408DA401C41F1000192185B411A43F7
:1011E00001D120F0010010BD2DE9F04D92469B4643
:1011F00011B1B1FA81F202E0B0FA80F220329046E9
:10120000FFF77BFF04460F4640EA0A0041EA0B0164
:1012100053465A46084313D0114653EA010019D0E9
:10122000C8F140025046FFF777FF05460E4650468C
:1012300059464246FFF761FF084305D0012004E00C
:1012400020463946BDE8F08D0020054346EAE076A9
:101250002C4337430A986305E40AA0EB08000022F8
:10126000FD0A44EA47540A3002D500200146E9E766
:10127000010510196941DDE9084500196941BDE81A
:10128000F04DA2E7064C074D06E0E06840F0010390
:1012900094E8070098471034AC42F6D3FEF778FF85
:1012A000540501087405010870B58C1810F8015B2D
:1012B00015F0070301D110F8013B2A1106D110F8EF
:1012C000012B03E010F8016B01F8016B5B1EF9D1F3
:1012D0002B0705D40023521E0DD401F8013BFAE779
:1012E00010F8013BCB1A921C03E013F8015B01F8E4
:1012F000015B521EF9D5A142D8D3002070BD000079
:1013000040F21051C2F20001097840F2CC20C2F242
:10131000000001220129027518BF704740F24011F8
:10132000C2F20001CA699FED070A01EE102AB4EE6D
:10133000401AF1EE10FA04DDC978012904BF022138
:1013400001757047CDCCCC3D70B50C4640F23031C4
:1013500042F28C65C2F20001C2F20005002608606C
:101360002E700BF0A5FC2978084328700BF056FD71
:10137000297840EA010028701CB100F0EDF92878C6
:1013800070BD40F2E82043F6AC0142F27123C2F294
:101390000000C3F62231C3F6807341F2B06247F217
:1013A000B07E49F62A044CF6923CC0E9083100218F
:1013B000C3F6CE12C3F64C6EC3F69354C4F21C1C93
:1013C000C4F22021C0E90A22C0E90CE4C0E90E6C95
:1013D0008161287870BD000080B50020C4F2020051
:1013E0001021012202F0CAFF80BD000080B500205C
:1013F000C4F202001021002202F0C0FF80BD0000F4
:1014000080B540F20040C4F202000121012202F046
:10141000B5FF80BD80B540F20040C4F2020001215A
:10142000002202F0ABFF80BD70B50446FFF7DEFF7F
:10143000922000F0DDF840F22835C2F200051220BB
:101440002946062200F0B0F8FFF7C6FFB5F9000004
:1014500094ED082A00EE100A40F20C00C2F20000DF
:1014600090ED001AB8EEC00A21EE000A22EE000A42
:1014700084ED000AB5F9021090ED001A00EE101A82
:10148000B8EEC00A21EE000A22EE000A84ED010A3D
:10149000B5F9040000EE100AB8EEC00A21EE000A09
:1014A00022EE000A84ED020AFFF7B4FF002029466D
:1014B0000822002600F078F8FFF7A2FF28780F280E
:1014C0004AD1B5F9021040F2B22000EE101A40F2F3
:1014D0001001C2F20000C2F200010078B8EEC01A9A
:1014E00091ED000A20EE011A00B394ED092AB5F936
:1014F0000400B5F9061031EE421A02EE100A94ED1E
:101500000A3AB8EEC22A84ED031A01EE101A94EDDD
:101510000B4A20EE022AB8EEC11A32EE432A20EE20
:10152000010A84ED042A30EE440A13E0B5F9040000
:10153000B5F9061002EE100A84ED031A01EE101A36
:10154000B8EEC22AB8EEC11A20EE022A20EE010A35
:1015500084ED042A84ED050AFFF748FFA22000F07D
:1015600047F822202946022200F01EF8FFF734FF38
:1015700028786978C00040EA51104FF60001CFF694
:10158000FF71B6EB902F18BF084300EE100AB8EEBB
:10159000C00AB4EE001A20EE010AB3EE071A30EECC
:1015A000010A84ED070A70BDB0B540F08000144612
:1015B0000D4600F01DF8002C08BFB0BD013D00BF76
:1015C000552000F015F8013C210605F8010FF7D170
:1015D000B0BD000080B540F0800000F009F8552053
:1015E00000F006F843F65801C2F20001087080BD11
:1015F00080B582B040F23031C2F200010B688DF844
:1016000007004FF47A7C0DF107010DF10602184630
:101610000123CDF800C004F045F99DF8060002B0A2
:1016200080BD000010B50C46FFF7E2FF2046FFF733
:10163000DFFF10BDFEE7000080B542F67C10C2F26D
:10164000000002F0E1F880BD80B542F6A410C2F2BD
:10165000000002F0D9F880BD10B588B00B4600211B
:101660000791CDE90511CDE90311CDE9011101681B
:1016700046F2004201ACC4F20002891A224618BFA9
:10168000012102F02FF80398002818BF04342068C5
:1016900008B010BD70B588B014460D4606460CF073
:1016A000CDFD00200821CDE90300059006918DF8BD
:1016B0001C00019002A901AB30462246029501F0C0
:1016C00055FF04460CF0DEFD204608B070BD00005A
:1016D000002070470020704710B542F2A064C2F2AB
:1016E000000441F68461C2F200012046002209F0A4
:1016F0001BFD41F28461C2F20001204609F006FDA3
:10170000002010BD10B542F2A064C2F200040146F0
:10171000204609F0FBFC204609F0D2FC002010BD59
:101720000020704710B542F2A062C2F20002D2F867
:10173000BC22D2F81432002B1CBF012010BD42F293
:10174000A064C2F200040A460146204609F0ECFCFF
:10175000204609F087FD10BD2DE9F04F81B02DED39
:10176000108B88B00020CDE9060000F031FF40F278
:101770006834C2F2000484ED000A00F029FF94ED01
:10178000001AB2EE08BA30EE410AB4EE4B0A40F24B
:10179000E826F1EE10FAC2F2000621DD43F6AC00B5
:1017A00041F2B061C3F62230C3F6CE11C6E9090199
:1017B0004CF69230C4F21C10F0630020C4F22020DA
:1017C000F162B06196ED0F0A9FEDAB1A81EE000A4F
:1017D00086ED080A08B0BDEC108B01B0BDE8F08FB3
:1017E0009FEDEDCA03AD6F469FEDEC8A42F294681F
:1017F0009FEDEDEADFEDED9ADFEDE9AADFEDECBA62
:101800009FEDE89AA5F1040AA7F1040B06ACC2F219
:101810000008B6EE00DAB4EE00FAF3EE078AF0EE56
:101820004CCA0EE000F0D4FE40F26830C2F2000074
:1018300090ED001A30EE410AB4EE4B0AF1EE10FAC8
:10184000ACDCB0EE480A00F081FE4FF00009C6F8AB
:101850003C90C6E90999C6F82C9000BFFFF7C6FD79
:101860009220FFF7C5FE122021460622FFF79CFEBC
:10187000FFF7B2FDBDF91800BDF91A1000EE100A0D
:1018800040F20C00C2F2000090ED001AB8EEC00A5F
:10189000BDF91C2021EE002A00EE101AB8EEC00A95
:1018A00021EE003A00EE102AB8EEC00A21EE001A2E
:1018B00022EE020A23EE034A30EE040A21EE014A28
:1018C00030EE040AB1EEC0AA86ED002A86ED013A98
:1018D00086ED021AB4EE4AAAF1EE10FA80F1C78042
:1018E00096ED0F0A3AEE000A86ED0F0AFFF792FD19
:1018F000002021460822FFF757FEFFF781FD9DF8E3
:1019000018000F2835D1BDF91A00BDF91C1000EEE2
:10191000100A40F21000C2F2000090ED001AB8EE7A
:10192000C00A96ED092A21EE000A86ED030A32EE7E
:10193000000A02EE101ABDF91E2096ED0A3AB8EE22
:10194000C22A21EE022A86ED042A33EE022A03EE91
:10195000102A96ED0B4AB8EEC33A21EE031A86ED33
:10196000051A34EE011A86ED090A86ED0A2A86ED7B
:101970000B1AB9F1000F2BD0002000BF311891EDE8
:10198000030A291891ED001AB4EE410AF1EE10FA9B
:10199000C8BF81ED000A391891ED001A0430B4EE89
:1019A000410AF1EE10FAB8BF81ED000A0C28E5D12A
:1019B000B4EE6CAAF1EE10FAB4EE4CAAC8BFF0EE89
:1019C0004ACAF1EE10FAB8BFB0EE4ACA0DE000BF45
:1019D0007169D6E90302F0EE4ACACDE90421CDE9E6
:1019E0000002CDE90210B0EE4ACA42F290603CEE2D
:1019F000CC0AC2F2000080ED000A6FF003005946E5
:101A0000524600BF92ED011A91ED012A08EB000346
:101A100004300432043131EE421A082883ED011AF1
:101A2000F0D1B4EE4D0AF1EE10FA27DC98ED000A81
:101A3000B4EE6A0AF1EE10FA20DC98ED010AB4EE79
:101A40006A0AF1EE10FA19DC98ED020AB4EE6A0A9D
:101A5000F1EE10FA12DCB0EE490A00F077FD41F227
:101A60006F70814509F10109FFF4F8AE06E00EF050
:101A700033F8B0EE40AA33E7C3F51C4196ED0F0AE8
:101A8000202080EE0E0A86ED0F0A00BF311891ED7E
:101A9000010A043080EE0E0A2C2881ED010AF5D1EE
:101AA000FFF7A4FCA220FFF7A3FD2220214602227B
:101AB000FFF77AFDFFF790FC9DF818009DF81910CC
:101AC000C00040EA51100021B1EB902F4FF6000109
:101AD000CFF6FF7118BF084300EE100AB8EEC00A37
:101AE00020EE0F0A42F2906130EE280A42F2846240
:101AF000C2F2000186ED060AC2F2000291ED000A70
:101B00001088B4EE4D0A0130F1EE10FA10803FF764
:101B100089AE98ED020AB4EE6A0AF1EE10FA3FF7C8
:101B200081AE98ED010AB4EE6A0AF1EE10FA3FF7C1
:101B300079AE98ED000AB4EE6A0AF1EE10FA3FF7BA
:101B400071AE96ED0F0A30EE290AB0EEC00AB4EE7F
:101B50004D0AF1EE10FA3FF765AE96ED090AB0EEC8
:101B6000C00AB4EE6B0AF1EE10FA3FF75BAE96EDE9
:101B70000A0AB0EEC00AB4EE6B0AF1EE10FA3FF7B3
:101B800051AE96ED0B0AB0EEC00AB4EE6B0AF1EE60
:101B900010FA3FF747AE15E6000000000AD7A33B56
:101BA0009A99193E6F12033A0080BB45CDCC1CC1F7
:101BB0000AD7233C80B58AB0026846F60003C4F217
:101BC000000300214FF0010C4FF00E0E9A420691D7
:101BD000CDF81CC0CDE90011CDE90211CDF824E00B
:101BE0000BD046F20041C4F200018A4216D1002116
:101BF0000591694601F110020EE0CDE906C142F2FD
:101C000020016A46009144F2A0010C32019144F295
:101C1000C001CDE904CE029100211160012108919B
:101C2000694601F0EDFC0AB080BD000080B540F2CD
:101C30008C40C2F20000007801280BD141F2B800BC
:101C4000C2F200000078032807D0012808D100F074
:101C5000ADFB80BD00F090F980BD00F0A9F980BD1A
:101C600000F0C6FB80BD000080B540F28040C2F2AB
:101C70000000018843F6A202C2F200021180D0F8EF
:101C800002108079C2F80210907140F24430C2F222
:101C90000000017800200329D07116D840F6684072
:101CA000C2F20000DFE801F00206090C417821F0E1
:101CB0001E0109E04178032204E04178012201E09D
:101CC0004178022262F34401417042F6A41043F6C7
:101CD000A202C2F20000C2F200024FF48871FFF7C4
:101CE000D9FC80BD80B52DED068B40F6EE50C2F2DA
:101CF000000041F250419FED1E9A9FED1EAA018007
:101D000040F29830B1EE048AC2F20000B8EE041A34
:101D10004FF4FA51B0EE480AF0EE490AF0EE491AD3
:101D2000B0EE492AF0EE492AB0EE4A3A07F034FC08
:101D300040F20840C2F20000B0EE081A4FF4FA5127
:101D4000B0EE480AF0EE490AF0EE491AB0EE492A20
:101D5000F0EE492AB0EE4A3A07F01EFC40F2443059
:101D6000C2F2000002210170BDEC068B80BD00BFF5
:101D7000000000006F12833AF0B581B02DED028BA8
:101D800040F24436C2F200063078042800F2E580C2
:101D9000DFE800F0032A0DAE230040F28040C2F2DB
:101DA000000000218180016001218171D5E040F2B5
:101DB0008044C2F20004B4F90400B2EE0E1A00EE40
:101DC000100AF8EEC00A9FED6B0A07F04FFCBDEE5B
:101DD000C00A10EE100AA080BFE040F28040C2F2BC
:101DE000000000218180B8E040F6A450C2F200005B
:101DF0008068FFF753F9044640F6F050C2F2000045
:101E000000680D46FFF74AF99FED570B53EC102B76
:101E1000FFF737F822462B46FEF78CFFFFF751F904
:101E200040F23057C2F2000740F214043A8BC2F27B
:101E30000004E060A2F6514080B20021030BB1EB38
:101E4000103F18BF0123B0F5805F40F6EC5040F220
:101E50005141C2F2000038BF41F25041037000EE20
:101E6000102A10467180B8EE408A07F0EFFB40F26E
:101E7000983500EE100AC2F20005F8EEC00A2846B6
:101E8000B0EE480A07F056F9B7F91A00D5ED110A75
:101E900040F2084500EE100AC2F20005B8EEC00A92
:101EA000284607F047F995ED118A204600F024FDF9
:101EB00038EE000ABDEEC00A4EF6900110EE100A90
:101EC000CFF6FF718842C8BF014641F2707081426F
:101ED000A8BF014640F6A050C2F20000007840F2D0
:101EE0008042C2F20002002818BF0021918034E035
:101EF00040F6A450C2F2000090ED000A90ED011AE5
:101F0000B5EE400A0020F1EE10FA4FF00001B5EEF8
:101F1000401A18BF0121F1EE10FA18BF0120084342
:101F20001BD140F22810C2F20000007DC00614D47C
:101F300040F28044C2F20004B4F90400B2EE0E1A7A
:101F400000EE100AF8EEC00A9FED090A07F08EFBBA
:101F5000BDEEC00A10EE100AA080BDEC028B01B0ED
:101F6000F0BD00BF00BF00BF9A9999999999E93FC8
:101F700000007A450000000080B540F28040C2F2C7
:101F8000000001220021827143F6A20281800160DB
:101F9000C2F200024FF48030506042F6A41011608B
:101FA000C2F200004FF48871FFF774FB80BD00009F
:101FB000F0B540F27E3CC2F2000CBCF8000040F2EA
:101FC0002811C2F20001421C087DBFEE001A8307EF
:101FD000B0EE412AACF800209FED3D0A58BFB0EEAC
:101FE000402AC307B7EE003AB0EE434A40F6A45386
:101FF00008BFB0EE424AC2F20003050758BFB0EE78
:10200000403A450758BFB0EE431A83ED001A83EDFE
:10201000014A40F28043C2F20003002540F6086402
:10202000C2F200049D7140F676432478C2F20003A8
:102030001D78002C18BF0124013D40F2443E18BF1A
:1020400001252C42C2F2000E03D19EF80040032C61
:1020500002D002248EF80040497D40F27C3411F019
:102060000105C2F2000411D0267876B99EF800600E
:102070000227023EB6FA86F64FEA561608BF032735
:102080001E7001238EF8007023700DB90023237099
:1020900011F0020340F6A051C2F2000101D00C7809
:1020A00054B173B992B2B2F5FA7F0AD90A78002A0C
:1020B0001CBF00220A7004E001220A700021ACF863
:1020C0000010800644BF01208EF80000F0BD00BF64
:1020D00000000000000000002DE9F04F81B02DED60
:1020E000048B40F23050C2F20000008B41F25041AC
:1020F000401A00EE100A9FEDA81AB8EEC00A80EE52
:10210000010A40F2883A9FEDA51AC2F2000A40F691
:102110006E41C2F2000140F22812C2F20002127DAA
:102120004FF4AF6412F0100540F2843940F28C385D
:10213000C2F200098AED000A20EE010ABDEEC00AD3
:1021400010EE100AC88041F29800C2F2000040F67A
:102150005141018040F6B450C2F2000041F65041B6
:10216000018040F24430C2F2000008BF4FF44874CE
:102170000678C2F2000806F0FE000428A9F8004024
:102180002ED040F6EC50C2F200000078012800D0BA
:1021900030BB40F6A450C2F2000090ED011A02EEEE
:1021A000104AB8EE422A90ED000A21EE021ABDEE66
:1021B000C11A11EE100A22EE000AA8F8000010EE73
:1021C000100AFEF76BFF9FED700B53EC102BFEF720
:1021D00058FEFEF744FF40F28E31C2F20001088043
:1021E00040F28047032EC2F2000712D0052E6FD1B5
:1021F00040F6A451C2F2000140F28E3091ED000A87
:102200009FED691AC2F200000021018020EE010A50
:1022100059E040F6A450C2F2000090ED000AB5EE7D
:10222000400AF1EE10FA08D190ED010AB5EE400A2D
:10223000F1EE10FA01D1002D4AD040F2903B40F26D
:102240008036C2F2000B0120C2F2000696ED008A31
:102250008BF800002046FEF7F5FE9FED4D0B54EC89
:10226000105B2A462346FEF77EFEFEF72AFF9FED0F
:102270004C9A01EE100AB0EE490AF0EE480A07F057
:10228000F5F99BF800009FED478A0028B7F9040094
:1022900086ED000A18BFB0EE498A00EE100AB9F8C0
:1022A0000000B8EEC09AFEF7CDFE2A462346FEF7A0
:1022B0005AFEFEF706FF01EE100AB0EE480AF0EEF5
:1022C000490A07F0D3F9BDEEC00A10EE100AB88033
:1022D00040F28C40C2F20000C178B8F80000012939
:1022E00044D100B29AED001A00EE100AB8EEC08A8E
:1022F000B1EE410AFDF7A2FF40F28E34C2F20004B3
:10230000B4F900009AED001A20EE088A00EE100AD7
:10231000B8EEC09AB1EE410AFDF754FF20EE090A6B
:1023200038EE000ABDEEC00AB8F9001010EE100A2F
:102330009AED000A01EE101A3880B8EEC18AFDF756
:1023400041FFB4F9000020EE088A9AED000A01EE80
:10235000100AB8EEC19AFDF771FF20EE090A38EEB7
:10236000000ABDEEC00A10EE101A05E040F28E31F0
:10237000C2F20001098838807980BDEC048B01B07D
:10238000BDE8F08F00BF00BF666666666666E6BFA2
:1023900000000000007087407BF4A24400007A44F3
:1023A000000016450000000000C05A4540F2281009
:1023B000C2F2000090F9080040F280410138C2F2F8
:1023C0000001002202288A7188BF70474FF6F87119
:1023D000C0F2FF0101EAC00040F20121C0F2050194
:1023E00021FA00F040F24431C2F200010870704757
:1023F00040F24430C2F2000000210170704700003A
:10240000FFF770FC40F27844C2F200040CF09EFE2C
:102410002060FFF70BFCFFF7AFFCFFF75DFEFFF757
:1024200023FC204601210CF037F8EFE780B542F697
:102430004C30C2F2000001F04FFD80BD80B542F685
:102440008C20C2F2000001F047FD80BD80B542F64D
:10245000EC20C2F2000001F03FFD80BDD0F800C0CA
:102460006FF00F024AF6AB2352FA8CF2CAF6AA2397
:102470000146A2FB0330000905A31B5C40F2FF30BC
:102480002CEA00005F2A88BF0430C1E916037047B8
:1024900000061016000610168269816AB2F5005F08
:1024A00006D06AB9022912D0012914D0D1B90EE0A0
:1024B000032917D8DFE801F0020B020F0120704753
:1024C00003293CBF012070471CBF00207047C06A31
:1024D000C0F300607047C06AA0F1C070B0FA80F02D
:1024E000400970470020704780B5D0F800C0D0F890
:1024F00008E0DCF80000BEF1400F20F48020CCF8AA
:1025000000000846CCF8043004BF10460A46CCF858
:102510000800CCF80C2080BD81B041F20400CEF25E
:1025200000000068009040F26030C2F200000099A4
:102530000268914206D240F26431C2F200010A6898
:1025400001320A600099016001B0704741F2040055
:1025500040F24832CEF20000C2F20002016892ED71
:10256000001AB8EE411A21EE000A00BF0268521AA2
:1025700001EE102AB8EE411AB4EE410AF1EE10FA5B
:10258000F4DC704780B52DED028B82B041F204017E
:10259000CEF200010968019101990268891A00EEE2
:1025A000101A40F24831C2F2000191ED001A01996F
:1025B000B8EE400AB8EE411A80EE018A0160FFF7DA
:1025C000ABFFB0EE480A02B0BDEC028B80BD00004C
:1025D00080B500F065F841F26410C2F20000818815
:1025E00090ED000A01EE101A9FED0A2AB8EE411A8A
:1025F000C088B8EE400A21EE021A31EE000A01EE60
:10260000100A9FED052AB8EE411A21EE021A30EEAB
:10261000010A80BD6F12833ABD37863510B54EF67C
:10262000FC5CCEF2000CDCF8002044F24023C0F247
:102630000F0342F08072584344F6D353CCF8002085
:1026400041F20002C1F26203CEF200024FF0000C30
:10265000A0FB033EC2F804C04DF683611368C4F2C8
:102660001B31A0FB011443F00101116040F248311D
:10267000C2F20001086040F24C314FEA9E10C2F2F3
:102680000001086040F25031A00CC2F20001086065
:1026900040F26430C2F20000C0F800C010BD00007B
:1026A000F0B581B041F20400CEF200000068009065
:1026B000FFF732FF40F26430C2F200000068009C75
:1026C00000254FF0FF31E0FB014540F24831C2F2F6
:1026D000000140F258300E68C2F20000C0E9004527
:1026E0002046294632460023FEF7BEFAA0FB062309
:1026F00001FB0631A41A8D4140F24C31C2F20001B7
:1027000041F264170E68C2F200073860204629467D
:1027100032460023FEF7A8FAB88080B240F250316A
:102720007043C2F20001201A0A6865F1000100231B
:10273000FEF79AFAF88001B0F0BD00007047000083
:1027400040F28C41C2F200018879012841F2CC00AC
:10275000C2F2000005D14A79012A02D10979012982
:1027600001D000210173017B21B3032941F26011E3
:10277000C2F200010FD140F6A462C2F20002B2F927
:10278000022002EBE23383EAE23292B20F2A02D84D
:102790000A8801320A800A88322A03D304230132CC
:1027A00003730A800A88652A38BF704700220A80AE
:1027B000032101737047000080B5082001F002FD7D
:1027C00080BD000080B5102001F0FCFC80BD000041
:1027D00080B5202001F0F6FC402001F0F3FC8020C1
:1027E00001F0F0FC80BD000072B600BFFEE7000003
:1027F00080B5007A0138092888BF80BDDFE800F085
:1028000005111D2E3E4F5F666D7406F095FF013079
:1028100040F28C40C2F200000CBF02210121017085
:1028200080BD04F093F8013040F28C40C2F2000009
:102830000CBF02210121417080BD40F23050C2F234
:102840000000183000F08AF8013040F28C40C2F2EB
:1028500000000CBF02210121C17080BD40F2305048
:10286000C2F2000000F07AF8013040F28C40C2F26F
:1028700000000CBF02210121817080BD41F2FC00EB
:10288000C2F200002C3006F08FFF013040F28C4085
:10289000C2F200000CBF02210121417180BD41F252
:1028A000FC00C2F2000006F07FFF013040F28C40D5
:1028B000C2F200000CBF02210121017180BD40F273
:1028C0008C40C2F200000121817180BD40F28C4039
:1028D000C2F200000121C17180BD40F28C40C2F201
:1028E00000000121017280BD40F28C40C2F2000064
:1028F0000121417280BD000090ED032A90ED023A63
:1029000090ED000A90ED011A32EE433A22EE000AF1
:1029100023EE011A30EE013A90ED050A80ED043AFB
:10292000B1EE401AB4EE413AF1EE10FA80ED022A0F
:10293000B8BF80ED041A90ED041AB4EE401AF1EE1F
:1029400010FAC8BF80ED040A90ED040A7047000039
:1029500080B500210160FFF74BFF80BD8179002029
:10296000502988BF4FF0FF307047000080B50A88BB
:1029700013BA4FEA134CA0F800C04A8812BA120CDE
:1029800042808A8812BA4FEA124E0289A0F804E007
:10299000C2EB13428B7911B211F5805F837102DAB9
:1029A000428901324281B1F5805F02DD41890139FE
:1029B0004181B0F90A109FED081A0CEB413100EE8D
:1029C000101AB8EEC00A20EE010AC16080ED040AB8
:1029D000A0F808C080BD00BF0000343D00EE100A22
:1029E00092ED001AB8EEC00A92ED012A21EE001A0B
:1029F00021EE001A22EE000A02EE101A92ED023ABF
:102A0000B8EEC22A20EE020A31EE000A23EE021AC4
:102A100092ED034A21EE021A30EE010A34EE000A6A
:102A200070470000B0B547F61021C1F6FF71086885
:102A30008A68801808BFB0BD40F29825C2F2000530
:102A40004C68A91C082204F009FF05F11201204678
:102A5000042204F003FFB0BD80B540F28C40C2F206
:102A60000000007801280BD141F2B800C2F200004A
:102A70000078032807D0012802D100F02BFC80BD8C
:102A800000F01AFD80BD00F0F9FA80BDF0B581B00C
:102A90002DED0C8B40F2A440C2F200000021017029
:102AA00040F21050C2F20000017040F21150C2F228
:102AB00000000122027041F29A00C2F2000001708F
:102AC00041F2182040F260549FED80AA9FED808A69
:102AD0009FED809AC2F20000C2F20004016020461D
:102AE0000621B0EE4A0AF0EE480AB0EE481AF0EEBF
:102AF000481AB0EE482AF0EE482AB0EE493A06F0FD
:102B00004BFD40F6E007C2F20007B0EE08BA3846C7
:102B10000321B0EE4B0AF0EE480AB0EE481AF0EE90
:102B2000481AB0EE482AF0EE482AB0EE493A06F0CC
:102B300033FD40F22076C2F2000630460621B0EEA8
:102B40004A0AF0EE480AB0EE481AF0EE481AB0EE23
:102B5000482AF0EE482AB0EE493A06F01DFD40F64C
:102B6000A025C2F2000528460321B0EE4B0AF0EE84
:102B7000480AB0EE481AF0EE481AB0EE482AF0EED5
:102B8000482AB0EE493A06F007FD9FED53DAB6EE5B
:102B900000CA04F170001221B0EE4D0AF0EE480AAE
:102BA000B0EE4C1AF0EE481AB0EE482AF0EE482A81
:102BB000B0EE493A06F0F0FC07F170000321B0EEE8
:102BC0004B0AF0EE480AB0EE4C1AF0EE481AB0EE9E
:102BD000482AF0EE482AB0EE493A06F0DDFC06F14C
:102BE000E000B7EE001A0621B0EE4A0AF0EE480AFD
:102BF000F0EE481AB0EE482AF0EE482AB0EE493A14
:102C000006F0CAFC05F1E000BFEE081A0321B0EEA1
:102C10004B0AF0EE480AF0EE481AB0EE482AF0EE01
:102C2000482AB0EE493A06F0B7FC07F5A870122121
:102C3000B0EE4D0AF0EE480AB0EE4C1AF0EE481A2B
:102C4000B0EE482AF0EE482AB0EE493A06F0A4FC6D
:102C500004F5A870B7EE080A0321F0EE480AB0EEBA
:102C60004C1AF0EE481AB0EE482AF0EE482AB0EEC0
:102C7000493A06F091FC06F5A870B0EE001A06215C
:102C8000B0EE4A0AF0EE480AF0EE481AB0EE482AD2
:102C9000F0EE482AB0EE493A06F07EFC9FED0F0AAE
:102CA00005F5A870B8EE001A0321F0EE480AF0EE20
:102CB000481AB0EE482AF0EE482AB0EE493A06F03B
:102CC0006BFCBDEC0C8B01B0F0BD00BFDB0FC9404D
:102CD000000000006F12833AE4CB96413333333F58
:102CE00040F67C40C2F20000016940F2A442C2F208
:102CF00000029161816990ED010A806882ED130AFA
:102D0000906440F23050C2F20000006982ED150A72
:102D1000C2E90B10704700002DE9F04141F29A0022
:102D2000C2F20000017851BB40F67C4340F2A4425D
:102D3000C2F20003C2F200029F6993ED040A536CD1
:102D4000D7605361137892ED0C1A40F69067C2F287
:102D50000007012B4FF0000382ED020A82ED041AF6
:102D60003B6008D140F23053C2F200031B6982ED90
:102D7000041A136301E082ED020A0131017040F28E
:102D80001050C2F200000078012823D000285DD145
:102D900040F2A447C2F20007387801287ED000280C
:102DA00040F0FE8041F2B800C2F200000078032833
:102DB00000F0CC80012840F0F38040F6A450C2F22D
:102DC000000090ED020A90ED031A9FEDA92A9FEDF5
:102DD000A63A78E040F2A446C2F200063078002815
:102DE00042D140F24017C2F20007F8699FED9E0AF7
:102DF00001EE100AB4EE401AF1EE10FA34DD40F69E
:102E0000F050C2F200004068FEF748F99FED920BC7
:102E100053EC102BFEF735F840F69068C2F200082C
:102E20000446D8F800000D46FEF738F922462B4636
:102E3000FDF780FFFEF745F9C8F80000B86879682B
:102E4000C6E902010020C6E918007BE040F6906167
:102E5000C2F2000140F2A4400968C2F20000002260
:102E6000C0E90212BDE8F08141F2B800C2F20000F0
:102E70000078032830D001284ED140F6A450C2F289
:102E8000000090ED020A9FED781A90ED032A20EEE3
:102E9000010A86ED190A22EE010A3BE041F2B80070
:102EA000C2F200000078032862D0012878D140F6F1
:102EB000A450C2F2000090ED020A90ED031A9FEDBB
:102EC0006B3AB7EE082A20EE020A21EE031A87EDCC
:102ED000181A87ED190A63E040F6F051C2F20001BA
:102EE000D1E90004FEF7DAF89FED570B53EC102BF5
:102EF000FDF7C7FFFEF7E5F870662046FEF7CEF84F
:102F00009FED530B53EC102BFDF7BBFFFEF7D9F8E9
:102F100000EE100A86ED180A96ED180A96ED191AB9
:102F200096ED022A96ED033A96ED044A33EE411AE5
:102F300032EE402A34EE400A86ED022A86ED031A6C
:102F400086ED040A01207060BDE8F08140F6F05083
:102F5000C2F2000090ED000AB5EE001A406820EEC3
:102F6000010A87ED190AFEF799F89FED3D0B10E075
:102F700040F6F050C2F2000090ED000AB2EE001AE6
:102F8000406820EE010A87ED190AFEF787F89FEDE9
:102F90002E0B53EC102BFDF774FFFEF792F83866FA
:102FA00040F22810C2F2000090F91400B0F1FF3F87
:102FB00018DCD7E91840FEF771F89FED290B56ECA5
:102FC000105B2A463346FDF75CFFFEF77AF8786619
:102FD0002046FEF763F82A463346FDF752FFFEF718
:102FE00070F8386697ED191A97ED032A97ED053AB0
:102FF00097ED180A97ED044A31EE033A32EE411A82
:1030000087ED031A9FED1B1A34EE400AB4EE410A15
:1030100087ED040AF1EE10FA87ED053ABEBF0020F5
:10302000C4F20C20386197ED040A9FED131AB4EE38
:10303000410AF1EE10FAD8BFBDE8F0810020C4F2D9
:10304000A0203861BDE8F0819A9999999999B93F82
:103050007B14AE47E17A943F7B14AE47E17A84BF9C
:103060009A9999999999C93FCDCCCC3D0AD7A33C5F
:103070009A99993E00000C420000A04210B540F21F
:10308000105CC2F2000C9CF8000040F228110128EC
:10309000C2F200012FD0487D40F2A44240F22C5EE3
:1030A00010F00200C2F20002C2F2000E0ED09EF832
:1030B000003053B992ED030A9FED2A1A012330EE36
:1030C000010A82ED030A8EF8003010B900208EF854
:1030D000000013780020002B8CF800001EBF41F286
:1030E0009A03C2F200031870107040F21250C2F23C
:1030F000000002220270C97C61B3012930D140F284
:103100002D52C2F20002107808BB9CF8003040F249
:10311000A44E012BC2F2000E02D19EF8000028B18D
:1031200041F29A00C2F2000000240470581E4FF0D1
:10313000000318BF01208EF8003040F21253C2F293
:10314000000303248CF8000001201C70107000297B
:1031500018BF10BD40F22D50C2F2000000210170D6
:1031600010BD00BF0000344370B540F21050C2F2F1
:1031700000000078012845D140F24015C2F2000558
:10318000E86940F67C449FED522A01EE100AC2F233
:10319000000494ED060AB4EE421AF1EE10FA64DD72
:1031A00040F22076D4ED070AC2F2000606F5A870B8
:1031B00005F0C0FFE86896ED651A02EE100A40F6C9
:1031C000A02094ED020AC2F2000071EE020A00F59E
:1031D000A87005F0AFFFA86840F2605694ED040AAD
:1031E000C2F2000600EE900A06F5A87005F0A2FFF4
:1031F000286996ED651A94ED010A02EE100A71EE47
:10320000020A5CE040F2A444C2F2000440F22075DD
:10321000D4ED030A94ED0B0AC2F2000505F1E000BB
:1032200005F088FF40F6A02094ED120AD5ED490A7A
:10323000C2F20000E03005F07DFF40F26055D4EDB1
:10324000040A94ED0C0AC2F2000505F1700005F0C5
:1032500071FF40F6E00094ED150AD5ED2D0AC2F29B
:103260000000703005F066FF70BD40F2A445C2F268
:10327000000540F22076D5ED030AC2F2000606F5FD
:10328000A87005F057FF40F6A02094ED020AD6ED95
:10329000650AC2F2000000F5A87005F04BFF40F28D
:1032A0006054D5ED040A95ED0C0AC2F2000404F551
:1032B000A87005F03FFF95ED150AD4ED650A40F6BC
:1032C000E000C2F2000000F5A87005F033FF70BD09
:1032D000CDCCCC3D40F22810C2F2000090F908009D
:1032E00001281ED0032834D0022818BF704740F2AE
:1032F000A441C2F200010A7840F21050C2F200006C
:10330000012101702AB141F29A02C2F200020023A7
:10331000137040F21252C2F20002032313700170C4
:10332000704740F2105040F2A441C2F20000C2F2D5
:10333000000102780B781A4305D041F29A02C2F2DA
:103340000002002313700022027040F212500A7033
:1033500014E040F2A440C2F2000040F210520378A0
:10336000C2F200020021002B11701EBF41F29A022E
:10337000C2F200021170017040F21250C2F200005D
:10338000022101707047000080B540F21050C2F277
:103390000000007840F6E001012840F27430C2F2EB
:1033A0000000C2F2000123D140F24012C2F200023A
:1033B000936991ED650A01EE103A9FED312A30EEE6
:1033C000010A20EE020AB0EE081A80EE010A5169E5
:1033D00001EE101ABDEEC00A10EE102A028040F66F
:1033E000A022C2F2000292ED650A30EE010A14E05A
:1033F00091ED2D0A9FED221A40F6A02120EE010A40
:10340000B0EE081A80EE010AC2F20001BDEEC01A49
:1034100091ED490A11EE101A01809FED191AB0F9C9
:10342000041020EE010AB0EE081A80EE010A11F530
:10343000804FBDEEC00A10EE101A4180BCBF4FF4A1
:1034400040418180B0F90410B1F5804FC4BF4FF402
:103450008041818041F2B800C2F200000078022869
:1034600008BF80BD42F6A41040F27432C2F20000E0
:10347000C2F200024FF4FF7105F0E4FA80BD00BF14
:103480000000804640F28C40C2F20000817840F695
:103490006842C078C2F2000201391378B1FA81F1B2
:1034A0000138490903F0FC03B0FA80F019444009DF
:1034B00041EA40001070704780B540F2A440C2F26B
:1034C00000008169D0E90B2308300EC040F274324D
:1034D000C2F200020020106042F6A410C2F2000006
:1034E0004FF4FF7105F0AEFA80BD000040F6604475
:1034F00041F26C1540F21156C2F20004C2F200050E
:10350000C2F2000610E000BFFFF7A6FAFFF704FCC6
:10351000FFF7E6FBFFF728FEFFF736FFFFF7B2FFE6
:10352000204601210AF0B8FF0BF010FE2978206038
:103530000129E9D03078002808BFFFF7A7FA05F085
:1035400073F9EDE790F82020013A012A04D80068C9
:1035500000F11402002004E000F1240201204FF4E5
:1035600080211368194311607047000010B590F86E
:1035700020E0D0F800C0AEF1010EBEF1010FDCF882
:1035800008E00ED81EF0E05F11D0CEF3016E0120EE
:1035900000FA0EF018608B687BB1486843EAC003FC
:1035A0000DE000F1240101204FF4802223E000F11E
:1035B000240101204FF400121DE008684305D1E901
:1035C000030403430CEB0E10C0F88031C0F88441B3
:1035D000097D012905D100F5C2710B6843F48073A0
:1035E0000B605168C0F88C11126800F5C071C0F80A
:1035F0008821002001220B681A430A6010BD0000D8
:10360000B0B590F82020013A012A2FD846F2006088
:10361000C4F20000026842F001020260026822F473
:103620007C520260D1F814E0CC694A6A0368012C2C
:1036300043EA022202600EF01F024FF0010303FA78
:1036400002F2C3696FEA020C23EA0203C36113D0DA
:103650002CBBC36803EA0C03C360CB688C8844EAC4
:10366000034300EBCE0423640B4611E0416A41F4AE
:10367000802141620120B0BDC3681343C3600B6861
:103680008C8844EA034300EBCE04236401F10C036D
:103690008C681B8843EA044300EBCE0463644368F0
:1036A0008D6943EA0204D1F810E0096A002D08BFD1
:1036B00003EA0C0444604369BEF1000F43EA0204CC
:1036C00008BF03EA0C040129446102D1C169114316
:1036D000C161016821F0010101600020B0BD00005E
:1036E0007047000010B590F82040013C012C0AD82A
:1036F000046871B12469A4070ED100F124010120EE
:103700004FF4001276E000F1240101204FF48022F2
:1037100070E0E468A40771D0046804EB011CDCF8D5
:10372000B0410CF5D87E14F004049460DCF8B0418C
:1037300019BFE4085460640D1460DEF800400CF515
:10374000DA7E04F00204D460DCF8B44124075ABFE6
:10375000DEF8004004F00F0408241461DEF8004095
:103760000029C4F307249461DEF800404FEA1444B2
:103770005461DCF8B8211A70026802EB0112D2F829
:10378000B8214FEA12225A70026802EB0112D2F8F5
:10379000B8214FEA12429A70026802EB0112D2F885
:1037A000B8214FEA1262DA70026802EB0112D2F815
:1037B000BC211A71026802EB0112D2F8BC214FEA57
:1037C00012225A71026802EB0112D2F8BC214FEAB0
:1037D00012429A71026802EB0112D2F8BC214FEA40
:1037E0001262DA71006814BF00F1100100F10C01DF
:1037F000002020220B681A430A6010BD00F124014A
:1038000001204FF40012F5E72DE9F04F81B0044696
:1038100000684669D0F804908768D0F80CB0D0F8FA
:1038200010A0D0F81880F10703D1002530071CD470
:1038300023E0F90710D00121BA07816009D4780785
:1038400000F1AA80380700F1B080204600F0E4FAC9
:1038500002E0204600F0E2FA0025F80500F184803D
:10386000F80300F1AA80300707D51BF0100004D040
:10387000206845F400751021C160700708D51BF061
:10388000080005D020680821C160204600F0E4F956
:10389000B00706D52068C068800702D0204600F037
:1038A000DDF9700607D51AF0100004D0206845F441
:1038B000806510210161B00608D51AF0080005D016
:1038C000206808210161204600F01EFAF00606D5A6
:1038D00020680069800702D0204600F017FAB00384
:1038E00008D519F0100005D020681021416020464D
:1038F00000F062FAF00308D519F0080005D020683E
:1039000008214160204600F093FA300440F18F8096
:103910005FEA497040F1888006F4807008EA102060
:1039200028435FEA8871014648BF41F00201B205B1
:1039300058BF01465FEA48700D4648BF45F0040590
:10394000700558BF0D4630056ED518F070006BD06D
:1039500010380009052862D8DFE800F003535659F3
:103960005C5F45F008055AE020684FF48071BA05A5
:1039700081600AD4780512D4380519D4204600F0A5
:103980004FFAF8037FF56FAF17E0204600F04AFAD0
:10399000F8037FF568AF10E04FF400655DE705F5CB
:1039A0000055F8037FF55FAF07E04FF4805554E70B
:1039B00005F58045F8037FF556AF20684FF4803158
:1039C000BA0381600AD478030FD4380313D4204695
:1039D00000F02AFA30073FF548AF4EE7204600F0E6
:1039E00025FA30073FF541AF47E705F500453007B9
:1039F0003FF53BAF41E705F5803530073FF535AF83
:103A00003BE745F010050AE045F0200507E045F0EA
:103A1000400504E045F0800501E045F4807520682C
:103A2000816921F0700181612068042141602DB11C
:103A3000606A284360622046FFF752FE01B0BDE88D
:103A4000F08F0000B0B5C8B1044690F8200010B95E
:103A5000204600F071F82068016841F00101016022
:103A600000F092FC054600BF20684168C90707D1F5
:103A700000F08AFC401B0B28F6D312E00120B0BDF9
:103A8000016821F00201016000F07EFC054600BFE4
:103A90002068416889070DD500F076FC401B0B2893
:103AA000F6D3606A052140F400306062012084F89A
:103AB0002010B0BD217E0268012922F0800208BFDB
:103AC00080320260617E0268012922F0400208BF54
:103AD00040320260A17E0268012922F0200208BF64
:103AE00020320260E17E0268012922F0100218BF34
:103AF00010320260217F0268012922F0080208BF0B
:103B000008320260617F0268012922F0040208BFC6
:103B100004320260D4E901C2D4E9033561691A4371
:103B20002A431143ACF101021143C161002001217C
:103B3000606284F82010B0BD10B586B0006846F60B
:103B40000002C4F2000200219042CDE90411CDE947
:103B50000211019134D046F20041C4F200018842C2
:103B600077D140F67841C2F200010A6843F640007E
:103B7000C4F20200531C0B6052B90021009101688D
:103B800041F000710160016801F00071009100993D
:103B90000021009150F8101C142441F0080140F855
:103BA000101C50F8100C00F0080000900098032042
:103BB000019040F20040C4F2020000F5006035E0E0
:103BC00043F64000C4F202000091016841F08061B8
:103BD0000160016801F080610091009940F6784130
:103BE000C2F200010A68531C0B6052B90021009117
:103BF000016841F000710160016801F000710091FD
:103C000000990021009150F8101C412441F002015C
:103C100040F8101C50F8100C00F0020000900098C2
:103C20006020019040F20040C4F2020002210291A3
:103C300000210391032104910921059101A900F0BC
:103C4000CFFA20460521002200F04CFC204600F06F
:103C500045FC06B010BD00007047000080B500684C
:103C600046F20041C4F20001884200D080BD42F615
:103C70007C1040F23431C2F20000C2F20001FDF7C4
:103C8000EBFC80B240F20321884219D040F20221BD
:103C9000884228D040F20121884218BF80BD40F6FA
:103CA000A46040F23431C2F20000C2F2000104F01C
:103CB000ADF940F69860C2F20000FEF749FE80BD03
:103CC00041F2FC00C2F2000040F234312C30C2F26A
:103CD000000105F071FD41F2E000C2F200000C307D
:103CE000FEF736FE80BD41F2FC0040F23431C2F2F4
:103CF0000000C2F2000105F05FFD41F2E000C2F2F7
:103D00000000FEF725FE80BD7047000010B500687A
:103D100046F60001C4F20001884200D010BD40F216
:103D20003C3442F6A410C2F20004C2F20000214664
:103D3000FDF792FC80B240F20621884217D040F293
:103D40000521884226D040F20111884218BF10BDDB
:103D5000206841F2AC02C2F200026168106040F2D9
:103D60009840C2F200005160FEF7F2FD10BD40F233
:103D70003050C2F2000040F23C311830C2F2000173
:103D8000FEF7F4FD40F21450C2F200000C30FEF7D2
:103D9000DFFD10BD40F2305040F23C31C2F2000075
:103DA000C2F20001FEF7E2FD40F21450C2F2000040
:103DB000FEF7CEFD10BD000070470000B0B5044610
:103DC00090F8200001281DD1022084F820002068EE
:103DD000016821F00101016000F0D6FA054600BF3C
:103DE00020684068C00713D000F0CEFA401B0B28B3
:103DF000F6D3606A40F400306062052084F8200049
:103E00000120B0BD606A40F4002060620120B0BDB6
:103E100000206062B0BD00007047000070470000E5
:103E200070470000704700007047000070470000B6
:103E30007047000070B5866D044600F0A5FA94F84E
:103E40003510022925D105462068216C026822F030
:103E500016020260426922F08002426109B9A16C37
:103E600019B1016821F008010160016821F0010128
:103E7000016000BF20680068C0070ED000F084FA1F
:103E8000401B0628F6D320206065032084F8350007
:103E90000CE080206065012008E0E06D3F2101FA20
:103EA00000F0B060012084F835000020002184F883
:103EB000341070BD90F83510022909D1052180F821
:103EC00035100068016821F0010101600020704791
:103ED0008021416501207047F0B581B00446002083
:103EE000009040F2E010C2F200000268D4E91660CF
:103EF00048F2B51337680821C1F64E338140394284
:103F0000A2FB03250CD0226813685B0708D5136851
:103F100023F004031360B160616D41F0010161653C
:103F200001218140394208D022685269120604D525
:103F3000B160616D41F00201616504218140394247
:103F400008D022681268920704D5B160616D41F013
:103F50000401616510218140394215D02068026852
:103F6000120711D5B16002680168520306D4C90571
:103F700006D4016821F00801016001E0080342D481
:103F8000216C09B120468847E16D202000FA01F23A
:103F90003A4244D020680368DB0640D5B26094F80A
:103FA00035300268052B1ED122F0160202604269EC
:103FB00022F080024261226C0AB9A26C1AB1026836
:103FC00022F0080202603F208840B060012084F89F
:103FD0003500216D0020002984F8340040D02046AF
:103FE000884701B0F0BD0168520310D4C90512D44E
:103FF000016821F010010160012084F835000020E3
:1040000084F8340007E0A16C0029BBD1BCE70803A9
:1040100001D4616C00E0E16B09B120468847606D16
:10402000F0B1606DC00717D0052084F83500206816
:10403000A90A026822F00102026000BF009A013260
:104040008A42009202D80268D207F7D1012084F890
:104050003500002084F83400E16C09B1204688471F
:1040600001B0F0BD2DE9F041044600F08DF9C4B176
:104070000546022084F835000020216884F83400C9
:10408000086820F00100086026683068C0070BD07F
:1040900000F07AF9401B0528F6D9032120220320DD
:1040A00042E00120BDE8F081306848F23F01CFF2E4
:1040B0001001251D00EA010C2ECDD4E9050E41EAC0
:1040C0000C01114319432943D4E90778084340EA16
:1040D0000E01606A3943042841EA080103D1D4E99A
:1040E0000B231143194331607169042821F0070142
:1040F00041EA00050CD1D4E90A1045EA010538B1BE
:104100002046FEF7C9F918B10121402201200BE039
:1041100020467561FEF7A2F9E16D3F2202FA01F136
:104120008160002201210020626584F83510BDE81D
:10413000F0810000B0B5044690F83400012828D082
:10414000012084F83400A56D94F8350001281DD1B4
:10415000022084F83500002060652046FEF7C4F98F
:10416000E26D3F23206803FA02F2216CAA60026824
:1041700042F01602026019B1016841F008010160C5
:10418000016841F0010101600020B0BD002084F809
:1041900034000220B0BD0000B0B5044600F0F4F8D1
:1041A000054640F2B920C2F200000078611C18BF39
:1041B000044400BF00F0E8F8401BA042FAD3B0BDB1
:1041C0007047000080B543F61441C4F201010A684B
:1041D000024208BF80BD0860FFF7F2FF80BD00000B
:1041E0002DE9F04F83B000F13E4202F1FF724FEA39
:1041F000B22241F600470192C4F2020708224FF0B2
:10420000010E00254FF0000A4FF00008B84208BF29
:10421000072200920AE000BF08F101080AF1040A2F
:10422000B8F1100F05F1020500F0A4800C680EFA39
:1042300008FB14EA0B09EFD04C6804F0030CACF156
:10424000010EBEF1010F11D80322876802FA05F6AC
:10425000CA68B743AA403A4382604268C4F3001771
:1042600022EA0B0207FA08F73A434260BCF1030F57
:104270001CD0C26803238E6803FA05F7BA4306FA16
:1042800005F73A43BCF1020FC2600FD16FF0030291
:1042900002EA580202440AF01C060F23176A03FAC6
:1042A00006F40B69A743B3403B4313620268032340
:1042B0004F68AB409A4307F00303AB401A4317F42F
:1042C000403F4FF0010E0260A6D0002243F64403A7
:1042D0000292C4F202031A6843F6004442F4804298
:1042E0001A601A68C4F2010402F480420292029A2F
:1042F00028F003024FF6084B2244CFF6FF7B52F81A
:104300000B300AF00C070F26BE4023EA060C019B77
:10431000009E072B38BF1E4606FA07F747EA0C0334
:1043200042F80B30A2684B6842EA090743F60C4C8E
:10433000DE0258BF22EA0907A760C4F2010CDCF8CC
:1043400000209E0242EA090758BF22EA0907CCF87A
:10435000007062689E0342EA090758BF22EA090713
:1043600067602268DB0342EA090358BF22EA0903B7
:10437000236051E703B0BDE8F08F0000002A08BFBA
:10438000090481617047000049F6CC00C2F20000C8
:104390000068704740F2B92049F6CC01C2F2000033
:1043A000C2F2000100780A681044086070470000FB
:1043B00080B543F60040C4F20200016841F4007188
:1043C0000160016841F480610160016841F480711D
:1043D0000160032000F096F8002000F005F800F0DE
:1043E00059F8002080BD000070B586B0002543F666
:1043F00040010195C4F202010A68044642F001023C
:104400000A60096801A801F001010191019969465A
:1044100000F0C4FE049E002E18BF012600F0E4FE4A
:104420004DF68361B040C4F21B31A0FB01014FF097
:10443000FF3000EB914143F24010C2F200004FF018
:10444000804240F2E733C0E90021C0E90253056130
:10445000856101F083FB0546C0B943F24010C2F20A
:10446000000001F0E3FB054680B91C2000F036F89F
:104470000F2C0AD81C202146002200F033F840F20D
:10448000BC20C2F20000046000E00125284606B00E
:1044900070BD000080B582B0002043F6400101905D
:1044A000C4F202014A6842F480424A604A6802F457
:1044B00080420192019A00900868002240F08050EA
:1044C000086008680F2100F08050009000986FF09D
:1044D000010000F007F802B080BD000080B508F0D0
:1044E00097FB80BD70B514460D46064608F0A0FB4C
:1044F0002946224604F0F4FB0146304608F0A0FBB2
:1045000070BD000080B508F0B5FB80BD70470000AD
:10451000026800205162704710B5D0F800C0DCF886
:104520002400D9B1DCF82830B1F1010E00EB1343BF
:104530000CD00021002000BF0CEB8101D1F8044118
:104540000130C1B28E4503EB1443F5D843EA024073
:104550000CEB8E01C1F80401002010BD40EA0240BE
:10456000CCF82800002010BD80B5D0F8E00407F09A
:1045700057F980BD80B501EBC102D0F8E03400EB03
:104580008200026A184607F0B5F880BD80B501EBDD
:10459000C102D0F8E03400EB8200D0F86022184667
:1045A00007F002F980BD000080B5D0F8E00407F004
:1045B00039F980BD80B501F00F0202EBC20200EBB9
:1045C000820303F114020906006858BF03F515724F
:1045D000114607F0D7FF80BD10B50446080601F06C
:1045E0000F0000EBC00104EB810205D402F5157148
:1045F000002382F8553203E0012302F114015375C0
:1046000094F894240870012A04BF022010BD206889
:10461000012284F8942407F027FD002084F89404F4
:1046200010BD0000B0B50279044601F00F009042C1
:1046300084BF0120B0BD090609D400EBC00104EB22
:10464000810202F51571002382F8553207E000EB74
:10465000C00104EB8102012302F11401537594F8A7
:1046600094240025012A8D70087004BF0220B0BD7B
:104670002068012284F8942407F04AFE284684F832
:104680009454B0BD01F00F0101EBC10100EB8100BA
:10469000D0F8680270470000B0B50546080601F082
:1046A0000F0000EBC00105EB810C05D40CF5157172
:1046B00000248CF8554204E001240CF114018CF81C
:1046C00015404C786FF3DF22002C08708A600B7164
:1046D00018BF4883022B04BF0020487195F894044A
:1046E000012804BF0220B0BD2868012285F8942467
:1046F00007F0F4FB002085F89404B0BD10B501F07C
:104700000F0404EBC40100EB810E4FF0000CCEF857
:1047100068C28EF855C290F806C0CEF86022CEF876
:104720006432BCF1010F8EF8544208BFCEF87022FB
:1047300000680EF51571624607F03AFE002010BDC4
:10474000B0B50446007901F00F05854284BF012011
:10475000B0BD080609D401EBC10004EB800000F5F0
:104760001571002280F8552207E005EBC50004EB27
:104770008000012200F11401427594F89404012292
:1047800001288A700D7004BF0220B0BD206884F833
:10479000942407F0E5FD2DB92068A17904F29C422C
:1047A00007F088FD002084F89404B0BD80B501F0C6
:1047B0000F0C0CEBCC0100EB810E714601F814CF0D
:1047C0004FF0000CC1F814C04FF0010C81F801C08B
:1047D00090F806C0CA60BCF1010F0B6108BFCEF8AB
:1047E00030200068624607F0E3FD002080BD000035
:1047F0002DE9F04F83B006688346304607F064FF2A
:1048000010B103B0BDE8F08FDBF8000007F08AFFBD
:104810000028F6D0D6F80808C0F30D21DBF8000018
:10482000CBF8D41407F07EFF800705D5DBF8000035
:10483000416901F002014161DBF8000006F5006703
:1048400007F070FFC00640D5DBF80000816921F059
:1048500010018161346AC4F34340062804F00F0557
:104860001CD002282BD147F6F070044027D005EB6E
:10487000C5000BEB8005D5F860122209304607F021
:1048800055FFD5F86002D5F8681200EB1410C5F892
:10489000600201EB1410C5F8680210E00BF29C41B5
:1048A0003046082207F042FF05EBC5000BEB800005
:1048B000D0F86812C4F30A121144C0F86812DBF889
:1048C0000000816941F010018161DBF80000CDE951
:1048D000017607F027FF00035ED5DBF8000007F044
:1048E000FFFE002858D0064602984FF0000900F558
:1048F000306440F25725002717E000BF0220A06077
:104900005FEA8A6044BF2020A0605FEA8A4044BF1B
:104910004FF40050A0600137B9EB560F4FEA56062E
:1049200004F1200405F1240536D0F007F3D0DBF8BC
:1049300000005FFA87F8414607F0ECFE8246C007A8
:1049400005D00120A0605846394604F01FFB5FEAFD
:104950000A7005D50820A0605846394604F0F0FAE0
:104960005FEACA6044BF1020A0605FEA8A70C7D5C2
:1049700002984069000604D50199486840F48060B7
:1049800048601BF805000128B8D1584641460BF88D
:10499000059000F00DFAB1E7DBF8000007F0C2FE69
:1049A000400372D5DBF8000007F092FE00286CD0BF
:1049B00006460BF29C40009002980BF1170800F598
:1049C00010644FF0000900270AE000BF0137B9EB7F
:1049D000560F4FEA560604F1200408F1240854D07B
:1049E000F007F3D0DBF800005FFA87FA514607F0D2
:1049F0007FFE0546C00723D0019A07F00F00516BD8
:104A0000012303FA00F021EA00005063A3609BF841
:104A10000600012810D1D8F80500D8F8091008447C
:104A2000C8F8090047B9D8F80D0028B9DBF800002C
:104A3000009A012107F03EFC58465146FFF79AFDC7
:104A4000280744BF0820A060E80644BF1020A060EB
:104A5000680644BF4020A060A8070FD502983946D9
:104A600007F000FE98F80000012805D1584651468D
:104A700088F8009000F096F90220A0602806A5D5DD
:104A80005846394604F0EEFAA0E7DBF8000007F0DC
:104A900049FEDDE90198B0F1FF3F1ADCD9F80400C6
:104AA00020F00100C9F804009BF8CC04012807D1CC
:104AB00000208BF8CC0458460021FFF727FD02E0C8
:104AC000584600F057FADBF80000416901F0004158
:104AD0004161DBF8000007F025FE00050CD5D9F890
:104AE0000800C00702D0584600F08EFADBF800003C
:104AF000416901F400614161DBF8000007F012FE3A
:104B0000C00460D5D9F80400102120F00100C9F8D4
:104B10000400DBF8000007F0A5FD9BF80400F8B1E5
:104B20009BF8041008F5106000224FF67F3300BF99
:104B300083600768013227F400170760C0F8083265
:104B4000D0F800728A4227F40017C0F80072D0F83B
:104B5000007247F00067C0F8007200F12000E7D350
:104B6000D9F81C0040F00110C9F81C009BF80F0098
:104B700040B1D9F8840040F00B00C9F8840009F175
:104B8000440008E0D9F8140042F22B010843C9F8A8
:104B9000140009F1100001680BF29C4241F00B0176
:104BA0000160D9F8000020F4FE60C9F80000DBF8CD
:104BB00000009BF8061007F07DFBDBF80000416960
:104BC00001F480514161DBF8000007F0ABFD800487
:104BD0001CD5DBF8000007F0CDF9DBF8000007F08A
:104BE00065FDDBF800408BF8070000F0F7FA9BF852
:104BF00007200146204607F013FE584600F0A8F9AA
:104C0000DBF80000416901F400514161DBF800006C
:104C100007F088FD000708D5584600F0B1F9DBF829
:104C20000000416901F008014161DBF8000007F074
:104C300079FD00061ED5D8F8180020F08000C8F8CD
:104C400018009BF80400022814D3012440F27B25AD
:104C500007E000BF9BF804000134844205F12405FD
:104C600008D21BF805000128F4D1E1B25846FFF73D
:104C7000A1FCEFE7DBF8000007F054FDC00229D5E6
:104C80009BF8040002281FD308F512640BF13C05C1
:104C90000126012708E000BF9BF8040001372034FB
:104CA000874205F124050FD22068B0F1FF3FF3DC05
:104CB00028780128F0D147F08000C1B2584605F8A5
:104CC000016CFFF777FCE7E7DBF80000416901F4CE
:104CD00080114161DBF8000007F024FD80023AD525
:104CE0009BF80400022830D308F532600BF51F71E1
:104CF0000122012308E000BF9BF80470013320303B
:104D0000BB4201F1240120D20768B7F1FF3FF3DC79
:104D10000E78012EF0D1DBF8D46407F4803706F06A
:104D20000106B742E8D101F8012CD8F8187047F015
:104D30008007C8F81870D8F814703F06DCD4D9F88A
:104D4000040040F40070C9F80400DBF80000416979
:104D500001F400114161DBF8000007F0E3FC4000C2
:104D600008D55846FFF700FCDBF80000416901F068
:104D700080414161DBF8000007F0D4FC40077FF57B
:104D800040ADDBF800004468600702D55846FFF7E5
:104D90000BFCDBF8000041682143416003B0BDE833
:104DA000F08F000080B5D0F8E00406F097FD80BDDC
:104DB00080B5D0F8E00406F0A5FD80BDB0B582B0A6
:104DC00008B30446056890F8950428B9002084F8D3
:104DD0009404204600F078F80320B5F1A04F84F841
:104DE000950404BF0020A071206807F05BFA94E8E6
:104DF0000F00257C009507F0CDF830B1022084F833
:104E0000950401255CE001255AE02068002107F0A7
:104E1000B9FC20B1022084F89504012550E094F8F3
:104E200004C0BCF1000F1DD094F804C04FF0010E77
:104E30006046BCF1010F98BF704600EBC0008200D5
:104E400000230025002000BF611924350875C8859E
:104E5000AA4200F1010081F815E00B76C1E90733A1
:104E60004B62F1D1BCF1000F16D00CEBCC008000EE
:104E700000210022002300BFA518243285F85432F7
:104E8000904203F1010385F8551285F85812C5E9DF
:104E90009711C5F86412EFD194E80F00257C0095B6
:104EA00007F04CF920B1022084F89504012507E0B1
:104EB00000250120657484F89504206807F02EF918
:104EC000284602B0B0BD0000B0B586B0006800242E
:104ED000B0F1A04F0594CDE903440294019401D0B0
:104EE00006B0B0BD43F630050094C4F20205286850
:104EF00001A940F001002860286800F0010000903E
:104F000000984FF4C05001900220CDE90204032024
:104F100004900A2005900020C4F20200FFF760F917
:104F20006868052140F0800068600094686900228C
:104F300040F480406861686900F480400090009807
:104F40004320FFF7CFFA4320FFF7C8FA06B0B0BD01
:104F500010B5C179044621B1022918BFFDF744FC00
:104F60000121D4F8E00406F03FFDD4F8E00406F097
:104F7000F1FC10BD80B5D0F8E00406F01DFD80BD49
:104F800080B5D0F8E00406F021FD80BD10B50446E0
:104F900090F89404012804BF022010BD012084F879
:104FA00094046174206807F021FC002084F89404C4
:104FB00010BD000080B5D0F8E02400F29C411046FE
:104FC00006F01EFD80BD000010B5044690F8940464
:104FD000012804BF022010BD2068012184F8941428
:104FE000C168490606D5617B012903D1816B41F473
:104FF0008031816307F00AFB206807F07FF800200A
:1050000084F8940410BD000010B50446D0F8E00404
:1050100006F032FD2068D0F8001E41F00101C0F812
:10502000001EE07A002808BF10BD4EF61050CEF2E8
:105030000000016841F00601016010BD2DE9F0415A
:10504000002800F08B8043F60808C4F202080446EA
:10505000D8F8F8030D4600F00700884207D288F818
:10506000F853D8F8F80300F00700A84276D120687A
:10507000810717D5410705D5D8F8001041F4E05154
:10508000C8F80010010705D5D8F8001041F46041B8
:10509000C8F80010D8F80010A26821F0F001114300
:1050A000C8F80010C0073FD1D8F8F80300F0070097
:1050B000A84207D988F8F853D8F8F80300F0070099
:1050C000A8424BD12068410707D5D8F80010E26804
:1050D00021F4E0511143C8F80010000708D5D8F8B2
:1050E0000000216920F4604040EAC100C8F80000D7
:1050F00000F09EF8D8F8001040F21C42C1F30311F2
:10510000C0F60102515C40F2E01220FA01F140F2D7
:10511000BC20C2F200000068C2F200021160FFF77A
:1051200063F90020BDE8F0816068811E022907D282
:1051300058F8081C89015CBF0120BDE8F08110E02F
:10514000012807D158F8081C89035CBF0120BDE87D
:10515000F08106E058F8081C890702D40120BDE858
:10516000F081D8F8001021F003010843C8F80000CE
:10517000FFF70AF9064641F2883700BFD8F8000069
:10518000616800F00C00B0EB810F8DD0FFF7FCF8E8
:10519000801BB842F2D90320BDE8F0810F220260E3
:1051A00043F60802C4F20202136803F003034360EB
:1051B000136803F0F0038360136803F4E053C360E3
:1051C000D2F800C04FF4E05303EADC030361D2F8E5
:1051D000F80300F0070008607047000040F2E0109C
:1051E000C2F200000068704780B5FFF7F7FF43F692
:1051F0000801C4F20201096840F22C42C1F3822185
:10520000C0F60102515CC84080BD000080B5FFF7C8
:10521000E5FF43F60801C4F20201096840F22C429E
:10522000C1F34231C0F60102515CC84080BD0000AC
:1052300010B543F60404C4F20204606800F00C00E8
:1052400008280AD0042819BF42F20040C0F2F40036
:1052500041F60030C0F2B70010BD20682168236815
:10526000490241F60031C0F2B70100F03F02C3F33A
:1052700088105CBF42F20041C0F2F401A1FB0001C2
:105280000023FBF7F1FC21680222C1F3014102EB8C
:105290004101B0FBF1F010BD2DE9F04182B00028D2
:1052A00000F0A2800446007843F60006C007C4F26E
:1052B000020643D0B06800F00C00042805D1306825
:1052C00080033BD56068C8BB8EE0B06800F00C007E
:1052D000082802D170684002F1D46568B5F5A02FA6
:1052E0000AD0B5F5803F0BD0306820F480303060B4
:1052F000306820F4802006E0306840F48020306080
:10530000306840F480303060FFF73EF8002D0546ED
:1053100011D000BF3068800310D4FFF735F8401B70
:105320006428F7D922E100BFFFF72EF8401B64285C
:105330004FF0030055D830688003F5D420788007FB
:105340001AD5B06810F00C0F09D0B06800F00C004E
:10535000082840F08A807068400200F1868030683A
:10536000800702D5E06801283ED13068216920F02D
:10537000F80040EAC10030602078000738D4207877
:1053800040074CD4A5695DB3B06800F00C00082854
:1053900040F09E80012D27D07068E16900F4800202
:1053A0008A4221D1216A00F03F028A421CD147F68D
:1053B000C071626A0140B1EB821F15D1A26A00235D
:1053C000CFF6FF7303EBC23200F440316FF30F02EC
:1053D000914209D1E16A00F07060B0EB016F03D136
:1053E000002002B0BDE8F081012002B0BDE8F081EC
:1053F0006069002840F20000C4F2472057D0012124
:10540000C0F8801EFEF7C0FF054600BF706F800722
:10541000B5D4FEF7B9FF401B0228F7D9A6E0306CDF
:1054200010F080580AD100200190306C40F080507C
:105430003064306C00F080500190019847F2000712
:10544000C4F200073868C00524D4386840F480707E
:105450003860FEF799FF05463868C0051AD4FEF794
:1054600093FF401B0228F7D980E0E068002851D064
:105470000020C4F2472001210160FEF785FF0546A8
:10548000306880073FF571AFFEF77EFF401B0228B2
:10549000F6D96BE0A568052D50D0012D52D0306FA4
:1054A00020F001003067306F20F004004DE0002153
:1054B000C0F8801EFEF768FF054600BF706F8007CA
:1054C0007FF55DAFFEF760FF401B0228F6D94DE087
:1054D0000027C4F2472700203866FEF755FF022D4B
:1054E00005460BD13068800158D5FEF74DFF401BB3
:1054F00002284FF00300F5D973E700BF3068800140
:105500007FF56EAFFEF740FF401B02284FF003000F
:10551000F4D966E70020C4F2472000210160FEF7BD
:1055200033FF0546306880077FF526AFFEF72CFF76
:10553000401B02284FF00300F4D952E7306F40F0CF
:1055400004003067306F40F001003067FEF71CFF49
:10555000002D054641F2883714D000BF306F800718
:1055600013D4FEF711FF401BB842F7D9032002B055
:10557000BDE8F081FEF708FF401BB8424FF0030082
:105580003FF62FAF306F8007F4D4B8F1000F7FF4EF
:10559000F9AE306C20F080503064F3E604F11C0565
:1055A0002FCD08430021CFF6FF7140EA821001EBB6
:1055B000C3316FF30F0140EA0560084370600120BA
:1055C0003866FEF7E1FE0446306880013FF508AF1B
:1055D000FEF7DAFE001B02284FF00300F4D900E7C3
:1055E0007047000010B50446006841688A0615D46B
:1055F0004A0615D4C90710D0016821F008010160DE
:105600008168E1606079042808BF10BD01206071E5
:1056100000202071204600F04DF810BD102000E061
:105620000820A060042060712046FFF7D9FF2068A1
:105630006FF06001416010BD002804BF0120704779
:1056400010B50446407920B900202071204600F0B2
:105650000DF8022060712068016841F004010160CA
:10566000012060710020A06010BD000080B582B0F4
:10567000006840F60001C5F20601884201D002B080
:1056800080BD0020019043F63400C4F2020001689E
:10569000002241F0400101600068052100F0400057
:1056A000019001985020FEF71DFF5020FEF716FFD5
:1056B00002B080BD7047000070B538B10446406A42
:1056C00030B10020206104F1140007E0012070BD1A
:1056D0006068B0F5827F03D004F11C0000210160F6
:1056E0000026A66294F8510020B9204684F8506044
:1056F00000F03CF8022084F8510094E80F0001F417
:105700008271056802F4044225F0400505601144E9
:1057100003F400622369114403F002026369114437
:1057200003F00102A369E569114403F40072114416
:1057300005F03802256A114405F08002A56A11437C
:1057400005F4005211430160626A042101EA134129
:1057500002F0100211444160C16921F40061C1618D
:105760000120666584F85100304670BD2DE9F04F88
:1057700087B0044643F200070068C4F20107002620
:10578000B8420696CDE904660396029602D007B0A9
:10579000BDE8F08F43F630000196C4F20200416983
:1057A00002AD41F48051416141694FF0020901F4B9
:1057B000805101910199019601684FF0010A41F071
:1057C0000201016001684FF0030B01F00201019139
:1057D0000199019601684FF0050841F0010101604F
:1057E0000068294600F001000190019818200290FD
:1057F00007F55440CDF80C90CDF810A0CDF814B0BA
:10580000CDF81880FEF7ECFC802002A981E8010E9B
:10581000CDF8188046F2404807F550402946C4F2BA
:105820000208FEF7DDFC42F6CC15C2F200054FF48B
:1058300040304FF0C0674FF48069C5E9080628463C
:10584000C5E90087C5E90266C5E90496C5E90666AB
:10585000FEF708FC002818BFFCF7C6FFE564AC6340
:1058600042F62C2508F11800C2F200054021C5E9D6
:10587000000705F10800002280E806024FF400301E
:10588000C5E908022846C5E90522EA61FEF7EAFBF8
:10589000002818BFFCF7A8FFA564AC6307B0BDE8FB
:1058A000F08F00002DE9F04381B01E4615460F46EB
:1058B0000446FEF769FD94F851108146012909D08C
:1058C0006068B0F5827F14D104294FF0020007D13F
:1058D000A16829B9002F4FF0010018BF002D02D197
:1058E00001B0BDE8F083002EFAD094F850000128F2
:1058F00003D1022001B0BDE8F083012084F85000FC
:1059000094F85100002104281CBF052084F85100A0
:105910006165A563E687A6872763E6862068A68675
:10592000216461640168490603D4016841F04001C3
:1059300001606168731EE268B1FA81F1B3FA83F322
:10594000DDF8208049095B09B2F5006F41EA0301E7
:1059500039D139B1216B0988C160B81C2063E08E50
:105960000138E086012608F1010500BFE08E10B97C
:10597000E08F00286CD02068816889070CD5E18E03
:10598000012E09D141B1216B002631F8022BC260F2
:105990002163E18E0139E1868168C9070AD0E18F70
:1059A00041B1C068A16B012621F8020BA163E08F11
:1059B0000138E087FEF7E8FC002DD7D0A0EB090006
:1059C0004045D3D33AE039B139780173206B0130C7
:1059D0002063E08E0138E086012608F1010500BF52
:1059E000E08E08B9E08F98B32068816889070DD5EB
:1059F000E18E012E0AD149B1216B0026097801738D
:105A0000206B01302063E08E0138E08620688168D9
:105A1000C9070BD0E18F49B1C068A16B012608709E
:105A2000A06B0130A063E08F0138E087FEF7ACFC8B
:105A3000002DD5D0A0EB09004045D1D3012084F83A
:105A40005100002084F85000032001B0BDE8F0832D
:105A5000204641464A4603F0D5FF40B1202060650C
:105A6000002084F85000012001B0BDE8F083A06858
:105A700038B9002000902068C168009180680090CB
:105A80000098012084F85100002084F85000606DD7
:105A9000002818BF012001B0BDE8F0837047000066
:105AA0007047000010B590F83C20012A4FF0020228
:105AB00052D0012380F83C3080F83D200268D2F8B3
:105AC00004E0D2F808C00C682EF07003234341F2C2
:105AD000FF74C4F20004A24253600DDC40F2FF7375
