:020000040800F2
:1000000090240120A1010008758D00085D69000899
:10001000D98A00082116000825CB0008000000003E
:10002000000000000000000000000000319C0008FB
:10003000B52800080000000051960008B1A400088F
:10004000BB010008BB010008BB010008BB010008A0
:10005000BB010008BB010008BB010008BB01000890
:10006000BB0100081529000821290008BB01000870
:100070007D250008BB010008BB010008BB0100088A
:10008000BB010008BB010008BB010008BB01000860
:1000900025160008BB010008BB0100082D29000837
:1000A000BB010008BB010008BB010008BB01000840
:1000B00085A5000895A50008BB010008BB01000844
:1000C000BB010008BB010008BB010008BB01000820
:1000D000BB01000845AE0008BB01000855AE000892
:1000E000BB010008BB010008BB010008BB01000800
:1000F000BB010008BB010008BB010008BB010008F0
:10010000BB010008BB010008BB010008BB010008DF
:10011000BB010008BB010008BB010008BB010008CF
:10012000BB0100088D250008BB010008BB010008C9
:10013000BB010008BB010008BB010008BB010008AF
:10014000BB01000835160008BB010008C98F000874
:100150009D250008BB010008AD25000815AF00086B
:10016000BB010008BB010008BB010008BB0100087F
:10017000BB010008BB010008BB0100080000000033
:1001800039680008BB010008DFF810D001F094F8CE
:1001900000F0CCFD0048004785DA000890240120DB
:1001A0000648804706480047FEE7FEE7FEE7FEE711
:1001B000FEE7FEE7FEE7FEE7FEE7FEE771A50008C3
:1001C000890100089FED1A1AF5EE000A40EE010AB7
:1001D000BDEEE00AF5EEC00A10EE100AF1EE10FADC
:1001E00038BF401E00EE100A1349F7EE001AB8EEB1
:1001F000C00A30EEC00ADFED0F0A20EE200AFCEE46
:10020000C00A10EE900AC0F3080000EE900A01EB5D
:100210008000F8EE600A90ED011A70EE600A90ED31
:10022000000A71EEE01A21EE800A00EE810A7047A2
:1002300083F9223E00000044FC020108B5EEC00A2A
:10024000F1EE10FA07D2DFED1E0AB4EEE00AF1EE8D
:1002500010FAA8BF7047DFED1B0AB5EEC00A60EECA
:10026000200ABDEEE01A11EE100AF1EE10FA38BFC6
:10027000401E00EE100A1549F7EE001AB8EEC00A4B
:1002800030EEC00ADFED100A60EE200ABCEEE00A94
:1002900010EE100AC0F3080000EE100A01EB800017
:1002A000B8EE400A90ED011A70EEC00A90ED000A17
:1002B00071EEE01A21EE800A00EE810A704700001C
:1002C000CD024CB483F9223E00000044FC02010838
:1002D00070B405880E884468D1F804C05368B542EC
:1002E00008D140884988884201BF11888D425188D1
:1002F000884203D070BC6FF00200704705FB00F12C
:10030000880827D094ED001ADCED000A94ED010A6C
:10031000DCED011A31EE201AD4ED020A70EE211A3A
:100320009CED020A83ED001AC3ED011A94ED031A45
:10033000DCED031A30EE800A401E71EE210A83EDD7
:10034000020A04F11004C3ED030A03F110030CF1D7
:10035000100CD7D111F0030030D0B0F1004F30D2E3
:1003600000282BDD211F1B1FACF1040210F0010F30
:100370000AD091ED010AD2ED010A091D121D30EEDD
:10038000200A83ED010A1B1D400817D091ED010AD8
:10039000D2ED010A401E30EE200A83ED010A91EDF4
:1003A000020AD2ED020A01F1080102F1080230EE60
:1003B000200A83ED020A03F10803E7D170BC002094
:1003C0007047B4EC010A401EFCEC010A30EE200A32
:1003D000A3EC010AF5D1F1E7018042804360704748
:1003E0002DE9F34F84B0049840680090486801906C
:1003F0000498B0F800E04588DFEDFE0A0020029086
:10040000B0EE600AAE4506D108884988884204BF2C
:100410007146864504D06FF0020006B0BDE8F08F4B
:1004200001985FEA010C18BFB7EE001A3DD000BF7B
:10043000BEEB0C0117D0B1F1004F80F01F820029F4
:1004400011DD021F11F0010F1CBFC2ED010A121DC8
:100450004B1006D0C2ED010AC2ED020A08325B1E43
:10046000F8D100EB8100BCF10102A0EC011A19D017
:10047000B2F1004F80F00882002A13DD031F12F052
:10048000010F1CBFC3ED010A1B1D511008D000BF96
:10049000C3ED010AC3ED020A491E03F10803F7D1B7
:1004A00000EB8200BCF1010CC2D14FF000080395B3
:1004B000002D14BFB0EE602A002000F0BF8100BF05
:1004C000009908FB05F001EB800B0199DBED002A98
:1004D00001EB80000346F0EE421AC64552D9AEEB5E
:1004E0000802ABEB850112F0010F17D001EB85017B
:1004F00091ED000AB5EEC00AF1EE10FA07DDB4EE98
:10050000E10AF1EE10FA09DDF0EE401A06E0B1EE74
:10051000400AF4EEC01AF1EE10FAF5D3521031D0C1
:1005200001EB850C9CED000AB5EEC00AF1EE10FA65
:1005300005DDB4EEE10AF1EE10FA09DD06E0B1EEF8
:10054000400AF4EEC01AF1EE10FA01D2F0EE401AB1
:1005500001EBC50191ED000AB5EEC00AF1EE10FA0B
:1005600005DDB4EEE10AF1EE10FA09DD06E0B1EEC8
:10057000400AF4EEC01AF1EE10FA01D2F0EE401A81
:10058000521ECDD1F5EEC01AF1EE10FA00F07381D3
:10059000F5EEC02A0126F1EE10FA0099D4BFB1EEB3
:1005A000620AB0EE620AB4EE610AF1EE10FA1CBF04
:1005B000AEEB0802B2F1010C47D005FB08F201EBEB
:1005C000820292ED001A00BFB0EE410A05FB06F46C
:1005D000B5EEC00A00EB8404F1EE10FACCBFF0EEE9
:1005E000400AF1EE400AF4EE610AF1EE10FA28D169
:1005F000B5EB080C11D0BCF1004F7DD2BCF1000F5F
:100600000BDD00BF92ED000AD1ED000ABCF1010C38
:10061000E2EC010AA1EC010AF4D129000ED0B1F1FB
:10062000004F6AD2002909DD94ED000AD0ED000ADE
:10063000491EE4EC010AA0EC010AF5D10120029068
:100640000BE0761CBCF1010CBED10298012804D04D
:10065000F5EEC02AF1EE10FA7ED09BED000AB5EB64
:1006600008009A465946064622D0B0F1004F74D28F
:1006700000281DDD091F10F0010F06D0F0EE400A22
:1006800080EEA01A81ED011A091D401010D000BFA4
:10069000D1ED010A401E80EE801A81ED011A91ED24
:1006A000021AC1EE000AC1ED020A01F10801EFD100
:1006B000280026D0B0F1004F7ED2002821DDAAF11B
:1006C000040110F0010F06D0D1ED010A80EE801A6E
:1006D00081ED011A091D401013D000BFD1ED010AB0
:1006E000401E80EE801A81ED011AD1ED020A80EEE3
:1006F000801A81ED021A01E0CBE0D6E001F1080199
:10070000ECD1DDE900124FF000095FEA0E0773D06B
:10071000C14504BF01EB860102EB850274D091ED67
:10072000000ADC465046331E35D01C46B6F1004F59
:100730007ED2002C2FDD0B1FABF1040C16F0010F45
:100740000FD0F0EE400ADCED011AB0EE601A00EEB8
:10075000E11A83ED011A01E08DE0B1E01B1D0CF1FF
:10076000040C741015D000BFD3ED010A9CED011AE2
:1007700040EE410AC3ED010AD3ED020A9CED021AD4
:100780000CF1080C40EE410AC3ED020A0833641E66
:10079000EAD101EB86012B0036D0B3F1004F72D2C3
:1007A000002B31DDA2F1040CAAF1040013F0010FBB
:1007B0000CD0DCED010A00E08BE090ED011A001D89
:1007C00040EE410ACCED010A0CF1040C5C1019D08A
:1007D000DCED010A90ED011A40EE410ACCED010A70
:1007E000DCED020A90ED021A083040EE410ACCED31
:1007F000020A03E0000000000DE005E0641E0CF1B9
:10080000080CE5D102EB830201EB88017F1E09F1A0
:1008100001097FF47DAF009808F10108001D0090E8
:100820000398401E03907FF44BAE0299012900E02B
:1008300058E004BF06B0BDE8F08F00BFB5EEC00AB7
:10084000F1EE10FA7FF4E9AD04990EFB05F3002BED
:100850004A684FF000010BD902EB810C9CED000AB5
:10086000B5EEC00AF1EE10FA02D1491C8B42F3D862
:100870008B427FF4D2AD6FF00400CEE5E0EC010ACC
:10088000491EFBD1EFE538E0E0EC010A521EFBD136
:1008900008E692ED000AD1ED000ABCF1010CE2EC91
:1008A000010AA1EC010AF4D1B7E694ED000AD0EDFB
:1008B000000A491EE4EC010AA0EC010AF5D1BDE6EC
:1008C000D1ED000A401E80EE801AA1EC011AF7D18A
:1008D000EEE6D3ED000A401E80EE801AA3EC011A6A
:1008E000F7D10EE7BCEC011AD1ED000A5B1E40EE19
:1008F000410AE1EC010AF5D14DE7B0EC011AD2ED65
:10090000000A5B1E40EE410AE2EC010AF5D17BE7EA
:100910002DE9F04F82B046685368019305884788F7
:100920004B88002000900888874201BFB2F800C0C1
:100930006545528893421EBF6FF0020002B0BDE8C9
:10094000F08F9FED412A4FEA970EC7F3400B00BF8F
:10095000DDE9000202EB800A4A6898464FF0000980
:10096000B0EE420AB4465FEA0E0025D092ED001ABE
:10097000DCED001A02EB8302DCED010A01EE810AD4
:1009800092ED001A02EB8302401ED2ED001A02EB38
:10099000830200EE810A9CED021ADCED030A0004DA
:1009A0000CF1100C000C01EE210A92ED001A02EB82
:1009B000830200EE810AD9D117F0030026D0ACF1F2
:1009C0000404A2EB830210F0010F08D002EB8302B3
:1009D000D4ED010A92ED001A241D00EE810A5FEAAF
:1009E0000B0013D002EB830CD4ED010A9CED001A2E
:1009F00002EBC302401E00EE810AD4ED020A92ED22
:100A0000001A04F1080400EE810AEBD109F101009B
:100A1000AAEC010A1FFA80F9486800EB8902A8F1E4
:100A200001001FFA80F8B8F1000F99D1009806EB89
:100A30008706184480B20090681E05042D0C87D1EB
:100A400002B00020BDE8F08F0000000070B40588FF
:100A50000E884468D1F804C05368B54208D1408874
:100A60004988884201BF11888D425188884203D04D
:100A700070BC6FF00200704705FB00F1880827D0BA
:100A800094ED001ADCED000A94ED010ADCED011A88
:100A900031EE601AD4ED020A70EE611A9CED020A82
:100AA00083ED001AC3ED011A94ED031ADCED031A6D
:100AB00030EEC00A401E71EE610A83ED020A04F1B5
:100AC0001004C3ED030A03F110030CF1100CD7D18D
:100AD00011F0030030D0B0F1004F30D200282BDDF0
:100AE000211F1B1FACF1040210F0010F0AD091ED81
:100AF000010AD2ED010A091D121D30EE600A83EDD4
:100B0000010A1B1D400817D091ED010AD2ED010A20
:100B1000401E30EE600A83ED010A91ED020AD2ED2B
:100B2000020A01F1080102F1080230EE600A83EDC9
:100B3000020A03F10803E7D170BC00207047B4EC4F
:100B4000010A401EFCEC010A30EE600AA3EC010A27
:100B5000F5D1F1E72DE9F04F02884768B0F802803F
:100B60004888D1F8049082B04FF0000A16468242BD
:100B700007BF098888456FF0020002B018BFBDE8C2
:100B8000F08F4FEA980B02EB42000190C8F340004F
:100B9000CDF8000009EB8A01BBF1000F33D00198BA
:100BA00001EB820C01EB80043B46E64601EBC205FB
:100BB0004FEA0B0093ED000A401E81ED000A93ED11
:100BC000010A01EB02118CED000A93ED020A0CEB15
:100BD000021C85ED000A93ED030A05EB021584ED76
:100BE000000A04EB021403F11003E3D10EEB8200C0
:100BF00000EB820000EB8201ABF10100504307EBF8
:100C00000B1701EB001118F0030C21D03B1FA1EBD7
:100C100082011CF0010F06D093ED010A01EB820165
:100C20001B1D81ED000A009880B100BF93ED010A01
:100C300001EB820401EBC20184ED000A93ED020A8C
:100C4000401E81ED000A03F10803EFD107EB8C078A
:100C50000AF101001FFA80FA701E0604360C99D1C1
:100C600002B00020BDE8F08F2DE9F05F05460020BE
:100C700092469B4688460646814640241BE028460D
:100C800041464746224600F061FA53465A46C01A8A
:100C9000914110D311461846224600F048FA2D1A09
:100CA00067EB01084F4622460120002100F03FFA81
:100CB00017EB00094E41201EA4F10104DFDC484679
:100CC00031462A464346BDE8F09F40EA01039B07B0
:100CD00003D009E008C9121F08C0042AFAD203E0B1
:100CE00011F8013B00F8013B521EF9D27047D2B215
:100CF00001E000F8012B491EFBD270470022F6E705
:100D000010B513460A4604461946FFF7F0FF204681
:100D100010BD30B504460020034600E05B1C934242
:100D200003D2E05CCD5C401BF8D030BD70B5054C03
:100D3000054D04E02046016808448047241DAC426C
:100D4000F8D170BD580F01085C0F01082DE9FE4F66
:100D5000804681EA0300C00F0C46009021F000415C
:100D600023F00045B8EB0200A94105D240462146D8
:100D700090461C460B46024623F00040104347D0E5
:100D8000270DC7F30A00C3F30A510290401A0190DD
:100D900040286BDAC3F3130040F4801B009892469E
:100DA00020B10023D2EB030A63EB0B0B01985946E9
:100DB000C0F14002504600F0BAF906460D465046D2
:100DC0005946019A00F0D2F910EB08006141002465
:100DD00087EA115284EAE7731A4340D0009A62B35B
:100DE000019A012A4FEA075215DC001B61EB020150
:100DF0004FF0004202EA0752CDE90042001C41F5E3
:100E0000801132462B4600F009FA03B0BDE8F08F9E
:100E100040462146F9E7001B61EB0201001C41F549
:100E2000801300185B412018A2F5001747EB03015F
:100E300040EAD570B6196D4111E06D084FEA3606EB
:100E400045EAC0754FEA0752001B61EB0201001C26
:100E500041F5801149084FEA3000001951413246EE
:100E60002B4603B0BDE8F04F00F0C9B9009801224D
:100E700040000023D0EB020263EBE07300982146B0
:100E80004FEAE074B8EB000061EB0401E9E783F09E
:100E900000435BE781F0004158E72DE9FE4F81EA0E
:100EA000030404F0004421F0004100944FF0000BD3
:100EB00023F0004350EA01045ED052EA03045BD001
:100EC000C3F30A54C1F30A552C44A4F2F334019439
:100ED000A0FB0254C1F3130141F48011C3F31303C7
:100EE00043F4801301FB024400FB034E840A970A7B
:100EF00044EA815447EA8357A4FB076802958D0AA8
:100F000005FB07854FEA932C04FB0C542705029D33
:100F10004FEA065847EA1637B5EB08056EEB070CA3
:100F2000870E920E47EA811742EA8312A7FB02015D
:100F3000B6EB0B0164EB00042B0D43EA0C335E1897
:100F400044EB1C50DA465146E7FB0201C5F313049B
:100F50004FEA0B3343EA14534FEA0432019C43EA4D
:100F60000603A4F10C040294009CCDE900B400F047
:100F700055F903B0BDE8F08F00200146F9E72DE9EF
:100F8000F04D81EA030404F0004B21F000451446C3
:100F90004FF0000A23F0004150EA050220D054EA45
:100FA00001021DD0C5F30A570246C5F31303C1F36E
:100FB0001300C1F30A5640F4801543F48013A7EBE5
:100FC0000608101BD64608F2FD3873EB050002D365
:100FD00008F1010801E092185B41B8F1000F03DA53
:100FE00000200146BDE8F08D00204FF48011064638
:100FF00084460EE0171B73EB050705D3121B63EB4A
:10100000050306434CEA010C49084FEA30009218E8
:101010005B4150EA0107EDD152EA030012D082EAA7
:10102000040083EA0501084305D0101BAB4106D23A
:101030000122002306E000224FF0004302E06FF09F
:10104000010253101AEB06004CEB085110EB0A009A
:1010500041EB0B01BDE8F04D00F0D1B830B40446CF
:1010600096230800214604D0B62330BC002200F0AD
:1010700098B820460021F8E70EB540F233410291BE
:101080000021CDE900110A460B4600F0C7F803B075
:1010900000BD70B5C1F30A5201F000450024C1F350
:1010A000130140F2FF3341F480119A4201DA00202B
:1010B00070BD40F233439A42A2F2334203DC524203
:1010C00000F044F800E090402C43F1D0404270BD65
:1010D00000F0004230F000400AD0C10D01F560710F
:1010E000C0F3160042EA0151C2084007114370479D
:1010F00000200146704701F0004330B421F0004168
:1011000050EA010206D00A0DA2F56072C1F3130184
:10111000002A02DC30BC00207047440F44EAC104BE
:10112000C100E01830BC00EBC25000F031B8202AFA
:1011300004DB203A00FA02F1002070479140C2F12E
:10114000200320FA03F3194390407047202A04DB60
:10115000203A21FA02F00021704721FA02F3D04030
:10116000C2F120029140084319467047202A06DB4D
:10117000CB17203A41FA02F043EAE07306E041FA65
:1011800002F3D040C2F12002914008431946704753
:101190000029A8BF7047401C490008BF20F001008B
:1011A000704710B4B0FA80FC00FA0CF050EA010469
:1011B00004BF10BC704749B1CCF1200421FA04F4FB
:1011C00011FA0CF118BF012121430843A3EB0C01D4
:1011D000CB1D4FEA00614FEA102042BF002010BC37
:1011E000704700EBC35010440029A4BF10BC7047E7
:1011F000401C490008BF20F0010010BC704710B52A
:10120000141E73F1000408DA401C41F10001921829
:101210005B411A4301D120F0010010BD2DE9F04DD2
:1012200092469B4611B1B1FA81F202E0B0FA80F227
:1012300020329046FFF77BFF04460F4640EA0A0043
:1012400041EA0B0153465A46084313D0114653EA6C
:10125000010019D0C8F140025046FFF777FF05465C
:101260000E46504659464246FFF761FF084305D0F7
:10127000012004E020463946BDE8F08D00200543FA
:1012800046EAE0762C4337430A986305E40AA0EB6C
:1012900008000022FD0A44EA47540A3002D5002023
:1012A0000146E9E7010510196941DDE90845001922
:1012B0006941BDE8F04DA2E7064C074D06E0E06845
:1012C00040F0010394E8070098471034AC42F6D38D
:1012D000FEF75EFF380F0108580F010870B58C1833
:1012E00010F8015B15F0070301D110F8013B2A113A
:1012F00006D110F8012B03E010F8016B01F8016B27
:101300005B1EF9D12B0705D40023521E0DD401F822
:10131000013BFAE710F8013BCB1A921C03E013F8EB
:10132000015B01F8015B521EF9D5A142D8D3002020
:1013300070BD000070B50C4640F25C6142F6C0150D
:10134000C2F20001C2F20005002608602E700BF008
:10135000B9FF2978084328700CF06AF8297840EA28
:10136000010028701CB100F0C3F9287870BD40F26C
:10137000146043F6AC0142F27123C2F20000C3F6DE
:101380002231C3F6807341F2B06247F2B07E49F673
:101390002A044CF6923CC0E908310021C3F6CE1273
:1013A000C3F64C6EC3F69354C4F21C1CC4F2202145
:1013B000C0E90A22C0E90CE4C0E90E6C816128781A
:1013C00070BD000080B50020C4F20200102101228F
:1013D00002F008FF80BD000080B50020C4F20200CA
:1013E0001021002202F0FEFE80BD000080B540F218
:1013F0000040C4F202000121012202F0F3FE80BD90
:1014000080B540F20040C4F202000121002202F047
:10141000E9FE80BD70B50446FFF7DEFF922000F0C4
:10142000DDF840F25465C2F200051220294606227A
:1014300000F0B0F8FFF7C6FFB5F9000094ED082AF8
:1014400000EE100A40F20C00C2F2000090ED001A0B
:10145000B8EEC00A21EE000A22EE000A84ED000A6E
:10146000B5F9021090ED001A00EE101AB8EEC00A9D
:1014700021EE000A22EE000A84ED010AB5F904000B
:1014800000EE100AB8EEC00A21EE000A22EE000AB1
:1014900084ED020AFFF7B4FF002029460822002647
:1014A00000F078F8FFF7A2FF28780F284AD1B5F9A5
:1014B000021040F2FA5000EE101A40F21001C2F28F
:1014C0000000C2F200010078B8EEC01A91ED000AE7
:1014D00020EE011A00B394ED092AB5F90400B5F91C
:1014E000061031EE421A02EE100A94ED0A3AB8EEF6
:1014F000C22A84ED031A01EE101A94ED0B4A20EE75
:10150000022AB8EEC11A32EE432A20EE010A84ED17
:10151000042A30EE440A13E0B5F90400B5F90610C8
:1015200002EE100A84ED031A01EE101AB8EEC22A78
:10153000B8EEC11A20EE022A20EE010A84ED042A38
:1015400084ED050AFFF748FFA22000F047F82220AB
:101550002946022200F01EF8FFF734FF2878697848
:10156000C00040EA51104FF60001CFF6FF71B6EB14
:10157000902F18BF084300EE100AB8EEC00AB4EE70
:10158000001A20EE010AB3EE071A30EE010A84EDCC
:10159000070A70BDB0B540F0800014460D4600F05B
:1015A0001DF8002C08BFB0BD013D00BF552000F064
:1015B00015F8013C210605F8010FF7D1B0BD000078
:1015C00080B540F0800000F009F8552000F006F8E2
:1015D00043F63841C2F20001087080BD80B582B088
:1015E00040F25C61C2F200010B688DF807004FF415
:1015F0007A7C0DF107010DF1060218460123CDF8A2
:1016000000C004F083F89DF8060002B080BD000021
:1016100010B50C46FFF7E2FF2046FFF7DFFF10BDD5
:10162000FEE7000080B542F6B040C2F2000001F0D3
:10163000FDFF80BD80B542F6D840C2F2000001F047
:10164000F5FF80BD80B588B0029100210823CDE967
:101650000311059106938DF81C10019102A901ABAD
:1016600001F096FE08B080BD002070470020704752
:1016700010B542F6D414C2F2000442F21801C2F2CC
:1016800000012046002209F017FE41F61801C2F2BF
:101690000001204609F002FE002010BD10B542F600
:1016A000D414C2F200040146204609F0F7FD20469A
:1016B00009F0CEFD002010BD0020704710B542F6A5
:1016C000D412C2F20002D2F8BC22D2F81432002B9B
:1016D0001CBF012010BD42F6D414C2F200040A4619
:1016E0000146204609F0E8FD204609F083FE10BDC2
:1016F0002DE9F04F81B02DED108B88B00020CDE9A1
:10170000060001F021F840F2C864C2F2000484ED42
:10171000000A01F019F894ED001AB2EE08BA30EEA2
:10172000410AB4EE4B0A40F21466F1EE10FAC2F22E
:10173000000621DD43F6AC0041F2B061C3F6223071
:10174000C3F6CE11C6E909014CF69230C4F21C1062
:10175000F0630020C4F22020F162B06196ED0F0A20
:101760009FEDAB1A81EE000A86ED080A08B0BDECC9
:10177000108B01B0BDE8F08F9FEDEDCA03AD6F4651
:101780009FEDEC8A42F6C8189FEDEDEADFEDED9A89
:10179000DFEDE9AADFEDECBA9FEDE89AA5F1040AC6
:1017A000A7F1040B06ACC2F20008B6EE00DAB4EE04
:1017B00000FAF3EE078AF0EE4CCA0EE000F0C4FF28
:1017C00040F2C860C2F2000090ED001A30EE410A0B
:1017D000B4EE4B0AF1EE10FAACDCB0EE480A00F0C1
:1017E00071FF4FF00009C6F83C90C6E90999C6F8A8
:1017F0002C9000BFFFF7F0FD9220FFF7EFFE1220C4
:1018000021460622FFF7C6FEFFF7DCFDBDF91800F2
:10181000BDF91A1000EE100A40F20C00C2F20000EE
:1018200090ED001AB8EEC00ABDF91C2021EE002A86
:1018300000EE101AB8EEC00A21EE003A00EE102AAF
:10184000B8EEC00A21EE001A22EE020A23EE034A85
:1018500030EE040A21EE014A30EE040AB1EEC0AACD
:1018600086ED002A86ED013A86ED021AB4EE4AAA08
:10187000F1EE10FA80F1C78096ED0F0A3AEE000AF9
:1018800086ED0F0AFFF7BCFD002021460822FFF776
:1018900081FEFFF7ABFD9DF818000F2835D1BDF98B
:1018A0001A00BDF91C1000EE100A40F21000C2F23E
:1018B000000090ED001AB8EEC00A96ED092A21EE5C
:1018C000000A86ED030A32EE000A02EE101ABDF994
:1018D0001E2096ED0A3AB8EEC22A21EE022A86EDC3
:1018E000042A33EE022A03EE102A96ED0B4AB8EED4
:1018F000C33A21EE031A86ED051A34EE011A86ED7D
:10190000090A86ED0A2A86ED0B1AB9F1000F2BD0D1
:10191000002000BF311891ED030A291891ED001A3B
:10192000B4EE410AF1EE10FAC8BF81ED000A391891
:1019300091ED001A0430B4EE410AF1EE10FAB8BF8E
:1019400081ED000A0C28E5D1B4EE6CAAF1EE10FA94
:10195000B4EE4CAAC8BFF0EE4ACAF1EE10FAB8BF16
:10196000B0EE4ACA0DE000BF7169D6E90302F0EE9D
:101970004ACACDE90421CDE90002CDE90210B0EE5A
:101980004ACA42F6C4103CEECC0AC2F2000080ED16
:10199000000A6FF003005946524600BF92ED011A4B
:1019A00091ED012A08EB000304300432043131EEDA
:1019B000421A082883ED011AF0D1B4EE4D0AF1EE77
:1019C00010FA27DC98ED000AB4EE6A0AF1EE10FA7C
:1019D00020DC98ED010AB4EE6A0AF1EE10FA19DC87
:1019E00098ED020AB4EE6A0AF1EE10FA12DCB0EEDB
:1019F000490A00F067FE41F26F70814509F1010963
:101A0000FFF4F8AE06E00EF0D9FBB0EE40AA33E7E3
:101A1000C3F51C4196ED0F0A202080EE0E0A86EDDC
:101A20000F0A00BF311891ED010A043080EE0E0A52
:101A30002C2881ED010AF5D1FFF7CEFCA220FFF79B
:101A4000CDFD222021460222FFF7A4FDFFF7BAFCBC
:101A50009DF818009DF81910C00040EA51100021AF
:101A6000B1EB902F4FF60001CFF6FF7118BF08437E
:101A700000EE100AB8EEC00A20EE0F0A42F6C411BA
:101A800030EE280A42F6B412C2F2000186ED060AD0
:101A9000C2F2000291ED000A1088B4EE4D0A013046
:101AA000F1EE10FA10803FF789AE98ED020AB4EE1D
:101AB0006A0AF1EE10FA3FF781AE98ED010AB4EE32
:101AC0006A0AF1EE10FA3FF779AE98ED000AB4EE2B
:101AD0006A0AF1EE10FA3FF771AE96ED0F0A30EE9A
:101AE000290AB0EEC00AB4EE4D0AF1EE10FA3FF743
:101AF00065AE96ED090AB0EEC00AB4EE6B0AF1EEDF
:101B000010FA3FF75BAE96ED0A0AB0EEC00AB4EEEB
:101B10006B0AF1EE10FA3FF751AE96ED0B0AB0EEFC
:101B2000C00AB4EE6B0AF1EE10FA3FF747AE15E6C5
:101B3000000000000AD7A33B9A99193E6F12033A9E
:101B40000080BB45CDCC1CC10AD7233C80B58AB0F0
:101B5000026846F60003C4F2000300214FF0010CB6
:101B60004FF00E0E9A420691CDF81CC0CDE900113F
:101B7000CDE90211CDF824E009D046F20041C4F2CB
:101B800000018A4213D10021CDE904110FE0CDE913
:101B900006C142F2200100914FF4C141019146F289
:101BA000600102914FF40151CDE904CE039101216E
:101BB0000891694601F036FC0AB080BD80B540F25C
:101BC000FD70C2F20000807A01280AD142F61800A6
:101BD000C2F200000078022806D040B900F00AFAEC
:101BE00080BD00F0EBF980BD00F00AFC80BD00F084
:101BF00049FC80BD80B540F2F070C2F2000001885F
:101C000043F68242C2F200021180D0F802108079BD
:101C1000C2F80210907140F2A860C2F20000007891
:101C200000210328D17131D8DFE800F0020B1D2715
:101C300040F6D050C2F20000417801F0E10141705D
:101C400024E042F61800C2F20000017859B30229DC
:101C50001CD140F6D050C2F20000417801F0E10101
:101C60000831417012E040F6D050C2F200004178D5
:101C700001F0E1010231417008E040F6D050C2F2BB
:101C80000000417801F0E1010431417042F6D84092
:101C900043F68242C2F20000C2F200024FF48871A1
:101CA000FFF7D0FC80BD90F87A1040F2DC6EC2F2F3
:101CB000000EC1B19EF800209AB940F6D05CC2F285
:101CC000000C9CF80130062003F01E0203F0E10333
:101CD000062A08BF082018448CF8010001208EF85D
:101CE00000000029D2D140F6D051C2F200014A785A
:101CF00002F01E0006281EBF02F0E1000830487006
:101D000000208EF80000C1E780B52DED068B40F66F
:101D10006270C2F200004FF442719FED1E9A9FED77
:101D20001EAA018040F2F860B1EE048AC2F20000FF
:101D3000B7EE001A4FF4FA51B0EE480AF0EE490A35
:101D4000F0EE491AB0EE492AF0EE492AB0EE4A3ACE
:101D500007F06AFC40F27070C2F20000B0EE001AA8
:101D60004FF4FA51B0EE480AF0EE490AF0EE491A83
:101D7000B0EE492AF0EE492AB0EE4A3A07F054FC98
:101D800040F2A860C2F2000001210170BDEC068B98
:101D900080BD00BF000000006F12833A0000000009
:101DA0002DE9F0412DED028B40F2A867C2F2000749
:101DB000387803280CD8DFE800F0025B0F2C40F2E3
:101DC000F070C2F200000021818001600121817168
:101DD000BDEC028BBDE8F08142F61800C2F20000B3
:101DE00090ED050A9FED731A40F2F0749FED722A90
:101DF000C2F2000420EE010AB4F9040020EE020A47
:101E0000BDEEC00A01EE100AB8EE400AF8EEC10AB3
:101E100021E042F61800C2F2000090ED010AB5EE92
:101E2000400AF1EE10FAD3D190ED020AB5EE400A65
:101E3000F1EE10FACCD190F878000028C8D140F229
:101E4000F074C2F20004B4F9040000EE100AF8EED7
:101E5000C00A9FED570AB2EE0E1A07F063FCBDEE02
:101E6000C00A10EE100AA080BDEC028BBDE8F08124
:101E700042F61808C2F20008D8F80C00D8F86440FE
:101E8000FFF726F9054620460E46FFF721F99FED9C
:101E9000460B53EC102BFFF700F82A463346FEF7AB
:101EA00055FFFFF728F940F62C06C2F2000640F273
:101EB00018043288C2F20004E060A2F6093080B251
:101EC00040F6FF710023884240F6FE7538BF0123BB
:101ED000A84240F6607041F20831C2F2000088BFAB
:101EE0004FF44271037000EE102A10467980B8EE6C
:101EF000408A07F0FBFB40F2F86500EE100AC2F2E0
:101F00000005F8EEC00A2846B0EE480A07F05EF970
:101F1000B6F9020040F2707600EE100AD5ED110A13
:101F2000C2F20006B8EEC00A304607F04FF995ED50
:101F3000110A96ED111A204631EE408A86ED118A7B
:101F400000F07CFD98ED051A9FED1A2A9FED1A3AD4
:101F500021EE021A38EE000A21EE031A30EE010AD1
:101F6000BDEEC00A4CF2A52110EE100ACFF6FF71AB
:101F70008842C8BF014643F65B508142A8BF014674
:101F800040F60870C2F20000007840F2F072C2F22F
:101F90000002002818BF00219180BDEC028BBDE833
:101FA000F08100BF00BF00BF9A9999999999E93FC4
:101FB0000058C4450000FA44DB0F494080B540F2A8
:101FC000F070C2F2000001220021827143F68242C9
:101FD00081800160C2F200024FF48030506042F60E
:101FE000D8401160C2F200004FF48871FFF72AFB5D
:101FF00080BD000070B540F2DE6EC2F2000EBEF889
:1020000000000026431C40F2F070C2F2000086710E
:1020100042F61800C2F2000090F8754090F8742063
:10202000BFEE001A90F87750002CB0EE412AB7EEC0
:10203000003AAEF8003090F876109FED340A08BFF1
:10204000B0EE402A002AB0EE434A08BFB0EE424A42
:10205000002D08BFB0EE403A002908BFB0EE431A89
:1020600090F87C4040F2A86C40F2DD62C2F2000CB5
:10207000C2F2000280ED011A80ED024A84B11178AB
:1020800051B99CF80010032503294FF0010108BF46
:1020900001258CF800501170002C08BF167000E06C
:1020A000167090F87D2040F60871C2F200010AB166
:1020B0000C7854B172B99AB2B2F5FA7F0AD90A789B
:1020C000002A1CBF00220A7004E001220A700021CD
:1020D000AEF8001040F65C01C2F200010A789CF8EC
:1020E0000010012A0AD190F87900032918BF0221B3
:1020F000002818BF01218CF8001070BD41F00200CB
:10210000022804BF01208CF8000070BD0000000010
:102110002DE9F04F81B02DED048B40F66070C2F2D6
:102120000000007840F2E86BC2F2000B28B10128F1
:102130001BD1002141F2083202E001214FF442722A
:1021400040F62C03C2F200031B889FEDA91AD21A95
:1021500000EE102AB8EEC00A80EE010A40F6D05216
:10216000C2F2000211718BED000A9BED000A9FED97
:10217000A11A40F6D65220EE010ABDEEC00A10EEBA
:10218000101AC2F2000242F61805D18041F208216D
:10219000C2F20005C2F2000141F6083295F87860FB
:1021A0000A8040F61C71C2F2000140F6083241F686
:1021B0005834002E40F2E46A40F2EC6940F2EE68D6
:1021C0000A8008BF4FF47A64C2F2000A0128C2F202
:1021D0000009C2F20008AAF8004013D090BB95EDA8
:1021E000021A02EE104AB8EE422A21EE421A95ED8A
:1021F000010ABDEEC11A11EE100AA9F8000020EE86
:10220000420A11E095ED021A02EE104AB8EE422A97
:1022100095ED010A21EE021ABDEEC11A11EE100A67
:1022200020EE020AA9F8000010EE100AFEF750FF97
:102230009FED6B0B53EC102BFEF72FFEFEF729FFE3
:10224000A8F8000040F2A867C2F200073878032817
:102250005FD16EB995ED010AB5EE400AF1EE10FAC4
:1022600006D195ED020AB5EE400AF1EE10FA50D013
:1022700040F2F06140F2E066C2F200010120C2F2D9
:10228000000696ED008A08702046FEF7F5FE9FEDE9
:10229000560B54EC105B2A462346FEF770FEFEF701
:1022A0002AFF9FED559A01EE100AB0EE490AF0EEB2
:1022B000480A07F037FA40F2F060C2F2000086EDFB
:1022C000000A007840F2F076C2F200060028B6F963
:1022D00004009FED4A8A18BFB0EE498A00EE100A4A
:1022E000BAF80000B8EEC09AFEF7C6FE2A462346AA
:1022F000FEF745FEFEF7FFFE01EE100AB0EE480ABB
:10230000F0EE490A07F00EFABDEEC00A10EE100A10
:10231000B08040F2FD70C2F20000C178B9F900004F
:1023200001294CD13978032949D140429BED001A4B
:1023300000EE100AB8EEC08AB1EE410AFDF77EFF4A
:10234000B8F900009BED001A20EE088A00EE100A92
:10235000B8EEC09AB1EE410AFDF734FF20EE090A4B
:1023600038EE000AB9F90010BDEEC00A9BED001A64
:1023700010EE100A40F2F07400EE101AC2F20004DF
:10238000B8EEC08AB1EE410A6080FDF71BFFB8F9D4
:1023900000009BED001A20EE088A00EE100AB8EE4D
:1023A000C09AB1EE410AFDF749FF20EE090A38EE66
:1023B000000ABDEEC00A10EE100A208008E040F2CC
:1023C000F071B8F8002080B2C2F2000108804A80A3
:1023D000BDEC048B01B0BDE8F08F00BF00BF00BFB3
:1023E000666666666666E63F00000000007087402D
:1023F0007BF4A24400007A440050444500000000F1
:1024000040F2F070C2F200000021817142F6180023
:10241000C2F2000090ED080AB7EE001AB4EE410ACD
:1024200040F2687140F2A860F1EE10FAC2F20001C9
:10243000C2F200000AD10A7842B902780323032AC3
:102440004FF0010208BF012303700A70B5EE400A85
:10245000F1EE10FA04BF00220A7040F65C01C2F2ED
:1024600000010A780178012A04D1032918BF02214A
:102470000170704741F00201022918BF7047012125
:102480000170704740F2A860C2F2000000210170A4
:1024900070470000FFF738FC40F2E074C2F200041D
:1024A0000DF0C6F92060FFF789FBFFF779FCFFF715
:1024B0002FFEFFF79FFB204601210CF025FBEFE7E5
:1024C00080B5B0F800E09FED2A1AA0F808E00A886D
:1024D00012BA4FEA124CA0F800C04B88DBBA00EEEB
:1024E000103AB8EEC00A80EE010A9FED221ABDEE46
:1024F000C00A10EE103A43808B88DBBA00EE103A27
:10250000B8EEC00A80EE010ABDEEC00A10EE103A25
:1025100083808B798371C97940F2FC73C171CEEBF2
:10252000124109B2B1EB124FC2F200031CBF0122EB
:102530001A701A78012A0BD1B1F57A6F02DD42893F
:10254000013A428111F57A6F02DA41890131418104
:10255000B0F90A109FED081A0CEB413100EE101A89
:10256000B8EEC00A20EE010AC16080ED040A80BD09
:102570000000C84200007A440000343D80B542F6B5
:102580008060C2F2000001F0DBFB80BD80B542F646
:10259000E060C2F2000001F0D3FB80BD80B542F6DE
:1025A000C050C2F2000001F0CBFB80BD80B542F606
:1025B0002060C2F2000001F0C3FB80BDD0F800C073
:1025C0006FF00F024AF6AB2352FA8CF2CAF6AA2336
:1025D0000146A2FB0330000905A31B5C40F2FF305B
:1025E0002CEA00005F2A88BF0430C1E91603704757
:1025F00000061016000610168269816AB2F5005FA7
:1026000006D06AB9022912D0012914D0D1B90EE03E
:10261000032917D8DFE801F0020B020F01207047F1
:1026200003293CBF012070471CBF00207047C06ACF
:10263000C0F300607047C06AA0F1C070B0FA80F0CB
:10264000400970470020704780B5D0F800C0D0F82E
:1026500008E0DCF80000BEF1400F20F48020CCF848
:1026600000000846CCF8043004BF10460A46CCF8F7
:102670000800CCF80C2080BD80B582B01368526889
:10268000009301926A46FEF7DDFF02B080BD0000B4
:1026900081B041F20400CEF200000068009040F2E8
:1026A000C060C2F2000000990268914206D240F276
:1026B000C461C2F200010A6801320A600099016037
:1026C00001B0704741F2040040F2AC62CEF200006B
:1026D000C2F20002016892ED001AB8EE411A21EE32
:1026E000000A00BF0268521A01EE102AB8EE411A21
:1026F000B4EE410AF1EE10FAF4DC704780B52DED2E
:10270000028B82B041F20401CEF20001096801910E
:1027100001990268891A00EE101A40F2AC61C2F207
:10272000000191ED001A0199B8EE400AB8EE411A85
:1027300080EE018A0160FFF7ABFFB0EE480A02B0FD
:10274000BDEC028B80BD000080B500F065F841F261
:10275000F820C2F20000818890ED000A01EE101A04
:102760009FED0A2AB8EE411AC088B8EE400A21EE61
:10277000021A31EE000A01EE100A9FED052AB8EEAA
:10278000411A21EE021A30EE010A80BD6F12833A1F
:10279000BD37863510B54EF6FC5CCEF2000CDCF889
:1027A000002044F24023C0F20F0342F080725843ED
:1027B00044F6D353CCF8002041F20002C1F2620388
:1027C000CEF200024FF0000CA0FB033EC2F804C0A2
:1027D0004DF683611368C4F21B31A0FB011443F072
:1027E0000101116040F2AC61C2F20001086040F2E8
:1027F000B0614FEA9E10C2F20001086040F2B4617D
:10280000A00CC2F20001086040F2C460C2F20000F5
:10281000C0F800C010BD0000F0B581B041F2040066
:10282000CEF2000000680090FFF732FF40F2C46073
:10283000C2F200000068009C00254FF0FF31E0FB71
:10284000014540F2AC61C2F2000140F2B8600E688E
:10285000C2F20000C0E90045204629463246002366
:10286000FEF702FAA0FB062301FB0631A41A8D41F4
:1028700040F2B061C2F2000141F2F8270E68C2F2E4
:10288000000738602046294632460023FEF7ECF95F
:10289000B88080B240F2B4617043C2F20001201AE5
:1028A0000A6865F100010023FEF7DEF9F88001B047
:1028B000F0BD00007047000041F26C20C2F2000041
:1028C000017B31B3032941F2F421C2F200010FD19F
:1028D00041F21002C2F20002B2F9022002EBE2332E
:1028E00083EAE23292B2142A02D80A8801320A80BC
:1028F0000A88322A03D30423013203730A800A8828
:1029000040F227239A4238BF704700220A800321F1
:102910000173704780B5082001F088FB80BD00007E
:1029200080B5102001F082FB80BD000080B5202022
:1029300001F07CFB402001F079FB802001F076FB68
:1029400080BD000072B600BFFEE7000080B5007ACF
:1029500001380A2888BF80BDDFE800F006121E2576
:102960002C3D4D54695B620006F042FF013040F29D
:10297000FD70C2F200000CBF02210121017080BD78
:1029800003F0EEFF013040F2FD70C2F200000CBF18
:1029900002210121417080BD40F2FD70C2F20000B1
:1029A0000121C17080BD40F2FD70C2F20000012122
:1029B000817080BD41F29820C2F20000283006F0FC
:1029C0004FFF013040F2FD70C2F200000CBF022147
:1029D0000121417180BD41F29820C2F2000006F051
:1029E0003FFF013040F2FD70C2F200000CBF022137
:1029F0000121017180BD40F2FD70C2F20000012191
:102A0000817180BD40F2FD70C2F200000121C171F0
:102A100080BD40F2FD70C2F200000121417280BD14
:102A200040F2FD70C2F200000121817280BD40F2CF
:102A3000FD70C2F200000121017280BD90ED032AF9
:102A400090ED023A90ED000A90ED011A32EE433A11
:102A500022EE000A23EE011A30EE013A90ED050A4B
:102A600080ED043AB1EE401AB4EE413AF1EE10FABC
:102A700080ED022AB8BF80ED041A90ED041AB4EE7E
:102A8000401AF1EE10FAC8BF80ED040A90ED040A76
:102A90007047000080B500210160FFF757FF80BD3F
:102AA000B0B547F61021C1F6FF7108688A68801832
:102AB00008BFB0BD40F2E055C2F200054C68A91C49
:102AC000082204F01FFF05F112012046042204F041
:102AD00019FFB0BD80B540F2FD70C2F20000807AEF
:102AE00001280AD142F61800C2F20000007802283C
:102AF00006D010B900F01CFB80BD00F005FC80BDC5
:102B000000F04AFB80BD0000B0B52DED0A8B40F609
:102B10005C00C2F200000021017040F65D00C2F2CC
:102B200000000122027041F2AC3040F6D0149FED5B
:102B3000868AC2F20000C2F20004B0EE089A016078
:102B400020464FF48041B0EE480AF0EE480AB0EE5D
:102B5000491AF0EE481AB0EE482AF0EE482AB0EED4
:102B6000483A06F061FD40F67845C2F20005284675
:102B70004FF48041B0EE480AF0EE480AB0EE491A30
:102B8000F0EE481AB0EE482AF0EE482AB0EE483A85
:102B900006F04AFD9FED6D9AB7EE00AA9FED6C2AF4
:102BA00004F170004FF48041B0EE4A0AF0EE480A9A
:102BB000B0EE491AF0EE481AF0EE482AB0EE483A64
:102BC00006F032FD05F17000B1EE041A4FF48041B9
:102BD000B0EE4A0AF0EE480AF0EE481AB0EE482A83
:102BE000F0EE482AB0EE483A06F01EFD9FED591A65
:102BF0009FED592A04F1E0004FF48041B0EE480AFD
:102C0000F0EE480AF0EE481AF0EE482AB0EE483AE4
:102C100006F00AFD05F1E000B2EE001A4FF4804123
:102C2000B0EE480AF0EE480AF0EE481AB0EE482A34
:102C3000F0EE482AB0EE483A06F0F6FC40F6800482
:102C4000C2F2000420464FF48041B0EE480AF0EE94
:102C5000480AB0EE481AF0EE481AB0EE482AF0EEF4
:102C6000482AB0EE483A06F0DFFC40F62835C2F2BA
:102C7000000528464FF48041B0EE480AF0EE480ABD
:102C8000B0EE481AF0EE481AB0EE482AF0EE482AA4
:102C9000B0EE483A06F0C8FC9FED30BA04F170007F
:102CA0004FF48041B0EE4A0AF0EE480AB0EE491AFD
:102CB000F0EE481AB0EE4B2AF0EE482AB0EE483A51
:102CC00006F0B2FCBAEE04CA05F170004FF4804180
:102CD000B0EE4A0AF0EE480AB0EE4C1AF0EE481A8E
:102CE000B0EE482AF0EE482AB0EE483A06F09CFCD6
:102CF00004F1E0004FF48041B0EE480AF0EE480ADB
:102D0000B0EE491AF0EE481AB0EE4B2AF0EE482A1F
:102D1000B0EE483A06F088FC05F1E0004FF480413F
:102D2000B0EE480AF0EE480AB0EE4C1AF0EE481A3F
:102D3000B0EE482AF0EE482AB0EE483A06F074FCAD
:102D4000BDEC0A8BB0BD00BF00000000000048428F
:102D5000000048430000204200007A430000C842BF
:102D600080B540F24010C2F2000041689FED8E2A0B
:102D700000EE101A40F6E451C2F2000191ED051A7E
:102D800030EE410AB4EE420AF1EE10FA02DD9FED98
:102D9000891A08E09FED851AB4EE410AF1EE10FAA7
:102DA00003DA9FED831A30EE010A40F65C02C2F2AC
:102DB000000291ED061A127830EE010A022A81ED26
:102DC000070A19D0012A23D00ABB42F61802C2F220
:102DD0000002114611F8643B40F64000002BC2F29D
:102DE00000006DD0022B7CD19FED761A9FED760A04
:102DF00002F10C01103268E040F640000969C2F2AD
:102E00000000002242618261416080ED021A80BDB3
:102E100040F2FD71C2F20001097A01292DD1C16988
:102E20009FED651A02EE101AB4EE412AF1EE10FA87
:102E300023DD806840F6400101EE100ABBEE0E2A49
:102E4000C2F200010022B4EE421A4A618A61F1EE38
:102E500010FAB8BFB0EE421AB3EE042AB4EE421A2A
:102E6000F1EE10FA81ED011A81ED020A40F38F8034
:102E70000020C4F2A010486089E042F61800C2F2B7
:102E800000000178022956D000296CD190ED190A72
:102E9000B5EE001A40F64001806E20EE010AC2F243
:102EA000000181ED060AFEF713F99FED3D0B53EC8F
:102EB000102BFDF7F2FFFEF71EF900EE100A4CE0B2
:102EC0009FED3D0A6832B0EE401A92ED002A91ED76
:102ED000003A22EE000A23EE011A80ED050A80ED89
:102EE000061A90ED010A90ED052A90ED021A90ED78
:102EF000063A30EE420ABBEE0E2A31EE431AB4EE29
:102F0000420A80ED010AF1EE10FA80ED021ABEBF0E
:102F10000021CCF2F011416090ED010AB3EE041AE9
:102F2000B4EE410AF1EE10FAD8BF80BD0021C4F220
:102F3000A011416080BD90ED030A9FED201A90ED35
:102F4000042A20EE010A40F640009FED1D1AC2F24D
:102F5000000080ED060A22EE010A40F64000C2F2AF
:102F6000000080ED050A40F64000C2F2000090ED3E
:102F7000010A90ED021A90ED052A90ED063A30EE26
:102F8000420A31EE431A80ED010A80ED021A40F642
:102F90004000C2F200000121016080BD00BF00BFFF
:102FA0007B14AE47E17A843F00003443000034C311
:102FB0000000B4430000B4C3CDCCCC3D9A99993EF7
:102FC0000AD723BCCDCC4C3ECDCCCCBD2DE9F041B5
:102FD00040F2E870C2F2000090ED000A40F6007086
:102FE000C2F2000090ED001A40F65C00C2F2000050
:102FF000007840F6140420EE010AC2F20004012811
:1030000084ED000A5AD140F2FD70C2F20000007A4D
:10301000012853D140F24015C2F20005E8699FED46
:10302000430A01EE100AB4EE401AF1EE10FA45DD43
:1030300040F6E45640F64008C2F20006C2F200082C
:1030400040F6800796ED040AD8ED010AC2F20007A7
:1030500007F1E00006F0BAF8286997ED491A02EE88
:10306000100A40F6283096ED010AC2F2000071EE17
:10307000020AE03006F0AAF840F6D01796ED060AEC
:10308000D8ED020AC2F2000707F1E00006F09EF850
:10309000E86897ED491A02EE100A94ED003A40F6FE
:1030A000784096ED020A31EE021AC2F2000071EE8B
:1030B000030AE03006F08AF8BDE8F08140F6E454F7
:1030C00040F64005C2F20004C2F2000540F6800658
:1030D00094ED040AD5ED010AC2F2000606F1700073
:1030E00006F074F840F6283094ED010AD6ED2D0A6A
:1030F000C2F20000703006F069F8D5ED020A40F621
:10310000D01594ED060AC2F2000505F1700006F034
:103110005DF840F6784094ED020AD5ED2D0AC2F232
:103120000000703006F052F8BDE8F081CDCCCC3D07
:1031300040F65C00C2F200000178022904BF0021C1
:1031400001700178012942F61801C2F200011CD079
:1031500091F87D3040F6780CC2F2000C93B19CF8E7
:10316000002072B940F64002C2F2000292ED020A5B
:103170009FED081A30EE010A82ED020A01228CF856
:10318000002013B900228CF8002091F87210017011
:10319000704700BF0000344340F65C00C2F20000FC
:1031A0000178B7EE001A022904BF0021017042F62F
:1031B0001801C2F2000191ED060A40F62031B4EE8A
:1031C000410AF1EE10FAC2F2000108D10A7832B9D0
:1031D0000278013A18BF0122027001200870B5EE92
:1031E000400AF1EE10FA04BF00200870704700009A
:1031F00010B540F65C00C2F20000007840F2FD74A9
:103200000228C2F2000439D001283ED1217A0129D6
:1032100032D140F24011C2F20001CA699FED390A71
:1032200001EE102AB4EE401AF1EE10FA24DD40F659
:103230007840C2F2000090ED490A486940F2D46239
:1032400001EE100A30EE010ABDEEC00A10EE100ABF
:10325000C2F20002908040F628308969C2F2000074
:1032600090ED490A01EE101A30EE010ABDEEC00AD7
:1032700010EE100AD08022E0022806D140F2D4607D
:10328000C2F200000021416019E040F67840C2F22D
:10329000000090ED2D0A40F62831BDEEC00AC2F2C2
:1032A000000110EE100A91ED2D0A40F2D461C2F235
:1032B0000001BDEEC00A888010EE100AC88042F6F8
:1032C000D84040F2D462C2F20000C2F2000240F2E2
:1032D000FE31FFF7D1F9A07840F6D052E178C2F282
:1032E000000201381378B0FA80F00139400903F088
:1032F000FC03B1FA81F11844490940EA4100107019
:1033000010BD00BFCDCCCC3D40F65C00C2F2000049
:10331000022101707047000040F6C85441F20035A8
:1033200040F65D06C2F20004C2F20005C2F20006D9
:103330000CE000BFFFF7CEFBFFF712FDFFF746FEE4
:10334000FFF756FF204601210BF0DEFB0CF070FA70
:10335000297820600129EDD03078002808BFFFF7D8
:10336000D3FB05F077FAF1E790F82020013A012A23
:1033700004D8006800F11402002004E000F12402E7
:1033800001204FF480211368194311607047000039
:1033900010B590F820E0D0F800C0AEF1010EBEF1FB
:1033A000010FDCF808E00ED81EF0E05F11D0CEF37C
:1033B000016E012000FA0EF018608B687BB148683E
:1033C00043EAC0030DE000F1240101204FF4802204
:1033D00023E000F1240101204FF400121DE00868F1
:1033E0004305D1E9030403430CEB0E10C0F8803110
:1033F000C0F88441097D012905D100F5C2710B682F
:1034000043F480730B605168C0F88C11126800F5AA
:10341000C071C0F88821002001220B681A430A609D
:1034200010BD0000B0B590F82020013A012A2FD835
:1034300046F20060C4F20000026842F0010202603D
:10344000026822F47C520260D1F814E0CC694A6A26
:103450000368012C43EA022202600EF01F024FF0C3
:10346000010303FA02F2C3696FEA020C23EA0203C2
:10347000C36113D02CBBC36803EA0C03C360CB68E1
:103480008C8844EA034300EBCE0423640B4611E02E
:10349000416A41F4802141620120B0BDC3681343F9
:1034A000C3600B688C8844EA034300EBCE042364BA
:1034B00001F10C038C681B8843EA044300EBCE0443
:1034C000636443688D6943EA0204D1F810E0096A35
:1034D000002D08BF03EA0C0444604369BEF1000FED
:1034E00043EA020408BF03EA0C040129446102D143
:1034F000C1691143C161016821F00101016000202F
:10350000B0BD00007047000010B590F82040013CAD
:10351000012C0AD8046871B12469A4070ED100F106
:10352000240101204FF4001276E000F12401012073
:103530004FF4802270E0E468A40771D0046804EBC3
:10354000011CDCF8B0410CF5D87E14F00404946042
:10355000DCF8B04119BFE4085460640D1460DEF873
:1035600000400CF5DA7E04F00204D460DCF8B441CB
:1035700024075ABFDEF8004004F00F040824146149
:10358000DEF800400029C4F307249461DEF800400F
:103590004FEA14445461DCF8B8211A70026802EB57
:1035A0000112D2F8B8214FEA12225A70026802EBD7
:1035B0000112D2F8B8214FEA12429A70026802EB67
:1035C0000112D2F8B8214FEA1262DA70026802EBF7
:1035D0000112D2F8BC211A71026802EB0112D2F872
:1035E000BC214FEA12225A71026802EB0112D2F892
:1035F000BC214FEA12429A71026802EB0112D2F822
:10360000BC214FEA1262DA71006814BF00F11001A8
:1036100000F10C01002020220B681A430A6010BD43
:1036200000F1240101204FF40012F5E72DE9F04FDD
:1036300081B0044600684669D0F804908768D0F8E5
:103640000CB0D0F810A0D0F81880F10703D10025F5
:1036500030071CD423E0F90710D00121BA0781609C
:1036600009D4780700F1AA80380700F1B08020461D
:1036700000F006FB02E0204600F004FB0025F80500
:1036800000F18480F80300F1AA80300707D51BF011
:10369000100004D0206845F400751021C160700747
:1036A00008D51BF0080005D020680821C16020461D
:1036B00000F0E4F9B00706D52068C068800702D0A2
:1036C000204600F0DDF9700607D51AF0100004D08E
:1036D000206845F4806510210161B00608D51AF014
:1036E000080005D0206808210161204600F020FA7A
:1036F000F00606D520680069800702D0204600F059
:1037000019FAB00308D519F0100005D0206810216F
:103710004160204600F084FAF00308D519F0080053
:1037200005D0206808214160204600F0B5FA300439
:1037300040F18F805FEA497040F1888006F4807024
:1037400008EA102028435FEA8871014648BF41F02B
:103750000201B20558BF01465FEA48700D4648BFF6
:1037600045F00405700558BF0D4630056ED518F0BC
:1037700070006BD010380009052862D8DFE800F02F
:10378000035356595C5F45F008055AE020684FF432
:103790008071BA0581600AD4780512D4380519D42D
:1037A000204600F071FAF8037FF56FAF17E020466E
:1037B00000F06CFAF8037FF568AF10E04FF4006595
:1037C0005DE705F50055F8037FF55FAF07E04FF4BF
:1037D000805554E705F58045F8037FF556AF20681E
:1037E0004FF48031BA0381600AD478030FD43803D0
:1037F00013D4204600F04CFA30073FF548AF4EE7AF
:10380000204600F047FA30073FF541AF47E705F59E
:10381000004530073FF53BAF41E705F58035300700
:103820003FF535AF3BE745F010050AE045F02005D0
:1038300007E045F0400504E045F0800501E045F46F
:1038400080752068816921F0700181612068042100
:1038500041602DB1606A284360622046FFF752FE46
:1038600001B0BDE8F08F0000B0B5C8B1044690F8D3
:10387000200010B9204600F071F82068016841F07E
:103880000101016000F0B4FC054600BF20684168FA
:10389000C90707D100F0ACFC401B0B28F6D312E09F
:1038A0000120B0BD016821F00201016000F0A0FC20
:1038B000054600BF2068416889070DD500F098FCD7
:1038C000401B0B28F6D3606A052140F4003060628B
:1038D000012084F82010B0BD217E0268012922F069
:1038E000800208BF80320260617E0268012922F0F6
:1038F000400208BF40320260A17E0268012922F026
:10390000200208BF20320260E17E0268012922F015
:10391000100218BF10320260217F0268012922F0D4
:10392000080208BF08320260617F0268012922F0A4
:10393000040208BF04320260D4E901C2D4E90335AD
:1039400061691A432A431143ACF101021143C16179
:1039500000200121606284F82010B0BD10B586B04F
:10396000006846F60002C4F2000200219042CDE950
:103970000411CDE90211019134D046F20041C4F2A4
:103980000001884277D140F6E051C2F200010A6896
:1039900043F64000C4F20200531C0B6052B90021F0
:1039A0000091016841F000710160016801F000714F
:1039B000009100990021009150F8101C142441F04E
:1039C000080140F8101C50F8100C00F0080000909E
:1039D00000980320019040F20040C4F2020000F57C
:1039E000006035E043F64000C4F202000091016837
:1039F00041F080610160016801F0806100910099EF
:103A000040F6E051C2F200010A68531C0B6052B943
:103A100000210091016841F000710160016801F02E
:103A20000071009100990021009150F8101C412470
:103A300041F0020140F8101C50F8100C00F0020098
:103A4000009000986020019040F20040C4F2020013
:103A50000221029100210391032104910921059182
:103A600001A900F0F1FA20460521002200F06EFCC9
:103A7000204600F067FC06B010BD00007047000053
:103A800010B5016846F20042C4F20002914200D033
:103A900010BD41F23424C2F2000440F26063C2F26D
:103AA000000300212246FFF72FFD206840F203218A
:103AB000884219D040F20221884228D040F20121E8
:103AC000884218BF10BD41F2100040F26061C2F29E
:103AD0000000C2F2000105F0CBFE41F20400C2F288
:103AE0000000FEF7D7FF10BD41F29820C2F200009F
:103AF00040F260612830C2F2000105F0B9FE41F2E7
:103B00007C20C2F200000C30FEF7C4FF10BD41F271
:103B1000982040F26061C2F20000C2F2000105F09C
:103B2000A7FE41F27C20C2F20000FEF7B3FF10BDF9
:103B300070470000B0B5016846F60002C4F200020A
:103B4000914200D0B0BD41F2342540F26864C2F227
:103B50000005C2F2000405F11C0201212346FFF713
:103B6000D3FCE86940F20231884215DC40F20111D1
:103B700088422AD0B0F5817FE4D140F2E870216814
:103B80006268C2F20000C0E9001240F60800C2F20A
:103B90000000FEF77FFFB0BD40F2033188422DD018
:103BA000B0F5417F18BFB0BD40F6180040F2686123
:103BB000C2F20000C2F20001FEF782FC40F6600093
:103BC000C2F20000FEF766FFB0BD208841F2182166
:103BD0006288C2F20001088010BAA288000C4880F6
:103BE00010BAE288000C888010BA000CC88041F23C
:103BF0000C20C2F20000FEF74DFFB0BD40F62C00D5
:103C000040F26861C2F20000C2F20001FEF758FC07
:103C100040F66000C2F200000C30FEF73BFFB0BD82
:103C200070470000B0B5044690F8200001281DD16F
:103C3000022084F820002068016821F00101016061
:103C400000F0D6FA054600BF20684068C00713D0D0
:103C500000F0CEFA401B0B28F6D3606A40F4003027
:103C60006062052084F820000120B0BD606A40F445
:103C7000002060620120B0BD00206062B0BD000085
:103C80007047000070470000704700007047000058
:103C900070470000704700007047000070B5866DE7
:103CA000044600F0A5FA94F83510022925D10546FE
:103CB0002068216C026822F016020260426922F03C
:103CC0008002426109B9A16C19B1016821F00801B3
:103CD0000160016821F00101016000BF20680068F7
:103CE000C0070ED000F084FA401B0628F6D320202F
:103CF0006065032084F835000CE0802060650120B9
:103D000008E0E06D3F2101FA00F0B060012084F886
:103D100035000020002184F8341070BD90F8351073
:103D2000022909D1052180F835100068016821F0C9
:103D3000010101600020704780214165012070472A
:103D4000F0B581B004460020009040F22850C2F245
:103D500000000268D4E9166048F2B51337680821FC
:103D6000C1F64E3381403942A2FB03250CD02268B4
:103D700013685B0708D5136823F004031360B16070
:103D8000616D41F00101616501218140394208D036
:103D900022685269120604D5B160616D41F00201DA
:103DA000616504218140394208D022681268920777
:103DB00004D5B160616D41F004016165102181405D
:103DC000394215D020680268120711D5B160026827
:103DD0000168520306D4C90506D4016821F0080120
:103DE000016001E0080342D4216C09B120468847F4
:103DF000E16D202000FA01F23A4244D020680368C5
:103E0000DB0640D5B26094F835300268052B1ED130
:103E100022F016020260426922F080024261226CA6
:103E20000AB9A26C1AB1026822F0080202603F20AF
:103E30008840B060012084F83500216D0020002901
:103E400084F8340040D02046884701B0F0BD0168B6
:103E5000520310D4C90512D4016821F01001016089
:103E6000012084F83500002084F8340007E0A16CBC
:103E70000029BBD1BCE7080301D4616C00E0E16B11
:103E800009B120468847606DF0B1606DC00717D05A
:103E9000052084F835002068A90A026822F0010292
:103EA000026000BF009A01328A42009202D8026882
:103EB000D207F7D1012084F83500002084F83400BF
:103EC000E16C09B12046884701B0F0BD2DE9F04111
:103ED000044600F08DF9C4B10546022084F835008F
:103EE0000020216884F83400086820F00100086090
:103EF00026683068C0070BD000F07AF9401B05280F
:103F0000F6D903212022032042E00120BDE8F08100
:103F1000306848F23F01CFF21001251D00EA010C84
:103F20002ECDD4E9050E41EA0C0111431943294372
:103F3000D4E90778084340EA0E01606A394304284F
:103F400041EA080103D1D4E90B231143194331603D
:103F50007169042821F0070141EA00050CD1D4E978
:103F60000A1045EA010538B12046FEF745FB18B1B5
:103F70000121402201200BE020467561FEF71EFB67
:103F8000E16D3F2202FA01F181600022012100204F
:103F9000626584F83510BDE8F0810000B0B50446D4
:103FA00090F83400012828D0012084F83400A56D51
:103FB00094F8350001281DD1022084F83500002036
:103FC00060652046FEF740FBE26D3F23206803FA60
:103FD00002F2216CAA60026842F01602026019B176
:103FE000016841F008010160016841F001010160D0
:103FF0000020B0BD002084F834000220B0BD0000D5
:10400000B0B5044600F0F4F8054640F20160C2F293
:1040100000000078611C18BF044400BF00F0E8F8FD
:10402000401BA042FAD3B0BD7047000080B543F6F4
:104030001441C4F201010A68024208BF80BD086051
:10404000FFF7F2FF80BD00002DE9F04F83B000F1D3
:104050003E4202F1FF724FEAB22241F6004701925E
:10406000C4F2020708224FF0010E00254FF0000AAB
:104070004FF00008B84208BF072200920AE000BFD4
:1040800008F101080AF1040AB8F1100F05F1020560
:1040900000F0A4800C680EFA08FB14EA0B09EFD0BC
:1040A0004C6804F0030CACF1010EBEF1010F11D805
:1040B0000322876802FA05F6CA68B743AA403A4362
:1040C00082604268C4F3001722EA0B0207FA08F77D
:1040D0003A434260BCF1030F1CD0C26803238E68D0
:1040E00003FA05F7BA4306FA05F73A43BCF1020FA3
:1040F000C2600FD16FF0030202EA580202440AF0D4
:104100001C060F23176A03FA06F40B69A743B34092
:104110003B431362026803234F68AB409A4307F0A6
:104120000303AB401A4317F4403F4FF0010E026007
:10413000A6D0002243F644030292C4F202031A6896
:1041400043F6004442F480421A601A68C4F2010443
:1041500002F480420292029A28F003024FF6084BC2
:104160002244CFF6FF7B52F80B300AF00C070F26E3
:10417000BE4023EA060C019B009E072B38BF1E465B
:1041800006FA07F747EA0C0342F80B30A2684B68BF
:1041900042EA090743F60C4CDE0258BF22EA09073F
:1041A000A760C4F2010CDCF800209E0242EA090775
:1041B00058BF22EA0907CCF8007062689E0342EA01
:1041C000090758BF22EA090767602268DB0342EA51
:1041D000090358BF22EA0903236051E703B0BDE891
:1041E000F08F0000002A08BF0904816170470000B9
:1041F00049F6AC40C2F200000068704740F201602E
:1042000049F6AC41C2F20000C2F2000100780A682F
:10421000104408607047000080B543F60040C4F2C7
:104220000200016841F400710160016841F480619D
:104230000160016841F480710160032000F096F88C
:10424000002000F005F800F059F8002080BD0000C3
:1042500070B586B0002543F640010195C4F2020115
:104260000A68044642F001020A60096801A801F0E8
:10427000010101910199694600F0C4FE049E002EDF
:1042800018BF012600F0E4FE4DF68361B040C4F291
:104290001B31A0FB01014FF0FF3000EB914143F2D5
:1042A000DC40C2F200004FF0804240F2E733C0E948
:1042B0000021C0E902530561856101F083FB0546D9
:1042C000C0B943F2DC40C2F2000001F0E3FB054656
:1042D00080B91C2000F036F80F2C0AD81C2021468B
:1042E000002200F033F840F20460C2F200000460E3
:1042F00000E00125284606B070BD000080B582B000
:10430000002043F640010190C4F202014A6842F4E1
:1043100080424A604A6802F480420192019A009009
:104320000868002240F08050086008680F2100F003
:104330008050009000986FF0010000F007F802B084
:1043400080BD000080B508F06DFF80BD70B51446DB
:104350000D46064608F076FF2946224604F00CFD7D
:104360000146304608F076FF70BD000080B508F0C9
:104370008BFF80BD704700000268002051627047CB
:1043800010B5D0F800C0DCF82400D9B1DCF8283032
:10439000B1F1010E00EB13430CD00021002000BF4F
:1043A0000CEB8101D1F804410130C1B28E4503EB21
:1043B0001443F5D843EA02400CEB8E01C1F8040126
:1043C000002010BD40EA0240CCF82800002010BDBB
:1043D00080B5D0F8E00407F0EBFA80BD80B501EBC2
:1043E000C102D0F8E03400EB8200026A184607F000
:1043F00049FA80BD80B501EBC102D0F8E03400EB92
:104400008200D0F86022184607F096FA80BD0000BE
:1044100080B5D0F8E00407F0CDFA80BD80B501F09A
:104420000F0202EBC20200EB820303F11402090641
:10443000006858BF03F51572114608F06BF980BD8E
:1044400010B50446080601F00F0000EBC00104EBB4
:10445000810205D402F51571002382F8553203E07C
:10446000012302F11401537594F894240870012A71
:1044700004BF022010BD2068012284F8942407F0B4
:10448000BBFE002084F8940410BD0000B0B5027992
:10449000044601F00F00904284BF0120B0BD090620
:1044A00009D400EBC00104EB810202F51571002371
:1044B00082F8553207E000EBC00104EB81020123D2
:1044C00002F11401537594F894240025012A8D708B
:1044D000087004BF0220B0BD2068012284F8942433
:1044E00007F0DEFF284684F89454B0BD01F00F01B8
:1044F00001EBC10100EB8100D0F8680270470000B9
:10450000B0B50546080601F00F0000EBC00105EB51
:10451000810C05D40CF5157100248CF8554204E08B
:1045200001240CF114018CF815404C786FF3DF2254
:10453000002C08708A600B7118BF4883022B04BFDF
:104540000020487195F89404012804BF0220B0BDF2
:104550002868012285F8942407F088FD002085F85A
:104560009404B0BD10B501F00F0404EBC40100EBDE
:10457000810E4FF0000CCEF868C28EF855C290F84C
:1045800006C0CEF86022CEF86432BCF1010F8EF87E
:10459000544208BFCEF8702200680EF515716246CD
:1045A00007F0CEFF002010BDB0B50446007901F041
:1045B0000F05854284BF0120B0BD080609D401EB78
:1045C000C10004EB800000F51571002280F855222F
:1045D00007E005EBC50004EB8000012200F11401A7
:1045E000427594F89404012201288A700D7004BF6A
:1045F0000220B0BD206884F8942407F079FF2DB91B
:104600002068A17904F29C4207F01CFF002084F886
:104610009404B0BD80B501F00F0C0CEBCC0100EBA5
:10462000810E714601F814CF4FF0000CC1F814C090
:104630004FF0010C81F801C090F806C0CA60BCF1CF
:10464000010F0B6108BFCEF830200068624607F00A
:1046500077FF002080BD00002DE9F04F83B0066891
:104660008346304608F0F8F810B103B0BDE8F08F8B
:10467000DBF8000008F01EF90028F6D0D6F808088C
:10468000C0F30D21DBF80000CBF8D41408F012F9C8
:10469000800705D5DBF80000416901F002014161A6
:1046A000DBF8000006F5006708F004F9C00640D505
:1046B000DBF80000816921F010018161346AC4F3E4
:1046C0004340062804F00F051CD002282BD147F6E2
:1046D000F070044027D005EBC5000BEB8005D5F842
:1046E00060122209304608F0E9F8D5F86002D5F8E2
:1046F000681200EB1410C5F8600201EB1410C5F845
:10470000680210E00BF29C413046082208F0D6F80F
:1047100005EBC5000BEB8000D0F86812C4F30A1259
:104720001144C0F86812DBF80000816941F0100103
:104730008161DBF80000CDE9017608F0BBF80003E9
:104740005ED5DBF8000008F093F8002858D0064644
:1047500002984FF0000900F5306440F25725002719
:1047600017E000BF0220A0605FEA8A6044BF2020FB
:10477000A0605FEA8A4044BF4FF40050A060013758
:10478000B9EB560F4FEA560604F1200405F1240553
:1047900036D0F007F3D0DBF800005FFA87F8414627
:1047A00008F080F88246C00705D00120A060584676
:1047B000394604F037FC5FEA0A7005D50820A0608E
:1047C0005846394604F008FC5FEACA6044BF10202E
:1047D000A0605FEA8A70C7D502984069000604D5D8
:1047E0000199486840F4806048601BF80500012882
:1047F000B8D1584641460BF8059000F00DFAB1E7E4
:10480000DBF8000008F056F8400372D5DBF8000032
:1048100008F026F800286CD006460BF29C40009069
:1048200002980BF1170800F510644FF000090027FB
:104830000AE000BF0137B9EB560F4FEA560604F104
:10484000200408F1240854D0F007F3D0DBF800006E
:104850005FFA87FA514608F013F80546C00723D0DF
:10486000019A07F00F00516B012303FA00F021EACF
:1048700000005063A3609BF80600012810D1D8F80F
:104880000500D8F809100844C8F8090047B9D8F855
:104890000D0028B9DBF80000009A012107F0D2FDD5
:1048A00058465146FFF79AFD280744BF0820A060EC
:1048B000E80644BF1020A060680644BF4020A06006
:1048C000A8070FD50298394607F094FF98F8000022
:1048D000012805D15846514688F8009000F096F915
:1048E0000220A0602806A5D55846394604F006FCEB
:1048F000A0E7DBF8000007F0DDFFDDE90198B0F18B
:10490000FF3F1ADCD9F8040020F00100C9F80400C8
:104910009BF8CC04012807D100208BF8CC04584622
:104920000021FFF727FD02E0584600F057FADBF8B8
:104930000000416901F000414161DBF8000007F02F
:10494000B9FF00050CD5D9F80800C00702D05846B9
:1049500000F08EFADBF80000416901F4006141616A
:10496000DBF8000007F0A6FFC00460D5D9F804000A
:10497000102120F00100C9F80400DBF8000007F066
:1049800039FF9BF80400F8B19BF8041008F510609B
:1049900000224FF67F3300BF83600768013227F49F
:1049A00000170760C0F80832D0F800728A4227F476
:1049B0000017C0F80072D0F8007247F00067C0F826
:1049C000007200F12000E7D3D9F81C0040F001107C
:1049D000C9F81C009BF80F0040B1D9F8840040F0E2
:1049E0000B00C9F8840009F1440008E0D9F814006C
:1049F00042F22B010843C9F8140009F110000168C4
:104A00000BF29C4241F00B010160D9F8000020F448
:104A1000FE60C9F80000DBF800009BF8061007F004
:104A200011FDDBF80000416901F480514161DBF8C0
:104A3000000007F03FFF80041CD5DBF8000007F002
:104A400061FBDBF8000007F0F9FEDBF800408BF8B3
:104A5000070000F0F7FA9BF807200146204607F010
:104A6000A7FF584600F0A8F9DBF80000416901F4FF
:104A700000514161DBF8000007F01CFF000708D57A
:104A8000584600F0B1F9DBF80000416901F0080177
:104A90004161DBF8000007F00DFF00061ED5D8F8D5
:104AA000180020F08000C8F818009BF804000228C5
:104AB00014D3012440F27B2507E000BF9BF80400DB
:104AC0000134844205F1240508D21BF805000128B1
:104AD000F4D1E1B25846FFF7A1FCEFE7DBF80000A4
:104AE00007F0E8FEC00229D59BF8040002281FD376
:104AF00008F512640BF13C050126012708E000BF10
:104B00009BF8040001372034874205F124050FD2B9
:104B10002068B0F1FF3FF3DC28780128F0D147F09E
:104B20008000C1B2584605F8016CFFF777FCE7E753
:104B3000DBF80000416901F480114161DBF80000FD
:104B400007F0B8FE80023AD59BF80400022830D363
:104B500008F532600BF51F710122012308E000BF48
:104B60009BF8047001332030BB4201F1240120D2B4
:104B70000768B7F1FF3FF3DC0E78012EF0D1DBF8C8
:104B8000D46407F4803706F00106B742E8D101F893
:104B9000012CD8F8187047F08007C8F81870D8F8BA
:104BA00014703F06DCD4D9F8040040F40070C9F852
:104BB0000400DBF80000416901F400114161DBF8F9
:104BC000000007F077FE400008D55846FFF700FCCC
:104BD000DBF80000416901F080414161DBF8000031
:104BE00007F068FE40077FF540ADDBF80000446841
:104BF000600702D55846FFF70BFCDBF80000416860
:104C00002143416003B0BDE8F08F000080B5D0F8CB
:104C1000E00406F02BFF80BD80B5D0F8E00406F07C
:104C200039FF80BDB0B582B008B30446056890F87E
:104C3000950428B9002084F89404204600F078F800
:104C40000320B5F1A04F84F8950404BF0020A071A3
:104C5000206807F0EFFB94E80F00257C009507F033
:104C600061FA30B1022084F8950401255CE0012549
:104C70005AE02068002107F04DFE20B1022084F8A0
:104C80009504012550E094F804C0BCF1000F1DD03C
:104C900094F804C04FF0010E6046BCF1010F98BFBC
:104CA000704600EBC000820000230025002000BFFA
:104CB000611924350875C885AA4200F1010081F800
:104CC00015E00B76C1E907334B62F1D1BCF1000F5F
:104CD00016D00CEBCC00800000210022002300BF86
:104CE000A518243285F85432904203F1010385F867
:104CF000551285F85812C5E99711C5F86412EFD11D
:104D000094E80F00257C009507F0E0FA20B102201E
:104D100084F89504012507E000250120657484F8D6
:104D20009504206807F0C2FA284602B0B0BD000022
:104D3000B0B586B000680024B0F1A04F0594CDE96D
:104D400003440294019401D006B0B0BD43F630058F
:104D50000094C4F20205286801A940F0010028600F
:104D6000286800F00100009000984FF4C0500190B6
:104D70000220CDE90204032004900A2005900020BF
:104D8000C4F20200FFF760F96868052140F0800076
:104D9000686000946869002240F480406861686936
:104DA00000F48040009000984320FFF7CFFA4320A2
:104DB000FFF7C8FA06B0B0BD10B5C179044621B1FD
:104DC000022918BFFDF7BEFD0121D4F8E00406F06A
:104DD000D3FED4F8E00406F085FE10BD80B5D0F80F
:104DE000E00406F0B1FE80BD80B5D0F8E00406F026
:104DF000B5FE80BD10B5044690F89404012804BFA8
:104E0000022010BD012084F894046174206807F02A
:104E1000B5FD002084F8940410BD000080B5D0F8E2
:104E2000E02400F29C41104606F0B2FE80BD000076
:104E300010B5044690F89404012804BF022010BD68
:104E40002068012184F89414C168490606D5617B65
:104E5000012903D1816B41F48031816307F09EFC0D
:104E6000206807F013FA002084F8940410BD0000B5
:104E700010B50446D0F8E00406F0C6FE2068D0F86D
:104E8000001E41F00101C0F8001EE07A002808BFB2
:104E900010BD4EF61050CEF20000016841F0060140
:104EA000016010BD2DE9F041002800F08B8043F631
:104EB0000808C4F202080446D8F8F8030D4600F0CA
:104EC0000700884207D288F8F853D8F8F80300F0B2
:104ED0000700A84276D12068810717D5410705D57C
:104EE000D8F8001041F4E051C8F80010010705D5CA
:104EF000D8F8001041F46041C8F80010D8F800104C
:104F0000A26821F0F0011143C8F80010C0073FD19A
:104F1000D8F8F80300F00700A84207D988F8F8533A
:104F2000D8F8F80300F00700A8424BD120684107E9
:104F300007D5D8F80010E26821F4E0511143C8F811
:104F40000010000708D5D8F80000216920F460405F
:104F500040EAC100C8F8000000F09EF8D8F8001040
:104F600040F60032C1F30311C0F60102515C40F279
:104F7000285220FA01F140F20460C2F200000068F9
:104F8000C2F200021160FFF763F90020BDE8F08172
:104F90006068811E022907D258F8081C89015CBF8D
:104FA0000120BDE8F08110E0012807D158F8081C65
:104FB00089035CBF0120BDE8F08106E058F8081CB9
:104FC000890702D40120BDE8F081D8F8001021F053
:104FD00003010843C8F80000FFF70AF9064641F24A
:104FE000883700BFD8F80000616800F00C00B0EB13
:104FF000810F8DD0FFF7FCF8801BB842F2D9032057
:10500000BDE8F0810F22026043F60802C4F20202FA
:10501000136803F003034360136803F0F003836035
:10502000136803F4E053C360D2F800C04FF4E053B8
:1050300003EADC030361D2F8F80300F0070008601C
:105040007047000040F22850C2F20000006870472C
:1050500080B5FFF7F7FF43F60801C4F202010968C3
:1050600040F61032C1F38221C0F60102515CC84003
:1050700080BD000080B5FFF7E5FF43F60801C4F2EC
:105080000201096840F61032C1F34231C0F6010254
:10509000515CC84080BD000010B543F60404C4F262
:1050A0000204606800F00C0008280AD0042819BF28
:1050B00042F20040C0F2F40041F60030C0F2B70006
:1050C00010BD206821682368490241F60031C0F212
:1050D000B70100F03F02C3F388105CBF42F2004109
:1050E000C0F2F401A1FB00010023FBF7BDFD216824
:1050F0000222C1F3014102EB4101B0FBF1F010BD0E
:105100002DE9F04182B0002800F0A280044600782A
:1051100043F60006C007C4F2020643D0B06800F0B0
:105120000C00042805D1306880033BD56068C8BBFB
:105130008EE0B06800F00C00082802D170684002D0
:10514000F1D46568B5F5A02F0AD0B5F5803F0BD036
:10515000306820F480303060306820F4802006E031
:10516000306840F480203060306840F48030306037
:10517000FFF73EF8002D054611D000BF30688003D0
:1051800010D4FFF735F8401B6428F7D922E100BF9F
:10519000FFF72EF8401B64284FF0030055D8306805
:1051A0008003F5D4207880071AD5B06810F00C0F72
:1051B00009D0B06800F00C00082840F08A807068C0
:1051C000400200F186803068800702D5E06801283F
:1051D0003ED13068216920F0F80040EAC10030601B
:1051E0002078000738D4207840074CD4A5695DB3F7
:1051F000B06800F00C00082840F09E80012D27D0F8
:105200007068E16900F480028A4221D1216A00F0CD
:105210003F028A421CD147F6C071626A0140B1EB7D
:10522000821F15D1A26A0023CFF6FF7303EBC232AF
:1052300000F440316FF30F02914209D1E16A00F0AE
:105240007060B0EB016F03D1002002B0BDE8F081C7
:10525000012002B0BDE8F0816069002840F2000042
:10526000C4F2472057D00121C0F8801EFEF7C0FFCE
:10527000054600BF706F8007B5D4FEF7B9FF401B2D
:105280000228F7D9A6E0306C10F080580AD100202F
:105290000190306C40F080503064306C00F08050F1
:1052A0000190019847F20007C4F200073868C00572
:1052B00024D4386840F480703860FEF799FF0546C2
:1052C0003868C0051AD4FEF793FF401B0228F7D9AF
:1052D00080E0E068002851D00020C4F2472001217E
:1052E0000160FEF785FF0546306880073FF571AF26
:1052F000FEF77EFF401B0228F6D96BE0A568052D5E
:1053000050D0012D52D0306F20F001003067306F47
:1053100020F004004DE00021C0F8801EFEF768FF79
:10532000054600BF706F80077FF55DAFFEF760FF39
:10533000401B0228F6D94DE00027C4F24727002081
:105340003866FEF755FF022D05460BD13068800107
:1053500058D5FEF74DFF401B02284FF00300F5D94A
:1053600073E700BF306880017FF56EAFFEF740FF46
:10537000401B02284FF00300F4D966E70020C4F276
:10538000472000210160FEF733FF054630688007A3
:105390007FF526AFFEF72CFF401B02284FF00300DD
:1053A000F4D952E7306F40F004003067306F40F0BE
:1053B00001003067FEF71CFF002D054641F28837DB
:1053C00014D000BF306F800713D4FEF711FF401BCD
:1053D000B842F7D9032002B0BDE8F081FEF708FF1C
:1053E000401BB8424FF003003FF62FAF306F8007ED
:1053F000F4D4B8F1000F7FF4F9AE306C20F0805097
:105400003064F3E604F11C052FCD08430021CFF6EC
:10541000FF7140EA821001EBC3316FF30F0140EAE4
:1054200005600843706001203866FEF7E1FE04461F
:10543000306880013FF508AFFEF7DAFE001B022856
:105440004FF00300F4D900E77047000010B50446A0
:10545000006841688A0615D44A0615D4C90710D0D9
:10546000016821F0080101608168E1606079042829
:1054700008BF10BD0120607100202071204600F09F
:105480004DF810BD102000E00820A06004206071DD
:105490002046FFF7D9FF20686FF06001416010BD22
:1054A000002804BF0120704710B50446407920B998
:1054B00000202071204600F00DF802206071206865
:1054C000016841F004010160012060710020A060CA
:1054D00010BD000080B582B0006840F60001C5F242
:1054E0000601884201D002B080BD0020019043F641
:1054F0003400C4F202000168002241F04001016062
:105500000068052100F04000019001985020FEF74E
:105510001DFF5020FEF716FF02B080BD704700004F
:1055200070B538B10446406A30B10020206104F102
:10553000140007E0012070BD6068B0F5827F03D0E1
:1055400004F11C00002101600026A66294F85100BD
:1055500020B9204684F8506000F03CF8022084F81E
:10556000510094E80F0001F48271056802F40442CE
:1055700025F040050560114403F4006223691144DD
:1055800003F002026369114403F00102A369E569B3
:10559000114403F40072114405F03802256A1144E5
:1055A00005F08002A56A114305F400521143016021
:1055B000626A042101EA134102F0100211444160C1
:1055C000C16921F40061C1610120666584F8510060
:1055D000304670BD2DE9F04F87B0044643F2000716
:1055E0000068C4F201070026B8420696CDE90466B9
:1055F0000396029602D007B0BDE8F08F43F6300064
:105600000196C4F20200416902AD41F4805141614A
:1056100041694FF0020901F480510191019901960D
:1056200001684FF0010A41F00201016001684FF08A
:10563000030B01F0020101910199019601684FF0FD
:10564000050841F0010101600068294600F00100F1
:10565000019001981820029007F55440CDF80C9065
:10566000CDF810A0CDF814B0CDF81880FEF7ECFC02
:10567000802002A981E8010ECDF8188046F240484A
:1056800007F550402946C4F20208FEF7DDFC42F659
:105690000055C2F200054FF440304FF0C0674FF4A0
:1056A0008069C5E908062846C5E90087C5E902669C
:1056B000C5E90496C5E90666FEF708FC002818BF90
:1056C000FDF740F9E564AC6342F6605508F1180057
:1056D000C2F200054021C5E9000705F108000022DB
:1056E00080E806024FF40030C5E908022846C5E903
:1056F0000522EA61FEF7EAFB002818BFFDF722F950
:10570000A564AC6307B0BDE8F08F00002DE9F0435D
:1057100081B01E4615460F460446FEF769FD94F813
:1057200051108146012909D06068B0F5827F14D1FB
:1057300004294FF0020007D1A16829B9002F4FF0CA
:10574000010018BF002D02D101B0BDE8F083002E8A
:10575000FAD094F85000012803D1022001B0BDE82E
:10576000F083012084F8500094F8510000210428AF
:105770001CBF052084F851006165A563E687A687F4
:105780002763E6862068A68621646164016849066D
:1057900003D4016841F0400101606168731EE26852
:1057A000B1FA81F1B3FA83F3DDF8208049095B098E
:1057B000B2F5006F41EA030139D139B1216B098893
:1057C000C160B81C2063E08E0138E086012608F134
:1057D000010500BFE08E10B9E08F00286CD0206872
:1057E000816889070CD5E18E012E09D141B1216B69
:1057F000002631F8022BC2602163E18E0139E18677
:105800008168C9070AD0E18F41B1C068A16B012648
:1058100021F8020BA163E08F0138E087FEF7E8FC76
:10582000002DD7D0A0EB09004045D3D33AE039B1E1
:1058300039780173206B01302063E08E0138E086F7
:10584000012608F1010500BFE08E08B9E08F98B38A
:105850002068816889070DD5E18E012E0AD149B1F2
:10586000216B002609780173206B01302063E08EE4
:105870000138E08620688168C9070BD0E18F49B103
:10588000C068A16B01260870A06B0130A063E08F97
:105890000138E087FEF7ACFC002DD5D0A0EB090065
:1058A0004045D1D3012084F85100002084F85000F5
:1058B000032001B0BDE8F083204641464A4604F08B
:1058C000F9F840B120206065002084F850000120E4
:1058D00001B0BDE8F083A06838B9002000902068CE
:1058E000C1680091806800900098012084F8510000
:1058F000002084F85000606D002818BF012001B01E
:10590000BDE8F083704700007047000010B590F8C4
:105910003C20012A4FF0020252D0012380F83C3093
:1059200080F83D200268D2F804E0D2F808C00C6884
:105930002EF07003234341F2FF74C4F20004A2422C
:1059400053600DDC40F2FF73C4F200039A4215DC91
:10595000B2F1804F29D040F20043C4F2000322E0AC
:1059600040F2FF33C4F201039A4212DC41F6000315
:10597000C4F200039A4218D0002312E040F600035C
:10598000C4F200039A4210D040F60043C4F2000370
:1059900009E044F20003C4F201039A4205D040F248
:1059A0000043C4F201039A4204D149682CF08003F9
:1059B000194391600121002280F83D1080F83C20BD
:1059C000104610BD002804BF0120704710B50446E2
:1059D00090F83D0028B9002084F83C00204600F0F3
:1059E0001FF8022084F83D002068211D04F0DAFD34
:1059F000012084F8460084F83E0084F83F0084F8D3
:105A0000400084F8410084F8420084F8430084F8A0
:105A1000440084F8450084F83D00002010BD0000DB
:105A200080B582B0006844F20041C4F201018842AE
:105A30001ED040F20041C4F20001884227D100206C
:105A4000019043F64000C4F202000168002241F0D8
:105A5000020101600068052100F002000190019838
:105A60001D20FEF773FC1D20FEF76CFC02B080BD0C
:105A70000020009043F64000C4F20200416841F467
:105A800000314160406800F400300090009802B09E
:105A900080BD000090F83D1001291CBF0120704717
:105AA000022180F83D10006841F2FF72C168C4F223
:105AB0000002904241F00101C1600DDC40F2FF7133
:105AC000C4F20001884215DCB0F1804F29D040F2C9
:105AD0000041C4F2000122E040F2FF31C4F20101B2
