:020000040800F2
:10000000F00E0120290200086D570008554F000826
:100010006957000821050008A1A0000800000000A1
:10002000000000000000000000000000F15B00087C
:100030008D07000800000000815B0008815C00085B
:10004000430200084302000843020008430200087C
:10005000430200084302000843020008430200086C
:1000600043020008910700089D07000843020008AA
:100070001506000843020008430200084302000876
:10008000430200084302000843020008430200083C
:10009000250500084302000843020008A9070008DC
:1000A000430200084302000843020008430200081C
:1000B000715D0008815D00084302000843020008EA
:1000C00043020008430200084302000843020008FC
:1000D00043020008D567000843020008E5670008EE
:1000E00043020008430200084302000843020008DC
:1000F00043020008430200084302000843020008CC
:1001000043020008430200084302000843020008BB
:1001100043020008430200084302000843020008AB
:10012000430200084302000843020008430200089B
:10013000430200084302000843020008430200088B
:10014000430200083505000843020008DD57000897
:10015000250600084302000835060008430200088F
:10016000430200084302000843020008430200085B
:100170004302000843020008430200080000000098
:10018000454F00084302000800F002F800F03CF878
:100190000AA090E8000C82448344AAF10107DA45E2
:1001A00001D100F031F8AFF2090EBAE80F0013F0F8
:1001B000010F18BFFB1A43F00103184784CD00005C
:1001C000A4CD0000103A24BF78C878C1FAD85207ED
:1001D00024BF30C830C144BF04680C6070470000C1
:1001E0000023002400250026103A28BF78C1FBD840
:1001F000520728BF30C148BF0B6070471FB50CF0D5
:1002000029FE1FBD10B510BD00F04FF91146FFF7D4
:10021000F5FF09F0C9FF00F06DF903B4FFF7F2FF35
:1002200003BC00F075F90000094880470948004701
:10023000FEE7FEE7FEE7FEE7FEE7FEE7FEE7FEE796
:10024000FEE7FEE704480549054A064B70470000F3
:100250005D5D000889010008F08E0020F00E01208D
:10026000F0CE0020F0CE002053EA020C00F06980AE
:100270002DE9F04B4FF00006002B1FBFB3FA83F5BA
:1002800003FA05F424FA05F65E4012BF1643B2FAEB
:1002900082F502FA05F4C5F120051EBF22FA05FC1D
:1002A00044EA0C04203556EA044C4FEA144418BFC3
:1002B000641C4FF000084FF00009904271EB030CF2
:1002C00039D3002919BFB1FA81F701FA07F6B0FA5C
:1002D00080F700FA07F6C7F120071EBF20FA07FCD7
:1002E00046EA0C062037B6FBF4FCA7EB0507103FE7
:1002F00007F01F0BCBF120062CFA06F60CFA0BFBCD
:1003000044BFB3460026202FA4BF5E464FF0000B2B
:100310005BEA060C08BF4FF0010B19EB0B0948EB29
:100320000608ABFB027C06FB02CC0BFB03CCC01B1C
:1003300071EB0C01C1E70B46024641464846BDE859
:10034000F08B13B5084318BF4FF0FF300146AFF3F1
:100350000080BDE81C407047032A40F2308010F056
:10036000030C00F0158011F8013BBCF1020F624450
:1003700098BF11F801CB00F8013B38BF11F8013BE1
:10038000A2F1040298BF00F801CB38BF00F8013B8E
:1003900011F0030300F05780083AC0F0088051F8CC
:1003A000043B083A51F804CBA0E80810F5E7121D09
:1003B0005CBF51F8043B40F8043BAFF30080D20728
:1003C00024BF11F8013B11F801CB48BF11F8012BF4
:1003D00024BF00F8013B00F801CB48BF00F8012B17
:1003E000704702F0FF0343EA032242EA024200F0B0
:1003F00002B84FF0000200B51346944696462039E5
:1004000022BFA0E80C50A0E80C50B1F12001BFF4CD
:10041000F7AF090728BFA0E80C5048BF0CC05DF833
:1004200004EB890028BF40F8042B08BF704748BF81
:1004300020F8022B11F0804F18BF00F8012B7047F5
:1004400070477047704710B5203AC0F00B80B1E894
:100450001850A0E81850B1E81850A0E81850203AF9
:10046000BFF4F5AF5FEA027C24BFB1E81850A0E802
:10047000185044BF18C918C0BDE810405FEA827C1C
:1004800024BF51F8043B40F8043B08BF7047D20733
:1004900028BF31F8023B48BF11F8012B28BF20F8D4
:1004A000023B48BF00F8012B7047754600F02CF85E
:1004B000AE4605006946534620F00700854618B051
:1004C00020B5FFF7BFFEBDE820404FF000064FF01B
:1004D00000074FF000084FF0000BAC46ACE8C00935
:1004E000ACE8C009ACE8C009ACE8C00921F00701DC
:1004F0008D46704710B50446AFF300802046BDE836
:100500001040FFF78ABE000000487047000100203D
:1005100001491820ABBEFEE726000200704700002C
:10052000FFE7FEE780B541F67000C2F2000000F080
:100530007DF980BD80B541F69800C2F2000000F060
:1005400075F980BD84B08DF80F000291ADF80620DA
:100550009DF80F000146009123281DD80099DFE87F
:1005600001F012131415161B1B1B1B1B1B1B1B1B43
:100570001B1B1B1B1B1B1B1B1B1B1B1B1B1B1B1BCB
:100580001B1B1718191A08E007E006E005E004E055
:1005900003E002E001E000E0FFE7002004B0704764
:1005A0000020704780B582B041F29450C2F2000042
:1005B000009040F69451C2F200010022019206F030
:1005C000B3FC009840F29451C2F2000106F08EFC98
:1005D000019802B080BD000080B584B00390029104
:1005E000039941F29450C2F20000019006F07EFCA3
:1005F000019806F021FC002004B080BD83B0029079
:1006000001918DF8032000208DF802009DF9020071
:1006100003B0704780B541F64020C2F2000000F000
:1006200079FD80BD80B541F68010C2F2000000F077
:1006300071FD80BD80B541F6E010C2F2000000F00F
:1006400069FD80BD82B001900198007810384AF6AB
:10065000AB21CAF6AA21A0FB011000090090009965
:100660004CF68660C0F60000405C0199C8650098B1
:10067000042807D3FFE701990868042262F3090000
:10068000886506E00199086840F2FF32904388656A
:10069000FFE70198806D02B07047000086B00590BA
:1006A00000208DF813000598806A039005988069F2
:1006B00010BBFFE70398029003281BD80299DFE8DC
:1006C00001F0020D0218059890F82F00C00720B124
:1006D000FFE701208DF81300FFE70CE00598C06AE2
:1006E000B0F1C07F04D1FFE701208DF81300FFE7D0
:1006F00001E000E0FFE745E005988069B0F5005FA4
:1007000025D1FFE70398019003281ED80199DFE85F
:1007100001F00206021101208DF8130016E0059881
:1007200090F82F00C00720B1FFE701208DF81300DB
:10073000FFE70BE00598C06AB0F1C07F04D1FFE786
:1007400001208DF81300FFE700E0FFE719E00398B0
:100750000090032804D3FFE70098032804D00EE09C
:1007600001208DF813000BE0059890F82F00C007CA
:1007700020B1FFE701208DF81300FFE700E0FFE75D
:10078000FFE7FFE79DF8130006B0704770470000D1
:1007900080B5082000F02EFF80BD000080B510203D
:1007A00000F028FF80BD000080B5202000F022FF6F
:1007B000402000F01FFF802000F01CFF80BD0000E3
:1007C00072B6FFE7FEE7000080B584B047F6102060
:1007D000C1F6FF700068039047F61420C1F6FF7061
:1007E0000068029047F61820C1F6FF70006801907B
:1007F0000199039808440390039888B1FFE7039890
:1008000040F2D801C2F2000100910231082204F046
:10081000A3FB009902981231042204F09DFBFFE72C
:1008200004B080BD81B0009001B0704780B58AB03F
:10083000099000200890099800684069079009987D
:1008400000684068069009980068806805900998DB
:100850000068C068049009980068006903900998CE
:100860000068806902909DF81C00C007002800F015
:100870009480FFE79DF81400C00758B3FFE709987C
:100880000168012088609DF814008007002804D5C5
:10089000FFE7099800F08EFB1BE09DF8140040076D
:1008A000002805D5FFE7089840F4006008900FE0A5
:1008B0009DF814000007002805D5FFE7089840F4CC
:1008C0008050089003E0099800F070FBFFE7FFE715
:1008D000FFE7FFE79DF81500C00760B3FFE7099841
:1008E00001684FF4807088609DF81500800700282B
:1008F00004D5FFE7099800F065FB1BE09DF81500A3
:100900004007002805D5FFE7089840F400500890FC
:100910000FE09DF815000007002805D5FFE70898AF
:1009200040F48040089003E0099800F047FBFFE79F
:10093000FFE7FFE7FFE79DF81600C00760B3FFE79A
:10094000099801684FF4803088609DF81600800790
:10095000002804D5FFE7099800F03CFB1BE09DF858
:1009600016004007002805D5FFE7089840F400402E
:1009700008900FE09DF816000007002805D5FFE756
:10098000089840F48030089003E0099800F01EFBBE
:10099000FFE7FFE7FFE7FFE7FFE79DF81C00000721
:1009A000002810D5FFE79DF81000C006002809D5E3
:1009B000FFE7089840F4007008900998016810203B
:1009C000C860FFE7FFE79DF81C00400700280FD52F
:1009D000FFE79DF810000007002808D5FFE70998F9
:1009E00001680820C860099800F0CCFAFFE7FFE72B
:1009F0009DF81C00800700280BD5FFE709980068C8
:100A0000C068800720B1FFE7099800F0BFFAFFE750
:100A1000FFE79DF81C004006002810D5FFE79DF871
:100A20000C00C006002809D5FFE7089840F4806054
:100A300008900998016810200861FFE7FFE79DF81A
:100A40001C00800600280FD5FFE79DF80C0000076A
:100A5000002808D5FFE7099801680820086109986F
:100A600000F098FAFFE7FFE79DF81C00C006002899
:100A70000BD5FFE7099800680069800720B1FFE700
:100A8000099800F08BFAFFE7FFE79DF81E0080074A
:100A900000280FD5FFE79DF81800C006002808D5EC
:100AA000FFE70998016810204860099800F07AFA79
:100AB000FFE7FFE79DF81E00C00778B1FFE79DF84C
:100AC00018000007002808D5FFE7099801680820EA
:100AD0004860099800F082FAFFE7FFE79DF81D00E3
:100AE0000006002840F18D80FFE79DF818004007C0
:100AF000002840F18180FFE79DF81D00C00750B13C
:100B0000FFE79DF80800C00728B1FFE7089840F00C
:100B100001000890FFE79DF81D00800700280BD515
:100B2000FFE79DF808008007002805D5FFE7089833
:100B300040F002000890FFE79DF81D0040070028E4
:100B40000BD5FFE79DF808004007002805D5FFE713
:100B5000089840F004000890FFE79DF81D0000078A
:100B6000002848D5FFE79DF8080010F0700F42D02C
:100B7000FFE7029800F0700001460191102814D0A0
:100B8000FFE70198202815D0FFE70198302816D0FC
:100B9000FFE70198402817D0FFE70198502818D0A8
:100BA000FFE70198602819D01DE0089840F0080080
:100BB000089019E0089840F01000089014E0089898
:100BC00040F0200008900FE0089840F040000890A6
:100BD0000AE0089840F08000089005E0089840F48A
:100BE0008070089000E0FFE709980168886920F0AC
:100BF00070008861FFE7FFE70998016804204860FA
:100C0000FFE7089848B1FFE7089A0999486A104336
:100C100048620998FFF706FEFFE70AB080BD0000B2
:100C200080B584B00290029820B9FFE701208DF8CA
:100C30000F00E0E0029890F8200020B9FFE702984A
:100C400000F0DEF8FFE702980168086840F0010054
:100C5000086000F0DFFE0190FFE70298006840683E
:100C6000C007A8B9FFE700F0D5FE0199401A0B288C
:100C70000DD3FFE70299486A40F4003048620299B8
:100C8000052081F8200001208DF80F00B3E0E4E793
:100C900002980168086820F00200086000F0BAFEBF
:100CA0000190FFE70298006840688007002815D58A
:100CB000FFE700F0AFFE0199401A0B280DD3FFE7C4
:100CC0000299486A40F4003048620299052081F890
:100CD000200001208DF80F008DE0E3E70298007EF0
:100CE000012807D1FFE702980168086840F08000FA
:100CF000086006E002980168086820F0800008603B
:100D0000FFE70298407E012807D1FFE702980168BB
:100D1000086840F04000086006E002980168086832
:100D200020F040000860FFE70298807E012807D18C
:100D3000FFE702980168086840F02000086006E0BC
:100D400002980168086820F020000860FFE7029818
:100D5000C07E012807D1FFE702980168086820F0EB
:100D60001000086006E002980168086840F0100072
:100D70000860FFE70298007F012807D1FFE702988B
:100D80000168086840F00800086006E00298016801
:100D9000086820F008000860FFE70298407F0128FB
:100DA00007D1FFE702980168086840F00400086076
:100DB00006E002980168086820F004000860FFE778
:100DC000029B19685A689868D3F80CC040EA0C0076
:100DD000D3F810C040EA0C005B691843013A104395
:100DE000C861029900204862029A012182F820100D
:100DF0008DF80F00FFE79DF80F0004B080BD0000E4
:100E000080B590B00F9000200E900D900C900B903C
:100E10000A900F98006846F20041C4F2000188422F
:100E200049D1FFE740F26010C2F2000001680131D1
:100E300001600068012812D1FFE7FFE70020099058
:100E400043F64000C4F20200016841F00071016005
:100E5000006800F0007009900998FFE7FFE7FFE7DE
:100E60000020089043F63000C4F20200016841F00F
:100E700008010160006800F0080008900898FFE78A
:100E800003200A9002210B91002103910C910D90F7
:100E900009200E9040F60040C4F202000AA900F0BA
:100EA000C5FB039A14200490052100F091FE0498DC
:100EB00000F084FE64E00F98006846F60001C4F27A
:100EC000000188425BD1FFE7FFE70020079043F66F
:100ED0004000C4F20200016841F0806101600068D6
:100EE00000F0806007900798FFE740F26010C2F2C0
:100EF00000000168013101600068012812D1FFE79C
:100F0000FFE70020069043F64000C4F202000168AB
:100F100041F000710160006800F0007006900698D2
:100F2000FFE7FFE7FFE70020059043F63000C4F23B
:100F30000200016841F002010160006800F0020057
:100F400005900598FFE760200A9002200B90002092
:100F500001900C9003200D9009200E9040F200406B
:100F6000C4F202000AA900F061FB019A412002903C
:100F7000052100F02DFE029800F020FEFFE7FFE7BC
:100F800010B080BD81B0009001B0704781B000907A
:100F900001B0704781B0009001B0704781B00090FF
:100FA00001B0704781B0009001B0704781B00090EF
:100FB00001B0704781B0009001B0704781B00090DF
:100FC00001B0704781B0009001B0704781B00090CF
:100FD00001B0704781B0009001B0704781B00090BF
:100FE00001B0704780B584B002900298806D019086
:100FF00000F010FD0090029890F8350002280DD006
:10100000FFE7029980204865FFE70299002081F8F8
:101010003400FFE701208DF80F0055E002980168C9
:10102000086820F01600086002980168486920F0FE
:10103000800048610298006C20B9FFE70298806C3C
:1010400038B1FFE702980168086820F008000860DE
:10105000FFE702980168086820F001000860FFE7D8
:10106000029800680068C007C8B1FFE700F0D2FC32
:101070000099401A062811D3FFE7029920204865FD
:101080000299032081F83500FFE70299002081F8DA
:101090003400FFE703208DF80F0015E0E0E7029829
:1010A000C16D3F208840019988600299012081F834
:1010B0003500FFE70299002081F83400FFE7FFE7E1
:1010C00000208DF80F00FFE79DF80F0004B080BDF1
:1010D00082B00090009890F83500022807D0FFE712
:1010E00000998020486501208DF807000EE00099E6
:1010F000052081F8350000980168086820F001009B
:101100000860FFE700208DF80700FFE79DF8070063
:1011100002B0704780B586B005900020039040F281
:101120002000C2F20000006848F2B511C1F64E314D
:10113000A0FB0110800A02900598806D0190019833
:101140000068049004980599C96DC84000070028FC
:101150001AD5FFE70598006800684007002812D5F7
:10116000FFE705980168086820F00400086005980A
:10117000C16D08208840019988600599486D40F04C
:1011800001004865FFE7FFE704980599C96DC8406D
:10119000C007A0B1FFE70598006840690006002875
:1011A0000CD5FFE70598C16D012088400199886042
:1011B0000599486D40F002004865FFE7FFE7049895
:1011C0000599C96DC8404007002814D5FFE7059868
:1011D00000680068800700280CD5FFE70598C16DFE
:1011E00004208840019988600599486D40F004000A
:1011F0004865FFE7FFE704980599C96DC840C00638
:10120000002847D5FFE70598006800680007002818
:101210003FD5FFE70598C16D10208840019988608F
:10122000059800680068400300281AD5FFE7059874
:10123000006800680003002809D4FFE70598006CE7
:1012400020B1FFE70598016C8847FFE708E00598A3
:10125000806C20B1FFE70598816C8847FFE7FFE7C6
:1012600016E0059800680068C005002807D4FFE76D
:1012700005980168086820F008000860FFE70598F5
:10128000006C20B1FFE70598016C8847FFE7FFE796
:10129000FFE7FFE704980599C96DC840800600285C
:1012A00040F18D80FFE7059800680068C0060028BF
:1012B00040F18480FFE70598C16D202088400199A6
:1012C0008860059890F83500052834D1FFE7059827
:1012D0000168086820F016000860059801684869F0
:1012E00020F0800048610598006C20B9FFE7059860
:1012F000806C38B1FFE705980168086820F00800A5
:101300000860FFE70598C16D3F208840019988601B
:101310000599012081F83500FFE70599002081F843
:101320003400FFE70598006D20B1FFE70598016DD7
:101330008847FFE77BE005980068006840030028C5
:101340001AD5FFE70598006800680003002809D453
:10135000FFE70598406C20B1FFE70598416C88478E
:10136000FFE708E00598C06B20B1FFE70598C16B67
:101370008847FFE7FFE720E0059800680068C005A0
:10138000002811D4FFE705980168086820F01000D4
:1013900008600599012081F83500FFE705990020D4
:1013A00081F83400FFE7FFE70598C06B20B1FFE745
:1013B0000598C16B8847FFE7FFE7FFE7FFE7059860
:1013C000406DA0B3FFE70598406DC00730B3FFE75D
:1013D0000599052081F8350005980168086820F016
:1013E00001000860FFE703980130039002998842EA
:1013F00001D9FFE707E0FFE7059800680068C0072C
:101400000028F0D1FFE70599012081F83500FFE7BA
:101410000599002081F83400FFE7FFE70598C06CCC
:1014200020B1FFE70598C16C8847FFE7FFE706B0EA
:1014300080BD000080B586B004900020039000F0CD
:10144000E9FA0290049820B9FFE701208DF817000F
:10145000A3E00498406A08B1FFE7FFE7049902207F
:1014600081F83500FFE70499002081F83400FFE798
:1014700004980168086820F001000860FFE70498FC
:1014800000680068C00790B1FFE700F0C3FA029956
:10149000401A06280AD3FFE70499202048650499DA
:1014A000032081F835008DF8170076E0E7E704980F
:1014B000006800680390039848F23F01CFF21001E2
:1014C00008400390049900914868D1F808C0CB689F
:1014D0000A6940EA0C00184310434A6910438A69BC
:1014E0001043CA691043096A0143039808430390F3
:1014F0000498406A042808D1FFE70499C86A096B78
:101500000143039808430390FFE70398049909688F
:1015100008600498006840690390039820F0070071
:1015200003900498416A0398084303900498406A22
:1015300004281AD1FFE70498816A039808430390AE
:101540000498C06A80B1FFE70498FFF7A7F850B18C
:10155000FFE70499402048650499012081F835008F
:101560008DF8170019E0FFE7FFE703980499096871
:1015700048610498FFF766F801900498C16D3F2018
:10158000884001998860049900204865049A0121E7
:1015900082F835108DF81700FFE79DF8170006B0A8
:1015A00080BD000080B584B0039000F033FA029053
:1015B000039801900198013048B1FFE740F2F20032
:1015C000C2F200000178019808440190FFE7FFE7AC
:1015D00000F020FA0299401A0199884201D2FFE7EF
:1015E000F6E704B080BD000081B0ADF8020001B0A4
:1015F0007047000080B582B0ADF8060043F6144095
:10160000C4F201000068BDF8061008420CD0FFE7E4
:10161000BDF8060043F61441C4F201010860BDF8AC
:101620000600FFF7E1FFFFE702B080BD8EB00D902E
:101630000C9100200A90099008900B90FFE70B98FE
:101640000F2800F2CC81FFE70B99012088400A9017
:101650000C9800680A990840099009980A998842EC
:1016600040F0B881FFE70C98406800F003000128C3
:1016700007D0FFE70C98406800F0030002282FD144
:10168000FFE70D98806808900B984100032000FA4E
:1016900001F10898884308900C98C0680B9949009C
:1016A00000FA01F108980843089008980D9988609D
:1016B0000D98406808900B99012000FA01F10898F4
:1016C000884308900C984068C0F300100B9900FA0A
:1016D00001F108980843089008980D994860FFE7C1
:1016E0000C98406800F00300032818D0FFE70D981D
:1016F000C06808900B984100032000FA01F1089897
:10170000884308900C9880680B99490000FA01F111
:1017100008980843089008980D99C860FFE70C984E
:10172000406800F00300022826D1FFE70D980B99CE
:101730006FF0030202EA51010844006A08900B9816
:1017400000F0070081000F2000FA01F1089888439B
:1017500008900C9800690B9901F00701890000FAC4
:1017600001F108980843089008980D990B9B02EA2C
:10177000530211440862FFE70D98006808900B9827
:101780004100032000FA01F10898884308900C9862
:10179000406800F003000B99490000FA01F1089835
:1017A0000843089008980D9908600C988079800784
:1017B000002800F00E81FFE7FFE70020079043F6C6
:1017C0004400C4F20200016841F4804101600068F5
:1017D00000F4804007900798FFE70B9820F0030083
:1017E00043F60801C4F20101405808900B9800F03C
:1017F000030081000F2000FA01F108988843089047
:101800000D980021C4F20201884203D1FFE70020B5
:1018100006905EE00D9840F20041C4F20201884259
:1018200003D1FFE70120059050E00D9840F600013C
:10183000C4F20201884203D1FFE70220049042E093
:101840000D9840F60041C4F20201884203D1FFE73F
:101850000320039034E00D9841F20001C4F202012C
:10186000884203D1FFE70420029026E00D9841F260
:101870000041C4F20201884203D1FFE70520019034
:1018800018E00D9841F60001C4F20201884203D12C
:10189000FFE7062000900AE00D9941F60042C4F2ED
:1018A00002020820914208BF07200090FFE700983D
:1018B0000190FFE701980290FFE702980390FFE78D
:1018C00003980490FFE704980590FFE705980690B9
:1018D000FFE70698C0B20B9901F00301890000FAF6
:1018E00001F108980843089008980B9921F003012A
:1018F00043F60802C4F20102885043F60840C4F2DD
:1019000001000068089009990898884308900C988D
:101910008079C006002805D5FFE709990898084393
:101920000890FFE7089843F60841C4F201010860F7
:1019300043F60C40C4F20100006808900999089829
:10194000884308900C9880798006002805D5FFE729
:101950000999089808430890FFE7089843F60C4156
:10196000C4F20101086043F60440C4F201000068BB
:10197000089009990898884308900C988079800706
:10198000002805D5FFE70999089808430890FFE764
:10199000089843F60441C4F20101086043F6004090
:1019A000C4F20100006808900999089888430890DB
:1019B0000C988079C00728B1FFE709990898084377
:1019C0000890FFE7089843F60041C4F2010108605F
:1019D000FFE7FFE7FFE70B9801300B902FE60EB013
:1019E0007047000082B00190ADF802108DF8012020
:1019F0009DF8010028B1FFE7BDF802000199886158
:101A000005E0BDF80200000401998861FFE702B01B
:101A10007047000048F21070C2F200000068704782
:101A200040F2F200C2F20000027848F21071C2F2F5
:101A300000010868104408607047000080B582B05B
:101A400043F60041C4F20201086840F400700860E7
:101A5000086840F480600860086840F4807008609E
:101A6000032000F0CFF80020019000F005F800F00E
:101A700079F8019802B080BD80B58CB00B90002041
:101A800004900390FFE70020009043F64000C4F26A
:101A90000200016841F001010160006800F00100EE
:101AA00000900098FFE706A802A901F057FB0998EB
:101AB0000490049820B9FFE701F080FB059004E052
:101AC00001F07CFB40000590FFE705984DF683612F
:101AD000C4F21B31A0FB01014FF0FF3000EB91403D
:101AE000039042F23400C2F200004FF080410160E6
:101AF00040F2E731C16003994160002101618160DA
:101B0000816102F0EFF98DF807009DF8070028BB0E
:101B1000FFE742F23400C2F2000002F077FA8DF8DB
:101B200007009DF80700C0B9FFE71C2000F046F849
:101B30000B980F280CD8FFE70B991C20002200F00F
:101B400047F80B9840F2F401C2F20001086003E08C
:101B500001208DF80700FFE7FFE7FFE79DF807008A
:101B60000CB080BD80B582B0FFE70020019043F645
:101B70004400C4F20200016841F480410160006841
:101B800000F4804001900198FFE7FFE700200090FB
:101B900043F64000C4F20200016841F08051016048
:101BA000006800F0805000900098FFE76FF001009F
:101BB0000F21002200F00CF802B080BD80B582B089
:101BC0008DF807009DF9070008F06CFA02B080BD9F
:101BD00080B586B08DF81700049103920020029022
:101BE00008F078FA02909DF9170001900298049984
:101BF000039A03F0BDFD0146019808F073FA06B0A0
:101C000080BD000080B582B00190019808F0AEFA66
:101C100002B080BD82B001908DF8031002B0704711
:101C200082B00190ADF80210BDF802000199096878
:101C30004862002002B0704784B003908DF80B100A
:101C4000ADF8082003980068406A00909DF80B00EA
:101C500048B9FFE7BDF80810009840EA0140039931
:101C60000968886233E003980068816A009800EB95
:101C70001140009000208DF80700FFE79DF8070055
:101C80009DF80B100139884213D2FFE703980068D2
:101C90009DF8071000EB8100D0F80411009800EBCC
:101CA00011400090FFE79DF8070001308DF8070014
:101CB000E4E7BDF80810009840EA0140039909687C
:101CC0009DF80B2001EB8201C1F80001FFE7002025
:101CD00004B0704780B582B001900198D0F8E0045C
:101CE00006F08CF802B080BD80B582B001908DF80E
:101CF0000310019AD2F8E0049DF8031001EBC10330
:101D000002EB8302126A05F0D7FE02B080BD00002C
:101D100080B582B001908DF80310019AD2F8E004EA
:101D20009DF8031001EBC10302EB8302D2F860229D
:101D300005F08AFF02B080BD80B582B001900198A5
:101D4000D0F8E00406F060F802B080BD80B584B041
:101D500003908DF80B109DF80B00000600280CD5A1
:101D6000FFE703989DF80B1001F00F0101EBC10193
:101D700000EB8100143001900CE003989DF80B10EB
:101D800001F00F0101EBC10100EB810000F51570BE
:101D90000190FFE703980068019907F0B9FD8DF8FD
:101DA0000A009DF80A0004B080BD000080B584B030
:101DB00002908DF807109DF80700000600280FD547
:101DC000FFE702989DF8071001F00F0101EBC10138
:101DD00000EB8100143000900099012048700FE062
:101DE00002989DF8071001F00F0101EBC10100EB13
:101DF000810000F515700090009900204870FFE701
:101E00009DF8070000F00F0000990870FFE70298A6
:101E100090F89404012804D1FFE702208DF80F0008
:101E200014E00299012081F89404FFE7FFE702988B
:101E30000068009907F054F8FFE70299002081F844
:101E40009404FFE700208DF80F00FFE79DF80F00D6
:101E500004B080BD80B584B002908DF807109DF865
:101E6000070000F00F0002990979884204D9FFE7C2
:101E700001208DF80F004DE09DF8070000060028B6
:101E80000FD5FFE702989DF8071001F00F0101EB55
:101E9000C10100EB810014300090009901204870CE
:101EA0000FE002989DF8071001F00F0101EBC1014E
:101EB00000EB810000F5157000900099002048703B
:101EC000FFE70099002088709DF8070000F00F00E0
:101ED00000990870FFE7029890F89404012804D153
:101EE000FFE702208DF80F0014E00299012081F82D
:101EF0009404FFE7FFE702980068009907F068FA8A
:101F0000FFE70299002081F89404FFE700208DF894
:101F10000F00FFE79DF80F0004B080BD82B0019074
:101F20008DF8031001989DF8031001F00F0101EBEB
:101F3000C10100EB8100D0F8680202B070470000D8
:101F400080B586B004908DF80F10ADF80C208DF898
:101F50000B3000208DF80A009DF80F0000060028C5
:101F60000FD5FFE704989DF80F1001F00F0101EB6A
:101F7000C10100EB810014300190019901204870EB
:101F80000FE004989DF80F1001F00F0101EBC10163
:101F900000EB810000F51570019001990020487058
:101FA000FFE79DF80F0000F00F0001990870BDF8E1
:101FB0000C006FF3DF20019988609DF80B000199F8
:101FC00008710198407820B1FFE7019908784883AB
:101FD000FFE79DF80B00022804D1FFE701990020DC
:101FE0004871FFE7FFE7049890F89404012804D1B2
:101FF000FFE702208DF8170015E00499012081F811
:102000009404FFE7FFE704980068019906F03AFEA0
:10201000FFE70499002081F89404FFE79DF80A0087
:102020008DF81700FFE79DF8170006B080BD00008F
:1020300080B586B005908DF8131003920293059831
:102040009DF8131001F00F0101EBC10100EB8100BD
:1020500000F51570019003980199C86002980199E4
:102060000861019900204861019948709DF81300AA
:1020700000F00F000199087005988079012804D1BB
:10208000FFE703980199C861FFE7059A1068019975
:10209000927907F041FA002006B080BD80B584B087
:1020A00002908DF807109DF8070000F00F000299CC
:1020B0000979884204D9FFE701208DF80F0058E024
:1020C0009DF80700000600280FD5FFE702989DF84D
:1020D000071001F00F0101EBC10100EB810014308A
:1020E00000900099012048700DE002989DF80710BB
:1020F00001EBC10100EB810000F515700090009923
:1021000000204870FFE70099012088709DF80700C3
:1021100000F00F0000990870FFE7029890F894040F
:10212000012804D1FFE702208DF80F0021E0029979
:10213000012081F89404FFE7FFE702980068009906
:1021400007F096F99DF80700000740B9FFE7029AEB
:102150001068917902F29C4207F0EAF8FFE7FFE786
:102160000299002081F89404FFE700208DF80F0009
:10217000FFE79DF80F0004B080BD000080B586B079
:1021800005908DF813100392029305989DF8131093
:1021900001F00F0101EBC10100EB8100143001904F
:1021A00003980199C860029801990861019900207B
:1021B00048610199012048709DF8130000F00F005C
:1021C0000199087005988079012804D1FFE70398E8
:1021D0000199C861FFE7059A10680199927907F0A3
:1021E0009BF9002006B080BD80B58CB00B900B9899
:1021F00000680A900A9809900B98006807F0BEFCE6
:10220000002840F00B84FFE70B98006807F022FDE0
:1022100010B9FFE700F002BC0998D0F80808C0F335
:102220000D200B99C1F8D4040B98006807F012FD3B
:102230008007002807D5FFE70B980168486900F080
:1022400002004861FFE70B98006807F003FDC00635
:10225000002862D5FFE70B980168886920F010001C
:1022600088610A98006A02900B98029901F00F01A8
:1022700001EBC10100EB810000F515700890029898
:1022800000F4F0110220B0EB514F23D1FFE7BDF86D
:10229000080047F6F07108421BD0FFE70A9808993A
:1022A000C968029AC2F30A1207F0E2FC029847F6E4
:1022B000F07100EA0103089AD06800EB1310D060B7
:1022C000029800EA01020899486900EB121048617F
:1022D000FFE71BE0029800F4F0110620B0EB514F2D
:1022E00012D1FFE70A980B9901F29C41082207F0EE
:1022F000BFFC029847F6F07100EA010208994869AC
:1023000000EB1210486100E0FFE7FFE70B9801685F
:10231000886940F010008861FFE70B98006807F0BB
:1023200099FC0003002840F1A680FFE700200490FC
:102330000B98006807F03CFC0690FFE70698002821
:1023400000F09880FFE79DF81800C007002800F013
:102350008A80FFE70B9800689DF8101007F062FC78
:1023600005909DF81400C00760B1FFE70998049933
:1023700000EB41110120C1F8080B0B98049903F000
:102380007BFAFFE79DF81400000700280CD5FFE753
:102390000998049900EB41110820C1F8080B0B982B
:1023A000049903F023FAFFE79DF81400C006002803
:1023B00008D5FFE70998049900EB41111020C1F8F6
:1023C000080BFFE79DF81400800700282DD5FFE7D4
:1023D0000A9840690006002808D5FFE70999D1F856
:1023E000040840F48060C1F80408FFE70B980499E2
:1023F00001EBC10100EB810000F515700890089811
:10240000C078012809D1FFE708990020C8700B980F
:102410009DF8101000F012FBFFE70998049900EBFB
:1024200041110220C1F8080BFFE79DF81400800657
:10243000002808D5FFE70998049900EB41112020F6
:10244000C1F8080BFFE79DF815008006002809D5A4
:10245000FFE70998049900EB41114FF40050C1F8CF
:10246000080BFFE7FFE70498013004900698400846
:10247000069063E7FFE70B98006807F0EBFB40036B
:10248000002840F1C680FFE70B98006807F07EFB4C
:10249000069000200490FFE70698002800F0B8801E
:1024A000FFE79DF81800C007002800F0AA80FFE7AA
:1024B0000B9800689DF8101007F08CFB05909DF8B4
:1024C0001400C00700283ED0FFE7049800F00F0179
:1024D000012000FA01F10391039B099AD2F8341804
:1024E0009943C2F834180999049A01EB4211C1F8D2
:1024F00008090B98807901281FD1FFE70B980499F0
:1025000001EBC10100EB8101CA69086A104408624D
:10251000049888B9FFE70B98049901EBC10100EB1F
:102520008100406A40B9FFE70B99086801F29C42BC
:10253000012106F0FDFEFFE7FFE70B989DF8101064
:10254000FFF7D2FBFFE79DF814000007002808D52D
:10255000FFE70998049900EB41110820C1F8080928
:10256000FFE79DF81400C006002808D5FFE709988A
:10257000049900EB41111020C1F80809FFE79DF80C
:1025800014004006002808D5FFE70998049900EBDD
:1025900041114020C1F80809FFE79DF814008007A9
:1025A000002822D5FFE70A98049907F083FA0B98D0
:1025B000049901EBC10100EB8100143008900898E8
:1025C000C078012809D1FFE708990020C8700B984E
:1025D0009DF8101000F024FAFFE70998049900EB29
:1025E00041110220C1F80809FFE79DF81400000618
:1025F000002805D5FFE70B98049903F021FAFFE7BF
:10260000FFE704980130049006984008069043E7DD
:10261000FFE70B98006807F01DFBC00F00B3FFE752
:102620000999D1F8040820F00100C1F804080B98BA
:1026300090F8CC04012808D1FFE70B98002180F81E
:10264000CC140B98FFF7E6FA03E00B9800F0A8FB18
:10265000FFE70B980168486900F000404861FFE718
:102660000B98006807F0F6FA0005002811D5FFE77F
:102670000998D0F80808C00720B1FFE70B9800F0D0
:102680001BFCFFE70B980168486900F40060486193
:10269000FFE70B98006807F0DDFAC004002840F15E
:1026A0008680FFE70999D1F8040820F00100C1F8FD
:1026B00004080B980068102107F0FCF9002007902F
:1026C000FFE707980B990979884231D2FFE709980B
:1026D000079900EB41114FF67F30C1F808090999BD
:1026E000079A01EB4212D2F8001921F40011C2F846
:1026F00000190999079A01EB4211C1F8080B0998D2
:10270000079900EB4111D1F8000B20F40010C1F83B
:10271000000B0998079900EB4111D1F8000B40F02C
:102720000060C1F8000BFFE7079801300790C8E789
:102730000999D1F81C0840F00110C1F81C080B9849
:10274000C07B78B1FFE70999D1F8840840F00B000D
:10275000C1F884080999D1F8440840F00B00C1F889
:1027600044080FE00999D1F8140842F22B021043F3
:10277000C1F814080999D1F8100840F00B00C1F80D
:102780001008FFE70999D1F8000820F4FE60C1F8AD
:1027900000080B9A1068917902F29C4206F0C8FD7D
:1027A0000B980168486900F480504861FFE70B9876
:1027B000006807F04FFA800400281FD5FFE70B9848
:1027C000006806F0CFFA0B98006807F0B1F90B9992
:1027D000C8710B980068019000F0EAFC014601986E
:1027E0000B9AD27907F03CFB0B9800F0AFFA0B98EC
:1027F0000168486900F400504861FFE70B980068E1
:1028000007F028FA000700280AD5FFE70B9800F028
:10281000D1FA0B980168486900F008004861FFE7A9
:102820000B98006807F016FA0006002825D5FFE788
:102830000A99886920F08000886101200490FFE7F0
:1028400004980B990979884216D2FFE70B980499EE
:1028500001EBC10100EB810090F85702012806D17D
:10286000FFE70B989DF81010FFF770FAFFE7FFE7FE
:10287000049801300490E3E7FFE70B98006807F045
:10288000E9F9C00200283CD5FFE701200490FFE7EA
:1028900004980B99097988422CD2FFE7099804998A
:1028A00000EB4110D0F8000902900B98049901EB5D
:1028B000C10100EB8100007E012816D1FFE79DF8E1
:1028C0000B000006002810D5FFE70B98049901EBD8
:1028D000C10100EB81010120C8750B989DF8101013
:1028E00041F08001FFF732FAFFE7FFE7049801307B
:1028F0000490CDE70B980168486900F480104861A6
:10290000FFE70B98006807F0A5F98002002855D56D
:10291000FFE701200490FFE704980B9909798842AA
:1029200045D2FFE70998049900EB4110D0F8000B5D
:1029300002900B98049901EBC10100EB810090F823
:10294000580201282ED1FFE79DF80B000006002851
:1029500028D5FFE7029800F480300B99D1F8D41401
:1029600001F0010188421DD1FFE70B98049901EBAA
:10297000C10100EB8101012081F857020A998869A1
:1029800040F0800088610A9840690006002808D459
:10299000FFE70999D1F8040840F40070C1F8040871
:1029A00005E0FFE7FFE7049801300490B4E70B98D7
:1029B0000168486900F400104861FFE70B9800685F
:1029C00007F048F9400000280AD5FFE70B98FFF709
:1029D00081F90B980168486900F080404861FFE781
:1029E0000B98006807F036F94007002815D5FFE777
:1029F0000B980068406802909DF808004007002886
:102A000004D5FFE70B98FFF797F9FFE7029A0B98B9
:102A10000168486810434860FFE7FFE70CB080BDDD
:102A200080B582B001908DF803100198D0F8E004D1
:102A30009DF8031005F084FA02B080BD80B582B025
:102A400001908DF803100198D0F8E0049DF8031070
:102A500005F0AEFA02B080BD80B58EB00C900C9837
:102A600020B9FFE701208DF8370012E10C980068CB
:102A70000B900C9890F8950440B9FFE70C99002052
:102A800081F894040C9800F009F9FFE70C990320F1
:102A900081F895040B98B0F1A04F04D1FFE70C9991
:102AA00000208871FFE70C98006806F037FC0C9B4B
:102AB0001868197C8DF8241059689A68DB680893A7
:102AC000079206910699079A089BDDF824C0EE4606
:102AD000CEF800C006F05CF940B1FFE70C99022087
:102AE00081F8950401208DF83700D2E00C98006839
:102AF000002107F017F940B1FFE70C99022081F897
:102B0000950401208DF83700C3E000208DF82B00DC
:102B1000FFE79DF82B000C990979884241DAFFE71D
:102B20000C989DF82B1001EBC10100EB81010120F5
:102B300048759DF82B000C9900EBC00201EB820157
:102B400008759DF82B000C9900EBC00201EB820187
:102B5000C8850C989DF82B1001EBC10100EB810199
:102B6000002008760C999DF82B2002EBC20201EBA5
:102B70008201C8610C999DF82B2002EBC20201EB87
:102B8000820108620C999DF82B2002EBC20201EB36
:102B900082014862FFE79DF82B0001308DF82B0081
:102BA000B7E700208DF82B00FFE79DF82B000C996C
:102BB000097988423EDAFFE70C989DF82B1001EB6B
:102BC000C10100EB8101002081F855029DF82B1016
:102BD0000C9A01EBC10302EB830282F854120C99A8
:102BE0009DF82B2002EBC20201EB820181F8580212
:102BF0000C999DF82B2002EBC20201EB8201C1F877
:102C00005C020C999DF82B2002EBC20201EB8201C1
:102C1000C1F860020C999DF82B2002EBC20201EB77
:102C20008201C1F86402FFE79DF82B0001308DF8A6
:102C30002B00BAE70C9B1868197C8DF814105968A2
:102C40009A68DB680493039202910299039A049BA9
:102C5000DDF814C0EE46CEF800C006F011FA40B11F
:102C6000FFE70C99022081F8950401208DF83700C8
:102C70000FE00C990020019048740C99012081F814
:102C800095040C98006806F0E5F901988DF8370076
:102C9000FFE79DF837000EB080BD000080B58AB018
:102CA00009900020089007900690059004900998DC
:102CB0000068B0F1A04F47D1FFE7FFE70020039085
:102CC00043F63000C4F20200016841F001010160E6
:102CD000006800F0010003900398FFE74FF4C05034
:102CE00004900220059000200690032007900A20FF
:102CF00008900020C4F2020004A9FEF797FCFFE749
:102D000043F63401C4F20201086840F08000086014
:102D1000FFE70020029043F64400C4F2020001687D
:102D200041F480410160006800F480400290029804
:102D3000FFE7FFE74320019005210022FEF748FF4F
:102D40000198FEF73BFFFFE70AB080BD80B582B077
:102D5000019001208DF803000198C07920B9FFE7A8
:102D600000208DF803000CE00198C079022804D1FE
:102D7000FFE701208DF8030002E0FDF721FDFFE7EA
:102D8000FFE70198D0F8E0049DF8031005F010FA71
:102D90000198D0F8E00405F08BF902B080BD000086
:102DA00080B582B001900198D0F8E00405F0CEF92A
:102DB00002B080BD80B582B001900198D0F8E004E7
:102DC00005F0D6F902B080BD80B584B002908DF8D0
:102DD0000710FFE7029890F89404012804D1FFE758
:102DE00002208DF80F0019E00299012081F8940467
:102DF000FFE7FFE79DF80700029948740298006812
:102E00009DF8071006F0FEFFFFE70299002081F809
:102E10009404FFE700208DF80F00FFE79DF80F00F6
:102E200004B080BD80B582B001900199D1F8E00472
:102E300001F29C4105F0E6F902B080BD80B584B096
:102E40000290029800680190FFE7029890F89404BD
:102E5000012804D1FFE702208DF80F0028E0029935
:102E6000012081F89404FFE7FFE70198C06840065D
:102E700000280BD5FFE70298407B012806D1FFE729
:102E80000199886B40F480308863FFE702980068FE
:102E900006F0CCFD0298006806F0C6F8FFE702993C
:102EA000002081F89404FFE700208DF80F00FFE771
:102EB0009DF80F0004B080BD80B582B001900198EC
:102EC000D0F8E00405F020FA01980168D1F8000E6E
:102ED00040F00100C1F8000E0198C07A48B1FFE748
:102EE0004EF61051CEF20001086840F0060008606E
:102EF000FFE702B080BD000080B584B00290019170
:102F0000029820B9FFE701208DF80F0021E1019818
:102F100043F60041C4F20201096801F0070188424A
:102F200012D9FFE7019943F60040C4F20200017094
:102F3000006800F007000199884204D0FFE70120F3
:102F40008DF80F0005E1FFE7029800788007002860
:102F50002AD5FFE7029800784007002809D5FFE747
:102F600043F60801C4F20201086840F4E05008602A
:102F7000FFE7029800780007002809D5FFE743F62D
:102F80000801C4F20201086840F460400860FFE7ED
:102F900043F60801C4F20201086820F0F000029A2A
:102FA000926810430860FFE702980078C007002885
:102FB0006ED0FFE702984068012811D1FFE743F681
:102FC0000000C4F20200006800F400310020B0EB01
:102FD000514F04D1FFE701208DF80F00B9E02CE03C
:102FE00002984068022805D0FFE70298406803284D
:102FF00011D1FFE743F60000C4F20200006800F0C0
:1030000000710020B0EB516F04D1FFE701208DF873
:103010000F009EE010E043F60000C4F202000068DA
:1030200000F002010020B0EB510F04D1FFE70120B6
:103030008DF80F008DE0FFE7FFE743F60801C4F2CB
:103040000201086820F00300029A526810430860E9
:10305000FEF7E0FC0090FFE743F60800C4F2020030
:10306000006800F00C0002994968B0EB810F0ED0A7
:10307000FFE7FEF7CFFC0099401A41F28931884200
:1030800004D3FFE703208DF80F0062E0E4E7FFE7D9
:10309000019843F60041C4F20201096801F00701FA
:1030A000884212D2FFE7019943F60040C4F20200C1
:1030B0000170006800F007000199884204D0FFE722
:1030C00001208DF80F0044E0FFE7029800784007E8
:1030D00000280CD5FFE743F60801C4F20201086896
:1030E00020F4E050029AD26810430860FFE702988B
:1030F0000078000700280DD5FFE743F60801C4F269
:103100000201086820F46040029A126940EAC20095
:103110000860FFE700F076F843F60801C4F2020108
:103120000968C9B20A094CF66E61C0F60001895CF3
:10313000C84040F22001C2F20001086040F2F400F1
:10314000C2F200000068FEF797FC00208DF80F0027
:10315000FFE79DF80F0004B080BD000082B0019031
:10316000009101990F20086043F60800C4F20200A4
:10317000016801F00301019A5160016801F0F0015A
:10318000019A9160016801F4E051019AD1600068F0
:1031900000F46040C0080199086143F60040C4F2A1
:1031A0000200006800F007000099086002B0704754
:1031B00040F22000C2F200000068704780B5FFF7BF
:1031C000F7FF43F60801C4F202010968C1F3822245
:1031D0004CF67E61C0F60001895CC84080BD0000ED
:1031E00080B5FFF7E5FF43F60801C4F20201096864
:1031F00089B24A0B4CF67E61C0F60001895CC8407A
:1032000080BD000080B586B000200590049003903A
:10321000029043F60800C4F20200006800F00C00BF
:103220000146019140B1FFE7019804280AD0FFE769
:10323000019808280CD04FE042F20040C0F2F400A0
:1032400002904FE041F60030C0F2B700029049E032
:1032500043F60400C4F20200016801F03F01059149
:1032600000684002002813D5FFE743F60400C4F2CB
:1032700002000068C0F3881041F60031C0F2B701C7
:10328000A0FB0101059A0023FCF7EEFF049012E079
:1032900043F60400C4F202000068C0F3881042F252
:1032A0000041C0F2F401A0FB0101059A0023FCF7E4
:1032B000DBFF0490FFE743F60400C4F2020000685D
:1032C00000F44031022000EBD130039004980399C0
:1032D000B0FBF1F0029005E042F20040C0F2F400D1
:1032E0000290FFE7029806B080BD000080B586B06E
:1032F0000490049820B9FFE701208DF8170050E3EF
:1033000004980078C007002800F0A580FFE743F686
:103310000800C4F20200006800F00C00042813D07A
:10332000FFE743F60800C4F20200006800F00C005A
:1033300008281ED1FFE743F60400C4F2020000682B
:103340004002002815D5FFE743F60000C4F2020052
:10335000006800F400310020B0EB514F08D0FFE7C7
:103360000498406820B9FFE701208DF8170018E3A2
:1033700070E0FFE704984068B0F5803F09D1FFE7AF
:1033800043F60001C4F20201086840F4803008608E
:1033900020E004984068B0F5A02F0DD1FFE743F678
:1033A0000001C4F20201086840F480200860086847
:1033B00040F4803008600CE043F60001C4F20201E2
:1033C000086820F480300860086820F480200860D5
:1033D000FFE7FFE7FFE704984068E8B1FFE7FEF783
:1033E00019FB0390FFE743F60000C4F202000068F7
:1033F00000F400310020B0EB514F0CD1FFE7FEF795
:1034000009FB0399401A652804D3FFE703208DF8D0
:103410001700C6E2E7E71CE0FEF7FCFA0390FFE7BF
:1034200043F60000C4F20200006800F400310020FE
:10343000B0EB514F0CD0FFE7FEF7ECFA0399401ABE
:10344000652804D3FFE703208DF81700A9E2E7E71A
:10345000FFE7FFE7FFE7049800788007002840F1C6
:103460009680FFE743F60800C4F20200006810F0FF
:103470000C0F13D0FFE743F60800C4F20200006807
:1034800000F00C0008282CD1FFE743F60400C4F23A
:10349000020000684002002823D4FFE743F6000042
:1034A000C4F20200006800F002010020B0EB510FEE
:1034B00009D0FFE70498C068012804D0FFE7012085
:1034C0008DF817006DE243F60001C4F202010868AE
:1034D00020F0F800049A126940EAC2000860FFE791
:1034E00054E00498C06870B3FFE70021C4F247219C
:1034F00001200860FEF78EFA0390FFE743F6000014
:10350000C4F20200006800F002010020B0EB510F8D
:103510000CD1FFE7FEF77EFA0399401A032804D383
:10352000FFE703208DF817003BE2E7E743F60001D1
:10353000C4F20201086820F0F800049A126940EA17
:10354000C200086021E00021C4F247210020086089
:10355000FEF760FA0390FFE743F60000C4F20200B2
:10356000006800F002010020B0EB510F0CD0FFE723
:10357000FEF750FA0399401A032804D3FFE703200B
:103580008DF817000DE2E7E7FFE7FFE7FFE7049894
:103590000078000700284BD5FFE70498406918B36E
:1035A000FFE740F68061C4F2472101200860FEF782
:1035B00031FA0390FFE743F67400C4F2020000689A
:1035C00000F002010020B0EB510F0CD1FFE7FEF735
:1035D00021FA0399401A032804D3FFE703208DF84A
:1035E0001700DEE1E7E722E040F68061C4F2472100
:1035F00000200860FEF70EFA0390FFE743F6740020
:10360000C4F20200006800F002010020B0EB510F8C
:103610000CD0FFE7FEF7FEF90399401A032804D304
:10362000FFE703208DF81700BBE1E7E7FFE7FFE7BF
:10363000049800784007002840F1CE80FFE7002082
:103640008DF8070043F64000C4F202000068C00095
:10365000002815D4FFE7FFE70020009043F6400064
:10366000C4F20200016841F080510160006800F07E
:10367000805000900098FFE701208DF80700FFE7D9
:1036800047F20000C4F200000068C005002822D400
:10369000FFE747F20001C4F20001086840F48070BF
:1036A0000860FEF7B7F90390FFE747F20000C4F2A5
:1036B00000000068C00500280CD4FFE7FEF7AAF957
:1036C0000399401A032804D3FFE703208DF817005D
:1036D00067E1EAE7FFE7FFE704988068012809D17E
:1036E000FFE743F67001C4F20201086840F00100F0
:1036F00008601FE00498806805280DD1FFE743F6B5
:103700007001C4F20201086840F004000860086813
:1037100040F0010008600CE043F67001C4F20201C1
:10372000086820F001000860086820F004000860C4
:10373000FFE7FFE7FFE704988068F8B1FFE7FEF7CF
:1037400069F90390FFE743F67000C4F202000068D5
:1037500000F002010020B0EB510F0ED1FFE7FEF7A1
:1037600059F90399401A41F28931884204D3FFE79D
:1037700003208DF8170014E1E5E71EE0FEF74AF993
:103780000390FFE743F67000C4F20200006800F007
:1037900002010020B0EB510F0ED0FFE7FEF73AF91F
:1037A0000399401A41F28931884204D3FFE703208C
:1037B0008DF81700F5E0E5E7FFE79DF80700012821
:1037C00009D1FFE743F64001C4F20201086820F086
:1037D00080500860FFE7FFE704988069002800F048
:1037E000DC80FFE743F60800C4F20200006800F046
:1037F0000C00082800F08580FFE704988069022803
:103800005CD1FFE76021C4F2472100200860FEF789
:1038100001F90390FFE743F60000C4F202000068DC
:1038200000F000710020B0EB516F0CD0FFE7FEF705
:10383000F1F80399401A032804D3FFE703208DF819
:103840001700AEE0E7E70499C869D1F820C04B6AD9
:103850008A6A40EA0C0040EA8310D2034FF6FF73F5
:103860009A43A2F580321043C96A40EA016043F6E8
:103870000401C4F2020108606021C4F24721012062
:103880000860FEF7C7F80390FFE743F60000C4F2B4
:103890000200006800F000710020B0EB516F0CD105
:1038A000FFE7FEF7B7F80399401A032804D3FFE7B0
:1038B00003208DF8170074E0E7E721E06021C4F2EF
:1038C000472100200860FEF7A5F80390FFE743F6C4
:1038D0000000C4F20200006800F000710020B0EBAC
:1038E000516F0CD0FFE7FEF795F80399401A0328B3
:1038F00004D3FFE703208DF8170052E0E7E7FFE766
:103900004AE004988069012804D1FFE701208DF87E
:10391000170046E043F60400C4F20200006802907B
:1039200004988069012831D0FFE7029800F48000F4
:103930000499C969884229D1FFE7029800F03F0045
:103940000499096A884221D1FFE7029847F6C071BD
:1039500008400499496AB0EB811F17D1FFE702982C
:1039600000F440300499896AC9034FF6FF7291430D
:10397000A1F58031884209D1FFE7029800F070601C
:103980000499C96AB0EB016F04D0FFE701208DF8FC
:10399000170006E0FFE7FFE7FFE700208DF81700BC
:1039A000FFE79DF8170006B080BD000081B00090D1
:1039B00001B0704780B584B0039000200290039856
:1039C0000068406801909DF804008006002806D534
:1039D000FFE7039910208860012002900DE09DF818
:1039E00004004006002806D5FFE7039908208860F8
:1039F0000120029000E0FFE7FFE7029801280CD1C8
:103A0000FFE70399042048710398FFF7CFFF03985D
:103A100001686FF06000486022E09DF80400C00774
:103A2000F0B1FFE703980168086820F0080008601B
:103A30000398006880680399C86003984079042857
:103A40000DD0FFE7039901204871FFE7039900209B
:103A50000871FFE70398C16800F05AF8FFE7FFE735
:103A600004B080BD80B582B00090009820B9FFE717
:103A700001208DF807001CE00098407938B9FFE775
:103A8000009900200871009800F018F8FFE70099ED
:103A90000220487100980168086840F0040008603E
:103AA0000099012048710099002088608DF8070076
:103AB000FFE79DF8070002B080BD000080B584B02C
:103AC00003900398006840F60001C5F206018842A1
:103AD0001BD1FFE7FFE70020029043F63400C4F259
:103AE0000200016841F040010160006800F0400000
:103AF00002900298FFE75020019005210022FEF776
:103B000067F80198FEF75AF8FFE704B080BD00009F
:103B100082B00190009102B07047000080B584B07F
:103B20000290029820B9FFE701208DF80F0071E0A4
:103B30000298406A60B9FFE702984068B0F5827F5A
:103B400001D1FFE703E002990020C861FFE705E02B
:103B500002990020086102994861FFE7029900205C
:103B60008862029890F8510040B9FFE7029900205E
:103B700081F85000029800F051F8FFE70299022006
:103B800081F8510002980168086820F04000086040
:103B9000029A019211685068D2F808C0D36800F404
:103BA00082700CF4044C604403F4006318441369FD
:103BB00003F002031844536903F0010318449369A6
:103BC00003F400731844D36903F038031844136AEC
:103BD00003F080031843926A02F400521043086015
:103BE000029A508B00F004001168526A02F0100231
:103BF0001044486002980168C86920F40060C861F8
:103C0000029900204865029A012182F851108DF82E
:103C10000F00FFE79DF80F0004B080BD80B590B0A5
:103C20000F9000200E900D900C900B900A900F9822
:103C3000006843F20001C4F20101884240F0B680FE
:103C4000FFE7FFE70020099043F64400C4F20200BA
:103C5000016841F480510160006800F480500990CF
:103C60000998FFE7FFE70020089043F63000C4F210
:103C70000200016841F002010160006800F00200EA
:103C800008900898FFE7FFE70020079043F6300010
:103C9000C4F20200016841F001010160006800F017
:103CA000010007900798FFE718200A900220019072
:103CB0000B90012002900C90032003900D900520A2
:103CC00004900E9040F20040C4F202000AA905914F
:103CD000FDF7ACFCDDF804C0029B039A049805993B
:103CE0004FF0800ECDF828E0CDF82CC00C930D924B
:103CF0000E900020C4F20200FDF798FC41F6C000CF
:103D0000C2F20000069046F24041C4F20201016096
:103D10004FF0C061416000218160C1604FF480625A
:103D2000026141618161C1614FF4403202624162CE
:103D3000FDF780FB18B1FFE7FCF742FDFFE7FFE767
:103D40000F9841F6C001C2F20001C1640F98886368
:103D5000FFE741F62010C2F20000009046F2584101
:103D6000C4F2020101604FF0C061416040218160F6
:103D70000021C1604FF48062026141618161C161D3
:103D80004FF4003202624162FDF754FB18B1FFE7C5
:103D9000FCF716FDFFE7FFE70F9841F62011C2F28E
:103DA000000181640F988863FFE7FFE710B080BDD2
:103DB00081B0009001B0704781B0009001B07047B1
:103DC00085B003900291FFE7039890F83C0001282A
:103DD00004D1FFE702208DF813007EE00399012053
:103DE00081F83C00FFE7FFE70399022081F83D00DE
:103DF000039800684068019003980068806800900C
:103E0000019820F070000190029801680198084321
:103E1000019001980399096848600398006800219F
:103E2000C4F2010188423CD0FFE703980068B0F17A
:103E3000804F36D0FFE70398006840F20041C4F29B
:103E4000000188422DD0FFE70398006840F600018A
:103E5000C4F20001884224D0FFE70398006840F6CE
:103E60000041C4F2000188421BD0FFE703980068BC
:103E700040F20041C4F20101884212D0FFE70398EA
:103E8000006844F20001C4F20101884209D0FFE752
:103E90000398006841F60001C4F2000188420ED187
:103EA000FFE7009820F08000009002984168009899
:103EB000084300900098039909688860FFE7039918
:103EC000012081F83D00FFE70399002081F83C00C4
:103ED000FFE700208DF81300FFE79DF8130005B001
:103EE0007047000080B582B00090009820B9FFE7CD
:103EF00001208DF807003FE0009890F83D0040B9A0
:103F0000FFE70099002081F83C00009800F038F8A5
:103F1000FFE70099022081F83D00009951F8040B59
:103F200001F036FF0099012081F84600FFE7009973
:103F3000012081F83E00009981F83F00009981F846
:103F40004000009981F84100FFE7FFE70099012058
:103F500081F84200009981F84300009981F84400FB
:103F6000009981F84500FFE70099012081F83D00A4
:103F700000208DF80700FFE79DF8070002B080BD24
:103F800080B584B003900398006840F20041C4F209
:103F9000000188421BD1FFE7FFE70020029043F6B3
:103FA0004000C4F20200016841F0020101600068B3
:103FB00000F0020002900298FFE71D20009005210A
:103FC0000022FDF705FE0098FDF7F8FD1BE00398C1
:103FD000006844F20041C4F20101884212D1FFE7B7
:103FE000FFE70020019043F64400C4F2020001689C
:103FF00041F400310160006800F400300190019844
:10400000FFE7FFE7FFE704B080BD000083B0019049
:10401000019890F83D00012804D0FFE701208DF8B9
:104020000B006AE00199022081F83D0001980168C7
:10403000C86840F00100C860019800680021C4F21F
:10404000010188423CD0FFE701980068B0F1804F41
:1040500036D0FFE70198006840F20041C4F2000149
:1040600088422DD0FFE70198006840F60001C4F2B5
:104070000001884224D0FFE70198006840F6004123
:10408000C4F2000188421BD0FFE70198006840F2AB
:104090000041C4F20101884212D0FFE70198006894
:1040A00044F20001C4F20101884209D0FFE70198FF
:1040B000006841F60001C4F20001884212D1FFE716
:1040C00001980068806800F00700009000980628BA
:1040D00007D0FFE701980168086840F00100086018
:1040E000FFE706E001980168086840F001000860F9
:1040F000FFE700208DF80B00FFE79DF80B0003B0F1
:104100007047000080B586B00490039100208DF8C0
:104110000B00FFE7049890F83C00012804D1FFE76A
:1041200002208DF81700ABE00499012081F83C00D3
:10413000FFE7FFE70499022081F83D00049800683A
:1041400080680190019820F077000190019820F498
:104150007F4001900198049909688860039800687D
:104160000090002872D0FFE7009810286ED0FFE77B
:10417000009820286AD0FFE70098302866D0FFE733
:104180000098402855D0FFE70098502837D0FFE727
:104190000098602840D0FFE7009870280BD0FFE718
:1041A0000098B0F5805F05D0FFE70098B0F5005F9C
:1041B00016D052E055E004980068039B5A6899684D
:1041C000DB6801F0BDFE04980068806801900198EA
:1041D00040F077000190019804990968886040E0F8
:1041E00004980068039B5A689968DB6801F0A8FE90
:1041F00004980168886840F48040886031E0049841
:104200000068039A5168D26802F086F80498006842
:10421000502101F0AFFE24E004980068039A516831
:10422000D26802F0A1F804980068602101F0A2FEB3
:1042300017E004980068039A5168D26802F06CF89D
:1042400004980068402101F095FE0AE00498006897
:104250000399096801F08EFE03E001208DF80B0040
:10426000FFE70499012081F83D00FFE70499002051
:1042700081F83C00FFE79DF80B008DF81700FFE781
:104280009DF8170006B080BD81B0009001B0704766
:1042900080B584B0039003980068C06802900398CA
:1042A0000068006901909DF804008007002824D56B
:1042B000FFE79DF80800800700281DD5FFE7039859
:1042C00001686FF0020008610399012008770398E4
:1042D00000688069800720B1FFE70398FFF7D4FFEB
:1042E00006E0039800F046F9039800F057FAFFE75C
:1042F000039900200877FFE7FFE79DF804004007D7
:10430000002825D5FFE79DF80800400700281ED5A6
:10431000FFE7039801686FF0040008610399022029
:10432000087703980068806910F4407F04D0FFE7A5
:104330000398FFF7A9FF06E0039800F01BF9039824
:1043400000F02CFAFFE7039900200877FFE7FFE76A
:104350009DF804000007002824D5FFE79DF8080019
:10436000000700281DD5FFE7039801686FF00800DB
:10437000086103990420087703980068C0698007E2
:1043800020B1FFE70398FFF77FFF06E0039800F0F6
:10439000F1F8039800F002FAFFE70399002008778C
:1043A000FFE7FFE79DF80400C006002825D5FFE7DA
:1043B0009DF80800C00600281ED5FFE70398016895
:1043C0006FF01000086103990820087703980068CF
:1043D000C06910F4407F04D0FFE70398FFF754FF53
:1043E00006E0039800F0C6F8039800F0D7F9FFE75D
:1043F000039900200877FFE7FFE79DF80400C00756
:1044000078B1FFE79DF80800C00748B1FFE70398BF
:1044100001686FF001000861039800F0C3F9FFE73D
:10442000FFE79DF804000006002810D5FFE79DF87F
:1044300008000006002809D5FFE7039801686FF01F
:10444000800008610398FFF7B3FCFFE7FFE79DF8E2
:1044500004004006002810D5FFE79DF8080040063C
:10446000002809D5FFE7039801686FF04000086154
:10447000039800F0A5F9FFE7FFE79DF80400800628
:10448000002810D5FFE79DF808008006002809D510
:10449000FFE7039801686FF0200008610398FFF7B9
:1044A0008BFCFFE7FFE704B080BD000080B588B05B
:1044B00007900020069005900490039002900798C2
:1044C000006840F60001C4F20001884223D1FFE7F2
:1044D000FFE70020019043F63000C4F202000168BB
:1044E00041F008010160006800F0080001900198A7
:1044F000FFE74FF4804002900220039001210491D5
:1045000003210591069040F60040C4F2020002A982
:10451000FDF78CF82BE00798006844F20041C4F2E4
:104520000101884222D1FFE7FFE70020009043F617
:104530003000C4F20200016841F02001016000680F
:1045400000F0200000900098FFE740200290022039
:1045500003900121049105900320069041F2004050
:10456000C4F2020002A9FDF761F8FFE7FFE708B017
:1045700080BD000081B0009001B0704780B586B06A
:1045800004900391029200208DF80700FFE7049841
:1045900090F83C00012804D1FFE702208DF81700B5
:1045A00089E00499012081F83C00FFE7FFE70298C9
:1045B00000900C2800F270800099DFE801F0076D90
:1045C0006D6D206D6D6D3A6D6D6D530004980068D2
:1045D000039901F0E5FC04980168886940F008003F
:1045E000886104980168886920F004008861039854
:1045F00002690498016888691043886150E0049852
:104600000068039901F042FD04980168886940F44C
:104610000060886104980168886920F4806088617E
:104620000398026904980168886940EA0220886159
:1046300036E004980068039901F0A2FD049801682F
:10464000C86940F00800C86104980168C86920F092
:104650000400C8610398026904980168C86910439E
:10466000C8611DE004980068039901F003FE0498F6
:104670000168C86940F40060C86104980168C869AD
:1046800020F48060C8610398026904980168C869D1
:1046900040EA0220C86103E001208DF80700FFE72F
:1046A000FFE70499002081F83C00FFE79DF8070030
:1046B0008DF81700FFE79DF8170006B080BD0000D9
:1046C00080B582B00090009820B9FFE701208DF8F6
:1046D00007003FE0009890F83D0040B9FFE70099DF
:1046E000002081F83C00009800F038F8FFE70099BE
:1046F000022081F83D00009951F8040B01F048FBBD
:104700000099012081F84600FFE70099012081F817
:104710003E00009981F83F00009981F8400000991F
:1047200081F84100FFE7FFE70099012081F842008E
:10473000009981F84300009981F84400009981F8BC
:104740004500FFE70099012081F83D0000208DF829
:104750000700FFE79DF8070002B080BD82B001901E
:104760000198006840F60001C4F20001884212D1AD
:10477000FFE7FFE70020009043F64000C4F202008C
:10478000016841F004010160006800F0040000903D
:104790000098FFE7FFE702B07047000081B000908B
:1047A00001B0704780B582B0019001980068B0F107
:1047B000804F03D1FFE7FDF733F9FFE702B080BD7B
:1047C00081B0009001B0704782B00190ADF8021046
:1047D00002B0704781B0009001B0704780B592B0D0
:1047E0001190119800680068109011980068C068D6
:1047F0000F901198006840690E9000200D900C9069
:10480000109800F00F000D900D9888B9FFE79DF803
:104810004000800600280AD5FFE79DF83C0080068E
:10482000002804D5FFE7119801F036FEEAE1FFE722
:104830000D98002800F0C280FFE79DF83800C007FF
:1048400038B9FFE7BDF83C0010F4907F00F0B68067
:10485000FFE79DF84000C00758B1FFE79DF83D0015
:10486000C00730B1FFE71199486C40F0010048647F
:10487000FFE79DF84000400700280BD5FFE79DF8B3
:104880003800C00730B1FFE71199486C40F00200D2
:104890004864FFE79DF84000800700280BD5FFE73C
:1048A0009DF83800C00730B1FFE71199486C40F01F
:1048B00004004864FFE79DF840000007002811D578
:1048C000FFE79DF83C008006002805D4FFE79DF82F
:1048D0003800C00730B1FFE71199486C40F008007C
:1048E0004864FFE71198406C002866D0FFE79DF808
:1048F0004000800600280AD5FFE79DF83C008006AE
:10490000002804D5FFE7119801F0C6FDFFE71198D4
:1049100000684069C0F380100C901198406C00074B
:10492000002804D4FFE70C9800283ED0FFE7119838
:1049300001F054FD119800684069400600282FD509
:10494000FFE7FFE7FFE71198006850E8050F20F048
:1049500040000B90FFE70B991198026842E80510A0
:104960000028F0D1FFE7FFE71198C06B98B1FFE78F
:104970001198C16B46F2BD30C0F600000865119871
:10498000C06BFCF7A5FB28B1FFE71198C06B016D68
:104990008847FFE703E01198FFF71CFFFFE703E0FC
:1049A0001198FFF717FFFFE706E01198FFF712FFD6
:1049B000119900204864FFE7FFE723E11198006B9D
:1049C000012840F0FF80FFE79DF84000C006002866
:1049D00040F1F880FFE79DF83C00C006002840F158
:1049E000F180FFE7FFE700200A9011980068006857
:1049F0000A901198006840680A900A98FFE7119899
:104A0000006840694006002840F18280FFE7119865
:104A1000C06B00684068ADF82600BDF8260000288D
:104A200075D0FFE7BDF826001199898D88426EDAAE
:104A3000FFE7BDF826001199C8851198C06BC069C1
:104A4000B0F5807F58D0FFE7FFE7FFE711980068D7
:104A500050E8030F20F480700890FFE70899119840
:104A6000026842E803100028F0D1FFE7FFE7FFE704
:104A7000FFE71198006850E8050F20F0010007904B
:104A8000FFE707991198026842E805100028F0D165
:104A9000FFE7FFE7FFE7FFE71198006850E8050F21
:104AA00020F040000690FFE706991198026842E85E
:104AB00005100028F0D1FFE7FFE71199202081F8C9
:104AC0004200119900200863FFE7FFE71198006892
:104AD00050E8030F20F010000590FFE705991198AA
:104AE000026842E803100028F0D1FFE7FFE71198C1
:104AF000C06BFCF777FAFFE7119902204863119821
:104B0000818DC28D891A89B2FFF75EFEFFE779E0D9
:104B10001199888DC98D401AADF812001198C08D79
:104B200000284ED0FFE7BDF81200002849D0FFE76B
:104B3000FFE7FFE71198006850E8030F20F490703A
:104B40000390FFE703991198026842E803100028D8
:104B5000F0D1FFE7FFE7FFE7FFE71198006850E8B3
:104B6000050F20F001000290FFE7029911980268FA
:104B700042E805100028F0D1FFE7FFE71199202057
:104B800081F84200119900200863FFE7FFE71198C0
:104B9000006850E8030F20F010000190FFE7019932
:104BA0001198026842E803100028F0D1FFE7FFE700
:104BB0001199022048631198BDF81210FFF704FE06
:104BC000FFE71FE09DF84000000600280AD5FFE738
:104BD0009DF83C000006002804D5FFE7119801F07D
:104BE000AFFD0FE09DF84000400600280AD5FFE722
:104BF0009DF83C004006002804D5FFE7119801F01D
:104C000037FCFFE712B080BD80B582B000900098FD
:104C100020B9FFE701208DF8070040E00098806987
:104C200008B1FFE700E0FFE7009890F8410040B9C5
:104C3000FFE70099002081F84000009800F034F868
:104C4000FFE70099242081F8410000980168C868B6
:104C500020F40050C860009801F0D4FC009801686E
:104C6000086920F49040086100980168486920F0C4
:104C70002A00486100980168C86840F40050C86084
:104C8000009900204864009A202182F84110009A7F
:104C900082F84210009948638DF80700FFE79DF8FD
:104CA000070002B080BD000080B596B015900020CE
:104CB000149013901290119010901598006841F282
:104CC0000001C4F20101884240F0BF80FFE7FFE726
:104CD00000200F9043F64400C4F20200016841F046
:104CE00010010160006800F010000F900F98FFE7BE
:104CF000FFE700200E9043F63000C4F20200016886
:104D000041F002010160006800F002000E900E9870
:104D1000FFE7FFE700200D9043F63000C4F20200E9
:104D2000016841F001010160006800F001000D9090
:104D30000D98FFE780201090022005901190002030
:104D4000099012900320069013900720079014906A
:104D500040F20040C4F2020010A90891FCF766FC82
:104D6000DDF814C0069A07980899099B4FF4007E55
:104D7000CDF840E0CDF844C0129313921490002077
:104D8000C4F20200FCF752FC099941F6E010C2F2AD
:104D900000000A9046F2B842C4F2020202604FF0EC
:104DA0000062426040228260C1604FF48062026112
:104DB00041618161C1614FF4403202624162FCF79E
:104DC00039FB18B1FFE7FBF7FBFCFFE7FFE715989E
:104DD00041F6E011C2F20001816315988863FFE794
:104DE00041F68010C2F20000049046F28841C4F2FD
:104DF000020101604FF00061416000218160C160EB
:104E00004FF48062026141618161C1614FF44032BF
:104E100002624162FCF70EFB18B1FFE7FBF7D0FC22
:104E2000FFE7FFE7159841F68011C2F20001C16368
:104E300015988863FFE72520039005210022FCF7E1
:104E4000C7FE0398FCF7BAFE71E01598006844F6B7
:104E50000001C4F20001884268D1FFE7FFE70020AB
:104E60000C9043F64000C4F20200016841F4802136
:104E70000160006800F480200C900C98FFE7FFE7C9
:104E800000200B9043F63000C4F20200016841F0AC
:104E900004010160006800F004000B900B98FFE72C
:104EA0004FF4406010900220119000200190129069
:104EB000032013900720149040F60000C4F2020073
:104EC00010A9FCF7B3FB019941F64020C2F20000A3
:104ED000029046F22802C4F2020202604FF0006221
:104EE00042608160C1604FF4806202614161816112
:104EF000C16101624162FCF79DFA18B1FFE7FBF75F
:104F00005FFCFFE7FFE7159841F64021C2F2000180
:104F1000C16315988863FFE72720009005210022D0
:104F2000FCF756FE0098FCF749FEFFE7FFE716B0D6
:104F300080BD000081B0009001B0704781B000904A
:104F400001B0704780B541F68470C2F20000FEF7F0
:104F500031FD80BDFFE7FEE783B0029001918DF83F
:104F6000032000208DF80200FFE79DF802009DF865
:104F70000310884229DAFFE70298000F092809D8B0
:104F8000FFE70298000F303001999DF8022001F8E8
:104F9000120009E00299372000EB117001999DF889
:104FA000022001F81200FFE7029800010290019828
:104FB0009DF8021000EB410100204870FFE79DF8CA
:104FC000020001308DF80200CFE703B07047000007
:104FD00080B582B041F67000C2F20000009046F247
:104FE0000041C4F2000101600321416000210191F0
:104FF0008160C1604FF4102202614FF400124261DF
:10500000017641768176C17601774177FBF708FE1C
:1050100018B1FFE7FBF7D4FBFFE702B080BD00004B
:1050200080B582B041F69800C2F20000019046F6C9
:105030000001C4F20001016006214160002181608D
:10504000C1604FF4003202614FF4001242610176F8
:10505000012242768176C27601774177FBF7E0FD47
:1050600018B1FFE7FBF7ACFBFFE702B080BD000023
:1050700080B58AB0FFE70020099043F63000C4F203
:105080000200016841F480010160006800F48000C2
:1050900009900998FFE7FFE70020089043F63000E9
:1050A000C4F20200016841F400110160006800F4DC
:1050B000001008900898FFE70C2001900521059149
:1050C00000220692FCF784FD0198FCF777FD059914
:1050D000069A3A200290FCF77BFD0298FCF76EFDE1
:1050E0000599069A3B200390FCF772FD0398FCF7A4
:1050F00065FD0599069A44200490FCF769FD049823
:10510000FCF75CFD0599069A46200790FCF760FDC8
:105110000798FCF753FD0AB080BD000080B582B04F
:1051200045F65D40C0F600004CF69062C0F6000205
:105130000021019105F0C6F8019940F26412C2F213
:105140000002106045F67140C0F600004CF6B462F3
:10515000C0F6000205F0B6F840F26811C2F2000194
:10516000086002B080BD000080B5A0B000201F9094
:105170001E901D901C901B90FFE700201A9043F694
:105180003000C4F20200016841F0020101600068D1
:1051900000F002001A901A98FFE7FFE7002019902C
:1051A00043F63000C4F20200016841F040010160A2
:1051B000006800F0400019901998FFE7FFE7002011
:1051C000189043F63000C4F20200016841F001017A
:1051D0000160006800F0010018901898FFE7FFE7F1
:1051E0000020179043F63000C4F20200016841F03D
:1051F00008010160006800F0080017901798FFE7A9
:10520000FFE70020169043F63000C4F20200016868
:1052100041F004010160006800F004001690169847
:10522000FFE7FFE70020159043F63000C4F20200CC
:10523000016841F480710160006800F4807015908D
:105240001598FFE7FFE70020149043F63000C4F202
:105250000200016841F080010160006800F08000F8
:1052600014901498FFE7FFE70020139043F63000F6
:10527000C4F20200016841F020010160006800F002
:10528000200013901398FFE740F60000C4F20200DC
:1052900009904FF48071009100221192FCF7A2FB5B
:1052A00041F60000C4F20200059040210191012264
:1052B0000A92FCF797FB119A41F60040C4F20200F3
:1052C00003904FF4E0510291FCF78CFB0A9A002006
:1052D000C4F20200079010210691FCF783FB0A9AA2
:1052E00040F20040C4F202000C9041F20101FCF7D0
:1052F00079FB059811994FF484421B9202220B927C
:105300001C921D9103211E91082104911F911BA93C
:105310000D91FCF78BF90D991198C0221B924FF457
:1053200088121C921D9042F20000C4F20200FCF7A9
:105330007DF9DDF800C009980A9B0D99119ACDF806
:105340006CC01C931D921E92FCF770F9019B05988E
:105350000A9A0D991B931C921D921E92FCF766F9F6
:10536000DDF808C003980A9B0D99119ACDF86CC01E
:105370001C931D921E92FCF759F9049B05980A9AFA
:105380000D991B934FF4041308931C931D92FCF783
:105390004DF907980A9A0D99119B1B921C931D9227
:1053A000FCF744F9DDF818C007980A9B0B9A0D9991
:1053B000CDF86CC01C931D931E92FCF737F9089B27
:1053C00009980A9A0D994FF0300CCDF86CC01C93D7
:1053D0001D92FCF72BF90A9A0C980D994FF4805303
:1053E0001B931C921D921E92FCF720F90A9B0B9AAC
:1053F0000C980D991B931C931D931E92FCF716F9A4
:10540000119A09200E9005211091FCF7E1FB0E98EE
:10541000FCF7D4FB1099119A0A200F90FCF7D8FBE7
:105420000F98FCF7CBFB1099119A17201290FCF7FC
:10543000CFFB1298FCF7C2FB20B080BD80B541F6CF
:105440008470C2F2000040F60001C5F2060101605E
:10545000FEF708FB18B1FFE7FBF7B2F9FFE780BDE5
:1054600080B582B041F69470C2F20000019043F220
:105470000001C4F2010101604FF48271416000211A
:105480008160C16002220261012242614FF4007218
:1054900082611022C2610162416281620A21C1629D
:1054A000FEF73CFB18B1FFE7FBF78AF9FFE702B014
:1054B00080BD000080B588B0002100910791069161
:1054C0000591049103910291019141F6EC70C2F2B1
:1054D000000044F20042C4F2010202605322426022
:1054E000816040F2CF72C26001618161FEF7FAFC17
:1054F00018B1FFE7FBF764F9FFE741F6EC70C2F281
:105500000000FFF7DDF818B1FFE7FBF759F9FFE7F7
:1055100060200190002202920392059241F6EC7005
:10552000C2F2000001A9FFF729F818B1FFE7FBF765
:1055300047F9FFE741F6EC70C2F20000FEF7B6FF54
:1055400008B080BD80B588B0002101910791069117
:10555000059104910391029142F27C00C2F2000095
:1055600040F20042C4F200020260532242608160B5
:1055700040F2CF72C26001618161FEF7B3FC18B1E5
:10558000FFE7FBF71DF9FFE74FF48050049042F26C
:105590007C00C2F2000004A9FEF7B4FD18B1FFE7D9
:1055A000FBF70EF9FFE700200290039042F27C0027
:1055B000C2F2000002A9FEF703FC18B1FFE7FBF7F7
:1055C000FFF8FFE708B080BD80B58AB000210091E8
:1055D0000991089107910691059104910391029117
:1055E000019142F2C400C2F2000040F60002C4F28F
:1055F00000020260A722426081604FF6FF72C26023
:1056000001618161FFF75CF818B1FFE7FBF7D8F89B
:10561000FFE700200890099042F2C400C2F20000A7
:1056200008A9FEF7CDFB18B1FFE7FBF7C9F8FFE7C4
:1056300060200190002002900390059042F2C40087
:10564000C2F2000001A90822FEF798FF18B1FFE797
:10565000FBF7B6F8FFE742F2C400C2F20000FEF723
:1056600025FF0AB080BD000080B582B042F20C1068
:10567000C2F20000019041F20001C4F20101016098
:105680004FF4E131416000218160C16001610C2271
:1056900042618161C161FFF7B7FA18B1FFE7FBF71B
:1056A0008FF8FFE702B080BD80B582B042F254109F
:1056B000C2F20000019044F60001C4F20001016052
:1056C00048F2A061C0F20101416000218160C16027
:1056D0004FF480620261042242618161C161FFF77F
:1056E00093FA18B1FFE7FBF76BF8FFE702B080BD54
:1056F00080B541F29450C2F2000040F20401C2F2BF
:105700000001002202F066F918B1FFE7FBF758F834
:10571000FFE741F29450C2F2000040F22401C2F2CD
:10572000000102F05BFE18B1FFE7FBF749F8FFE765
:1057300041F29450C2F2000040F2C001C2F20001F6
:1057400001F0BAFB18B1FFE7FBF73AF8FFE741F2C7
:105750009450C2F2000002F0CBFF18B1FFE7FBF754
:105760002FF8FFE780BD0000FFE7FEE7FFE7FEE759
:1057700088B0079006910592079800F00700049002
:105780000498C0F10700052803D3FFE70420019027
:1057900004E00498C0F107000190FFE7019803902E
:1057A00004980430062803D8FFE70020009003E0A7
:1057B000049803380090FFE7009802900698039938
:1057C000012202FA01F101390840029B9840059933
:1057D0009A40013A1140084308B0704780B541F63D
:1057E000A020C2F20000FCF7FFFC80BD80B586B0AF
:1057F000059004910598006803900398029003981F
:10580000006C01900298049900EB4110D0F8080B4D
:105810000090019843F20B01C4F6547188420FD3F3
:10582000FFE79DF801000006002809D5FFE7029870
:10583000049900EB41114FF40040C1F8080BFFE759
:105840000598FDF7EFFA019843F20B01C4F6547185
:1058500088420DD3FFE705988079012808D1FFE73A
:105860000599086801F29C42012103F061FDFFE700
:10587000002006B080BD000080B588B0079006917A
:10588000079800680490049803900498006C0290B4
:105890000398069900EB4110D0F8080B0190079887
:1058A0008079012840F08180FFE79DF8040000071F
:1058B000002818D5FFE7029843F20B01C4F6547193
:1058C00088420FD3FFE79DF805000006002809D5A0
:1058D000FFE70398069900EB41114FF40040C1F82F
:1058E000080BFFE760E09DF804008006002808D55B
:1058F000FFE70398069900EB41112020C1F8080B3F
:1059000051E09DF8040010F0280F4AD1FFE70298FB
:1059100043F20B01C4F6547188420FD3FFE79DF8A0
:1059200005000006002809D5FFE70398069900EB5B
:1059300041114FF40040C1F8080B31E00798069977
:1059400001EBC10100EB810000F515700590059891
:10595000006A0399069A01EB4211D1F8101B6FF30C
:10596000DF41401A05994861069898B9FFE7059804
:10597000006940B9FFE70799086801F29C420121DC
:1059800003F0D6FC05E00599C8684A691044C86070
:10599000FFE7FFE707989DF81810FCF7B9F9FFE754
:1059A00000E0FFE7FFE7FFE747E0029843F20A1154
:1059B000C4F65471884224D1FFE79DF80500000623
:1059C000002809D5FFE70398069900EB41114FF431
:1059D0000040C1F8080B13E09DF804008006002881
:1059E00008D5FFE70398069900EB41112020C1F884
:1059F000080BFFE707989DF81810FCF789F9FFE7F7
:105A00001AE0069890B9FFE70798069901EBC101E3
:105A100000EB8100D0F8640240B9FFE707990868FD
:105A200001F29C42002103F083FCFFE707989DF8F8
:105A30001810FCF76DF9FFE7FFE7002008B080BD04
:105A400080B58CB00A9009910A980068089008986F
:105A500007900A98099901EBC10100EB810014300D
:105A60000690069801694069884204D9FFE7012041
:105A70008DF82F0079E0069908694969401A059068
:105A8000059806998968884204D9FFE706988068D6
:105A90000590FFE70598033080080490FFE707981A
:105AA000099900EB4110D0F8180981B2049A00203E
:105AB000914202900FD3FFE70698026941690020E6
:105AC0009142029007D2FFE706980069002818BFAC
:105AD00001200290FFE70298C00770B3FFE7069924
