:020000040800F2
:1000000088DC00247103000861D9000819CC0008BD
:1000100059D90008390C0008A90B0108000000009C
:1000200000000000000000000000000011E20008D5
:10003000D922000800000000E1D9000849E20008C8
:100040008F0300088F0300088F0300088F03000848
:100050008F0300088F0300088F0300088F03000838
:100060008F0300088F0300088F030008491500085C
:100070005915000869150008791500088915000848
:1000800099150008A91500088F0300081923000816
:10009000292300088F0300088F0300088F0300083E
:1000A0008F0300088F0300088F0300088F030008E8
:1000B000A1E400088F0300088F0300088F030008E5
:1000C0008F0300088F0300088F0300088F030008C8
:1000D00019E000088F030008890B0108990B01083B
:1000E0008F0300088F030008000000008F03000842
:1000F0008F0300088F0300088F030008B91500085C
:100100008F0300088F0300088F0300088F03000887
:100110008F03000869ED00088F0300088F030008B3
:10012000C91500088F0300088F0300088F0300081B
:100130008F0300088F0300088F0300088F03000857
:1001400000000000000000000000000000000000AF
:100150008F0300088F0300088F0300088F03000837
:100160008F0300088F0300088F0300088F03000827
:100170008F0300088F0300088F03000800000000B1
:100180008F0300088F0300088F0300088F03000807
:100190008F0300088F0300088F0300088F030008F7
:1001A0008F0300088F0300088F0300080000000081
:1001B0008F0300088F0300088F0300088F030008D7
:1001C0008F0300088F0300080000000000000000FB
:1001D00000000000000000008F0300080000000085
:1001E000000000000000000000000000000000000F
:1001F00000000000000000008F0300088F030008CB
:100200008F0300088F030008000000008F03000820
:100210008F0300088F0300088F0300088F03000876
:100220008F030008000000008F030008000000009A
:100230008F0300088F030008000000008F030008F0
:100240008F0300088F0300088F0300088F03000846
:100250008F0300088F0300088F0300088F03000836
:100260008F0300088F0300088F0300088F03000826
:100270008F0300088F0300088F03000800000000B0
:100280008F0300088F0300088F0300088F03000806
:10029000000000008F0300088F030008000000002A
:1002A000000000008F0300088F0300088F03000880
:1002B000790B01088F0300088F0300083923000819
:1002C0008F0300088F0300088F03000800F002F876
:1002D00000F03EF80AA090E8000C82448344AAF1A2
:1002E0000107DA4501D100F033F8AFF2090EBAE8A0
:1002F0000F0013F0010F18BFFB1A43F0010318475A
:100300006C6701008C670100103A24BF78C878C17F
:10031000FAD8520724BF30C830C144BF04680C600B
:10032000704700000023002400250026103A28BF53
:1003300078C1FBD8520728BF30C148BF0B60704757
:100340001FB516F0A2F900F07BF91FBD10B510BD66
:1003500000F09CF91146FFF7F3FF12F0CDFF00F01B
:10036000BAF903B4FFF7F2FF03BC00F0BDF90000D7
:100370000A4880470A4880470A480047FEE7FEE7E8
:10038000FEE7FEE7FEE7FEE7FEE7FEE7FEE7FEE745
:1003900005480649064A074B70470000F12200084D
:1003A00039E30008CD020008885C002488DC0024C2
:1003B000889C0024889C002453EA020C00F0698089
:1003C0002DE9F04B4FF00006002B1FBFB3FA83F569
:1003D00003FA05F424FA05F65E4012BF1643B2FA9A
:1003E00082F502FA05F4C5F120051EBF22FA05FCCC
:1003F00044EA0C04203556EA044C4FEA144418BF72
:10040000641C4FF000084FF00009904271EB030CA0
:1004100039D3002919BFB1FA81F701FA07F6B0FA0A
:1004200080F700FA07F6C7F120071EBF20FA07FC85
:1004300046EA0C062037B6FBF4FCA7EB0507103F95
:1004400007F01F0BCBF120062CFA06F60CFA0BFB7B
:1004500044BFB3460026202FA4BF5E464FF0000BDA
:100460005BEA060C08BF4FF0010B19EB0B0948EBD8
:100470000608ABFB027C06FB02CC0BFB03CCC01BCB
:1004800071EB0C01C1E70B46024641464846BDE808
:10049000F08B13B5084318BF4FF0FF300146AFF3A0
:1004A0000080BDE81C407047032A40F2308010F005
:1004B000030C00F0158011F8013BBCF1020F6244FF
:1004C00098BF11F801CB00F8013B38BF11F8013B90
:1004D000A2F1040298BF00F801CB38BF00F8013B3D
:1004E00011F0030300F02580083AC0F0088051F8AD
:1004F000043B083A51F804CBA0E80810F5E7121DB8
:100500005CBF51F8043B40F8043BAFF30080D207D6
:1005100024BF11F8013B11F801CB48BF11F8012BA2
:1005200024BF00F8013B00F801CB48BF00F8012BC5
:10053000704710B5203AC0F00B80B1E81850A0E821
:100540001850B1E81850A0E81850203ABFF4F5AFA1
:100550005FEA027C24BFB1E81850A0E8185044BFFD
:1005600018C918C0BDE810405FEA827C24BF51F86A
:10057000043B40F8043B08BF7047D20728BF31F85E
:10058000023B48BF11F8012B28BF20F8023B48BFAF
:1005900000F8012B704702F0FF0343EA032242EA0E
:1005A000024200F024B84FF000020429C0F012808B
:1005B00010F0030C00F01B80CCF1040CBCF1020F16
:1005C00018BF00F8012BA8BF20F8022BA1EB0C01EB
:1005D00000F00DB85FEAC17C24BF00F8012B00F8E1
:1005E000012B48BF00F8012B70474FF0000200B507
:1005F000134694469646203922BFA0E80C50A0E846
:100600000C50B1F12001BFF4F7AF090728BFA0E8F3
:100610000C5048BF0CC05DF804EB890028BF40F8BF
:10062000042B08BF704748BF20F8022B11F0804F01
:1006300018BF00F8012B70477047704770470000E3
:1006400070B5064C7C44064D7D4404E020460168AC
:1006500008448047241DAC42F8D170BD44640100B9
:100660005064010010B500F009F8006810BD10B525
:10067000044600F003F8046010BD00000048704715
:100680004800002400487047480000247546FFF7E2
:10069000F9FFAE4605006946534620F0070085463F
:1006A00018B020B5FFF774FEBDE820404FF00006FB
:1006B0004FF000074FF000084FF0000BAC46ACE8DD
:1006C000C009ACE8C009ACE8C009ACE8C00921F039
:1006D00007018D46704710B50446AFF300802046F1
:1006E000BDE81040FFF73DBE01491820ABBEFEE754
:1006F000260002007047000080B540F60000C5F6F5
:1007000002000122114606F063FD80BD00000000DA
:1007100080B540F60000C5F602000121002206F077
:1007200057FD80BD0000000080B540F60000C5F612
:1007300002000821012206F04BFD80BD00000000F0
:1007400080B540F60000C5F602000821002206F040
:100750003FFD80BD0000000080B584B00390FFF72E
:10076000D7FF922000F040FA40F2F601C2F20041B9
:100770001220062200F000FAFFF7BEFF40F214003C
:10078000C2F200400078002854D0FFE740F2F603A0
:10079000C2F200431878597840EA012040F2F4018F
:1007A000C2F200410880B1F9000000EE100AB8EE74
:1007B000C00A40F20000C2F2004090ED001A20EEA4
:1007C000011A039A92ED082A92ED0C0A11EE020A20
:1007D00082ED000A9A7893F803C042EA0C220A805C
:1007E000B1F9002000EE102AB8EEC00A90ED001A10
:1007F00020EE011A039A92ED082A92ED0D0A11EEED
:10080000020A82ED010A1A795B7942EA03220A8020
:10081000B1F9001000EE101AB8EEC00A90ED001AFF
:1008200020EE010A039890ED081A20EE010A80EDEF
:10083000020A4FE040F2F603C2F2004318785978FA
:1008400040EA012040F2F401C2F200410880B1F90F
:10085000000000EE100AB8EEC00A40F20000C2F23A
:10086000004090ED001A20EE010A039A92ED081A5A
:1008700020EE010A82ED000A9A7893F803C042EA5A
:100880000C220A80B1F9002000EE102AB8EEC00A4E
:1008900090ED001A20EE010A039A92ED081A20EE5C
:1008A000010A82ED010A1A795B7942EA03220A8081
:1008B000B1F9001000EE101AB8EEC00A90ED001A5F
:1008C00020EE010A039890ED081A20EE010A80ED4F
:1008D000020AFFE7FFF734FF40F2F601C2F20041DF
:1008E00002910020082200F047F9FFF71DFF02984F
:1008F00000780F2840F09880FFE740F21400C2F221
:100900000040007800284AD0FFE740F2F603C2F228
:1009100000439878D97840EA012040F2F401C2F20D
:1009200000410880B1F9000000EE100AB8EEC01ACC
:1009300040F20400C2F2004090ED002A039A92EDCA
:10094000090A11EE020A82ED030A1A7993F805C02A
:1009500042EA0C220A80B1F9002000EE102AB8EE1B
:10096000C01A90ED002A039A92ED0A0A11EE020ACB
:1009700082ED040A9A79DB7942EA03220A80B1F90E
:10098000001000EE101AB8EEC01A90ED002A03987D
:1009900090ED0B0A11EE020A80ED050A43E040F2E9
:1009A000F603C2F200439878D97840EA012040F279
:1009B000F401C2F200410880B1F9000000EE100A13
:1009C000B8EEC00A40F20400C2F2004090ED001AF6
:1009D00020EE010A039A82ED030A1A7993F805C002
:1009E00042EA0C220A80B1F9002000EE102AB8EE8B
:1009F000C00A90ED001A20EE010A039A82ED040A63
:100A00009A79DB7942EA03220A80B1F9001000EEFC
:100A1000101AB8EEC00A90ED001A20EE010A0398F1
:100A200080ED050AFFE7FFE7FFF772FEA22000F066
:100A3000DBF840F2F601C2F20041019122200222CD
:100A400000F09AF8FFF758FE019908784978C0003D
:100A500040EA511140F2F400C2F200400180B0F9C6
:100A60000000B0F5806F09DBFFE740F2F401C2F24D
:100A700000410888A0F500600880FFE740F2F4001C
:100A8000C2F20040B0F9000000EE100AB8EEC01A41
:100A9000B4EE002AB3EE070A01EE020A039880EDD5
:100AA000070A04B080BD000080B584B003908DF8C3
:100AB0000B10039840F20011C2F20041086040F2AE
:100AC0004471C2F2004101910020087012F084F8D4
:100AD0000199024608781043087012F05DF90199F7
:100AE00002460878104308709DF80B0038B1FFE704
:100AF00040F2B400C2F2004000F0D6F831E040F21B
:100B0000B401C2F2004100914AF2F000CBF632206B
:100B100048624FF2B930CBF6AF2088624EF6B17022
:100B2000CBF6BB20C86246F60B70C3F6996008632B
:100B300049F62A00C3F6935048630020886348F2C0
:100B40007A40C4F21D10C86391ED0F1A9FED080A98
:100B500080EE010A81ED080A0020C4F23420886189
:100B6000FFE740F24470C2F20040007804B080BD5C
:100B7000C3F51C410000000080B584B08DF80F0063
:100B800002918DF807209DF80F0040F0800000F0E2
:100B90002BF8FFE79DF8070070B1FFE7552000F044
:100BA00023F8029908700298013002909DF807001E
:100BB00001388DF80700EDE704B080BD00000000AB
:100BC00080B582B08DF8070000919DF8070040F0D5
:100BD000800000F009F8552000F006F80099087030
:100BE00002B080BD0000000080B582B08DF8070023
:100BF00040F20010C2F2004000686A464FF47A7179
:100C000011600DF107010DF10602012309F0F4FC5A
:100C10009DF8060002B080BD80B582B08DF8070057
:100C20008DF806109DF80700FFF7DEFF9DF806001F
:100C3000FFF7DAFF02B080BDFFE7FEE7000000002B
:100C400080B584B040F2D860C2F200409FED130A34
:100C5000DFED130A10F0E8FE00200390FFE7039891
:100C6000022816DCFFE740F2D860C2F20040019093
:100C700010F0EEFF6420029012F08AFB019810F051
:100C8000DBFF029812F084FBFFE70398013003902A
:100C9000E5E7FFE7642012F07BFBFBE700409C45A3
:100CA000CDCCCC3D0000000080B592B0119000206A
:100CB00010900F9001F024FA40F21010C2F20040A0
:100CC00080ED000AFFE701F01BFA40F21010C2F2BB
:100CD000004090ED001A30EE410AB2EE041AB4EE74
:100CE000410AF1EE10FA1EDDFFE711994AF2F00019
:100CF000CBF63220486211994FF2B930CBF6AF20D3
:100D0000886211994EF6B170CBF6BB20C86211997A
:100D100048F27A40C4F21D10C86311990020C4F251
:100D200034208861ECE29FEDE70A01F095F9119912
:100D30000020C86311994862119988621199C862AC
:100D4000ADF81200FFE7BDF8120040F20801C2F250
:100D500000410988884280F2DF81FFE7FFF7D8FC75
:100D60009220FFF741FF12200FA902910622FFF700
:100D700003FFFFF7C1FC9DF83C009DF83D1040EAE1
:100D80000120ADF83A00BDF93A0000EE100AB8EEC5
:100D9000C00A40F20000C2F2004090ED001A20EEBE
:100DA000010A119981ED000A9DF83E109DF83F203F
:100DB00041EA0221ADF83A10BDF93A1000EE101ADE
:100DC000B8EEC00A90ED001A20EE010A119981EDEB
:100DD000010A9DF840109DF8412041EA0221ADF83A
:100DE0003A10BDF93A1000EE101AB8EEC00A90EDB4
:100DF000001A20EE010A119880ED020A119890ED78
:100E0000002A90ED010A90ED021A20EE000A02EE8F
:100E1000020A01EE010A15F0E6FB8DED070A9DEDD1
:100E2000071A119890ED0F0A30EE010A80ED0F0AB3
:100E3000FFF786FC029900200822FFF79DFEFFF7CE
:100E400073FC9DF83C000F285FD1FFE79DF83E0042
:100E50009DF83F1040EA0120ADF83A00BDF93A0094
:100E600000EE100AB8EEC00A40F20400C2F20040E0
:100E700090ED001A20EE010A119981ED030A1199F3
:100E800091ED031A91ED090A30EE010A81ED090A8C
:100E90009DF840109DF8412041EA0221ADF83A103A
:100EA000BDF93A1000EE101AB8EEC00A90ED001A23
:100EB00020EE010A119981ED040A119991ED041AAD
:100EC00091ED0A0A30EE010A81ED0A0A9DF84210FE
:100ED0009DF8432041EA0221ADF83A10BDF93A10DD
:100EE00000EE101AB8EEC00A90ED001A20EE010ACA
:100EF000119880ED050A119890ED051A90ED0B0AF6
:100F000030EE010A80ED0B0AFFE7BDF8120038BB96
:100F1000FFE7079806900798059000208DF81100CC
:100F2000FFE79DF81100022819DCFFE711989DF8F2
:100F3000112000EB8200C0680BA941F82200119833
:100F40009DF8112000EB8200C06808A941F822003A
:100F5000FFE79DF8110001308DF81100E1E762E034
:100F60009DED070A9DED061AB4EE410AF1EE10FA66
:100F700003DDFFE707980690FFE79DED070A9DED6B
:100F8000051AB4EE410AF1EE10FA03DAFFE707980A
:100F90000590FFE700208DF81000FFE79DF8100096
:100FA00002283FDCFFE711989DF8101000EB81004C
:100FB00090ED030A0BA800EB810090ED001AB4EE4F
:100FC000410AF1EE10FA0ADDFFE711989DF81020B2
:100FD00000EB8200C0680BA941F82200FFE71198DE
:100FE0009DF8101000EB810090ED030A08A800EBBB
:100FF000810090ED001AB4EE410AF1EE10FA0ADA1F
:10100000FFE711989DF8102000EB8200C06808A946
:1010100041F82200FFE7FFE79DF8100001308DF84E
:101020001000BBE7FFE79DED060A9DED051A30EEC7
:10103000410A40F24870C2F2004080ED000A0020F0
:101040008DF80F00FFE79DF80F0002281DDCFFE779
:101050009DF80F100BA800EB810090ED000A08A886
:1010600000EB810090ED001A30EE410A40F60C00D2
:10107000C2F2004000EB810080ED000AFFE79DF81E
:101080000F0001308DF80F00DDE740F24870C2F22A
:10109000004090ED000AB6EE001AB4EE410AF1EEFF
:1010A00010FA2DDCFFE740F60C00C2F2004090ED94
:1010B000000A9FEDE61AB4EE410AF1EE10FA1FDCC9
:1010C00002E000BF0AD7A33B40F60C00C2F200408A
:1010D00090ED010A9FEDDD1AB4EE410AF1EE10FA2F
:1010E0000EDCFFE740F60C00C2F2004090ED020A71
:1010F0009FEDD61AB4EE410AF1EE10FA01DDFFE7DA
:101100000AE09FEDD30A00F0A7FFFFE7BDF8120049
:101110000130ADF8120016E640F20800C2F20040BD
:10112000008800EE100AB8EE401A119890ED0F0AF0
:1011300080EE010A80ED0F0A00208DF80E00FFE717
:101140009DF80E0002281BDCFFE740F20800C2F207
:101150000040008800EE100AB8EE401A11989DF881
:101160000E1000EB810090ED090A80EE010A80ED7F
:10117000090AFFE79DF80E0001308DF80E00DFE749
:10118000FFF7C6FAA220FFF72FFD22200FA90222A7
:10119000FFF7F2FCFFF7B0FA9DF83C009DF83D1018
:1011A000C00040EA5110ADF83A00BDF93A00B0F580
:1011B000806F07DBFFE7BDF83A00A0F50060ADF8EF
:1011C0003A00FFE7BDF93A0000EE100AB8EEC01A87
:1011D000B4EE002AB3EE070A01EE020A119880ED80
:1011E000060A40F2E861C2F2004108880130088036
:1011F000FFE740F24870C2F2004090ED000A012083
:10120000B6EE001AB4EE410AF1EE10FA019071DC6C
:10121000FFE7119890ED0F0A9FED8E1A30EE010A4C
:10122000B0EEC00A0120B6EE001AB4EE410AF1EEAB
:1012300010FA01905EDCFFE740F60C00C2F20040BD
:1012400090ED000A01209FED811AB4EE410AF1EE03
:1012500010FA01904EDCFFE740F60C00C2F20040AD
:1012600090ED010A01209FED791AB4EE410AF1EEEA
:1012700010FA01903EDCFFE740F60C00C2F200409D
:1012800090ED020A01209FED711AB4EE410AF1EED1
:1012900010FA01902EDCFFE7119890ED090AB0EEEC
:1012A000C00A01209FED6C1AB4EE410AF1EE10FA6B
:1012B00001901FDCFFE7119890ED0A0AB0EEC00A1A
:1012C00001209FED651AB4EE410AF1EE10FA01908B
:1012D00010DCFFE7119890ED0B0AB0EEC00A9FED0D
:1012E0005E1A0020B4EE410AF1EE10FAC8BF0120E8
:1012F0000190FFE70198C00700287FF4E4ACFFE706
:10130000119890ED0F1A9FED550A80EE010A80EDBD
:10131000080A0020ADF80C00FFE7BDF80C0040F211
:101320000A01C2F200410988884280F28C80FFE7FE
:10133000FFF7EEF99220FFF757FC12200FA90622C3
:10134000FFF71AFCFFF7D8F99DF83C009DF83D1017
:1013500040EA0120ADF83A00BDF93A0000EE100A6B
:10136000B8EEC00A40F20000C2F2004090ED001A50
:1013700020EE010A119991ED081A20EE010A81ED83
:10138000000A119991ED000A91ED0C1A9FED343A83
:1013900020EE030A9FED332A01EE020A81ED0C0ACA
:1013A0009DF83E109DF83F2041EA0221ADF83A1029
:1013B000BDF93A1000EE101AB8EEC00A90ED001A0E
:1013C00020EE010A119991ED081A20EE010A81ED33
:1013D000010A119991ED010A91ED0D1A20EE030A0F
:1013E00001EE020A81ED0D0A9DF840109DF84120A2
:1013F00041EA0221ADF83A10BDF93A1000EE101A98
:10140000B8EEC00A90ED001A20EE010A119890ED96
:10141000081A20EE010A80ED020A119890ED020AE6
:1014200090ED0E1A20EE030A01EE020A80ED0E0A7C
:101430009FED070A00F010FEFFE7BDF80C00013039
:10144000ADF80C0069E712B080BD00BF9A99193E53
:101450006F12033ACDCC1CC10AD7233CC3F51C4103
:10146000CDCC4C3ECDCC4C3F80B586B00020059015
:10147000FFE70598032812DCFFE7059800EB400121
:1014800040F2F060C2F2004000EB81010C31142206
:1014900010F0AAFFFFE7059801300590E9E740F258
:1014A000F060C2F20040039000F13C01142204926B
:1014B00010F09AFF0398049A00F1480110F094FF8D
:1014C00040F21410C2F200400FF06EFEFFE714F07D
:1014D0001FFB40F2BC61C2F20041086040F2F060C4
:1014E000C2F200400078012824D1FFE740F2141036
:1014F000C2F2004002900FF023FF02980FF050FF5D
:1015000040F28450C2F20040019000F19C0110F0C2
:101510000BF8019800F1C80110F006F8029A911D2D
:1015200010460FF0D9FF02980FF0B6FC02980FF0AA
:10153000BBFFFFE740F2BC60C2F20040032113F0A2
:1015400073FBC4E70000000080B540F67020C2F2D3
:10155000004002F0CDF880BD80B540F69000C2F2A8
:10156000004002F0C5F880BD80B540F6E820C2F228
:10157000004002F0BDF880BD80B540F66030C2F298
:10158000004002F0B5F880BD80B540F6D830C2F218
:10159000004002F0ADF880BD80B540F61800C2F200
:1015A000004002F0A5F880BD80B540F6F810C2F208
:1015B000004002F09DF880BD80B540F60810C2F2F0
:1015C000004002F095F880BD80B540F68010C2F270
:1015D000004002F08DF880BD83B00290029801684F
:1015E00001201022C4F202029142009000F0A38078
:1015F000FFE70298016801202822C4F2020291420A
:10160000009000F09880FFE70298016801204022D6
:10161000C4F202029142009000F08D80FFE7029830
:10162000016801205822C4F202029142009000F0A9
:101630008280FFE70298016801207022C4F2020252
:101640009142009077D0FFE702980168012088223C
:10165000C4F20202914200906DD0FFE70298016847
:101660000120A022C4F202029142009063D0FFE761
:10167000029801680120B822C4F20202914200904F
:1016800059D0FFE702980168012040F21042C4F2ED
:101690000202914200904ED0FFE7029801680120BB
:1016A00040F22842C4F202029142009043D0FFE788
:1016B00002980168012040F24042C4F202029142C5
:1016C000009038D0FFE702980168012040F25842AC
:1016D000C4F20202914200902DD0FFE70298016807
:1016E000012040F27042C4F202029142009022D0E6
:1016F000FFE702980168012040F28842C4F202022A
:101700009142009017D0FFE702980168012040F253
:10171000A042C4F20202914200900CD0FFE702986E
:1017200000684FF64831CBF6FD710844B0FA80F0FE
:1017300040090090FFE70098C00740B3FFE7029818
:10174000007810384AF6AB21CAF6AA21A0FB011096
:1017500000090190019800F0070146F21070C0F6F0
:101760000100405C0299C8650198042807D3FFE78F
:1017700002990868042262F30900886506E002996C
:10178000086840F2FF3290438865FFE705E0029960
:10179000086820F0FF008865FFE70298806D03B0BD
:1017A000704700000000000084B0039003980068B8
:1017B000019003980168012045F20842C5F6020233
:1017C000914200904ED0FFE703980168012045F256
:1017D0001C42C5F602029142009043D0FFE70398F5
:1017E0000168012045F23042C5F6020291420090A4
:1017F00038D0FFE703980168012045F24442C5F65E
:101800000202914200902DD0FFE703980168012069
:1018100045F25842C5F602029142009022D0FFE7FD
:1018200003980168012045F26C42C5F6020291421C
:10183000009017D0FFE703980168012045F280422D
:10184000C5F60202914200900CD0FFE703980068B1
:101850004AF66C31CAF2FD710844B0FA80F04009D2
:101860000090FFE70098C00710B3FFE703980078E7
:1018700008384CF6CD41CCF6CC41A0FB0110000954
:101880000290029945F60000C5F6020000EB8100C7
:1018900003990866039945F68000C5F6020048667C
:1018A000029800F01F01012088400399886635E006
:1018B0000398007810384AF6AB21CAF6AA21A0FB9B
:1018C000011000090290019840F2B841C4F20201EF
:1018D00088420CD8FFE7019840F21041C4F202019F
:1018E000884204D3FFE7029808300290FFE702998C
:1018F00040F60000C4F2020000EB81000399086684
:10190000039940F68000C4F202004866029800F095
:101910001F010120884003998866FFE704B07047E3
:1019200083B002900298007901900198002800F09D
:101930008A80FFE70198082800F28580FFE7029877
:101940000168012045F20842C5F60202914200906A
:101950004ED0FFE702980168012045F21C42C5F60F
:1019600002029142009043D0FFE7029801680120F3
:1019700045F23042C5F602029142009038D0FFE7AE
:1019800002980168012045F24442C5F602029142E4
:1019900000902DD0FFE702980168012045F25842DF
:1019A000C5F602029142009022D0FFE7029801683A
:1019B000012045F26C42C5F602029142009017D018
:1019C000FFE702980168012045F28042C5F6020255
:1019D000914200900CD0FFE7029800684AF66C3103
:1019E000CAF2FD710844B0FA80F040090090FFE7A8
:1019F0000098C00780B1FFE7019945F6FC00C5F6E5
:101A0000020000EB81000299C866029945F6401079
:101A1000C5F6020008670FE0019940F6FC00C4F229
:101A2000020000EB81000299C866029940F640105E
:101A3000C4F202000867FFE70198411E01208840B8
:101A400002994867FFE703B07047000000000000FC
:101A500085B0049000208DF80F000498806918BBB1
:101A6000FFE70498806A029003281BD80299DFE8F8
:101A700001F0020D0218049890F82F00C00720B161
:101A8000FFE701208DF80F00FFE70CE00498C06A23
:101A9000B0F1C07F04D1FFE701208DF80F00FFE710
:101AA00001E000E0FFE747E004988069B0F5005FDF
:101AB00026D1FFE70498806A019003281ED8019977
:101AC000DFE801F00206021101208DF80F0016E098
:101AD000049890F82F00C00720B1FFE701208DF88F
:101AE0000F00FFE70BE00498C06AB0F1C07F04D19B
:101AF000FFE701208DF80F00FFE700E0FFE71AE0A5
:101B00000498806A0090032804D3FFE70098032814
:101B100004D00EE001208DF80F000BE0049890F83F
:101B20002F00C00720B1FFE701208DF80F00FFE76D
:101B300000E0FFE7FFE7FFE79DF80F0005B0704703
:101B400089B008900791069205930898806D0490DB
:101B50000898806D03900898016801201022C4F253
:101B600002029142029000F00381FFE708980168A9
:101B700001202822C4F202029142029000F0F88073
:101B8000FFE70898016801204022C4F20202914256
:101B9000029000F0ED80FFE70898016801205822CC
:101BA000C4F202029142029000F0E280FFE708983E
:101BB000016801207022C4F202029142029000F0FA
:101BC000D780FFE70898016801208822C4F202024A
:101BD0009142029000F0CC80FFE708980168012054
:101BE000A022C4F202029142029000F0C180FFE7FD
:101BF000089801680120B822C4F2020291420290C2
:101C000000F0B680FFE708980168012040F210421A
:101C1000C4F202029142029000F0AA80FFE7089805
:101C20000168012040F22842C4F20202914202906F
:101C300000F09E80FFE708980168012040F24042D2
:101C4000C4F202029142029000F09280FFE70898ED
:101C50000168012040F25842C4F20202914202900F
:101C600000F08680FFE708980168012040F270428A
:101C7000C4F20202914202907AD0FFE7089801680C
:101C8000012040F28842C4F20202914202906FD0D9
:101C9000FFE708980168012040F2A042C4F2020266
:101CA0009142029064D0FFE708980168012040F259
:101CB000B842C4F202029142029059D0FFE708985C
:101CC0000168012045F20842C5F6020291420290E5
:101CD0004ED0FFE708980168012045F21C42C5F686
:101CE00002029142029043D0FFE708980168012068
:101CF00045F23042C5F602029142029038D0FFE729
:101D000008980168012045F24442C5F6020291425A
:101D100002902DD0FFE708980168012045F2584253
:101D2000C5F602029142029022D0FFE708980168AE
:101D3000012045F26C42C5F602029142029017D092
:101D4000FFE708980168012045F28042C5F60202CB
:101D5000914202900CD0FFE7089800684AF66C3177
:101D6000CAF2FD710844B0FA80F040090290FFE722
:101D70000298C00770B1FFE70898416E806E486016
:101D80000898C06E28B1FFE70898016F406F48605F
:101D9000FFE7FFE70898016801201022C4F2020261
:101DA0009142019000F0A380FFE7089801680120AC
:101DB0002822C4F202029142019000F09880FFE7CD
:101DC0000898016801204022C4F202029142019069
:101DD00000F08D80FFE70898016801205822C4F2C6
:101DE00002029142019000F08280FFE708980168AA
:101DF00001207022C4F202029142019077D0FFE7E5
:101E00000898016801208822C4F2020291420190E0
:101E10006DD0FFE7089801680120A022C4F20202F9
:101E20009142019063D0FFE7089801680120B82231
:101E3000C4F202029142019059D0FFE7089801686C
:101E4000012040F21042C4F20202914201904ED0B1
:101E5000FFE708980168012040F22842C4F202021C
:101E60009142019043D0FFE708980168012040F2B9
:101E70004042C4F202029142019038D0FFE7089834
:101E80000168012040F25842C4F2020291420190DE
:101E90002DD0FFE708980168012040F27042C4F29B
:101EA00002029142019022D0FFE7089801680120C8
:101EB00040F28842C4F202029142019017D0FFE73B
:101EC00008980168012040F2A042C4F20202914247
:101ED00001900CD0FFE7089800684FF64831CBF628
:101EE000FD710844B0FA80F040090190FFE70198C5
:101EF000C00750B3FFE70898C06D00F01F013F20F6
:101F000088400499886008980168086820F4802057
:101F10000860059808990968486008988068402812
:101F200009D1FFE706980899096888600798089919
:101F30000968C86008E007980899096888600698E9
:101F400008990968C860FFE782E0089801680120E5
:101F500045F20842C5F60202914200904ED0FFE7DA
:101F600008980168012045F21C42C5F60202914220
:101F7000009043D0FFE708980168012045F2304205
:101F8000C5F602029142009038D0FFE70898016838
:101F9000012045F24442C5F60202914200902DD044
:101FA000FFE708980168012045F25842C5F6020291
:101FB0009142009022D0FFE708980168012045F285
:101FC0006C42C5F602029142009017D0FFE70898D4
:101FD0000168012045F28042C5F60202914200905C
:101FE0000CD0FFE7089800684AF66C31CAF2FD7120
:101FF0000844B0FA80F040090090FFE70098C0075D
:1020000020B3FFE70898C06D00F01F010120884051
:10201000039948600598089909684860089880689D
:10202000402809D1FFE70698089909688860079851
:1020300008990968C86008E00798089909688860E5
:10204000069808990968C860FFE700E0FFE7FFE726
:1020500009B070470000000083B08DED020A41F224
:102060000400CEF200000068019002980090FFE7A3
:1020700041F20400CEF2000000680199401A00EE1F
:10208000100AB8EE400A9DED001A40F27860C2F2E4
:10209000004090ED002AB8EE422A21EE021AB4EE7A
:1020A000410AF1EE10FA01DAFFE7E1E703B0704709
:1020B00080B584B0039041F20400CEF200000068C5
:1020C0000290029803990968401A00EE100AB8EECF
:1020D000400A40F27860C2F2004090ED001AB8EE7B
:1020E000411A80EE010A8DED010A029803990860F9
:1020F0000EF04AFE9DED010A04B080BD0000000014
:1021000080B582B000F068F840F27C50C2F2004026
:1021100090ED000AB8EE400A818801EE101AB8EE80
:10212000C11A9FED092A01EE020AC08801EE100AC9
:10213000B8EEC11A9FED052A01EE020A8DED010AE3
:102140009DED010A02B080BD6F12833ABD3786351E
:1021500081B000904EF6FC51CEF20001086840F0CC
:102160008070086041F20401CEF200010020086096
:1021700041F20002CEF20002116841F0010111604B
:10218000009944F24022C0F20F024A4340F27861C3
:10219000C2F200410A600A6844F6D353C1F26203F6
:1021A000A2FB0332920940F28063C2F200431A603C
:1021B00009684DF68362C4F21B32A1FB0221890C2F
:1021C00040F28462C2F20042116040F28861C2F2C1
:1021D0000041086001B07047B0B586B041F204001C
:1021E000CEF20000006805900EF0CEFD40F288604F
:1021F000C2F2004001680598002302934FF0FF3CB3
:102200001A46E1FB0C0240F20811C2F200410091B3
:102210004A6008600868496840F27864C2F2004485
:102220002268FEF7C9F8029B02468C46009940F2EC
:10223000C060C2F20040C0F804C00260D1F800C023
:102240004968D0F800E042682468AEFB04E502FB70
:102250000452BCEB0E0C61EB020240F2C861C2F208
:1022600000410391C1F800C04A60006840F27C520E
:10227000C2F20042049210600868496840F280622D
:10228000C2F2004201921268FEF796F8DDF804C02F
:10229000029B049A014603989180016840689288E5
:1022A000DCF800C002FB0CF28A1A60F1000040F278
:1022B000D061C2F200410A6048600868496840F293
:1022C0008462C2F200421268FEF776F80499C88070
:1022D00006B0B0BD00000000704700000000000024
:1022E00081B0EFF3108072B60090FFE7FEE70000C8
:1022F00044F60C01C5F60201086840F002000860CF
:10230000FFE744F60400C5F60200006880040028D8
:1023100001D4FFE7F5E7704780B540F65040C2F2C0
:10232000004003F059FE80BD80B540F6F040C2F297
:10233000004003F051FE80BD80B540F69050C2F2DF
:10234000004003F049FE80BD84B002900298406BCB
:10235000009002980068D0F884004FF6FC71884322
:10236000009940EA810002990968C1F88400029846
:102370000068D0F8840020F47F00029A1168926B04
:1023800040EA0240C1F884000298816B009808443A
:10239000009002980068D0F888006FF38F000099D1
:1023A00040EA810002990968C1F888000298006833
:1023B000D0F8880020F4FE00029A1168D26B40EA3F
:1023C0000240C1F888000298C16B009800EB410000
:1023D000009002980068D0F8A0006FF38F00009979
:1023E00040EA810002990968C1F8A00002980068DB
:1023F000D0F8A00020F4FE00029A1168126C40EAA6
:102400000240C1F8A0000299086C496C009A00FBD8
:102410000120009002980068D0F8B0006FF38F00A0
:10242000009940EA810002990968C1F8B000029859
:102430000068D0F8B00020F4FE00029A1168926C97
:1024400040EA0240C1F8B0000299886CC96C009A59
:1024500000FB0120009002980068D0F8AC006FF3F8
:102460008F00009940EA810002990968C1F8AC0028
:102470000299086D496D009A00FB012000900298B6
:102480000068D0F8F0006FF38F00009940EA8100F7
:1024900002990968C1F8F00002980068D0F8F000CD
:1024A00020F47C10029A1168926D40EA0240C1F853
:1024B000F0000298816D009800EB410000900298B6
:1024C0000068D0F8C0006FF38F00009940EA8100E7
:1024D00002990968C1F8C00002980068D0F8C000ED
:1024E00020F47C10029A1168D26D40EA0240C1F8D3
:1024F000C00002980068D0F8C00020F07C50029A1A
:102500001168126E40EA0260C1F8C00002994A6B7D
:102510004AF60040C4F2000000EB8200C86602994F
:102520008A6BC86E00EB820008670299CA6B086F5D
:1025300000EBC200486702990A6C4B6C486F5A4323
:1025400000EB8200886702998A6CCB6C886F5A43D3
:1025500000EB8200C86702990A6D4B6DC86F5A4341
:1025600000EB8200C1F8800002998A6DD1F88000EA
:1025700000EBC200C1F884000299CA6D8B6ED1F8DD
:1025800084005A4300EB8200C1F8880002990A6E69
:102590008B6ED1F888005A4300EB8200C1F890009E
:1025A0000298D0F890004DF2FD31C4F2000188424B
:1025B0000FD3FFE70299D1F89C0040F02000C1F84A
:1025C0009C000299032081F8980001208DF80F00EB
:1025D00017E00298C06E0190FFE701980299D1F8C8
:1025E0009010884208D2FFE7019900200860FFE7B9
:1025F000019804300190F0E7FFE700208DF80F000C
:10260000FFE79DF80F0004B07047000000000000D5
:1026100088B007900691059204930698406848B9DF
:10262000FFE70698016882680069104340EA81402C
:10263000039009E006980168826800691043084326
:1026400040F080400390FFE70698D0F820C0C168B2
:1026500042698369C06940EA0C601843104340EA4C
:10266000014002900798826ED0F88400049951438B
:1026700000EB8100019003980199086001980430F3
:10268000019002980199086001980430019000209F
:102690000090FFE700980699CA6846F20071C0F6FC
:1026A0000101895C88420DD2FFE7059800994058E6
:1026B00001990860019804300190FFE70098043008
:1026C0000090E7E708B0704780B58AB0089004F042
:1026D00097FD0490089828B9FFE701208DF827009E
:1026E00000F0AABC089890F8350002280ED0FFE749
:1026F000089980204865FFE70899002081F8340098
:10270000FFE701208DF8270000F096BC08980168CB
:1027100001201022C4F202029142039000F0A38033
:10272000FFE70898016801202822C4F202029142C2
:10273000039000F09880FFE708980168012040228C
:10274000C4F202029142039000F08D80FFE70898E6
:10275000016801205822C4F202029142039000F065
:102760008280FFE70898016801207022C4F202020B
:102770009142039077D0FFE70898016801208822F2
:10278000C4F20202914203906DD0FFE708980168FD
:102790000120A022C4F202029142039063D0FFE71D
:1027A000089801680120B822C4F202029142039005
:1027B00059D0FFE708980168012040F21042C4F2A6
:1027C0000202914203904ED0FFE708980168012071
:1027D00040F22842C4F202029142039043D0FFE744
:1027E00008980168012040F24042C4F2020291427E
:1027F000039038D0FFE708980168012040F2584262
:10280000C4F20202914203902DD0FFE708980168BC
:10281000012040F27042C4F202029142039022D0A1
:10282000FFE708980168012040F28842C4F20202E2
:102830009142039017D0FFE708980168012040F209
:10284000A042C4F20202914203900CD0FFE7089824
:1028500000684FF64831CBF6FD710844B0FA80F0BD
:1028600040090390FFE70398C00780B1FFE708988D
:102870000168086820F01E0008600898016848692F
:1028800020F08000486108980068059009E00898E9
:102890000168086820F00E0008600898006805903C
:1028A000FFE70898016801201022C4F20202914259
:1028B000029000F00381FFE70898016801202822B8
:1028C000C4F202029142029000F0F880FFE70898FB
:1028D000016801204022C4F202029142029000F0FD
:1028E000ED80FFE70898016801205822C4F2020237
:1028F0009142029000F0E280FFE708980168012011
:102900007022C4F202029142029000F0D780FFE7E9
:102910000898016801208822C4F2020291420290C4
:1029200000F0CC80FFE7089801680120A022C4F2E3
:1029300002029142029000F0C180FFE7089801680E
:102940000120B822C4F202029142029000F0B68047
:10295000FFE708980168012040F21042C4F2020229
:102960009142029000F0AA80FFE7089801680120D8
:1029700040F22842C4F202029142029000F09E808E
:10298000FFE708980168012040F24042C4F20202C9
:102990009142029000F09280FFE7089801680120C0
:1029A00040F25842C4F202029142029000F0868046
:1029B000FFE708980168012040F27042C4F2020269
:1029C000914202907AD0FFE708980168012040F216
:1029D0008842C4F20202914202906FD0FFE7089849
:1029E0000168012040F2A042C4F20202914202902A
:1029F00064D0FFE708980168012040F2B842C4F2B1
:102A000002029142029059D0FFE708980168012024
:102A100045F20842C5F60202914202904ED0FFE70D
:102A200008980168012045F21C42C5F60202914255
:102A3000029043D0FFE708980168012045F2304238
:102A4000C5F602029142029038D0FFE7089801686B
:102A5000012045F24442C5F60202914202902DD077
:102A6000FFE708980168012045F25842C5F60202C6
:102A70009142029022D0FFE708980168012045F2B8
:102A80006C42C5F602029142029017D0FFE7089807
:102A90000168012045F28042C5F60202914202908F
:102AA0000CD0FFE7089800684AF66C31CAF2FD7155
:102AB0000844B0FA80F040090290FFE70298C0078E
:102AC00038B1FFE70898016E086820F4807008604C
:102AD000FFE7089800681021C4F20201884200F064
:102AE0008180FFE7089800682821C4F2020188422B
:102AF00078D0FFE7089800684021C4F202018842BC
:102B000070D0FFE7089800685821C4F2020188429B
:102B100068D0FFE7089800687021C4F2020188427B
:102B200060D0FFE7089800688821C4F2020188425B
:102B300058D0FFE708980068A021C4F2020188423B
:102B400050D0FFE708980068B821C4F2020188421B
:102B500048D0FFE70898006840F21041C4F2020133
:102B600088423FD0FFE70898006840F22841C4F24D
:102B70000201884236D0FFE70898006840F24041E1
:102B8000C4F2020188422DD0FFE70898006840F2A5
:102B90005841C4F20201884224D0FFE70898006837
:102BA00040F27041C4F2020188421BD0FFE708984E
:102BB000006840F28841C4F20201884212D0FFE767
:102BC0000898006840F2A041C4F20201884209D08E
:102BD000FFE70898006840F2B841C4F20201884259
:102BE00007D1FFE708980168086820F00100086035
:102BF00006E008980168086820F001000860FFE717
:102C0000FFE705980068C007C8B1FFE704F0F8FACD
:102C10000499401A062811D3FFE708992020486537
:102C20000899032081F83500FFE70899002081F812
:102C30003400FFE701208DF82700FDE1E1E7089867
:102C4000016801201022C4F202029142019000F0BA
:102C5000A380FFE70898016801202822C4F202023D
:102C60009142019000F09880FFE7089801680120E8
:102C70004022C4F202029142019000F08D80FFE7F1
:102C80000898016801205822C4F202029142019082
:102C900000F08280FFE70898016801207022C4F2EA
:102CA00002029142019077D0FFE708980168012065
:102CB0008822C4F20202914201906DD0FFE7089889
:102CC00001680120A022C4F202029142019063D067
:102CD000FFE7089801680120B822C4F2020291427D
:102CE000019059D0FFE708980168012040F2104296
:102CF000C4F20202914201904ED0FFE708980168A9
:102D0000012040F22842C4F202029142019043D0D5
:102D1000FFE708980168012040F24042C4F2020235
:102D20009142019038D0FFE708980168012040F2F5
:102D30005842C4F20202914201902DD0FFE7089858
:102D40000168012040F27042C4F2020291420190F7
:102D500022D0FFE708980168012040F28842C4F2BF
:102D600002029142019017D0FFE708980168012004
:102D700040F2A042C4F20202914201900CD0FFE75F
:102D8000089800684FF64831CBF6FD710844B0FA58
:102D900080F040090190FFE70198C00760B1FFE7AC
:102DA0000898806D07900898C06D00F01F013F20C3
:102DB0008840079988600BE00898806D0690089815
:102DC000C06D00F01F010120884006994860FFE7B0
:102DD0000898016801201022C4F20202914200907A
:102DE00000F00381FFE70898016801202822C4F25F
:102DF00002029142009000F0F880FFE70898016815
:102E000001204022C4F202029142009000F0ED80C5
:102E1000FFE70898016801205822C4F2020291429B
:102E2000009000F0E280FFE708980168012070221E
:102E3000C4F202029142009000F0D780FFE70898A8
:102E4000016801208822C4F202029142009000F041
:102E5000CC80FFE7089801680120A022C4F202029A
:102E60009142009000F0C180FFE7089801680120BE
:102E7000B822C4F202029142009000F0B680FFE74F
:102E800008980168012040F21042C4F20202914207
:102E9000009000F0AA80FFE708980168012040F246
:102EA0002842C4F202029142009000F09E80FFE7A7
:102EB00008980168012040F24042C4F202029142A7
:102EC000009000F09280FFE708980168012040F22E
:102ED0005842C4F202029142009000F08680FFE75F
:102EE00008980168012040F27042C4F20202914247
:102EF00000907AD0FFE708980168012040F28842EC
:102F0000C4F20202914200906FD0FFE70898016876
:102F1000012040F2A042C4F202029142009064D02B
:102F2000FFE708980168012040F2B842C4F20202AB
:102F30009142009059D0FFE708980168012045F2BE
:102F40000842C5F60202914200904ED0FFE7089871
:102F50000168012045F21C42C5F602029142009030
:102F600043D0FFE708980168012045F23042C5F6DA
:102F700002029142009038D0FFE7089801680120D2
:102F800045F24442C5F60202914200902DD0FFE77F
:102F900008980168012045F25842C5F602029142A4
:102FA000009022D0FFE708980168012045F26C42AA
:102FB000C5F602029142009017D0FFE70898016819
:102FC000012045F28042C5F60202914200900CD0E9
:102FD000FFE7089800684AF66C31CAF2FD710844B0
:102FE000B0FA80F040090090FFE70098C007A0B158
:102FF000FFE70898416E806E48600898C06E58B12F
:10300000FFE70898C16E086820F48070086008988F
:10301000016F406F4860FFE7FFE70899012081F8E2
:103020003500FFE70899002081F83400FFE7FFE74B
:1030300000208DF82700FFE79DF827000AB080BD2B
:1030400080B586B00490049820B9FFE701208DF880
:10305000170046E3049890F83500022807D0FFE7F0
:1030600004998020486501208DF8170039E3049801
:10307000016801201022C4F202029142029000F085
:10308000A380FFE70498016801202822C4F202020D
:103090009142029000F09880FFE7049801680120B7
:1030A0004022C4F202029142029000F08D80FFE7BC
:1030B0000498016801205822C4F202029142029051
:1030C00000F08280FFE70498016801207022C4F2BA
:1030D00002029142029077D0FFE704980168012034
:1030E0008822C4F20202914202906DD0FFE7049858
:1030F00001680120A022C4F202029142029063D032
:10310000FFE7049801680120B822C4F2020291424C
:10311000029059D0FFE704980168012040F2104264
:10312000C4F20202914202904ED0FFE70498016877
:10313000012040F22842C4F202029142029043D0A0
:10314000FFE704980168012040F24042C4F2020205
:103150009142029038D0FFE704980168012040F2C4
:103160005842C4F20202914202902DD0FFE7049827
:103170000168012040F27042C4F2020291420290C2
:1031800022D0FFE704980168012040F28842C4F28F
:1031900002029142029017D0FFE7049801680120D3
:1031A00040F2A042C4F20202914202900CD0FFE72A
:1031B000049800684FF64831CBF6FD710844B0FA28
:1031C00080F040090290FFE70298C007002800F055
:1031D0009D80FFE70499042081F835000498006879
:1031E0001021C4F20201884200F08180FFE70498B8
:1031F00000682821C4F20201884278D0FFE70498D1
:1032000000684021C4F20201884270D0FFE70498B0
:1032100000685821C4F20201884268D0FFE7049890
:1032200000687021C4F20201884260D0FFE7049870
:1032300000688821C4F20201884258D0FFE7049850
:103240000068A021C4F20201884250D0FFE7049830
:103250000068B821C4F20201884248D0FFE7049810
:10326000006840F21041C4F2020188423FD0FFE7FB
:103270000498006840F22841C4F20201884236D026
:10328000FFE70498006840F24041C4F2020188421E
:103290002DD0FFE70498006840F25841C4F20201C3
:1032A000884224D0FFE70498006840F27041C4F2DD
:1032B000020188421BD0FFE70498006840F2884171
:1032C000C4F20201884212D0FFE70498006840F27D
:1032D000A041C4F20201884209D0FFE704980068C7
:1032E00040F2B841C4F20201884207D1FFE70498D6
:1032F0000168086820F00100086006E00498016891
:10330000086820F001000860FFE7E5E10498016823
:10331000086820F00E000860049800681021C4F2CC
:103320000201884200F08180FFE7049800682821AC
:10333000C4F20201884278D0FFE704980068402177
:10334000C4F20201884270D0FFE704980068582157
:10335000C4F20201884268D0FFE704980068702137
:10336000C4F20201884260D0FFE704980068882117
:10337000C4F20201884258D0FFE704980068A021F7
:10338000C4F20201884250D0FFE704980068B821D7
:10339000C4F20201884248D0FFE70498006840F276
:1033A0001041C4F2020188423FD0FFE70498006850
:1033B00040F22841C4F20201884236D0FFE7049867
:1033C000006840F24041C4F2020188422DD0FFE77C
:1033D0000498006840F25841C4F20201884224D0A7
:1033E000FFE70498006840F27041C4F2020188428D
:1033F0001BD0FFE70498006840F28841C4F2020144
:10340000884212D0FFE70498006840F2A041C4F25D
:103410000201884209D0FFE70498006840F2B841F1
:10342000C4F20201884207D1FFE7049801680868E6
:1034300020F00100086006E004980168086820F0A8
:1034400001000860FFE70498016801201022C4F21F
:1034500002029142019000F00381FFE704980168A5
:1034600001202822C4F202029142019000F0F8806B
:10347000FFE70498016801204022C4F20202914251
:10348000019000F0ED80FFE70498016801205822C8
:10349000C4F202029142019000F0E280FFE704983A
:1034A000016801207022C4F202029142019000F0F2
:1034B000D780FFE70498016801208822C4F2020245
:1034C0009142019000F0CC80FFE704980168012050
:1034D000A022C4F202029142019000F0C180FFE7F5
:1034E000049801680120B822C4F2020291420190BE
:1034F00000F0B680FFE704980168012040F2104216
:10350000C4F202029142019000F0AA80FFE7049801
:103510000168012040F22842C4F202029142019067
:1035200000F09E80FFE704980168012040F24042CD
:10353000C4F202029142019000F09280FFE70498E9
:103540000168012040F25842C4F202029142019007
:1035500000F08680FFE704980168012040F2704285
:10356000C4F20202914201907AD0FFE70498016808
:10357000012040F28842C4F20202914201906FD0D1
:10358000FFE704980168012040F2A042C4F2020261
:103590009142019064D0FFE704980168012040F255
:1035A000B842C4F202029142019059D0FFE7049858
:1035B0000168012045F20842C5F6020291420190DD
:1035C0004ED0FFE704980168012045F21C42C5F681
:1035D00002029142019043D0FFE704980168012064
:1035E00045F23042C5F602029142019038D0FFE721
:1035F00004980168012045F24442C5F60202914256
:1036000001902DD0FFE704980168012045F258424F
:10361000C5F602029142019022D0FFE704980168AA
:10362000012045F26C42C5F602029142019017D08A
:10363000FFE704980168012045F28042C5F60202C6
:10364000914201900CD0FFE7049800684AF66C3173
:10365000CAF2FD710844B0FA80F040090190FFE71A
:103660000198C00728B3FFE70498016E086820F4AA
:10367000807008600498806D03900498C06D00F01D
:103680001F0101208840039948600498416E806EB4
:1036900048600498C06E58B1FFE70498C16E08688E
:1036A00020F4807008600498016F406F4860FFE765
:1036B000FFE70499012081F83500FFE70499002015
:1036C00081F83400FFE70498006D20B1FFE704980B
:1036D000016D8847FFE7FFE7FFE700208DF817003F
:1036E000FFE79DF8170006B080BD00000000000055
:1036F00080B590B00F9000200B9040F20C00C2F209
:103700000040006848F2B511C1F64E31A0FB01102F
:10371000800A0A900F98806D09900F98806D08902C
:10372000099800680E90089800680D900F9801683D
:1037300001201022C4F202029142079000F0A380FF
:10374000FFE70F98016801202822C4F2020291428B
:10375000079000F09880FFE70F9801680120402251
:10376000C4F202029142079000F08D80FFE70F98AB
:10377000016801205822C4F202029142079000F031
:103780008280FFE70F98016801207022C4F20202D4
:103790009142079077D0FFE70F98016801208822B7
:1037A000C4F20202914207906DD0FFE70F980168C2
:1037B0000120A022C4F202029142079063D0FFE7E9
:1037C0000F9801680120B822C4F2020291420790CA
:1037D00059D0FFE70F980168012040F21042C4F26F
:1037E0000202914207904ED0FFE70F980168012036
:1037F00040F22842C4F202029142079043D0FFE710
:103800000F980168012040F24042C4F20202914246
:10381000079038D0FFE70F980168012040F2584226
:10382000C4F20202914207902DD0FFE70F98016881
:10383000012040F27042C4F202029142079022D06D
:10384000FFE70F980168012040F28842C4F20202AB
:103850009142079017D0FFE70F980168012040F2CE
:10386000A042C4F20202914207900CD0FFE70F98E9
:1038700000684FF64831CBF6FD710844B0FA80F08D
:1038800040090790FFE70798C007002800F013855C
:10389000FFE70E980F99C96D01F01F01C84000079E
:1038A000002840F1B080FFE70F9800681021C4F2B3
:1038B0000201884200F08180FFE70F98006828210C
:1038C000C4F20201884278D0FFE70F9800684021D7
:1038D000C4F20201884270D0FFE70F9800685821B7
:1038E000C4F20201884268D0FFE70F980068702197
:1038F000C4F20201884260D0FFE70F980068882177
:10390000C4F20201884258D0FFE70F980068A02156
:10391000C4F20201884250D0FFE70F980068B82136
:10392000C4F20201884248D0FFE70F98006840F2D5
:103930001041C4F2020188423FD0FFE70F980068AF
:1039400040F22841C4F20201884236D0FFE70F98C6
:10395000006840F24041C4F2020188422DD0FFE7E6
:103960000F98006840F25841C4F20201884224D006
:10397000FFE70F98006840F27041C4F202018842EC
:103980001BD0FFE70F98006840F28841C4F20201A3
:10399000884212D0FFE70F98006840F2A041C4F2BD
:1039A0000201884209D0FFE70F98006840F2B84151
:1039B000C4F20201884207D1FFE70F98006800684F
:1039C00000F00400069006E00F980068006800F020
:1039D00008000690FFE70698A0B1FFE70F9801687E
:1039E000086820F0040008600F98C06D00F01F0107
:1039F00008208840099988600F99486D40F00100BF
:103A00004865FFE7FFE70E980F99C96D01F01F01A8
:103A1000C840C007002800F0A980FFE70F980068A1
:103A20001021C4F20201884200F08180FFE70F9864
:103A300000682821C4F20201884278D0FFE70F987D
:103A400000684021C4F20201884270D0FFE70F985D
:103A500000685821C4F20201884268D0FFE70F983D
:103A600000687021C4F20201884260D0FFE70F981D
:103A700000688821C4F20201884258D0FFE70F98FD
:103A80000068A021C4F20201884250D0FFE70F98DD
:103A90000068B821C4F20201884248D0FFE70F98BD
:103AA000006840F21041C4F2020188423FD0FFE7B3
:103AB0000F98006840F22841C4F20201884236D0D3
:103AC000FFE70F98006840F24041C4F202018842CB
:103AD0002DD0FFE70F98006840F25841C4F2020170
:103AE000884224D0FFE70F98006840F27041C4F28A
:103AF000020188421BD0FFE70F98006840F288411E
:103B0000C4F20201884212D0FFE70F98006840F229
:103B1000A041C4F20201884209D0FFE70F98006873
:103B200040F2B841C4F20201884207D1FFE70F9882
:103B30000068406900F08000059005E00F9800687B
:103B4000006800200590FFE7059870B1FFE70F9827
:103B5000C06D00F01F0101208840099988600F990D
:103B6000486D40F002004865FFE7FFE70E980F99A7
:103B7000C96D01F01F01C8404007002840F1A9802D
:103B8000FFE70F9800681021C4F20201884200F09C
:103B90008180FFE70F9800682821C4F20201884263
:103BA00078D0FFE70F9800684021C4F202018842F4
:103BB00070D0FFE70F9800685821C4F202018842D4
:103BC00068D0FFE70F9800687021C4F202018842B4
:103BD00060D0FFE70F9800688821C4F20201884294
:103BE00058D0FFE70F980068A021C4F20201884274
:103BF00050D0FFE70F980068B821C4F20201884254
:103C000048D0FFE70F98006840F21041C4F202016B
:103C100088423FD0FFE70F98006840F22841C4F285
:103C20000201884236D0FFE70F98006840F2404119
:103C3000C4F2020188422DD0FFE70F98006840F2DD
:103C40005841C4F20201884224D0FFE70F9800686F
:103C500040F27041C4F2020188421BD0FFE70F9886
:103C6000006840F28841C4F20201884212D0FFE7A6
:103C70000F98006840F2A041C4F20201884209D0C6
:103C8000FFE70F98006840F2B841C4F20201884291
:103C900007D1FFE70F980068006800F00200049069
:103CA00005E00F980068006800200490FFE7049882
:103CB00070B1FFE70F98C06D00F01F01042088402D
:103CC000099988600F99486D40F004004865FFE746
:103CD000FFE70E980F99C96D01F01F01C840C0069B
:103CE000002840F1DE80FFE70F9800681021C4F241
:103CF0000201884200F08180FFE70F9800682821C8
:103D0000C4F20201884278D0FFE70F980068402192
:103D1000C4F20201884270D0FFE70F980068582172
:103D2000C4F20201884268D0FFE70F980068702152
:103D3000C4F20201884260D0FFE70F980068882132
:103D4000C4F20201884258D0FFE70F980068A02112
:103D5000C4F20201884250D0FFE70F980068B821F2
:103D6000C4F20201884248D0FFE70F98006840F291
:103D70001041C4F2020188423FD0FFE70F9800686B
:103D800040F22841C4F20201884236D0FFE70F9882
:103D9000006840F24041C4F2020188422DD0FFE7A2
:103DA0000F98006840F25841C4F20201884224D0C2
:103DB000FFE70F98006840F27041C4F202018842A8
:103DC0001BD0FFE70F98006840F28841C4F202015F
:103DD000884212D0FFE70F98006840F2A041C4F279
:103DE0000201884209D0FFE70F98006840F2B8410D
:103DF000C4F20201884207D1FFE70F98006800680B
:103E000000F00800039006E00F980068006800F0DA
:103E100004000390FFE70398002841D0FFE70F98C4
:103E2000C06D00F01F0110208840099988600F982C
:103E300000680068400300281AD5FFE70F98006863
:103E400000680003002809D4FFE70F98006C20B138
:103E5000FFE70F98016C8847FFE708E00F98806C38
:103E600020B1FFE70F98816C8847FFE7FFE716E076
:103E70000F9800680068C005002807D4FFE70F9876
:103E80000168086820F008000860FFE70F98006CE0
:103E900020B1FFE70F98016C8847FFE7FFE7FFE7D6
:103EA000FFE70E980F99C96D01F01F01C840800609
:103EB000002840F12681FFE70F9800681021C4F226
:103EC0000201884200F08180FFE70F9800682821F6
:103ED000C4F20201884278D0FFE70F9800684021C1
:103EE000C4F20201884270D0FFE70F9800685821A1
:103EF000C4F20201884268D0FFE70F980068702181
:103F0000C4F20201884260D0FFE70F980068882160
:103F1000C4F20201884258D0FFE70F980068A02140
:103F2000C4F20201884250D0FFE70F980068B82120
:103F3000C4F20201884248D0FFE70F98006840F2BF
:103F40001041C4F2020188423FD0FFE70F98006899
:103F500040F22841C4F20201884236D0FFE70F98B0
:103F6000006840F24041C4F2020188422DD0FFE7D0
:103F70000F98006840F25841C4F20201884224D0F0
:103F8000FFE70F98006840F27041C4F202018842D6
:103F90001BD0FFE70F98006840F28841C4F202018D
:103FA000884212D0FFE70F98006840F2A041C4F2A7
:103FB0000201884209D0FFE70F98006840F2B8413B
:103FC000C4F20201884207D1FFE70F980068006839
:103FD00000F01000029006E00F980068006800F002
:103FE00002000290FFE70298002800F08980FFE7B6
:103FF0000F98C06D00F01F0120208840099988604B
:104000000F9890F83500042837D1FFE70F98016822
:10401000086820F0160008600F980168486920F0D1
:10402000800048610F98006C20B9FFE70F98806C02
:1040300038B1FFE70F980168086820F008000860B1
:10404000FFE70F98C06D00F01F013F2088400999DD
:1040500088600F99012081F83500FFE70F99002053
:1040600081F83400FFE70F98006D20B1FFE70F984B
:10407000016D8847FFE700F019BC0F9800680068E1
:10408000400300281AD5FFE70F9800680068000376
:10409000002809D4FFE70F98406C20B1FFE70F9884
:1040A000416C8847FFE708E00F98C06B20B1FFE73D
:1040B0000F98C16B8847FFE7FFE720E00F98006883
:1040C0000068C005002811D4FFE70F980168086850
:1040D00020F0100008600F99012081F83500FFE7FB
:1040E0000F99002081F83400FFE7FFE70F98C06BBD
:1040F00020B1FFE70F98C16B8847FFE7FFE7FFE7B5
:10410000FFE70F98406D002800F0D480FFE70F987C
:10411000406DC007002800F0C480FFE70F9904201D
:1041200081F835000F9800681021C4F2020188421E
:1041300000F08180FFE70F9800682821C4F2020197
:10414000884278D0FFE70F9800684021C4F202014E
:10415000884270D0FFE70F9800685821C4F202012E
:10416000884268D0FFE70F9800687021C4F202010E
:10417000884260D0FFE70F9800688821C4F20201EE
:10418000884258D0FFE70F980068A021C4F20201CE
:10419000884250D0FFE70F980068B821C4F20201AE
:1041A000884248D0FFE70F98006840F21041C4F2FF
:1041B000020188423FD0FFE70F98006840F2284193
:1041C000C4F20201884236D0FFE70F98006840F23F
:1041D0004041C4F2020188422DD0FFE70F980068E9
:1041E00040F25841C4F20201884224D0FFE70F9800
:1041F000006840F27041C4F2020188421BD0FFE720
:104200000F98006840F28841C4F20201884212D03F
:10421000FFE70F98006840F2A041C4F20201884213
:1042200009D0FFE70F98006840F2B841C4F20201DC
:10423000884207D1FFE70F980168086820F0010065
:10424000086006E00F980168086820F00100086027
:10425000FFE7FFE70B9801300B900A99884201D9DC
:10426000FFE707E0FFE70F9800680068C007002835
:10427000F0D1FFE70F9800680068C00728B1FFE79A
:104280000F99032081F8350004E00F99012081F88F
:104290003500FFE7FFE70F99002081F83400FFE7C2
:1042A000FFE70F98C06C20B1FFE70F98C16C8847FB
:1042B000FFE7FFE7FAE20F980168012045F20842A4
:1042C000C5F60202914201904ED0FFE70F980168B7
:1042D000012045F21C42C5F602029142019043D0F2
:1042E000FFE70F980168012045F23042C5F602024F
:1042F0009142019038D0FFE70F980168012045F204
:104300004442C5F60202914201902DD0FFE70F987A
:104310000168012045F25842C5F60202914201901F
:1043200022D0FFE70F980168012045F26C42C5F6E4
:1043300002029142019017D0FFE70F980168012017
:1043400045F28042C5F60202914201900CD0FFE78F
:104350000F9800684AF66C31CAF2FD710844B0FA51
:1043600080F040090190FFE70198C007002800F0A5
:104370009B82FFE70F98006800680C900D980F99DA
:10438000C96D01F01F01C8404007002840F1D780E7
:10439000FFE79DF830004007002840F1D080FFE79C
:1043A0000F98C06D00F01F010420884008994860F4
:1043B0009DF831000006002818D5FFE79DF832006F
:1043C000C00748B9FFE70F98806C20B1FFE70F984E
:1043D000816C8847FFE708E00F98006C20B1FFE789
:1043E0000F98016C8847FFE7FFE7A7E09DF83000D2
:1043F0008006002800F19980FFE70F9800681021DF
:10440000C4F20201884200F08180FFE70F98006843
:104410002821C4F20201884278D0FFE70F98006893
:104420004021C4F20201884270D0FFE70F98006873
:104430005821C4F20201884268D0FFE70F98006853
:104440007021C4F20201884260D0FFE70F98006833
:104450008821C4F20201884258D0FFE70F98006813
:10446000A021C4F20201884250D0FFE70F980068F3
:10447000B821C4F20201884248D0FFE70F980068D3
:1044800040F21041C4F2020188423FD0FFE70F988A
:10449000006840F22841C4F20201884236D0FFE7AA
:1044A0000F98006840F24041C4F2020188422DD0CA
:1044B000FFE70F98006840F25841C4F202018842B9
:1044C00024D0FFE70F98006840F27041C4F2020167
:1044D00088421BD0FFE70F98006840F28841C4F281
:1044E0000201884212D0FFE70F98006840F2A04115
:1044F000C4F20201884209D0FFE70F98006840F239
:10450000B841C4F20201884207D1FFE70F98016861
:10451000086820F00800086006E00F980168086845
:1045200020F004000860FFE7FFE70F98006C20B15F
:10453000FFE70F98016C8847FFE7FFE7B3E10D98AD
:104540000F99C96D01F01F01C8408007002840F194
:10455000E180FFE79DF830008007002840F1DA8015
:10456000FFE70F98C06D00F01F01022088400899F6
:1045700048609DF831000006002818D5FFE79DF837
:104580003200C00748B9FFE70F98406C20B1FFE741
:104590000F98416C8847FFE708E00F98C06B20B187
:1045A000FFE70F98C16B8847FFE7FFE7B1E09DF891
:1045B00030008006002800F1A380FFE70F98006814
:1045C0001021C4F20201884200F08180FFE70F98B9
:1045D00000682821C4F20201884278D0FFE70F98D2
:1045E00000684021C4F20201884270D0FFE70F98B2
:1045F00000685821C4F20201884268D0FFE70F9892
:1046000000687021C4F20201884260D0FFE70F9871
:1046100000688821C4F20201884258D0FFE70F9851
:104620000068A021C4F20201884250D0FFE70F9831
:104630000068B821C4F20201884248D0FFE70F9811
:10464000006840F21041C4F2020188423FD0FFE707
:104650000F98006840F22841C4F20201884236D027
:10466000FFE70F98006840F24041C4F2020188421F
:104670002DD0FFE70F98006840F25841C4F20201C4
:10468000884224D0FFE70F98006840F27041C4F2DE
:10469000020188421BD0FFE70F98006840F2884172
:1046A000C4F20201884212D0FFE70F98006840F27E
:1046B000A041C4F20201884209D0FFE70F980068C8
:1046C00040F2B841C4F20201884207D1FFE70F98D7
:1046D0000168086820F01400086006E00F9801687F
:1046E000086820F00A000860FFE70F99012081F8B0
:1046F0003500FFE70F99002081F83400FFE7FFE75E
:104700000F98C06B20B1FFE70F98C16B8847FFE798
:10471000FFE7C7E00D980F99C96D01F01F01C84070
:104720000007002840F1BC80FFE79DF8300000073B
:10473000002840F1B580FFE70F9800681021C4F20F
:104740000201884200F08180FFE70F98006828216D
:10475000C4F20201884278D0FFE70F980068402138
:10476000C4F20201884270D0FFE70F980068582118
:10477000C4F20201884268D0FFE70F9800687021F8
:10478000C4F20201884260D0FFE70F9800688821D8
:10479000C4F20201884258D0FFE70F980068A021B8
:1047A000C4F20201884250D0FFE70F980068B82198
:1047B000C4F20201884248D0FFE70F98006840F237
:1047C0001041C4F2020188423FD0FFE70F98006811
:1047D00040F22841C4F20201884236D0FFE70F9828
:1047E000006840F24041C4F2020188422DD0FFE748
:1047F0000F98006840F25841C4F20201884224D068
:10480000FFE70F98006840F27041C4F2020188424D
:104810001BD0FFE70F98006840F28841C4F2020104
:10482000884212D0FFE70F98006840F2A041C4F21E
:104830000201884209D0FFE70F98006840F2B841B2
:10484000C4F20201884207D1FFE70F9801680868A7
:1048500020F01C00086006E00F980168086820F04E
:104860000E000860FFE70F98C06D00F01F010120E7
:1048700000FA01F1089A51600F9948650F9981F883
:104880003500FFE70F99002081F83400FFE70F980B
:10489000C06C20B1FFE70F98C16C8847FFE700E0CC
:1048A000FFE7FFE7FFE700E0FFE7FFE710B080BDAD
:1048B00080B58EB00C9002F0A3FC0A900C9828B939
:1048C000FFE701208DF8370000F09FBC0C980168CD
:1048D00001201022C4F202029142079000F0A3804E
:1048E000FFE70C98016801202822C4F202029142DD
:1048F000079000F09880FFE70C98016801204022A3
:10490000C4F202029142079000F08D80FFE70C98FC
:10491000016801205822C4F202029142079000F07F
:104920008280FFE70C98016801207022C4F2020225
:104930009142079077D0FFE70C9801680120882208
:10494000C4F20202914207906DD0FFE70C98016813
:104950000120A022C4F202029142079063D0FFE737
:104960000C9801680120B822C4F20202914207901B
:1049700059D0FFE70C980168012040F21042C4F2C0
:104980000202914207904ED0FFE70C980168012087
:1049900040F22842C4F202029142079043D0FFE75E
:1049A0000C980168012040F24042C4F20202914298
:1049B000079038D0FFE70C980168012040F2584278
:1049C000C4F20202914207902DD0FFE70C980168D3
:1049D000012040F27042C4F202029142079022D0BC
:1049E000FFE70C980168012040F28842C4F20202FD
:1049F0009142079017D0FFE70C980168012040F220
:104A0000A042C4F20202914207900CD0FFE70C983A
:104A100000684FF64831CBF6FD710844B0FA80F0DB
:104A200040090790FFE70798C007002800F0788149
:104A3000FFE70C98406A08B1FFE7FFE70C990220F6
:104A400081F83500FFE70C99002081F83400FFE77A
:104A50000C9800681021C4F20201884200F08180A5
:104A6000FFE70C9800682821C4F20201884278D040
:104A7000FFE70C9800684021C4F20201884270D020
:104A8000FFE70C9800685821C4F20201884268D000
:104A9000FFE70C9800687021C4F20201884260D0E0
:104AA000FFE70C9800688821C4F20201884258D0C0
:104AB000FFE70C980068A021C4F20201884250D0A0
:104AC000FFE70C980068B821C4F20201884248D080
:104AD000FFE70C98006840F21041C4F202018842DE
:104AE0003FD0FFE70C98006840F22841C4F2020171
:104AF000884236D0FFE70C98006840F24041C4F28B
:104B0000020188422DD0FFE70C98006840F258411E
:104B1000C4F20201884224D0FFE70C98006840F2FA
:104B20007041C4F2020188421BD0FFE70C98006874
:104B300040F28841C4F20201884212D0FFE70C988B
:104B4000006840F2A041C4F20201884209D0FFE7A8
:104B50000C98006840F2B841C4F20201884207D1C3
:104B6000FFE70C980168086820F00100086006E083
:104B70000C980168086820F001000860FFE7FFE773
:104B80000C9800680068C00798B1FFE702F038FB96
:104B90000A99401A06280BD3FFE70C992020486594
:104BA0000C99032081F8350001208DF837002CE3A3
:104BB000E6E70C98006800680B900B9848F23F01FC
:104BC000CFF6106108400B900C998868D1F80CC0A2
:104BD0000B694A6940EA0C00184310438A69104384
:104BE000CA691043096A01430B9808430B900C985B
:104BF000406A042808D1FFE70C99C86A096B014391
:104C00000B9808430B90FFE70C984068292807D3BE
:104C1000FFE70C98416801202F29069036D3FFE763
:104C20000C9840683F2807D3FFE70C9841680120A3
:104C3000432906902AD3FFE70C984068472807D3FA
:104C4000FFE70C9841680120492906901ED3FFE731
:104C50000C9840684F2807D3FFE70C984168012063
:104C60005329069012D3FFE70C984168002074295D
:104C7000059008D3FFE70C9841680020782938BFD9
:104C800001200590FFE705980690FFE70698C0070A
:104C900028B1FFE70B9840F480100B90FFE70B98CA
:104CA0000C99096808600C98006840690B900B9893
:104CB00020F007000B900C98416A0B9808430B906A
:104CC0000C98406A04281AD1FFE70C98816A0B9867
:104CD00008430B900C98C06A80B1FFE70C98FCF772
:104CE000B7FE50B1FFE70C99402048650C990120B0
:104CF00081F835008DF8370087E2FFE7FFE70B9872
:104D00000C99096848610C98FCF766FC09900C98AE
:104D1000C06D00F01F013F2088400999886027E19D
:104D20000C980168012045F20842C5F60202914242
:104D300004904ED0FFE70C980168012045F21C4218
:104D4000C5F602029142049043D0FFE70C98016837
:104D5000012045F23042C5F602029142049038D05B
:104D6000FFE70C980168012045F24442C5F60202B3
:104D7000914204902DD0FFE70C980168012045F284
:104D80005842C5F602029142049022D0FFE70C98E7
:104D90000168012045F26C42C5F60202914204907E
:104DA00017D0FFE70C980168012045F28042C5F654
:104DB0000202914204900CD0FFE70C9800684AF67A
:104DC0006C31CAF2FD710844B0FA80F040090490D9
:104DD000FFE70498C007002800F0BE80FFE70C98AA
:104DE0000168012045F20842C5F602029142039093
:104DF0004ED0FFE70C980168012045F21C42C5F631
:104E000002029142039043D0FFE70C980168012011
:104E100045F23042C5F602029142039038D0FFE7D6
:104E20000C980168012045F24442C5F60202914205
:104E300003902DD0FFE70C980168012045F25842FD
:104E4000C5F602029142039022D0FFE70C98016858
:104E5000012045F26C42C5F602029142039017D040
:104E6000FFE70C980168012045F28042C5F6020276
:104E7000914203900CD0FFE70C9800684AF66C3121
:104E8000CAF2FD710844B0FA80F040090390FFE7D0
:104E90000398C00708B1FFE7FFE70C99022081F8EB
:104EA0003500FFE70C99002081F83400FFE70C98EB
:104EB000006800680B900B986FF310100B900C9823
:104EC0008068402803D1FFE71020029008E00C988A
:104ED00080688038B0FA80F0400980030290FFE7D4
:104EE00002980C99D1F80CE0D1F810C04B698A698E
:104EF00040EADE0040EADC0040EAD30040EAD200AB
:104F0000CA6940EAD200096A40EA11110B980843C5
:104F10000B900B980C99096808600C9908684AF680
:104F2000F832CAF2FD7210444CF6CD42CCF6CC42B7
:104F3000A0FB02026FF0030000EA9200C8650C9823
:104F4000FCF74AFB08900C98C06D00F01F0101208F
:104F50008840089948600AE00C99402048650C99FF
:104F6000032081F8350001208DF837004DE1FFE77F
:104F70000C98016801201022C4F2020291420190B3
:104F800000F00381FFE70C98016801202822C4F299
:104F900002029142019000F0F880FFE70C9801684E
:104FA00001204022C4F202029142019000F0ED8003
:104FB000FFE70C98016801205822C4F202029142D6
:104FC000019000F0E280FFE70C9801680120702258
:104FD000C4F202029142019000F0D780FFE70C98E2
:104FE000016801208822C4F202029142019000F07F
:104FF000CC80FFE70C9801680120A022C4F20202D5
:105000009142019000F0C180FFE70C9801680120F7
:10501000B822C4F202029142019000F0B680FFE78C
:105020000C980168012040F21042C4F20202914241
:10503000019000F0AA80FFE70C980168012040F27F
:105040002842C4F202029142019000F09E80FFE7E4
:105050000C980168012040F24042C4F202029142E1
:10506000019000F09280FFE70C980168012040F267
:105070005842C4F202029142019000F08680FFE79C
:105080000C980168012040F27042C4F20202914281
:1050900001907AD0FFE70C980168012040F2884225
:1050A000C4F20202914201906FD0FFE70C980168B0
:1050B000012040F2A042C4F202029142019064D069
:1050C000FFE70C980168012040F2B842C4F20202E6
:1050D0009142019059D0FFE70C980168012045F2F8
:1050E0000842C5F60202914201904ED0FFE70C98AB
:1050F0000168012045F21C42C5F60202914201906E
:1051000043D0FFE70C980168012045F23042C5F614
:1051100002029142019038D0FFE70C98016801200B
:1051200045F24442C5F60202914201902DD0FFE7BC
:105130000C980168012045F25842C5F602029142DE
:10514000019022D0FFE70C980168012045F26C42E3
:10515000C5F602029142019017D0FFE70C98016852
:10516000012045F28042C5F60202914201900CD026
:10517000FFE70C9800684AF66C31CAF2FD710844EA
:10518000B0FA80F040090190FFE70198C00790B3A2
:10519000FFE70C98FCF708FB0C988068802804D186
:1051A000FFE70C9900204860FFE70C990879096E29
:1051B00008600C98416E806E48600C98406888B119
:1051C000FFE70C98406808280CD8FFE70C98FCF71C
:1051D000A7FB0C98C16E002008600C98016F406F0F
:1051E000486007E00C990020C8660C9908670C9984
:1051F0004867FFE7FFE70C99002048650C9A0121FA
:1052000082F835108DF83700FFE79DF837000EB0B3
:1052100080BD00000000000080B588B006900591B8
:105220000492039300208DF80B00069820B9FFE745
:1052300001208DF81F006CE3FFE7069890F834001A
:10524000012804D1FFE702208DF81F0061E30699D1
:10525000012081F83400FFE7FFE7069890F8350059
:10526000012840F04383FFE70699022081F83500CA
:10527000069900204865069800681021C4F20201D2
:10528000884200F08180FFE7069800682821C4F278
:105290000201884278D0FFE7069800684021C4F2F6
:1052A0000201884270D0FFE7069800685821C4F2D6
:1052B0000201884268D0FFE7069800687021C4F2B6
:1052C0000201884260D0FFE7069800688821C4F296
:1052D0000201884258D0FFE706980068A021C4F276
:1052E0000201884250D0FFE706980068B821C4F256
:1052F0000201884248D0FFE70698006840F210415A
:10530000C4F2020188423FD0FFE70698006840F2ED
:105310002841C4F20201884236D0FFE706980068AF
:1053200040F24041C4F2020188422DD0FFE70698C6
:10533000006840F25841C4F20201884224D0FFE7DD
:105340000698006840F27041C4F2020188421BD006
:10535000FFE70698006840F28841C4F202018842E3
:1053600012D0FFE70698006840F2A041C4F20201A3
:10537000884209D0FFE70698006840F2B841C4F2BD
:105380000201884207D1FFE706980168086820F00B
:105390000100086006E006980168086820F0010036
:1053A0000860FFE706980599049A039BFCF7C8FB81
:1053B0000698016801201022C4F202029142019075
:1053C00000F0A380FFE70698016801202822C4F2BC
:1053D00002029142019000F09880FFE70698016870
:1053E00001204022C4F202029142019000F08D801F
:1053F000FFE70698016801205822C4F20202914298
:10540000019000F08280FFE7069801680120702279
:10541000C4F202029142019077D0FFE7069801683A
:1054200001208822C4F20202914201906DD0FFE770
:10543000069801680120A022C4F202029142019064
:1054400063D0FFE7069801680120B822C4F2020287
:105450009142019059D0FFE706980168012040F27F
:105460001042C4F20202914201904ED0FFE706982A
:105470000168012040F22842C4F2020291420190E8
:1054800043D0FFE706980168012040F24042C4F291
:1054900002029142019038D0FFE70698016801208E
:1054A00040F25842C4F20202914201902DD0FFE72F
:1054B00006980168012040F27042C4F20202914253
:1054C000019022D0FFE706980168012040F288424F
:1054D000C4F202029142019017D0FFE706980168DA
:1054E000012040F2A042C4F20202914201900CD08D
:1054F000FFE7069800684FF64831CBF6FD71084487
:10550000B0FA80F040090190FFE70198C007A8B108
:10551000FFE70698006800680B2161F344000699D4
:10552000096808600698006C38B1FFE706980168C2
:10553000086840F008000860FFE714E0069800687B
:105540000068052161F34300069909680860069820
:10555000006C38B1FFE706980168086840F0040065
:105560000860FFE7FFE70698016801201022C4F2F7
:1055700002029142009000F00381FFE70698016863
:1055800001202822C4F202029142009000F0F8802B
:10559000FFE70698016801204022C4F2020291420E
:1055A000009000F0ED80FFE7069801680120582286
:1055B000C4F202029142009000F0E280FFE70698F8
:1055C000016801207022C4F202029142009000F0B2
:1055D000D780FFE70698016801208822C4F2020202
:1055E0009142009000F0CC80FFE70698016801200E
:1055F000A022C4F202029142009000F0C180FFE7B5
:10560000069801680120B822C4F20202914200907B
:1056100000F0B680FFE706980168012040F21042D2
:10562000C4F202029142009000F0AA80FFE70698BF
:105630000168012040F22842C4F202029142009027
:1056400000F09E80FFE706980168012040F240428A
:10565000C4F202029142009000F09280FFE70698A7
:105660000168012040F25842C4F2020291420090C7
:1056700000F08680FFE706980168012040F2704242
:10568000C4F20202914200907AD0FFE706980168C6
:10569000012040F28842C4F20202914200906FD091
:1056A000FFE706980168012040F2A042C4F202021E
:1056B0009142009064D0FFE706980168012040F213
:1056C000B842C4F202029142009059D0FFE7069816
:1056D0000168012045F20842C5F60202914200909D
:1056E0004ED0FFE706980168012045F21C42C5F63E
:1056F00002029142009043D0FFE706980168012022
:1057000045F23042C5F602029142009038D0FFE7E0
:1057100006980168012045F24442C5F60202914212
:1057200000902DD0FFE706980168012045F258420D
:10573000C5F602029142009022D0FFE70698016868
:10574000012045F26C42C5F602029142009017D04A
:10575000FFE706980168012045F28042C5F6020283
:10576000914200900CD0FFE7069800684AF66C3131
:10577000CAF2FD710844B0FA80F040090090FFE7DA
:105780000098C007D0B1FFE70698006E0068C0031C
:10579000002807D5FFE70698016E086840F480707E
:1057A0000860FFE70698C06E38B1FFE70698C16E43
:1057B000086840F480700860FFE7FFE7069800681B
:1057C0001021C4F20201884200F08180FFE70698B0
:1057D00000682821C4F20201884278D0FFE70698C9
:1057E00000684021C4F20201884270D0FFE70698A9
:1057F00000685821C4F20201884268D0FFE7069889
:1058000000687021C4F20201884260D0FFE7069868
:1058100000688821C4F20201884258D0FFE7069848
:105820000068A021C4F20201884250D0FFE7069828
:105830000068B821C4F20201884248D0FFE7069808
:10584000006840F21041C4F2020188423FD0FFE7F5
:105850000698006840F22841C4F20201884236D01E
:10586000FFE70698006840F24041C4F20201884216
:105870002DD0FFE70698006840F25841C4F20201BB
:10588000884224D0FFE70698006840F27041C4F2D5
:10589000020188421BD0FFE70698006840F2884169
:1058A000C4F20201884212D0FFE70698006840F275
:1058B000A041C4F20201884209D0FFE706980068BF
:1058C00040F2B841C4F20201884207D1FFE70698CE
:1058D0000168086840F00100086006E00698016869
:1058E000086840F001000860FFE70DE006994FF4FA
:1058F00000604865FFE70699002081F83400FFE763
:1059000001208DF80B00FFE79DF80B008DF81F00BC
:10591000FFE79DF81F0008B080BD000000000000F8
:1059200080B584B0039001F06BFC02900398019065
:105930000198013048B1FFE740F21500C2F2004083
:105940000178019808440190FFE7FFE701F058FC57
:105950000299401A0199884201D2FFE7F6E704B0A4
:1059600080BD00000000000085B00390029101920C
:10597000039890F898008DF803009DF80300012823
:1059800005D0FFE79DF8030002285DD1FFE70298EC
:1059900003990968896D084207D1FFE703980168F8
:1059A000C86D40F00100C86515E0029803990968C8
:1059B000896D08400299884207D1FFE70398016882
:1059C000C86D40F00200C86504E003980168032038
:1059D000C865FFE7FFE79DF809008007002809D5A3
:1059E000FFE7019A03980168D1F8E0001043C1F87D
:1059F000E000FFE79DF809004007002809D5FFE710
:105A0000019A03980168D1F8E4001043C1F8E4005A
:105A1000FFE7FFE702984FF6FF71C3F6CF7100EA88
:105A2000010203980168486D10434865029A4AF6DE
:105A30001401C4F20001086840EA92700860FFE7B0
:105A400000208DF813000AE00399D1F89C0040F083
:105A50000200C1F89C0001208DF81300FFE79DF8BB
:105A6000130005B07047000080B586B00490039124
:105A700002920398406808B9FFE700E0FFE7049846
:105A800090F89800022845D1FFE704980068D0F804
:105A9000C00010F07C5F0BD1FFE70499D1F89C00A7
:105AA00040F02000C1F89C0001208DF817003CE078
:105AB00004980068D0F8C400800200280BD5FFE7E6
:105AC0000499D1F89C0040F40070C1F89C000120BA
:105AD0008DF8170029E004980068D0F8C400C0F3DE
