:020000040800F2
:1000000078240120A10100089D8D0008E169000805
:10001000018B000821160008BDC90008000000007F
:10002000000000000000000000000000B19B00087C
:10003000E528000800000000D195000849A3000849
:10004000BB010008BB010008BB010008BB010008A0
:10005000BB010008BB010008BB010008BB01000890
:10006000BB0100084529000851290008BB01000810
:1000700075250008BB010008BB010008BB01000892
:10008000BB010008BB010008BB010008BB01000860
:1000900025160008BB010008BB0100085D29000807
:1000A000BB010008BB010008BB010008BB01000840
:1000B0001DA400082DA40008BB010008BB01000816
:1000C000BB010008BB010008BB010008BB01000820
:1000D000BB010008DDAC0008BB010008EDAC000866
:1000E000BB010008BB010008BB010008BB01000800
:1000F000BB010008BB010008BB010008BB010008F0
:10010000BB010008BB010008BB010008BB010008DF
:10011000BB010008BB010008BB010008BB010008CF
:10012000BB01000885250008BB010008BB010008D1
:10013000BB010008BB010008BB010008BB010008AF
:10014000BB01000835160008BB010008F18F00084C
:1001500095250008BB010008A5250008ADAD0008E5
:10016000BB010008BB010008BB010008BB0100087F
:10017000BB010008BB010008BB0100080000000033
:10018000BD680008BB010008DFF810D001F094F84A
:1001900000F0CCFD0048004735D900087824012044
:1001A0000648804706480047FEE7FEE7FEE7FEE711
:1001B000FEE7FEE7FEE7FEE7FEE7FEE709A400082C
:1001C000890100089FED1A1AF5EE000A40EE010AB7
:1001D000BDEEE00AF5EEC00A10EE100AF1EE10FADC
:1001E00038BF401E00EE100A1349F7EE001AB8EEB1
:1001F000C00A30EEC00ADFED0F0A20EE200AFCEE46
:10020000C00A10EE900AC0F3080000EE900A01EB5D
:100210008000F8EE600A90ED011A70EE600A90ED31
:10022000000A71EEE01A21EE800A00EE810A7047A2
:1002300083F9223E00000044AC010108B5EEC00A7B
:10024000F1EE10FA07D2DFED1E0AB4EEE00AF1EE8D
:1002500010FAA8BF7047DFED1B0AB5EEC00A60EECA
:10026000200ABDEEE01A11EE100AF1EE10FA38BFC6
:10027000401E00EE100A1549F7EE001AB8EEC00A4B
:1002800030EEC00ADFED100A60EE200ABCEEE00A94
:1002900010EE100AC0F3080000EE100A01EB800017
:1002A000B8EE400A90ED011A70EEC00A90ED000A17
:1002B00071EEE01A21EE800A00EE810A704700001C
:1002C000CD024CB483F9223E00000044AC01010889
:1002D00070B405880E884468D1F804C05368B542EC
:1002E00008D140884988884201BF11888D425188D1
:1002F000884203D070BC6FF00200704705FB00F12C
:10030000880827D094ED001ADCED000A94ED010A6C
:10031000DCED011A31EE201AD4ED020A70EE211A3A
:100320009CED020A83ED001AC3ED011A94ED031A45
:10033000DCED031A30EE800A401E71EE210A83EDD7
:10034000020A04F11004C3ED030A03F110030CF1D7
:10035000100CD7D111F0030030D0B0F1004F30D2E3
:1003600000282BDD211F1B1FACF1040210F0010F30
:100370000AD091ED010AD2ED010A091D121D30EEDD
:10038000200A83ED010A1B1D400817D091ED010AD8
:10039000D2ED010A401E30EE200A83ED010A91EDF4
:1003A000020AD2ED020A01F1080102F1080230EE60
:1003B000200A83ED020A03F10803E7D170BC002094
:1003C0007047B4EC010A401EFCEC010A30EE200A32
:1003D000A3EC010AF5D1F1E7018042804360704748
:1003E0002DE9F34F84B0049840680090486801906C
:1003F0000498B0F800E04588DFEDFE0A0020029086
:10040000B0EE600AAE4506D108884988884204BF2C
:100410007146864504D06FF0020006B0BDE8F08F4B
:1004200001985FEA010C18BFB7EE001A3DD000BF7B
:10043000BEEB0C0117D0B1F1004F80F01F820029F4
:1004400011DD021F11F0010F1CBFC2ED010A121DC8
:100450004B1006D0C2ED010AC2ED020A08325B1E43
:10046000F8D100EB8100BCF10102A0EC011A19D017
:10047000B2F1004F80F00882002A13DD031F12F052
:10048000010F1CBFC3ED010A1B1D511008D000BF96
:10049000C3ED010AC3ED020A491E03F10803F7D1B7
:1004A00000EB8200BCF1010CC2D14FF000080395B3
:1004B000002D14BFB0EE602A002000F0BF8100BF05
:1004C000009908FB05F001EB800B0199DBED002A98
:1004D00001EB80000346F0EE421AC64552D9AEEB5E
:1004E0000802ABEB850112F0010F17D001EB85017B
:1004F00091ED000AB5EEC00AF1EE10FA07DDB4EE98
:10050000E10AF1EE10FA09DDF0EE401A06E0B1EE74
:10051000400AF4EEC01AF1EE10FAF5D3521031D0C1
:1005200001EB850C9CED000AB5EEC00AF1EE10FA65
:1005300005DDB4EEE10AF1EE10FA09DD06E0B1EEF8
:10054000400AF4EEC01AF1EE10FA01D2F0EE401AB1
:1005500001EBC50191ED000AB5EEC00AF1EE10FA0B
:1005600005DDB4EEE10AF1EE10FA09DD06E0B1EEC8
:10057000400AF4EEC01AF1EE10FA01D2F0EE401A81
:10058000521ECDD1F5EEC01AF1EE10FA00F07381D3
:10059000F5EEC02A0126F1EE10FA0099D4BFB1EEB3
:1005A000620AB0EE620AB4EE610AF1EE10FA1CBF04
:1005B000AEEB0802B2F1010C47D005FB08F201EBEB
:1005C000820292ED001A00BFB0EE410A05FB06F46C
:1005D000B5EEC00A00EB8404F1EE10FACCBFF0EEE9
:1005E000400AF1EE400AF4EE610AF1EE10FA28D169
:1005F000B5EB080C11D0BCF1004F7DD2BCF1000F5F
:100600000BDD00BF92ED000AD1ED000ABCF1010C38
:10061000E2EC010AA1EC010AF4D129000ED0B1F1FB
:10062000004F6AD2002909DD94ED000AD0ED000ADE
:10063000491EE4EC010AA0EC010AF5D10120029068
:100640000BE0761CBCF1010CBED10298012804D04D
:10065000F5EEC02AF1EE10FA7ED09BED000AB5EB64
:1006600008009A465946064622D0B0F1004F74D28F
:1006700000281DDD091F10F0010F06D0F0EE400A22
:1006800080EEA01A81ED011A091D401010D000BFA4
:10069000D1ED010A401E80EE801A81ED011A91ED24
:1006A000021AC1EE000AC1ED020A01F10801EFD100
:1006B000280026D0B0F1004F7ED2002821DDAAF11B
:1006C000040110F0010F06D0D1ED010A80EE801A6E
:1006D00081ED011A091D401013D000BFD1ED010AB0
:1006E000401E80EE801A81ED011AD1ED020A80EEE3
:1006F000801A81ED021A01E0CBE0D6E001F1080199
:10070000ECD1DDE900124FF000095FEA0E0773D06B
:10071000C14504BF01EB860102EB850274D091ED67
:10072000000ADC465046331E35D01C46B6F1004F59
:100730007ED2002C2FDD0B1FABF1040C16F0010F45
:100740000FD0F0EE400ADCED011AB0EE601A00EEB8
:10075000E11A83ED011A01E08DE0B1E01B1D0CF1FF
:10076000040C741015D000BFD3ED010A9CED011AE2
:1007700040EE410AC3ED010AD3ED020A9CED021AD4
:100780000CF1080C40EE410AC3ED020A0833641E66
:10079000EAD101EB86012B0036D0B3F1004F72D2C3
:1007A000002B31DDA2F1040CAAF1040013F0010FBB
:1007B0000CD0DCED010A00E08BE090ED011A001D89
:1007C00040EE410ACCED010A0CF1040C5C1019D08A
:1007D000DCED010A90ED011A40EE410ACCED010A70
:1007E000DCED020A90ED021A083040EE410ACCED31
:1007F000020A03E0000000000DE005E0641E0CF1B9
:10080000080CE5D102EB830201EB88017F1E09F1A0
:1008100001097FF47DAF009808F10108001D0090E8
:100820000398401E03907FF44BAE0299012900E02B
:1008300058E004BF06B0BDE8F08F00BFB5EEC00AB7
:10084000F1EE10FA7FF4E9AD04990EFB05F3002BED
:100850004A684FF000010BD902EB810C9CED000AB5
:10086000B5EEC00AF1EE10FA02D1491C8B42F3D862
:100870008B427FF4D2AD6FF00400CEE5E0EC010ACC
:10088000491EFBD1EFE538E0E0EC010A521EFBD136
:1008900008E692ED000AD1ED000ABCF1010CE2EC91
:1008A000010AA1EC010AF4D1B7E694ED000AD0EDFB
:1008B000000A491EE4EC010AA0EC010AF5D1BDE6EC
:1008C000D1ED000A401E80EE801AA1EC011AF7D18A
:1008D000EEE6D3ED000A401E80EE801AA3EC011A6A
:1008E000F7D10EE7BCEC011AD1ED000A5B1E40EE19
:1008F000410AE1EC010AF5D14DE7B0EC011AD2ED65
:10090000000A5B1E40EE410AE2EC010AF5D17BE7EA
:100910002DE9F04F82B046685368019305884788F7
:100920004B88002000900888874201BFB2F800C0C1
:100930006545528893421EBF6FF0020002B0BDE8C9
:10094000F08F9FED412A4FEA970EC7F3400B00BF8F
:10095000DDE9000202EB800A4A6898464FF0000980
:10096000B0EE420AB4465FEA0E0025D092ED001ABE
:10097000DCED001A02EB8302DCED010A01EE810AD4
:1009800092ED001A02EB8302401ED2ED001A02EB38
:10099000830200EE810A9CED021ADCED030A0004DA
:1009A0000CF1100C000C01EE210A92ED001A02EB82
:1009B000830200EE810AD9D117F0030026D0ACF1F2
:1009C0000404A2EB830210F0010F08D002EB8302B3
:1009D000D4ED010A92ED001A241D00EE810A5FEAAF
:1009E0000B0013D002EB830CD4ED010A9CED001A2E
:1009F00002EBC302401E00EE810AD4ED020A92ED22
:100A0000001A04F1080400EE810AEBD109F101009B
:100A1000AAEC010A1FFA80F9486800EB8902A8F1E4
:100A200001001FFA80F8B8F1000F99D1009806EB89
:100A30008706184480B20090681E05042D0C87D1EB
:100A400002B00020BDE8F08F0000000070B40588FF
:100A50000E884468D1F804C05368B54208D1408874
:100A60004988884201BF11888D425188884203D04D
:100A700070BC6FF00200704705FB00F1880827D0BA
:100A800094ED001ADCED000A94ED010ADCED011A88
:100A900031EE601AD4ED020A70EE611A9CED020A82
:100AA00083ED001AC3ED011A94ED031ADCED031A6D
:100AB00030EEC00A401E71EE610A83ED020A04F1B5
:100AC0001004C3ED030A03F110030CF1100CD7D18D
:100AD00011F0030030D0B0F1004F30D200282BDDF0
:100AE000211F1B1FACF1040210F0010F0AD091ED81
:100AF000010AD2ED010A091D121D30EE600A83EDD4
:100B0000010A1B1D400817D091ED010AD2ED010A20
:100B1000401E30EE600A83ED010A91ED020AD2ED2B
:100B2000020A01F1080102F1080230EE600A83EDC9
:100B3000020A03F10803E7D170BC00207047B4EC4F
:100B4000010A401EFCEC010A30EE600AA3EC010A27
:100B5000F5D1F1E72DE9F04F02884768B0F802803F
:100B60004888D1F8049082B04FF0000A16468242BD
:100B700007BF098888456FF0020002B018BFBDE8C2
:100B8000F08F4FEA980B02EB42000190C8F340004F
:100B9000CDF8000009EB8A01BBF1000F33D00198BA
:100BA00001EB820C01EB80043B46E64601EBC205FB
:100BB0004FEA0B0093ED000A401E81ED000A93ED11
:100BC000010A01EB02118CED000A93ED020A0CEB15
:100BD000021C85ED000A93ED030A05EB021584ED76
:100BE000000A04EB021403F11003E3D10EEB8200C0
:100BF00000EB820000EB8201ABF10100504307EBF8
:100C00000B1701EB001118F0030C21D03B1FA1EBD7
:100C100082011CF0010F06D093ED010A01EB820165
:100C20001B1D81ED000A009880B100BF93ED010A01
:100C300001EB820401EBC20184ED000A93ED020A8C
:100C4000401E81ED000A03F10803EFD107EB8C078A
:100C50000AF101001FFA80FA701E0604360C99D1C1
:100C600002B00020BDE8F08F2DE9F05F05460020BE
:100C700092469B4688460646814640241BE028460D
:100C800041464746224600F061FA53465A46C01A8A
:100C9000914110D311461846224600F048FA2D1A09
:100CA00067EB01084F4622460120002100F03FFA81
:100CB00017EB00094E41201EA4F10104DFDC484679
:100CC00031462A464346BDE8F09F40EA01039B07B0
:100CD00003D009E008C9121F08C0042AFAD203E0B1
:100CE00011F8013B00F8013B521EF9D27047D2B215
:100CF00001E000F8012B491EFBD270470022F6E705
:100D000010B513460A4604461946FFF7F0FF204681
:100D100010BD30B504460020034600E05B1C934242
:100D200003D2E05CCD5C401BF8D030BD70B5054C03
:100D3000054D04E02046016808448047241DAC426C
:100D4000F8D170BD080E01080C0E01082DE9FE4F08
:100D5000804681EA0300C00F0C46009021F000415C
:100D600023F00045B8EB0200A94105D240462146D8
:100D700090461C460B46024623F00040104347D0E5
:100D8000270DC7F30A00C3F30A510290401A0190DD
:100D900040286BDAC3F3130040F4801B009892469E
:100DA00020B10023D2EB030A63EB0B0B01985946E9
:100DB000C0F14002504600F0BAF906460D465046D2
:100DC0005946019A00F0D2F910EB08006141002465
:100DD00087EA115284EAE7731A4340D0009A62B35B
:100DE000019A012A4FEA075215DC001B61EB020150
:100DF0004FF0004202EA0752CDE90042001C41F5E3
:100E0000801132462B4600F009FA03B0BDE8F08F9E
:100E100040462146F9E7001B61EB0201001C41F549
:100E2000801300185B412018A2F5001747EB03015F
:100E300040EAD570B6196D4111E06D084FEA3606EB
:100E400045EAC0754FEA0752001B61EB0201001C26
:100E500041F5801149084FEA3000001951413246EE
:100E60002B4603B0BDE8F04F00F0C9B9009801224D
:100E700040000023D0EB020263EBE07300982146B0
:100E80004FEAE074B8EB000061EB0401E9E783F09E
:100E900000435BE781F0004158E72DE9FE4F81EA0E
:100EA000030404F0004421F0004100944FF0000BD3
:100EB00023F0004350EA01045ED052EA03045BD001
:100EC000C3F30A54C1F30A552C44A4F2F334019439
:100ED000A0FB0254C1F3130141F48011C3F31303C7
:100EE00043F4801301FB024400FB034E840A970A7B
:100EF00044EA815447EA8357A4FB076802958D0AA8
:100F000005FB07854FEA932C04FB0C542705029D33
:100F10004FEA065847EA1637B5EB08056EEB070CA3
:100F2000870E920E47EA811742EA8312A7FB02015D
:100F3000B6EB0B0164EB00042B0D43EA0C335E1897
:100F400044EB1C50DA465146E7FB0201C5F313049B
:100F50004FEA0B3343EA14534FEA0432019C43EA4D
:100F60000603A4F10C040294009CCDE900B400F047
:100F700055F903B0BDE8F08F00200146F9E72DE9EF
:100F8000F04D81EA030404F0004B21F000451446C3
:100F90004FF0000A23F0004150EA050220D054EA45
:100FA00001021DD0C5F30A570246C5F31303C1F36E
:100FB0001300C1F30A5640F4801543F48013A7EBE5
:100FC0000608101BD64608F2FD3873EB050002D365
:100FD00008F1010801E092185B41B8F1000F03DA53
:100FE00000200146BDE8F08D00204FF48011064638
:100FF00084460EE0171B73EB050705D3121B63EB4A
:10100000050306434CEA010C49084FEA30009218E8
:101010005B4150EA0107EDD152EA030012D082EAA7
:10102000040083EA0501084305D0101BAB4106D23A
:101030000122002306E000224FF0004302E06FF09F
:10104000010253101AEB06004CEB085110EB0A009A
:1010500041EB0B01BDE8F04D00F0D1B830B40446CF
:1010600096230800214604D0B62330BC002200F0AD
:1010700098B820460021F8E70EB540F233410291BE
:101080000021CDE900110A460B4600F0C7F803B075
:1010900000BD70B5C1F30A5201F000450024C1F350
:1010A000130140F2FF3341F480119A4201DA00202B
:1010B00070BD40F233439A42A2F2334203DC524203
:1010C00000F044F800E090402C43F1D0404270BD65
:1010D00000F0004230F000400AD0C10D01F560710F
:1010E000C0F3160042EA0151C2084007114370479D
:1010F00000200146704701F0004330B421F0004168
:1011000050EA010206D00A0DA2F56072C1F3130184
:10111000002A02DC30BC00207047440F44EAC104BE
:10112000C100E01830BC00EBC25000F031B8202AFA
:1011300004DB203A00FA02F1002070479140C2F12E
:10114000200320FA03F3194390407047202A04DB60
:10115000203A21FA02F00021704721FA02F3D04030
:10116000C2F120029140084319467047202A06DB4D
:10117000CB17203A41FA02F043EAE07306E041FA65
:1011800002F3D040C2F12002914008431946704753
:101190000029A8BF7047401C490008BF20F001008B
:1011A000704710B4B0FA80FC00FA0CF050EA010469
:1011B00004BF10BC704749B1CCF1200421FA04F4FB
:1011C00011FA0CF118BF012121430843A3EB0C01D4
:1011D000CB1D4FEA00614FEA102042BF002010BC37
:1011E000704700EBC35010440029A4BF10BC7047E7
:1011F000401C490008BF20F0010010BC704710B52A
:10120000141E73F1000408DA401C41F10001921829
:101210005B411A4301D120F0010010BD2DE9F04DD2
:1012200092469B4611B1B1FA81F202E0B0FA80F227
:1012300020329046FFF77BFF04460F4640EA0A0043
:1012400041EA0B0153465A46084313D0114653EA6C
:10125000010019D0C8F140025046FFF777FF05465C
:101260000E46504659464246FFF761FF084305D0F7
:10127000012004E020463946BDE8F08D00200543FA
:1012800046EAE0762C4337430A986305E40AA0EB6C
:1012900008000022FD0A44EA47540A3002D5002023
:1012A0000146E9E7010510196941DDE90845001922
:1012B0006941BDE8F04DA2E7064C074D06E0E06845
:1012C00040F0010394E8070098471034AC42F6D38D
:1012D000FEF75EFFE80D0108080E010870B58C18D6
:1012E00010F8015B15F0070301D110F8013B2A113A
:1012F00006D110F8012B03E010F8016B01F8016B27
:101300005B1EF9D12B0705D40023521E0DD401F822
:10131000013BFAE710F8013BCB1A921C03E013F8EB
:10132000015B01F8015B521EF9D5A142D8D3002020
:1013300070BD000070B50C4640F24C6142F6A81535
:10134000C2F20001C2F20005002608602E700BF008
:1013500011FF2978084328700BF0C2FF297840EA72
:10136000010028701CB100F0C3F9287870BD40F26C
:10137000046043F6AC0142F27123C2F20000C3F6EE
:101380002231C3F6807341F2B06247F2B07E49F673
:101390002A044CF6923CC0E908310021C3F6CE1273
:1013A000C3F64C6EC3F69354C4F21C1CC4F2202145
:1013B000C0E90A22C0E90CE4C0E90E6C816128781A
:1013C00070BD000080B50020C4F20200102101228F
:1013D00002F04AFF80BD000080B50020C4F2020088
:1013E0001021002202F040FF80BD000080B540F2D5
:1013F0000040C4F202000121012202F035FF80BD4D
:1014000080B540F20040C4F202000121002202F047
:101410002BFF80BD70B50446FFF7DEFF922000F081
:10142000DDF840F24465C2F200051220294606228A
:1014300000F0B0F8FFF7C6FFB5F9000094ED082AF8
:1014400000EE100A40F20C00C2F2000090ED001A0B
:10145000B8EEC00A21EE000A22EE000A84ED000A6E
:10146000B5F9021090ED001A00EE101AB8EEC00A9D
:1014700021EE000A22EE000A84ED010AB5F904000B
:1014800000EE100AB8EEC00A21EE000A22EE000AB1
:1014900084ED020AFFF7B4FF002029460822002647
:1014A00000F078F8FFF7A2FF28780F284AD1B5F9A5
:1014B000021040F2EA5000EE101A40F21001C2F29F
:1014C0000000C2F200010078B8EEC01A91ED000AE7
:1014D00020EE011A00B394ED092AB5F90400B5F91C
:1014E000061031EE421A02EE100A94ED0A3AB8EEF6
:1014F000C22A84ED031A01EE101A94ED0B4A20EE75
:10150000022AB8EEC11A32EE432A20EE010A84ED17
:10151000042A30EE440A13E0B5F90400B5F90610C8
:1015200002EE100A84ED031A01EE101AB8EEC22A78
:10153000B8EEC11A20EE022A20EE010A84ED042A38
:1015400084ED050AFFF748FFA22000F047F82220AB
:101550002946022200F01EF8FFF734FF2878697848
:10156000C00040EA51104FF60001CFF6FF71B6EB14
:10157000902F18BF084300EE100AB8EEC00AB4EE70
:10158000001A20EE010AB3EE071A30EE010A84EDCC
:10159000070A70BDB0B540F0800014460D4600F05B
:1015A0001DF8002C08BFB0BD013D00BF552000F064
:1015B00015F8013C210605F8010FF7D1B0BD000078
:1015C00080B540F0800000F009F8552000F006F8E2
:1015D00043F62041C2F20001087080BD80B582B0A0
:1015E00040F24C61C2F200010B688DF807004FF425
:1015F0007A7C0DF107010DF1060218460123CDF8A2
:1016000000C004F0C5F89DF8060002B080BD0000DF
:1016100010B50C46FFF7E2FF2046FFF7DFFF10BDD5
:10162000FEE7000080B542F69840C2F2000002F0EA
:101630003FF880BD80B542F6C040C2F2000002F023
:1016400037F880BD80B588B0029100210823CDE92C
:101650000311059106938DF81C10019102A901ABAD
:1016600001F0D8FE08B080BD002070470020704710
:1016700010B542F6BC14C2F2000442F20001C2F2FC
:1016800000012046002209F063FD41F60001C2F28C
:101690000001204609F04EFD002010BD10B542F6B5
:1016A000BC14C2F200040146204609F043FD204666
:1016B00009F01AFD002010BD0020704710B542F659
:1016C000BC12C2F20002D2F8BC22D2F81432002BB3
:1016D0001CBF012010BD42F6BC14C2F200040A4631
:1016E0000146204609F034FD204609F0CFFD10BD2B
:1016F0002DE9F04F81B02DED108B88B00020CDE9A1
:10170000060001F039F840F2B864C2F2000484ED3A
:10171000000A01F031F894ED001AB2EE08BA30EE8A
:10172000410AB4EE4B0A40F20466F1EE10FAC2F23E
:10173000000621DD43F6AC0041F2B061C3F6223071
:10174000C3F6CE11C6E909014CF69230C4F21C1062
:10175000F0630020C4F22020F162B06196ED0F0A20
:101760009FEDAB1A81EE000A86ED080A08B0BDECC9
:10177000108B01B0BDE8F08F9FEDEDCA03AD6F4651
:101780009FEDEC8A42F6B0189FEDEDEADFEDED9AA1
:10179000DFEDE9AADFEDECBA9FEDE89AA5F1040AC6
:1017A000A7F1040B06ACC2F20008B6EE00DAB4EE04
:1017B00000FAF3EE078AF0EE4CCA0EE000F0DCFF10
:1017C00040F2B860C2F2000090ED001A30EE410A1B
:1017D000B4EE4B0AF1EE10FAACDCB0EE480A00F0C1
:1017E00089FF4FF00009C6F83C90C6E90999C6F890
:1017F0002C9000BFFFF7F0FD9220FFF7EFFE1220C4
:1018000021460622FFF7C6FEFFF7DCFDBDF91800F2
:10181000BDF91A1000EE100A40F20C00C2F20000EE
:1018200090ED001AB8EEC00ABDF91C2021EE002A86
:1018300000EE101AB8EEC00A21EE003A00EE102AAF
:10184000B8EEC00A21EE001A22EE020A23EE034A85
:1018500030EE040A21EE014A30EE040AB1EEC0AACD
:1018600086ED002A86ED013A86ED021AB4EE4AAA08
:10187000F1EE10FA80F1C78096ED0F0A3AEE000AF9
:1018800086ED0F0AFFF7BCFD002021460822FFF776
:1018900081FEFFF7ABFD9DF818000F2835D1BDF98B
:1018A0001A00BDF91C1000EE100A40F21000C2F23E
:1018B000000090ED001AB8EEC00A96ED092A21EE5C
:1018C000000A86ED030A32EE000A02EE101ABDF994
:1018D0001E2096ED0A3AB8EEC22A21EE022A86EDC3
:1018E000042A33EE022A03EE102A96ED0B4AB8EED4
:1018F000C33A21EE031A86ED051A34EE011A86ED7D
:10190000090A86ED0A2A86ED0B1AB9F1000F2BD0D1
:10191000002000BF311891ED030A291891ED001A3B
:10192000B4EE410AF1EE10FAC8BF81ED000A391891
:1019300091ED001A0430B4EE410AF1EE10FAB8BF8E
:1019400081ED000A0C28E5D1B4EE6CAAF1EE10FA94
:10195000B4EE4CAAC8BFF0EE4ACAF1EE10FAB8BF16
:10196000B0EE4ACA0DE000BF7169D6E90302F0EE9D
:101970004ACACDE90421CDE90002CDE90210B0EE5A
:101980004ACA42F6AC103CEECC0AC2F2000080ED2E
:10199000000A6FF003005946524600BF92ED011A4B
:1019A00091ED012A08EB000304300432043131EEDA
:1019B000421A082883ED011AF0D1B4EE4D0AF1EE77
:1019C00010FA27DC98ED000AB4EE6A0AF1EE10FA7C
:1019D00020DC98ED010AB4EE6A0AF1EE10FA19DC87
:1019E00098ED020AB4EE6A0AF1EE10FA12DCB0EEDB
:1019F000490A00F07FFE41F26F70814509F101094B
:101A0000FFF4F8AE06E00EF031FBB0EE40AA33E78B
:101A1000C3F51C4196ED0F0A202080EE0E0A86EDDC
:101A20000F0A00BF311891ED010A043080EE0E0A52
:101A30002C2881ED010AF5D1FFF7CEFCA220FFF79B
:101A4000CDFD222021460222FFF7A4FDFFF7BAFCBC
:101A50009DF818009DF81910C00040EA51100021AF
:101A6000B1EB902F4FF60001CFF6FF7118BF08437E
:101A700000EE100AB8EEC00A20EE0F0A42F6AC11D2
:101A800030EE280A42F69C12C2F2000186ED060AE8
:101A9000C2F2000291ED000A1088B4EE4D0A013046
:101AA000F1EE10FA10803FF789AE98ED020AB4EE1D
:101AB0006A0AF1EE10FA3FF781AE98ED010AB4EE32
:101AC0006A0AF1EE10FA3FF779AE98ED000AB4EE2B
:101AD0006A0AF1EE10FA3FF771AE96ED0F0A30EE9A
:101AE000290AB0EEC00AB4EE4D0AF1EE10FA3FF743
:101AF00065AE96ED090AB0EEC00AB4EE6B0AF1EEDF
:101B000010FA3FF75BAE96ED0A0AB0EEC00AB4EEEB
:101B10006B0AF1EE10FA3FF751AE96ED0B0AB0EEFC
:101B2000C00AB4EE6B0AF1EE10FA3FF747AE15E6C5
:101B3000000000000AD7A33B9A99193E6F12033A9E
:101B40000080BB45CDCC1CC10AD7233C80B58AB0F0
:101B5000026846F60003C4F2000300214FF0010CB6
:101B60004FF00E0E9A420691CDF81CC0CDE900113F
:101B7000CDE90211CDF824E009D046F20041C4F2CB
:101B800000018A4213D10021CDE904110FE0CDE913
:101B900006C142F22001009146F2600101914FF42A
:101BA000C14102914FF40151CDE904CE03910121CD
:101BB0000891694601F078FC0AB080BD80B540F21A
:101BC000ED70C2F20000807A01280AD142F60000CE
:101BD000C2F200000078022806D040B900F00AFAEC
:101BE00080BD00F0EBF980BD00F006FC80BD00F088
:101BF00045FC80BD80B540F2E070C2F20000018873
:101C000043F66A42C2F200021180D0F802108079D5
:101C1000C2F80210907140F29860C2F200000078A1
:101C200000210328D17131D8DFE800F0020B1D2715
:101C300040F6C050C2F20000417801F0E10141706D
:101C400024E042F60000C2F20000017859B30229F4
:101C50001CD140F6C050C2F20000417801F0E10111
:101C60000831417012E040F6C050C2F200004178E5
:101C700001F0E1010231417008E040F6C050C2F2CB
:101C80000000417801F0E1010431417042F6C040AA
:101C900043F66A42C2F20000C2F200024FF48871B9
:101CA000FFF7D0FC80BD90F87A1040F2CC6EC2F203
:101CB000000EC1B19EF800209AB940F6C05CC2F295
:101CC000000C9CF80130062003F01E0203F0E10333
:101CD000062A08BF082018448CF8010001208EF85D
:101CE00000000029D2D140F6C051C2F200014A786A
:101CF00002F01E0006281EBF02F0E1000830487006
:101D000000208EF80000C1E780B52DED068B40F66F
:101D10004E70C2F2000040F27A719FED1E9A9FED64
:101D20001EAA018040F2E860B1EE048AC2F200000F
:101D3000B7EE001A4FF4FA51B0EE480AF0EE490A35
:101D4000F0EE491AB0EE492AF0EE492AB0EE4A3ACE
:101D500007F028FC40F26070C2F20000B0EE001AFA
:101D60004FF4FA51B0EE480AF0EE490AF0EE491A83
:101D7000B0EE492AF0EE492AB0EE4A3A07F012FCDA
:101D800040F29860C2F2000001210170BDEC068BA8
:101D900080BD00BF000000006F12833A0000000009
:101DA0002DE9F0412DED028B40F29867C2F2000759
:101DB000387803280CD8DFE800F0025B0F2C40F2E3
:101DC000E070C2F200000021818001600121817178
:101DD000BDEC028BBDE8F08142F60000C2F20000CB
:101DE00090ED050A9FED731A40F2E0749FED722AA0
:101DF000C2F2000420EE010AB4F9040020EE020A47
:101E0000BDEEC00A01EE100AB8EE400AF8EEC10AB3
:101E100021E042F60000C2F2000090ED010AB5EEAA
:101E2000400AF1EE10FAD3D190ED020AB5EE400A65
:101E3000F1EE10FACCD190F878000028C8D140F229
:101E4000E074C2F20004B4F9040000EE100AF8EEE7
:101E5000C00A9FED570AB2EE0E1A07F023FCBDEE42
:101E6000C00A10EE100AA080BDEC028BBDE8F08124
:101E700042F60008C2F20008D8F80C00D8F8644016
:101E8000FFF726F9054620460E46FFF721F99FED9C
:101E9000460B53EC102BFFF700F82A463346FEF7AB
:101EA00055FFFFF728F940F61C06C2F2000640F283
:101EB00018043288C2F20004E060A2F67B7080B29F
:101EC00040F6FF710023884240F6FE7538BF0123BB
:101ED000A84240F64C7041F27A71C2F2000088BF0D
:101EE00040F27A71037000EE102A10467980B8EE45
:101EF000408A07F0BBFB40F2E86500EE100AC2F230
:101F00000005F8EEC00A2846B0EE480A07F072F95C
:101F1000B6F9020040F2607600EE100AD5ED110A23
:101F2000C2F20006B8EEC00A304607F063F995ED3C
:101F3000110A96ED111A204631EE408A86ED118A7B
:101F400000F094FD98ED051A9FED1A2A9FED1A3ABC
:101F500021EE021A38EE000A21EE031A30EE010AD1
:101F6000BDEEC00A4CF2A52110EE100ACFF6FF71AB
:101F70008842C8BF014643F65B508142A8BF014674
:101F800040F6F460C2F20000007840F2E072C2F263
:101F90000002002818BF00219180BDEC028BBDE833
:101FA000F08100BF00BF00BF9A9999999999E93FC4
:101FB0000058C4450000FA44DB0F494080B540F2A8
:101FC000E070C2F2000001220021827143F66A42F1
:101FD00081800160C2F200024FF48030506042F60E
:101FE000C0401160C2F200004FF48871FFF72AFB75
:101FF00080BD000070B540F2CE6EC2F2000EBEF899
:1020000000000026431C40F2E070C2F2000086711E
:1020100042F60000C2F2000090F8754090F874207B
:10202000BFEE001A90F87750002CB0EE412AB7EEC0
:10203000003AAEF8003090F876109FED340A08BFF1
:10204000B0EE402A002AB0EE434A08BFB0EE424A42
:10205000002D08BFB0EE403A002908BFB0EE431A89
:1020600090F87C4040F2986C40F2CD62C2F2000CD5
:10207000C2F2000280ED011A80ED024A84B11178AB
:1020800051B99CF80010032503294FF0010108BF46
:1020900001258CF800501170002C08BF167000E06C
:1020A000167090F87D2040F6F461C2F200010AB18A
:1020B0000C7854B172B99AB2B2F5FA7F0AD90A789B
:1020C000002A1CBF00220A7004E001220A700021CD
:1020D000AEF8001040F64C01C2F200010A789CF8FC
:1020E0000010012A0AD190F87900032918BF0221B3
:1020F000002818BF01218CF8001070BD41F00200CB
:10210000022804BF01208CF8000070BD0000000010
:102110002DE9F04F81B02DED048B40F64C70C2F2EA
:102120000000007840F2D86BC2F2000B20B1012809
:1021300019D141F27A7101E040F27A7140F61C0245
:10214000C2F2000212889FEDA81A891A00EE101A36
:10215000B8EEC00A80EE010A40F6C051C2F200019A
:1021600008718BED000A9BED000A9FEDA01A40F666
:10217000C65220EE010ABDEEC00A10EE101AC2F2DD
:10218000000242F60005D18041F2F011C2F20005D2
:10219000C2F2000141F67A7295F878600A8040F642
:1021A0000871C2F2000140F67A7241F65834002EEE
:1021B00040F2D46A40F2DC6940F2DE680A8008BF6F
:1021C0004FF47A64C2F2000A0128C2F20009C2F296
:1021D0000008AAF8004013D090BB95ED021A02EE59
:1021E000104AB8EE422A21EE421A95ED010ABDEEE0
:1021F000C11A11EE100AA9F8000020EE420A11E0FF
:1022000095ED021A02EE104AB8EE422A95ED010A47
:1022100021EE021ABDEEC11A11EE100A20EE020ADA
:10222000A9F8000010EE100AFEF752FF9FED6A0BAE
:1022300053EC102BFEF731FEFEF72BFFA8F8000041
:1022400040F29867C2F20007387803285FD16EB970
:1022500095ED010AB5EE400AF1EE10FA06D195EDC2
:10226000020AB5EE400AF1EE10FA50D040F2E061F9
:1022700040F2D066C2F200010120C2F2000696EDE3
:10228000008A08702046FEF7F7FE9FED550B54ECD0
:10229000105B2A462346FEF772FEFEF72CFF9FEDE9
:1022A000549A01EE100AB0EE490AF0EE480A07F01F
:1022B000F9F940F2E060C2F2000086ED000A007811
:1022C00040F2E076C2F200060028B6F904009FED65
:1022D000498A18BFB0EE498A00EE100ABAF8000029
:1022E000B8EEC09AFEF7C8FE2A462346FEF747FE20
:1022F000FEF701FF01EE100AB0EE480AF0EE490ABF
:1023000007F0D0F9BDEEC00A10EE100AB08040F21E
:10231000ED70C2F20000C178B9F9000001294CD17A
:102320003978032949D140429BED001A00EE100A8A
:10233000B8EEC08AB1EE410AFDF780FFB8F900009F
:102340009BED001A20EE088A00EE100AB8EEC09A43
:10235000B1EE410AFDF736FF20EE090A38EE000A19
:10236000B9F90010BDEEC00A9BED001A10EE100A7C
:1023700040F2E07400EE101AC2F20004B8EEC08A17
:10238000B1EE410A6080FDF71DFFB8F900009BED3A
:10239000001A20EE088A00EE100AB8EEC09AB1EEDC
:1023A000410AFDF74BFF20EE090A38EE000ABDEEA8
:1023B000C00A10EE100A208008E040F2E071B8F880
:1023C000002080B2C2F2000108804A80BDEC048B7C
:1023D00001B0BDE8F08F00BF666666666666E63FE0
:1023E00000000000007087407BF4A24400007A44A3
:1023F000005044450000000040F2E070C2F20000CE
:102400000021817142F60000C2F2000090ED080A3E
:10241000B7EE001AB4EE410A40F2587140F29860EB
:10242000F1EE10FAC2F20001C2F200000AD10A78FD
:1024300042B902780323032A4FF0010208BF0123A7
:1024400003700A70B5EE400AF1EE10FA04BF0022E4
:102450000A7040F64C01C2F200010A780178012AA4
:1024600004D1032918BF02210170704741F0020115
:10247000022918BF704701210170704740F298602F
:10248000C2F200000021017070470000FFF73CFC21
:1024900040F2D074C2F200040DF022F92060FFF780
:1024A0008DFBFFF77DFCFFF733FEFFF7A3FB204614
:1024B00001210CF081FAEFE780B5B0F800E09FED64
:1024C0002A1AA0F808E00A8812BA4FEA124CA0F8BB
:1024D00000C04B88DBBA00EE103AB8EEC00A80EEBE
:1024E000010A9FED221ABDEEC00A10EE103A438099
:1024F0008B88DBBA00EE103AB8EEC00A80EE010A13
:10250000BDEEC00A10EE103A83808B798371C979D1
:1025100040F2EC73C171CEEB124109B2B1EB124F34
:10252000C2F200031CBF01221A701A78012A0BD1D3
:10253000B1F57A6F02DD4289013A428111F57A6F75
:1025400002DA418901314181B0F90A109FED081A80
:102550000CEB413100EE101AB8EEC00A20EE010A71
:10256000C16080ED040A80BD0000C84200007A44CA
:102570000000343D80B542F66860C2F2000001F010
:1025800021FC80BD80B542F6C860C2F2000001F0B7
:1025900019FC80BD80B542F6A850C2F2000001F0DF
:1025A00011FC80BD80B542F60860C2F2000001F067
:1025B00009FC80BDD0F800C06FF00F024AF6AB23D3
:1025C00052FA8CF2CAF6AA230146A2FB0330000994
:1025D00005A31B5C40F2FF302CEA00005F2A88BF95
:1025E0000430C1E9160370470006101600061016E5
:1025F0008269816AB2F5005F06D06AB9022912D0F9
:10260000012914D0D1B90EE0032917D8DFE801F071
:10261000020B020F0120704703293CBF01207047C5
:102620001CBF00207047C06AC0F300607047C06ADA
:10263000A0F1C070B0FA80F04009704700207047E8
:1026400080B5D0F800C0D0F808E0DCF80000BEF19A
:10265000400F20F48020CCF800000846CCF804306D
:1026600004BF10460A46CCF80800CCF80C2080BD08
:1026700080B582B013685268009301926A46FEF7F3
:10268000E1FF02B080BD000080B582B04FF0FF3C9A
:10269000032BCDF803C0CDF800C009D84FEAC30C16
:1026A0004FF6FC53CFF6FE3323FA0CF38DF80730C8
:1026B000114489B26A46FEF7C5FF02B080BD000032
:1026C00081B041F20400CEF200000068009040F2B8
:1026D000B060C2F2000000990268914206D240F256
:1026E000B461C2F200010A6801320A600099016017
:1026F00001B0704741F2040040F29C62CEF200004B
:10270000C2F20002016892ED001AB8EE411A21EE01
:10271000000A00BF0268521A01EE102AB8EE411AF0
:10272000B4EE410AF1EE10FAF4DC704780B52DEDFD
:10273000028B82B041F20401CEF2000109680191DE
:1027400001990268891A00EE101A40F29C61C2F2E7
:10275000000191ED001A0199B8EE400AB8EE411A55
:1027600080EE018A0160FFF7ABFFB0EE480A02B0CD
:10277000BDEC028B80BD000080B500F065F841F231
:10278000E020C2F20000818890ED000A01EE101AEC
:102790009FED0A2AB8EE411AC088B8EE400A21EE31
:1027A000021A31EE000A01EE100A9FED052AB8EE7A
:1027B000411A21EE021A30EE010A80BD6F12833AEF
:1027C000BD37863510B54EF6FC5CCEF2000CDCF859
:1027D000002044F24023C0F20F0342F080725843BD
:1027E00044F6D353CCF8002041F20002C1F2620358
:1027F000CEF200024FF0000CA0FB033EC2F804C072
:102800004DF683611368C4F21B31A0FB011443F041
:102810000101116040F29C61C2F20001086040F2C7
:10282000A0614FEA9E10C2F20001086040F2A4616C
:10283000A00CC2F20001086040F2B460C2F20000D5
:10284000C0F800C010BD0000F0B581B041F2040036
:10285000CEF2000000680090FFF732FF40F2B46053
:10286000C2F200000068009C00254FF0FF31E0FB41
:10287000014540F29C61C2F2000140F2A8600E687E
:10288000C2F20000C0E90045204629463246002336
:10289000FEF7EAF9A0FB062301FB0631A41A8D41DD
:1028A00040F2A061C2F2000141F2E0270E68C2F2DC
:1028B000000738602046294632460023FEF7D4F947
:1028C000B88080B240F2A4617043C2F20001201AC5
:1028D0000A6865F100010023FEF7C6F9F88001B02F
:1028E000F0BD00007047000041F25420C2F2000029
:1028F000017B31B3032941F2DC21C2F200010FD187
:1029000040F6FC72C2F20002B2F9022002EBE2339E
:1029100083EAE23292B2142A02D80A8801320A808B
:102920000A88322A03D30423013203730A800A88F7
:1029300040F227239A4238BF704700220A800321C1
:102940000173704780B5082001F0B2FB80BD000024
:1029500080B5102001F0ACFB80BD000080B52020C8
:1029600001F0A6FB402001F0A3FB802001F0A0FBBA
:1029700080BD000072B600BFFEE7000080B5007A9F
:1029800001380A2888BF80BDDFE800F006121E2546
:102990002C3D4D54695B620006F0EAFE013040F2C6
:1029A000ED70C2F200000CBF02210121017080BD58
:1029B00004F018F8013040F2ED70C2F200000CBFD4
:1029C00002210121417080BD40F2ED70C2F2000091
:1029D0000121C17080BD40F2ED70C2F20000012102
:1029E000817080BD41F28020C2F20000283006F0E4
:1029F000F7FE013040F2ED70C2F200000CBF022180
:102A00000121417180BD41F28020C2F2000006F038
:102A1000E7FE013040F2ED70C2F200000CBF02216F
:102A20000121017180BD40F2ED70C2F20000012170
:102A3000817180BD40F2ED70C2F200000121C171D0
:102A400080BD40F2ED70C2F200000121417280BDF4
:102A500040F2ED70C2F200000121817280BD40F2AF
:102A6000ED70C2F200000121017280BD90ED032AD9
:102A700090ED023A90ED000A90ED011A32EE433AE1
:102A800022EE000A23EE011A30EE013A90ED050A1B
:102A900080ED043AB1EE401AB4EE413AF1EE10FA8C
:102AA00080ED022AB8BF80ED041A90ED041AB4EE4E
:102AB000401AF1EE10FAC8BF80ED040A90ED040A46
:102AC0007047000080B500210160FFF757FF80BD0F
:102AD000B0B547F61021C1F6FF7108688A68801802
:102AE00008BFB0BD40F2D055C2F200054C68A91C29
:102AF000082204F02BFF05F112012046042204F005
:102B000025FFB0BD80B540F2ED70C2F20000807AC2
:102B100001280AD142F60000C2F200000078022823
:102B200006D010B900F028FB80BD00F02FFC80BD5E
:102B300000F068FB80BD0000B0B52DED0A8B40F6BB
:102B40004C00C2F200000021017040F64D00C2F2BC
:102B500000000122027041F2943040F6C0149FED53
:102B6000878AC2F20000C2F200040160B0EE001ACF
:102B700020464FF48041B0EE480AF0EE480AF0EEED
:102B8000481AB0EE482AF0EE482AB0EE483A06F06D
:102B900009FD40F66845C2F20005B0EE081A284665
:102BA0004FF48041B0EE480AF0EE480AF0EE481AC1
:102BB000B0EE482AF0EE482AB0EE483A06F0F2FCB1
:102BC0009FED6F9A9FED6FBAB7EE00AA04F1700007
:102BD0004FF48041B0EE4A0AF0EE480AB0EE491ACE
:102BE000F0EE481AB0EE4B2AF0EE482AB0EE483A22
:102BF00006F0D8FCB1EE04CA05F170004FF4804134
:102C0000B0EE4A0AF0EE480AB0EE4C1AF0EE481A5E
:102C1000B0EE482AF0EE482AB0EE483A06F0C2FC80
:102C200004F1E0004FF48041B0EE480AF0EE480AAB
:102C3000B0EE491AF0EE481AB0EE4B2AF0EE482AF0
:102C4000B0EE483A06F0AEFC05F1E0004FF48041EA
:102C5000B0EE480AF0EE480AB0EE4C1AF0EE481A10
:102C6000B0EE482AF0EE482AB0EE483A06F09AFC58
:102C700040F67004C2F2000420464FF48041B0EEEA
:102C8000480AF0EE480AB0EE481AF0EE481AB0EEE4
:102C9000482AF0EE482AB0EE483A06F083FC40F6A7
:102CA0001835C2F2000528464FF48041B0EE480ABC
:102CB000F0EE480AB0EE481AF0EE481AB0EE482A94
:102CC000F0EE482AB0EE483A06F06CFC9FED2EBAC2
:102CD00004F170004FF48041B0EE4A0AF0EE480A69
:102CE000B0EE491AF0EE481AB0EE4B2AF0EE482A40
:102CF000B0EE483A06F056FCBAEE04CA05F1700090
:102D00004FF48041B0EE4A0AF0EE480AB0EE4C1A99
:102D1000F0EE481AB0EE482AF0EE482AB0EE483AF3
:102D200006F040FC04F1E0004FF48041B0EE480AA8
:102D3000F0EE480AB0EE491AF0EE481AB0EE4B2A0F
:102D4000F0EE482AB0EE483A06F02CFC05F1E0001F
:102D50004FF48041B0EE480AF0EE480AB0EE4C1A4B
:102D6000F0EE481AB0EE482AF0EE482AB0EE483AA3
:102D700006F018FCBDEC0A8BB0BD00BF00000000DF
:102D800000004842000048430000C8420000000024
:102D900080B540F23010C2F2000041689FED8E2AEB
:102DA00000EE101A40F6D451C2F2000191ED051A5E
:102DB00030EE410AB4EE420AF1EE10FA02DD9FED68
:102DC000891A08E09FED851AB4EE410AF1EE10FA77
:102DD00003DA9FED831A30EE010A40F64C02C2F28C
:102DE000000291ED061A127830EE010A022A81EDF6
:102DF000070A19D0012A23D00ABB42F60002C2F208
:102E00000002114611F8643B40F63000002BC2F27C
:102E100000006DD0022B7CD19FED771A9FED770AD1
:102E200002F10C01103268E040F630000969C2F28C
:102E30000000002242618261416080ED021A80BD83
:102E400040F2ED71C2F20001097A01292DD1C16968
:102E50009FED651A02EE101AB4EE412AF1EE10FA57
:102E600023DD80689FED631A40F6300102EE100A00
:102E7000C2F200010022B4EE412AC1E90522F1EEBE
:102E800010FAB8BFB0EE412AB3EE011AB4EE412AEF
:102E9000F1EE10FA81ED012A81ED020A40F38E80F5
:102EA0000020C4F28810486088E042F60000C2F2B8
:102EB00000000178022955D000296BD190ED190A44
:102EC000B5EE001A40F63001806E20EE010AC2F223
:102ED000000181ED060AFEF7FBF89FED3D0B53EC78
:102EE000102BFDF7DAFFFEF706F900EE100A4BE0B3
:102EF0009FED3D0A6832B0EE401A92ED002A91ED46
:102F0000003A22EE000A23EE011A80ED050A80ED58
:102F1000061A90ED010A90ED052A90ED021A90ED47
:102F2000063A30EE420A9FED332A31EE431AB4EEF0
:102F3000420A80ED010AF1EE10FA80ED021ABCBFE0
:102F40004FF04241416090ED010AB3EE011AB4EE38
:102F5000410AF1EE10FAD8BF80BD0021C4F28811F9
:102F6000416080BD90ED030A9FED201A90ED042A88
:102F700020EE010A40F630009FED1D1AC2F200005B
:102F800080ED060A22EE010A40F63000C2F200008F
:102F900080ED050A40F63000C2F2000090ED010A13
:102FA00090ED021A90ED052A90ED063A30EE420AB5
:102FB00031EE431A80ED010A80ED021A40F630002E
:102FC000C2F200000121016080BD00BF00BF00BF50
:102FD0007B14AE47E17A843F00003443000034C3E1
:102FE0000000B4430000B4C3CDCCCC3D9A99993EC7
:102FF0000AD723BC000000C2CDCC4C3ECDCCCCBD0A
:103000002DE9F04381B040F2D870C2F2000090ED9B
:10301000000A40F2DC0440F64C00C2F20004C2F2A6
:10302000000094ED001A007840F6040520EE010A35
:10303000C2F20005012885ED000A62D140F2ED7070
:10304000C2F20000007A01285BD140F23019C2F2CE
:103050000009D9F81C009FED470A01EE100AB4EEF2
:10306000401AF1EE10FA4CDD40F6D45740F6300825
:10307000C2F20007C2F2000840F6700697ED040A9B
:10308000D8ED010AC2F2000606F1E00006F0B2F83F
:10309000D9F8100094ED022A96ED491A03EE100AB1
:1030A00040F6183097ED010A23EE022AC2F2000022
:1030B00071EE020AE03006F09DF840F6C01697ED7A
:1030C000060AD8ED020AC2F2000606F1E00006F098
:1030D00091F8D9F80C0094ED012A96ED491A03EE07
:1030E000100A23EE022A95ED003A40F6684097ED6B
:1030F000020A31EE021AC2F2000073EE010AE03059
:1031000033E040F6D45440F63005C2F20004C2F277
:10311000000540F6700694ED040AD5ED010AC2F2EE
:10312000000606F1700006F065F840F6183094EDE0
:10313000010AD6ED2D0AC2F20000703006F05AF8EE
:10314000D5ED020A40F6C01594ED060AC2F200055C
:1031500005F1700006F04EF840F6684094ED020A62
:10316000D5ED2D0AC2F20000703006F043F801B030
:10317000BDE8F083CDCCCC3D10B540F64C04C2F296
:103180000004217842F6000E022904BF00212170BC
:103190002178C2F2000E01291CD09EF87D3040F645
:1031A000680CC2F2000C93B19CF8002072B940F692
:1031B0003002C2F2000292ED020A9FED111A30EEC7
:1031C000010A82ED020A01228CF8002013B90022C4
:1031D0008CF800209EF8723040F66902C2F20002BC
:1031E00053B1107828B9481E18BF01202070012063
:1031F0001070002B18BF10BD0020107010BD00BF54
:103200000000344340F64C00C2F200000178B7EEF3
:10321000001A022904BF0021017042F60001C2F227
:10322000000191ED060A40F61031B4EE410AF1EECC
:1032300010FAC2F2000108D10A7832B90278013AD4
:1032400018BF0122027001200870B5EE400AF1EEAD
:1032500010FA04BF002008707047000010B540F657
:103260004C00C2F20000007840F2ED740228C2F275
:10327000000445D001284AD1217A01293ED140F2EB
:103280003011C2F20001CA699FED3F0A01EE102A17
:10329000B4EE401AF1EE10FA30DD40F61830C2F20A
:1032A000000090ED490A886940F2C46201EE100AFC
:1032B00040F2DC00C2F2000090ED042A90ED033AE7
:1032C00021EE021A30EE010ABDEEC00A10EE100A1D
:1032D000C2F200024969908040F66840C2F20000E4
:1032E00090ED490A01EE101A21EE031A30EE010AA0
:1032F000BDEEC00A10EE100AD08022E0022806D1EE
:1033000040F2C460C2F200000021416019E040F6C2
:103310001830C2F2000090ED2D0A40F66841BDEE73
:10332000C00AC2F2000110EE100A91ED2D0A40F21F
:10333000C461C2F20001BDEEC00A888010EE100A1E
:10334000C88042F6C04040F2C462C2F20000C2F23D
:10335000000240F2FE31FFF78BF9A07840F6C05230
:10336000E178C2F2000201381378B0FA80F0013936
:10337000400903F0FC03B1FA81F11844490940EA1D
:103380004100107010BD00BFCDCCCC3D40F64C00CC
:10339000C2F20000022101707047000040F6B854EC
:1033A00041F2E82540F64D06C2F20004C2F20005E3
:1033B000C2F200060CE000BFFFF7A4FBFFF7E8FC39
:1033C000FFF71EFEFFF74AFF204601210BF0F4FA3B
:1033D0000CF086F9297820600129EDD0307800289A
:1033E00008BFFFF7A9FB05F059FAF1E790F8202094
:1033F000013A012A04D8006800F11402002004E018
:1034000000F1240201204FF4802113681943116058
:103410007047000010B590F820E0D0F800C0AEF181
:10342000010EBEF1010FDCF808E00ED81EF0E05FDF
:1034300011D0CEF3016E012000FA0EF018608B68F7
:103440007BB1486843EAC0030DE000F1240101208C
:103450004FF4802223E000F1240101204FF40012F8
:103460001DE008684305D1E9030403430CEB0E108B
:10347000C0F88031C0F88441097D012905D100F5EB
:10348000C2710B6843F480730B605168C0F88C11F3
:10349000126800F5C071C0F88821002001220B6875
:1034A0001A430A6010BD0000B0B590F82020013A20
:1034B000012A2FD846F20060C4F20000026842F0F0
:1034C00001020260026822F47C520260D1F814E02A
:1034D000CC694A6A0368012C43EA022202600EF0BA
:1034E0001F024FF0010303FA02F2C3696FEA020CF4
:1034F00023EA0203C36113D02CBBC36803EA0C03A5
:10350000C360CB688C8844EA034300EBCE04236499
:103510000B4611E0416A41F4802141620120B0BDB7
:10352000C3681343C3600B688C8844EA034300EB11
:10353000CE04236401F10C038C681B8843EA044326
:1035400000EBCE04636443688D6943EA0204D1F85A
:1035500010E0096A002D08BF03EA0C0444604369C7
:10356000BEF1000F43EA020408BF03EA0C0401297C
:10357000446102D1C1691143C161016821F00101B7
:1035800001600020B0BD00007047000010B590F849
:103590002040013C012C0AD8046871B12469A407B9
:1035A0000ED100F1240101204FF4001276E000F169
:1035B000240101204FF4802270E0E468A40771D058
:1035C000046804EB011CDCF8B0410CF5D87E14F063
:1035D00004049460DCF8B04119BFE4085460640D41
:1035E0001460DEF800400CF5DA7E04F00204D460CA
:1035F000DCF8B44124075ABFDEF8004004F00F04A1
:1036000008241461DEF800400029C4F30724946103
:10361000DEF800404FEA14445461DCF8B8211A7017
:10362000026802EB0112D2F8B8214FEA12225A7056
:10363000026802EB0112D2F8B8214FEA12429A70E6
:10364000026802EB0112D2F8B8214FEA1262DA7076
:10365000026802EB0112D2F8BC211A71026802EB77
:103660000112D2F8BC214FEA12225A71026802EB11
:103670000112D2F8BC214FEA12429A71026802EBA1
:103680000112D2F8BC214FEA1262DA71006814BF4D
:1036900000F1100100F10C01002020220B681A43F8
:1036A0000A6010BD00F1240101204FF40012F5E77B
:1036B0002DE9F04F81B0044600684669D0F80490C7
:1036C0008768D0F80CB0D0F810A0D0F81880F107B7
:1036D00003D1002530071CD423E0F90710D00121C5
:1036E000BA07816009D4780700F1AA80380700F191
:1036F000B080204600F006FB02E0204600F004FB0C
:103700000025F80500F18480F80300F1AA80300755
:1037100007D51BF0100004D0206845F40075102177
:10372000C160700708D51BF0080005D0206808218B
:10373000C160204600F0E4F9B00706D52068C068F3
:10374000800702D0204600F0DDF9700607D51AF098
:10375000100004D0206845F4806510210161B00696
:1037600008D51AF0080005D020680821016120461C
:1037700000F020FAF00606D520680069800702D024
:10378000204600F019FAB00308D519F0100005D052
:10379000206810214160204600F084FAF00308D52B
:1037A00019F0080005D0206808214160204600F08B
:1037B000B5FA300440F18F805FEA497040F18880AB
:1037C00006F4807008EA102028435FEA88710146F9
:1037D00048BF41F00201B20558BF01465FEA487098
:1037E0000D4648BF45F00405700558BF0D4630052D
:1037F0006ED518F070006BD010380009052862D81B
:10380000DFE800F0035356595C5F45F008055AE0C5
:1038100020684FF48071BA0581600AD4780512D40B
:10382000380519D4204600F071FAF8037FF56FAF20
:1038300017E0204600F06CFAF8037FF568AF10E05F
:103840004FF400655DE705F50055F8037FF55FAFC0
:1038500007E04FF4805554E705F58045F8037FF500
:1038600056AF20684FF48031BA0381600AD47803E0
:103870000FD4380313D4204600F04CFA30073FF53C
:1038800048AF4EE7204600F047FA30073FF541AF1A
:1038900047E705F5004530073FF53BAF41E705F544
:1038A000803530073FF535AF3BE745F010050AE0BE
:1038B00045F0200507E045F0400504E045F08005AF
:1038C00001E045F480752068816921F07001816113
:1038D0002068042141602DB1606A2843606220465F
:1038E000FFF752FE01B0BDE8F08F0000B0B5C8B1DF
:1038F000044690F8200010B9204600F071F82068C6
:10390000016841F00101016000F0B4FC054600BF10
:1039100020684168C90707D100F0ACFC401B0B28A8
:10392000F6D312E00120B0BD016821F00201016070
:1039300000F0A0FC054600BF2068416889070DD54E
:1039400000F098FC401B0B28F6D3606A052140F478
:1039500000306062012084F82010B0BD217E026832
:10396000012922F0800208BF80320260617E026875
:10397000012922F0400208BF40320260A17E0268A5
:10398000012922F0200208BF20320260E17E026895
:10399000012922F0100218BF10320260217F026854
:1039A000012922F0080208BF08320260617F026824
:1039B000012922F0040208BF04320260D4E901C2E6
:1039C000D4E9033561691A432A431143ACF101027A
:1039D0001143C16100200121606284F82010B0BD54
:1039E00010B586B0006846F60002C4F2000200215D
:1039F0009042CDE90411CDE90211019134D046F293
:103A00000041C4F20001884277D140F6D051C2F2A1
:103A100000010A6843F64000C4F20200531C0B6028
:103A200052B900210091016841F000710160016804
:103A300001F00071009100990021009150F8101CD4
:103A4000142441F0080140F8101C50F8100C00F04C
:103A50000800009000980320019040F20040C4F25A
:103A6000020000F5006035E043F64000C4F20200B9
:103A70000091016841F080610160016801F080619E
:103A80000091009940F6D051C2F200010A68531C1F
:103A90000B6052B900210091016841F00071016092
:103AA000016801F00071009100990021009150F827
:103AB000101C412441F0020140F8101C50F8100C79
:103AC00000F00200009000986020019040F2004059
:103AD000C4F202000221029100210391032104910A
:103AE0000921059101A900F0F1FA204605210022E3
:103AF00000F06EFC204600F067FC06B010BD000030
:103B00007047000010B5016846F20042C4F200029E
:103B1000914200D010BD41F21C24C2F2000440F2D8
:103B20005063C2F2000300212246FFF72FFD2068F8
:103B300040F20321884219D040F20221884228D065
:103B400040F20121884218BF10BD40F6FC7040F2DF
:103B50005061C2F20000C2F2000105F049FE40F6D9
:103B6000F070C2F20000FEF7ADFF10BD41F2802000
:103B7000C2F2000040F250612830C2F2000105F0AC
:103B800037FE41F26420C2F200000C30FEF79AFFCB
:103B900010BD41F2802040F25061C2F20000C2F23A
:103BA000000105F025FE41F26420C2F20000FEF79C
:103BB00089FF10BD70470000B0B5016846F60002ED
:103BC000C4F20002914200D0B0BD41F21C2540F287
:103BD0005864C2F20005C2F2000405F11C02012182
:103BE0002346FFF7D3FCE86940F20231884215DC36
:103BF00040F2011188422BD0B0F5817FE4D140F230
:103C0000D87021686268C2F20000C0E9001240F278
:103C1000F870C2F20000FEF755FFB0BD40F203316C
:103C200088422ED0B0F5417F18BFB0BD40F61C00D1
:103C300040F25861C2F20000C2F20001FEF73CFC03
:103C400040F65000C2F200000C30FEF73BFFB0BD62
:103C5000208841F200216288C2F20001088010BA77
:103C6000A288000C488010BAE288000C888010BA44
:103C7000000CC88041F2F410C2F20000FEF722FFEF
:103C8000B0BD40F6080040F25861C2F20000C2F236
:103C90000001FEF711FC40F65000C2F20000FEF7F2
:103CA00011FFB0BD70470000B0B5044690F8200089
:103CB00001281DD1022084F820002068016821F02D
:103CC0000101016000F0D6FA054600BF2068406897
:103CD000C00713D000F0CEFA401B0B28F6D3606A61
:103CE00040F400306062052084F820000120B0BD5F
:103CF000606A40F4002060620120B0BD0020606274
:103D0000B0BD000070470000704700007047000021
:103D100070470000704700007047000070470000C7
:103D200070B5866D044600F0A5FA94F835100229A6
:103D300025D105462068216C026822F01602026037
:103D4000426922F08002426109B9A16C19B101688F
:103D500021F008010160016821F00101016000BF4C
:103D600020680068C0070ED000F084FA401B0628C7
:103D7000F6D320206065032084F835000CE0802015
:103D80006065012008E0E06D3F2101FA00F0B060BD
:103D9000012084F835000020002184F8341070BD23
:103DA00090F83510022909D1052180F835100068F6
:103DB000016821F001010160002070478021416508
:103DC00001207047F0B581B004460020009040F219
:103DD0001850C2F200000268D4E9166048F2B51328
:103DE00037680821C1F64E3381403942A2FB0325D2
:103DF0000CD0226813685B0708D5136823F004030E
:103E00001360B160616D41F0010161650121814084
:103E1000394208D022685269120604D5B160616D3A
:103E200041F00201616504218140394208D02268D5
:103E30001268920704D5B160616D41F004016165BB
:103E400010218140394215D020680268120711D52F
:103E5000B16002680168520306D4C90506D401683E
:103E600021F00801016001E0080342D4216C09B18E
:103E700020468847E16D202000FA01F23A4244D002
:103E800020680368DB0640D5B26094F835300268DC
:103E9000052B1ED122F016020260426922F0800238
:103EA0004261226C0AB9A26C1AB1026822F00802BF
:103EB00002603F208840B060012084F83500216D09
:103EC0000020002984F8340040D02046884701B003
:103ED000F0BD0168520310D4C90512D4016821F065
:103EE00010010160012084F83500002084F83400BE
:103EF00007E0A16C0029BBD1BCE7080301D4616CC9
:103F000000E0E16B09B120468847606DF0B1606D5B
:103F1000C00717D0052084F835002068A90A026878
:103F200022F00102026000BF009A01328A42009230
:103F300002D80268D207F7D1012084F835000020AA
:103F400084F83400E16C09B12046884701B0F0BD27
:103F50002DE9F041044600F08DF9C4B10546022078
:103F600084F835000020216884F83400086820F0C7
:103F70000100086026683068C0070BD000F07AF9AD
:103F8000401B0528F6D903212022032042E001200E
:103F9000BDE8F081306848F23F01CFF21001251DE5
:103FA00000EA010C2ECDD4E9050E41EA0C011143C3
:103FB00019432943D4E90778084340EA0E01606AAF
:103FC0003943042841EA080103D1D4E90B23114302
:103FD000194331607169042821F0070141EA0005A5
:103FE0000CD1D4E90A1045EA010538B12046FEF7A4
:103FF000FFFA18B10121402201200BE02046756133
:10400000FEF7D8FAE16D3F2202FA01F18160002249
:1040100001210020626584F83510BDE8F0810000C0
:10402000B0B5044690F83400012828D0012084F867
:104030003400A56D94F8350001281DD1022084F8C4
:104040003500002060652046FEF7FAFAE26D3F2356
:10405000206803FA02F2216CAA60026842F016029C
:10406000026019B1016841F008010160016841F086
:10407000010101600020B0BD002084F8340002205E
:10408000B0BD0000B0B5044600F0F4F8054640F2BB
:10409000F150C2F200000078611C18BF044400BF58
:1040A00000F0E8F8401BA042FAD3B0BD7047000012
:1040B00080B543F61441C4F201010A68024208BF08
:1040C00080BD0860FFF7F2FF80BD00002DE9F04FD2
:1040D00083B000F13E4202F1FF724FEAB22241F694
:1040E00000470192C4F2020708224FF0010E00259A
:1040F0004FF0000A4FF00008B84208BF07220092B4
:104100000AE000BF08F101080AF1040AB8F1100F33
:1041100005F1020500F0A4800C680EFA08FB14EA11
:104120000B09EFD04C6804F0030CACF1010EBEF1AA
:10413000010F11D80322876802FA05F6CA68B7434F
:10414000AA403A4382604268C4F3001722EA0B0295
:1041500007FA08F73A434260BCF1030F1CD0C2686B
:1041600003238E6803FA05F7BA4306FA05F73A43C4
:10417000BCF1020FC2600FD16FF0030202EA5802D5
:1041800002440AF01C060F23176A03FA06F40B69AF
:10419000A743B3403B431362026803234F68AB401D
:1041A0009A4307F00303AB401A4317F4403F4FF024
:1041B000010E0260A6D0002243F644030292C4F22C
:1041C00002031A6843F6004442F480421A601A68F7
:1041D000C4F2010402F480420292029A28F003021F
:1041E0004FF6084B2244CFF6FF7B52F80B300AF013
:1041F0000C070F26BE4023EA060C019B009E072BEE
:1042000038BF1E4606FA07F747EA0C0342F80B30A0
:10421000A2684B6842EA090743F60C4CDE0258BF1D
:1042200022EA0907A760C4F2010CDCF800209E0214
:1042300042EA090758BF22EA0907CCF80070626811
:104240009E0342EA090758BF22EA0907676022680D
:10425000DB0342EA090358BF22EA0903236051E75E
:1042600003B0BDE8F08F0000002A08BF0904816197
:104270007047000049F69440C2F2000000687047A1
:1042800040F2F15049F69441C2F20000C2F200013E
:1042900000780A68104408607047000080B543F653
:1042A0000040C4F20200016841F40071016001683D
:1042B00041F480610160016841F480710160032074
:1042C00000F096F8002000F005F800F059F8002002
:1042D00080BD000070B586B0002543F64001019511
:1042E000C4F202010A68044642F001020A60096849
:1042F00001A801F0010101910199694600F0C4FE95
:10430000049E002E18BF012600F0E4FE4DF68361E6
:10431000B040C4F21B31A0FB01014FF0FF3000EBB5
:10432000914143F2C440C2F200004FF0804240F29B
:10433000E733C0E90021C0E902530561856101F05E
:1043400083FB0546C0B943F2C440C2F2000001F04D
:10435000E3FB054680B91C2000F036F80F2C0AD884
:104360001C202146002200F033F840F2F450C2F243
:104370000000046000E00125284606B070BD000082
:1043800080B582B0002043F640010190C4F20201E2
:104390004A6842F480424A604A6802F480420192CC
:1043A000019A00900868002240F080500860086878
:1043B0000F2100F08050009000986FF0010000F095
:1043C00007F802B080BD000080B508F083FE80BD14
:1043D00070B514460D46064608F08CFE2946224666
:1043E00004F0DEFC0146304608F08CFE70BD000093
:1043F00080B508F0A1FE80BD704700000268002073
:104400005162704710B5D0F800C0DCF82400D9B173
:10441000DCF82830B1F1010E00EB13430CD0002181
:10442000002000BF0CEB8101D1F804410130C1B282
:104430008E4503EB1443F5D843EA02400CEB8E01A2
:10444000C1F80401002010BD40EA0240CCF8280069
:10445000002010BD80B5D0F8E00407F0F5F980BD6C
:1044600080B501EBC102D0F8E03400EB8200026AB3
:10447000184607F053F980BD80B501EBC102D0F8B2
:10448000E03400EB8200D0F86022184607F0A0F973
:1044900080BD000080B5D0F8E00407F0D7F980BDFA
:1044A00080B501F00F0202EBC20200EB820303F1C0
:1044B00014020906006858BF03F51572114608F08A
:1044C00075F880BD10B50446080601F00F0000EB3A
:1044D000C00104EB810205D402F51571002382F8B6
:1044E000553203E0012302F11401537594F894242A
:1044F0000870012A04BF022010BD2068012284F840
:10450000942407F0C5FD002084F8940410BD000039
:10451000B0B50279044601F00F00904284BF01203B
:10452000B0BD090609D400EBC00104EB810202F51D
:104530001571002382F8553207E000EBC00104EB4F
:104540008102012302F11401537594F8942400258B
:10455000012A8D70087004BF0220B0BD20680122BE
:1045600084F8942407F0E8FE284684F89454B0BDFB
:1045700001F00F0101EBC10100EB8100D0F86802EE
:1045800070470000B0B50546080601F00F0000EBCB
:10459000C00105EB810C05D40CF5157100248CF8D5
:1045A000554204E001240CF114018CF815404C78BC
:1045B0006FF3DF22002C08708A600B7118BF4883EC
:1045C000022B04BF0020487195F89404012804BF11
:1045D0000220B0BD2868012285F8942407F092FCDF
:1045E000002085F89404B0BD10B501F00F0404EB71
:1045F000C40100EB810E4FF0000CCEF868C28EF8BB
:1046000055C290F806C0CEF86022CEF86432BCF1F4
:10461000010F8EF8544208BFCEF8702200680EF5E4
:104620001571624607F0D8FE002010BDB0B50446F3
:10463000007901F00F05854284BF0120B0BD080656
:1046400009D401EBC10004EB800000F515710022D4
:1046500080F8552207E005EBC50004EB800001223D
:1046600000F11401427594F89404012201288A7023
:104670000D7004BF0220B0BD206884F8942407F0B8
:1046800083FE2DB92068A17904F29C4207F026FE32
:10469000002084F89404B0BD80B501F00F0C0CEB41
:1046A000CC0100EB810E714601F814CF4FF0000CE5
:1046B000C1F814C04FF0010C81F801C090F806C099
:1046C000CA60BCF1010F0B6108BFCEF83020006852
:1046D000624607F081FE002080BD00002DE9F04F0A
:1046E00083B006688346304608F002F810B103B084
:1046F000BDE8F08FDBF8000008F028F80028F6D0BD
:10470000D6F80808C0F30D21DBF80000CBF8D4146C
:1047100008F01CF8800705D5DBF80000416901F0BE
:1047200002014161DBF8000006F5006708F00EF8B1
:10473000C00640D5DBF80000816921F010018161DD
:10474000346AC4F34340062804F00F051CD0022845
:104750002BD147F6F070044027D005EBC5000BEBDA
:104760008005D5F860122209304607F0F3FFD5F82E
:104770006002D5F8681200EB1410C5F8600201EB76
:104780001410C5F8680210E00BF29C413046082274
:1047900007F0E0FF05EBC5000BEB8000D0F86812D6
:1047A000C4F30A121144C0F86812DBF800008169F2
:1047B00041F010018161DBF80000CDE9017607F0DE
:1047C000C5FF00035ED5DBF8000007F09DFF002861
:1047D00058D0064602984FF0000900F5306440F2C8
:1047E0005725002717E000BF0220A0605FEA8A601B
:1047F00044BF2020A0605FEA8A4044BF4FF40050CD
:10480000A0600137B9EB560F4FEA560604F12004B9
:1048100005F1240536D0F007F3D0DBF800005FFA8D
:1048200087F8414607F08AFF8246C00705D001207D
:10483000A0605846394604F009FC5FEA0A7005D5C5
:104840000820A0605846394604F0DAFB5FEACA60E7
:1048500044BF1020A0605FEA8A70C7D50298406903
:10486000000604D50199486840F4806048601BF850
:1048700005000128B8D1584641460BF8059000F0D4
:104880000DFAB1E7DBF8000007F060FF400372D5D6
:10489000DBF8000007F030FF00286CD006460BF272
:1048A0009C40009002980BF1170800F510644FF03F
:1048B000000900270AE000BF0137B9EB560F4FEAA5
:1048C000560604F1200408F1240854D0F007F3D070
:1048D000DBF800005FFA87FA514607F01DFF054636
:1048E000C00723D0019A07F00F00516B012303FA90
:1048F00000F021EA00005063A3609BF80600012845
:1049000010D1D8F80500D8F809100844C8F80900F3
:1049100047B9D8F80D0028B9DBF80000009A01214A
:1049200007F0DCFC58465146FFF79AFD280744BFC4
:104930000820A060E80644BF1020A060680644BFBD
:104940004020A060A8070FD50298394607F09EFEC8
:1049500098F80000012805D15846514688F8009083
:1049600000F096F90220A0602806A5D558463946E1
:1049700004F0D8FBA0E7DBF8000007F0E7FEDDE974
:104980000198B0F1FF3F1ADCD9F8040020F00100D3
:10499000C9F804009BF8CC04012807D100208BF84B
:1049A000CC0458460021FFF727FD02E0584600F0EE
:1049B00057FADBF80000416901F000414161DBF882
:1049C000000007F0C3FE00050CD5D9F80800C007A9
:1049D00002D0584600F08EFADBF80000416901F47D
:1049E00000614161DBF8000007F0B0FEC00460D553
:1049F000D9F80400102120F00100C9F80400DBF808
:104A0000000007F043FE9BF80400F8B19BF8041087
:104A100008F5106000224FF67F3300BF83600768FF
:104A2000013227F400170760C0F80832D0F800728E
:104A30008A4227F40017C0F80072D0F8007247F0DD
:104A40000067C0F8007200F12000E7D3D9F81C001D
:104A500040F00110C9F81C009BF80F0040B1D9F8D4
:104A6000840040F00B00C9F8840009F1440008E01C
:104A7000D9F8140042F22B010843C9F8140009F1D7
:104A8000100001680BF29C4241F00B010160D9F863
:104A9000000020F4FE60C9F80000DBF800009BF87D
:104AA000061007F01BFCDBF80000416901F480519F
:104AB0004161DBF8000007F049FE80041CD5DBF8FB
:104AC000000007F06BFADBF8000007F003FEDBF8EC
:104AD00000408BF8070000F0F7FA9BF8072001462A
:104AE000204607F0B1FE584600F0A8F9DBF80000B8
:104AF000416901F400514161DBF8000007F026FE36
:104B0000000708D5584600F0B1F9DBF8000041690C
:104B100001F008014161DBF8000007F017FE000614
:104B20001ED5D8F8180020F08000C8F818009BF8AF
:104B30000400022814D3012440F27B2507E000BFC3
:104B40009BF804000134844205F1240508D21BF8C7
:104B500005000128F4D1E1B25846FFF7A1FCEFE7C8
:104B6000DBF8000007F0F2FDC00229D59BF8040035
:104B700002281FD308F512640BF13C05012601271A
:104B800008E000BF9BF8040001372034874205F19C
:104B900024050FD22068B0F1FF3FF3DC287801280C
:104BA000F0D147F08000C1B2584605F8016CFFF71C
:104BB00077FCE7E7DBF80000416901F4801141610F
:104BC000DBF8000007F0C2FD80023AD59BF8040034
:104BD000022830D308F532600BF51F710122012342
:104BE00008E000BF9BF8047001332030BB4201F1A4
:104BF000240120D20768B7F1FF3FF3DC0E78012EC5
:104C0000F0D1DBF8D46407F4803706F00106B74230
:104C1000E8D101F8012CD8F8187047F08007C8F8DF
:104C20001870D8F814703F06DCD4D9F8040040F4AA
:104C30000070C9F80400DBF80000416901F40011BC
:104C40004161DBF8000007F081FD400008D55846BF
:104C5000FFF700FCDBF80000416901F08041416191
:104C6000DBF8000007F072FD40077FF540ADDBF890
:104C700000004468600702D55846FFF70BFCDBF8DC
:104C8000000041682143416003B0BDE8F08F00009F
:104C900080B5D0F8E00406F035FE80BD80B5D0F8D0
:104CA000E00406F043FE80BDB0B582B008B3044610
:104CB000056890F8950428B9002084F894042046EB
:104CC00000F078F80320B5F1A04F84F8950404BFF4
:104CD0000020A071206807F0F9FA94E80F00257C05
:104CE000009507F06BF930B1022084F89504012596
:104CF0005CE001255AE02068002107F057FD20B153
:104D0000022084F89504012550E094F804C0BCF119
:104D1000000F1DD094F804C04FF0010E6046BCF1A6
:104D2000010F98BF704600EBC000820000230025F1
:104D3000002000BF611924350875C885AA4200F11A
:104D4000010081F815E00B76C1E907334B62F1D120
:104D5000BCF1000F16D00CEBCC008000002100222B
:104D6000002300BFA518243285F85432904203F185
:104D7000010385F8551285F85812C5E99711C5F851
:104D80006412EFD194E80F00257C009507F0EAF952
:104D900020B1022084F89504012507E000250120B8
:104DA000657484F89504206807F0CCF9284602B0B1
:104DB000B0BD0000B0B586B000680024B0F1A04FCF
:104DC0000594CDE903440294019401D006B0B0BD2E
:104DD00043F630050094C4F20205286801A940F0AA
:104DE00001002860286800F00100009000984FF44E
:104DF000C05001900220CDE90204032004900A2053
:104E000005900020C4F20200FFF760F968680521F0
:104E100040F08000686000946869002240F480409F
:104E20006861686900F48040009000984320FFF7B3
:104E3000CFFA4320FFF7C8FA06B0B0BD10B5C1796C
:104E4000044621B1022918BFFDF794FD0121D4F8D1
:104E5000E00406F0DDFDD4F8E00406F08FFD10BD9F
:104E600080B5D0F8E00406F0BBFD80BD80B5D0F879
:104E7000E00406F0BFFD80BD10B5044690F8940430
:104E8000012804BF022010BD012084F8940461743D
:104E9000206807F0BFFC002084F8940410BD0000D7
:104EA00080B5D0F8E02400F29C41104606F0BCFD2D
:104EB00080BD000010B5044690F89404012804BF9A
:104EC000022010BD2068012184F89414C1684906AD
:104ED00006D5617B012903D1816B41F48031816367
:104EE00007F0A8FB206807F01DF9002084F894045F
:104EF00010BD000010B50446D0F8E00406F0D0FD67
:104F00002068D0F8001E41F00101C0F8001EE07AD0
:104F1000002808BF10BD4EF61050CEF20000016808
:104F200041F00601016010BD2DE9F041002800F0BC
:104F30008B8043F60808C4F202080446D8F8F80348
:104F40000D4600F00700884207D288F8F853D8F8D9
:104F5000F80300F00700A84276D12068810717D532
:104F6000410705D5D8F8001041F4E051C8F8001009
:104F7000010705D5D8F8001041F46041C8F80010C9
:104F8000D8F80010A26821F0F0011143C8F8001011
:104F9000C0073FD1D8F8F80300F00700A84207D9AE
:104FA00088F8F853D8F8F80300F00700A8424BD16E
:104FB0002068410707D5D8F80010E26821F4E051D5
:104FC0001143C8F80010000708D5D8F8000021697F
:104FD00020F4604040EAC100C8F8000000F09EF8EC
:104FE000D8F8001040F6B012C1F30311C0F6010268
:104FF000515C40F2185220FA01F140F2F450C2F232
:1050000000000068C2F200021160FFF763F900209F
:10501000BDE8F0816068811E022907D258F8081C9B
:1050200089015CBF0120BDE8F08110E0012807D1B3
:1050300058F8081C89035CBF0120BDE8F08106E038
:1050400058F8081C890702D40120BDE8F081D8F87F
:10505000001021F003010843C8F80000FFF70AF927
:10506000064641F2883700BFD8F80000616800F0BA
:105070000C00B0EB810F8DD0FFF7FCF8801BB8421D
:10508000F2D90320BDE8F0810F22026043F6080246
:10509000C4F20202136803F003034360136803F0D1
:1050A000F0038360136803F4E053C360D2F800C0D8
:1050B0004FF4E05303EADC030361D2F8F80300F095
:1050C000070008607047000040F21850C2F200006C
:1050D0000068704780B5FFF7F7FF43F60801C4F298
:1050E0000201096840F6C012C1F38221C0F6010234
:1050F000515CC84080BD000080B5FFF7E5FF43F676
:105100000801C4F20201096840F6C012C1F342313D
:10511000C0F60102515CC84080BD000010B543F6E6
:105120000404C4F20204606800F00C0008280AD0ED
:10513000042819BF42F20040C0F2F40041F60030EA
:10514000C0F2B70010BD206821682368490241F60B
:105150000031C0F2B70100F03F02C3F388105CBF1A
:1051600042F20041C0F2F401A1FB00010023FBF771
:105170007BFD21680222C1F3014102EB4101B0FB3A
:10518000F1F010BD2DE9F04182B0002800F0A280BE
:105190000446007843F60006C007C4F2020643D076
:1051A000B06800F00C00042805D1306880033BD5BE
:1051B0006068C8BB8EE0B06800F00C00082802D11F
:1051C00070684002F1D46568B5F5A02F0AD0B5F536
:1051D000803F0BD0306820F480303060306820F49D
:1051E000802006E0306840F480203060306840F471
:1051F00080303060FFF73EF8002D054611D000BF2B
:105200003068800310D4FFF735F8401B6428F7D9C5
:1052100022E100BFFFF72EF8401B64284FF0030087
:1052200055D830688003F5D4207880071AD5B06847
:1052300010F00C0F09D0B06800F00C00082840F006
:105240008A807068400200F186803068800702D54D
:10525000E06801283ED13068216920F0F80040EA7A
:10526000C10030602078000738D4207840074CD443
:10527000A5695DB3B06800F00C00082840F09E807E
:10528000012D27D07068E16900F480028A4221D1A3
:10529000216A00F03F028A421CD147F6C071626A5F
:1052A0000140B1EB821F15D1A26A0023CFF6FF7334
:1052B00003EBC23200F440316FF30F02914209D187
:1052C000E16A00F07060B0EB016F03D1002002B022
:1052D000BDE8F081012002B0BDE8F08160690028DE
:1052E00040F20000C4F2472057D00121C0F8801ED0
:1052F000FEF7C0FF054600BF706F8007B5D4FEF70C
:10530000B9FF401B0228F7D9A6E0306C10F0805896
:105310000AD100200190306C40F080503064306C35
:1053200000F080500190019847F20007C4F2000796
:105330003868C00524D4386840F480703860FEF7BF
:1053400099FF05463868C0051AD4FEF793FF401B45
:105350000228F7D980E0E068002851D00020C4F28C
:10536000472001210160FEF785FF05463068800770
:105370003FF571AFFEF77EFF401B0228F6D96BE0C8
:10538000A568052D50D0012D52D0306F20F00100BE
:105390003067306F20F004004DE00021C0F8801E1F
:1053A000FEF768FF054600BF706F80077FF55DAFB1
:1053B000FEF760FF401B0228F6D94DE00027C4F23B
:1053C000472700203866FEF755FF022D05460BD112
:1053D0003068800158D5FEF74DFF401B02284FF082
:1053E0000300F5D973E700BF306880017FF56EAF29
:1053F000FEF740FF401B02284FF00300F4D966E798
:105400000020C4F2472000210160FEF733FF05466B
:10541000306880077FF526AFFEF72CFF401B02287F
:105420004FF00300F4D952E7306F40F004003067CA
:10543000306F40F001003067FEF71CFF002D05467D
:1054400041F2883714D000BF306F800713D4FEF7C5
:1054500011FF401BB842F7D9032002B0BDE8F0812C
:10546000FEF708FF401BB8424FF003003FF62FAF96
:10547000306F8007F4D4B8F1000F7FF4F9AE306CD0
:1054800020F080503064F3E604F11C052FCD084372
:105490000021CFF6FF7140EA821001EBC3316FF3B8
:1054A0000F0140EA05600843706001203866FEF78E
:1054B000E1FE0446306880013FF508AFFEF7DAFEF2
:1054C000001B02284FF00300F4D900E770470000EA
:1054D00010B50446006841688A0615D44A0615D4FA
:1054E000C90710D0016821F0080101608168E160FE
:1054F0006079042808BF10BD012060710020207170
:10550000204600F04DF810BD102000E00820A060FB
:10551000042060712046FFF7D9FF20686FF060011A
:10552000416010BD002804BF0120704710B504463B
:10553000407920B900202071204600F00DF80220AB
:1055400060712068016841F0040101600120607110
:105550000020A06010BD000080B582B0006840F659
:105560000001C5F20601884201D002B080BD0020D2
:10557000019043F63400C4F202000168002241F0B9
:10558000400101600068052100F040000190019891
:105590005020FEF71DFF5020FEF716FF02B080BD21
:1055A0007047000070B538B10446406A30B1002041
:1055B000206104F1140007E0012070BD6068B0F5BF
:1055C000827F03D004F11C00002101600026A66246
:1055D00094F8510020B9204684F8506000F03CF85F
:1055E000022084F8510094E80F0001F482710568EC
:1055F00002F4044225F040050560114403F4006202
:105600002369114403F002026369114403F00102AB
:10561000A369E569114403F40072114405F03802EE
:10562000256A114405F08002A56A114305F4005271
:1056300011430160626A042101EA134102F0100281
:1056400011444160C16921F40061C16101206665B6
:1056500084F85100304670BD2DE9F04F87B0044604
:1056600043F200070068C4F201070026B84206961C
:10567000CDE904660396029602D007B0BDE8F08F2C
:1056800043F630000196C4F20200416902AD41F4D4
:105690008051416141694FF0020901F4805101914B
:1056A0000199019601684FF0010A41F00201016081
:1056B00001684FF0030B01F002010191019901967D
:1056C00001684FF0050841F00101016000682946BA
:1056D00000F00100019001981820029007F5544055
:1056E000CDF80C90CDF810A0CDF814B0CDF81880FE
:1056F000FEF7ECFC802002A981E8010ECDF81880AD
:1057000046F2404807F550402946C4F20208FEF729
:10571000DDFC42F6E845C2F200054FF440304FF0A0
:10572000C0674FF48069C5E908062846C5E90087C7
:10573000C5E90266C5E90496C5E90666FEF708FCF8
:10574000002818BFFDF716F9E564AC6342F648552A
:1057500008F11800C2F200054021C5E9000705F173
:105760000800002280E806024FF40030C5E9080274
:105770002846C5E90522EA61FEF7EAFB002818BFC2
:10578000FDF7F8F8A564AC6307B0BDE8F08F000042
:105790002DE9F04381B01E4615460F460446FEF73C
:1057A00069FD94F851108146012909D06068B0F56F
:1057B000827F14D104294FF0020007D1A16829B9D2
:1057C000002F4FF0010018BF002D02D101B0BDE83D
:1057D000F083002EFAD094F85000012803D1022063
:1057E00001B0BDE8F083012084F8500094F8510026
:1057F000002104281CBF052084F851006165A563C1
:10580000E687A6872763E6862068A686216461640A
:105810000168490603D4016841F0400101606168F4
:10582000731EE268B1FA81F1B3FA83F3DDF82080E8
:1058300049095B09B2F5006F41EA030139D139B179
:10584000216B0988C160B81C2063E08E0138E086B6
:10585000012608F1010500BFE08E10B9E08F002895
:105860006CD02068816889070CD5E18E012E09D1A2
:1058700041B1216B002631F8022BC2602163E18E19
:105880000139E1868168C9070AD0E18F41B1C0685A
:10589000A16B012621F8020BA163E08F0138E0879C
:1058A000FEF7E8FC002DD7D0A0EB09004045D3D38C
:1058B0003AE039B139780173206B01302063E08E12
:1058C0000138E086012608F1010500BFE08E08B925
:1058D000E08F98B32068816889070DD5E18E012E8D
:1058E0000AD149B1216B002609780173206B013080
:1058F0002063E08E0138E08620688168C9070BD0FC
:10590000E18F49B1C068A16B01260870A06B01301E
:10591000A063E08F0138E087FEF7ACFC002DD5D006
:10592000A0EB09004045D1D3012084F851000020AC
:1059300084F85000032001B0BDE8F08320464146C2
:105940004A4604F077F840B120206065002084F8D2
:105950005000012001B0BDE8F083A06838B90020F4
:1059600000902068C1680091806800900098012034
:1059700084F85100002084F85000606D002818BFA2
:10598000012001B0BDE8F0837047000070470000BF
:1059900010B590F83C20012A4FF0020252D00123AA
:1059A00080F83C3080F83D200268D2F804E0D2F85C
:1059B00008C00C682EF07003234341F2FF74C4F258
:1059C0000004A24253600DDC40F2FF73C4F20003F6
:1059D0009A4215DCB2F1804F29D040F20043C4F264
:1059E000000322E040F2FF33C4F201039A4212DCCA
:1059F00041F60003C4F200039A4218D0002312E0DB
:105A000040F60003C4F200039A4210D040F600436F
:105A1000C4F2000309E044F20003C4F201039A4215
:105A200005D040F20043C4F201039A4204D1496810
:105A30002CF08003194391600121002280F83D1071
:105A400080F83C20104610BD002804BF012070479C
:105A500010B5044690F83D0028B9002084F83C00B9
:105A6000204600F01FF8022084F83D002068211D28
:105A700004F0E4FC012084F8460084F83E0084F839
:105A80003F0084F8400084F8410084F8420084F824
:105A9000430084F8440084F8450084F83D00002069
:105AA00010BD000080B582B0006844F20041C4F22D
:105AB000010188421ED040F20041C4F20001884238
:105AC00027D10020019043F64000C4F20200016893
:105AD000002241F0020101600068052100F002008F
