:020000040800F2
:10000000882A0120A1010008399200080D6E00081D
:100010009D8F00084116000839CF0008000000003D
:1000200000000000000000000000000051A00008D7
:100030007928000800000000119B0008C5A80008EE
:10004000BB010008BB010008BB010008BB010008A0
:10005000BB010008BB010008BB010008BB01000890
:10006000BB010008D9280008E5280008BB010008EA
:1000700041250008BB010008BB010008BB010008C6
:10008000BB010008BB010008BB010008BB01000860
:1000900045160008BB010008BB010008F128000854
:1000A000BB010008BB010008BB010008BB01000840
:1000B00099A90008A9A90008BB010008BB01000814
:1000C000BB010008BB010008BB010008BB01000820
:1000D000BB01000859B20008BB01000869B2000862
:1000E000BB010008BB010008BB010008BB01000800
:1000F000BB010008BB010008BB010008BB010008F0
:10010000BB010008BB010008BB010008BB010008DF
:10011000BB010008BB010008BB010008BB010008CF
:10012000BB01000851250008BB010008BB01000805
:10013000BB010008BB010008BB010008BB010008AF
:10014000BB01000855160008BB0100088D9400088B
:1001500061250008BB0100087125000829B30008CB
:10016000BB010008BB010008BB010008BB0100087F
:10017000BB010008BB010008BB0100080000000033
:10018000E96C0008BB010008DFF810D001F094F81A
:1001900000F0CCFD0048004765DE0008882A0120F9
:1001A0000648804706480047FEE7FEE7FEE7FEE711
:1001B000FEE7FEE7FEE7FEE7FEE7FEE785A90008AB
:1001C000890100089FED1A1AF5EE000A40EE010AB7
:1001D000BDEEE00AF5EEC00A10EE100AF1EE10FADC
:1001E00038BF401E00EE100A1349F7EE001AB8EEB1
:1001F000C00A30EEC00ADFED0F0A20EE200AFCEE46
:10020000C00A10EE900AC0F3080000EE900A01EB5D
:100210008000F8EE600A90ED011A70EE600A90ED31
:10022000000A71EEE01A21EE800A00EE810A7047A2
:1002300083F9223E0000004404100108B5EEC00A14
:10024000F1EE10FA07D2DFED1E0AB4EEE00AF1EE8D
:1002500010FAA8BF7047DFED1B0AB5EEC00A60EECA
:10026000200ABDEEE01A11EE100AF1EE10FA38BFC6
:10027000401E00EE100A1549F7EE001AB8EEC00A4B
:1002800030EEC00ADFED100A60EE200ABCEEE00A94
:1002900010EE100AC0F3080000EE100A01EB800017
:1002A000B8EE400A90ED011A70EEC00A90ED000A17
:1002B00071EEE01A21EE800A00EE810A704700001C
:1002C000CD024CB483F9223E000000440410010822
:1002D00070B405880E884468D1F804C05368B542EC
:1002E00008D140884988884201BF11888D425188D1
:1002F000884203D070BC6FF00200704705FB00F12C
:10030000880827D094ED001ADCED000A94ED010A6C
:10031000DCED011A31EE201AD4ED020A70EE211A3A
:100320009CED020A83ED001AC3ED011A94ED031A45
:10033000DCED031A30EE800A401E71EE210A83EDD7
:10034000020A04F11004C3ED030A03F110030CF1D7
:10035000100CD7D111F0030030D0B0F1004F30D2E3
:1003600000282BDD211F1B1FACF1040210F0010F30
:100370000AD091ED010AD2ED010A091D121D30EEDD
:10038000200A83ED010A1B1D400817D091ED010AD8
:10039000D2ED010A401E30EE200A83ED010A91EDF4
:1003A000020AD2ED020A01F1080102F1080230EE60
:1003B000200A83ED020A03F10803E7D170BC002094
:1003C0007047B4EC010A401EFCEC010A30EE200A32
:1003D000A3EC010AF5D1F1E7018042804360704748
:1003E0002DE9F34F84B0049840680090486801906C
:1003F0000498B0F800E04588DFEDFE0A0020029086
:10040000B0EE600AAE4506D108884988884204BF2C
:100410007146864504D06FF0020006B0BDE8F08F4B
:1004200001985FEA010C18BFB7EE001A3DD000BF7B
:10043000BEEB0C0117D0B1F1004F80F01F820029F4
:1004400011DD021F11F0010F1CBFC2ED010A121DC8
:100450004B1006D0C2ED010AC2ED020A08325B1E43
:10046000F8D100EB8100BCF10102A0EC011A19D017
:10047000B2F1004F80F00882002A13DD031F12F052
:10048000010F1CBFC3ED010A1B1D511008D000BF96
:10049000C3ED010AC3ED020A491E03F10803F7D1B7
:1004A00000EB8200BCF1010CC2D14FF000080395B3
:1004B000002D14BFB0EE602A002000F0BF8100BF05
:1004C000009908FB05F001EB800B0199DBED002A98
:1004D00001EB80000346F0EE421AC64552D9AEEB5E
:1004E0000802ABEB850112F0010F17D001EB85017B
:1004F00091ED000AB5EEC00AF1EE10FA07DDB4EE98
:10050000E10AF1EE10FA09DDF0EE401A06E0B1EE74
:10051000400AF4EEC01AF1EE10FAF5D3521031D0C1
:1005200001EB850C9CED000AB5EEC00AF1EE10FA65
:1005300005DDB4EEE10AF1EE10FA09DD06E0B1EEF8
:10054000400AF4EEC01AF1EE10FA01D2F0EE401AB1
:1005500001EBC50191ED000AB5EEC00AF1EE10FA0B
:1005600005DDB4EEE10AF1EE10FA09DD06E0B1EEC8
:10057000400AF4EEC01AF1EE10FA01D2F0EE401A81
:10058000521ECDD1F5EEC01AF1EE10FA00F07381D3
:10059000F5EEC02A0126F1EE10FA0099D4BFB1EEB3
:1005A000620AB0EE620AB4EE610AF1EE10FA1CBF04
:1005B000AEEB0802B2F1010C47D005FB08F201EBEB
:1005C000820292ED001A00BFB0EE410A05FB06F46C
:1005D000B5EEC00A00EB8404F1EE10FACCBFF0EEE9
:1005E000400AF1EE400AF4EE610AF1EE10FA28D169
:1005F000B5EB080C11D0BCF1004F7DD2BCF1000F5F
:100600000BDD00BF92ED000AD1ED000ABCF1010C38
:10061000E2EC010AA1EC010AF4D129000ED0B1F1FB
:10062000004F6AD2002909DD94ED000AD0ED000ADE
:10063000491EE4EC010AA0EC010AF5D10120029068
:100640000BE0761CBCF1010CBED10298012804D04D
:10065000F5EEC02AF1EE10FA7ED09BED000AB5EB64
:1006600008009A465946064622D0B0F1004F74D28F
:1006700000281DDD091F10F0010F06D0F0EE400A22
:1006800080EEA01A81ED011A091D401010D000BFA4
:10069000D1ED010A401E80EE801A81ED011A91ED24
:1006A000021AC1EE000AC1ED020A01F10801EFD100
:1006B000280026D0B0F1004F7ED2002821DDAAF11B
:1006C000040110F0010F06D0D1ED010A80EE801A6E
:1006D00081ED011A091D401013D000BFD1ED010AB0
:1006E000401E80EE801A81ED011AD1ED020A80EEE3
:1006F000801A81ED021A01E0CBE0D6E001F1080199
:10070000ECD1DDE900124FF000095FEA0E0773D06B
:10071000C14504BF01EB860102EB850274D091ED67
:10072000000ADC465046331E35D01C46B6F1004F59
:100730007ED2002C2FDD0B1FABF1040C16F0010F45
:100740000FD0F0EE400ADCED011AB0EE601A00EEB8
:10075000E11A83ED011A01E08DE0B1E01B1D0CF1FF
:10076000040C741015D000BFD3ED010A9CED011AE2
:1007700040EE410AC3ED010AD3ED020A9CED021AD4
:100780000CF1080C40EE410AC3ED020A0833641E66
:10079000EAD101EB86012B0036D0B3F1004F72D2C3
:1007A000002B31DDA2F1040CAAF1040013F0010FBB
:1007B0000CD0DCED010A00E08BE090ED011A001D89
:1007C00040EE410ACCED010A0CF1040C5C1019D08A
:1007D000DCED010A90ED011A40EE410ACCED010A70
:1007E000DCED020A90ED021A083040EE410ACCED31
:1007F000020A03E0000000000DE005E0641E0CF1B9
:10080000080CE5D102EB830201EB88017F1E09F1A0
:1008100001097FF47DAF009808F10108001D0090E8
:100820000398401E03907FF44BAE0299012900E02B
:1008300058E004BF06B0BDE8F08F00BFB5EEC00AB7
:10084000F1EE10FA7FF4E9AD04990EFB05F3002BED
:100850004A684FF000010BD902EB810C9CED000AB5
:10086000B5EEC00AF1EE10FA02D1491C8B42F3D862
:100870008B427FF4D2AD6FF00400CEE5E0EC010ACC
:10088000491EFBD1EFE538E0E0EC010A521EFBD136
:1008900008E692ED000AD1ED000ABCF1010CE2EC91
:1008A000010AA1EC010AF4D1B7E694ED000AD0EDFB
:1008B000000A491EE4EC010AA0EC010AF5D1BDE6EC
:1008C000D1ED000A401E80EE801AA1EC011AF7D18A
:1008D000EEE6D3ED000A401E80EE801AA3EC011A6A
:1008E000F7D10EE7BCEC011AD1ED000A5B1E40EE19
:1008F000410AE1EC010AF5D14DE7B0EC011AD2ED65
:10090000000A5B1E40EE410AE2EC010AF5D17BE7EA
:100910002DE9F04F82B046685368019305884788F7
:100920004B88002000900888874201BFB2F800C0C1
:100930006545528893421EBF6FF0020002B0BDE8C9
:10094000F08F9FED412A4FEA970EC7F3400B00BF8F
:10095000DDE9000202EB800A4A6898464FF0000980
:10096000B0EE420AB4465FEA0E0025D092ED001ABE
:10097000DCED001A02EB8302DCED010A01EE810AD4
:1009800092ED001A02EB8302401ED2ED001A02EB38
:10099000830200EE810A9CED021ADCED030A0004DA
:1009A0000CF1100C000C01EE210A92ED001A02EB82
:1009B000830200EE810AD9D117F0030026D0ACF1F2
:1009C0000404A2EB830210F0010F08D002EB8302B3
:1009D000D4ED010A92ED001A241D00EE810A5FEAAF
:1009E0000B0013D002EB830CD4ED010A9CED001A2E
:1009F00002EBC302401E00EE810AD4ED020A92ED22
:100A0000001A04F1080400EE810AEBD109F101009B
:100A1000AAEC010A1FFA80F9486800EB8902A8F1E4
:100A200001001FFA80F8B8F1000F99D1009806EB89
:100A30008706184480B20090681E05042D0C87D1EB
:100A400002B00020BDE8F08F0000000070B40588FF
:100A50000E884468D1F804C05368B54208D1408874
:100A60004988884201BF11888D425188884203D04D
:100A700070BC6FF00200704705FB00F1880827D0BA
:100A800094ED001ADCED000A94ED010ADCED011A88
:100A900031EE601AD4ED020A70EE611A9CED020A82
:100AA00083ED001AC3ED011A94ED031ADCED031A6D
:100AB00030EEC00A401E71EE610A83ED020A04F1B5
:100AC0001004C3ED030A03F110030CF1100CD7D18D
:100AD00011F0030030D0B0F1004F30D200282BDDF0
:100AE000211F1B1FACF1040210F0010F0AD091ED81
:100AF000010AD2ED010A091D121D30EE600A83EDD4
:100B0000010A1B1D400817D091ED010AD2ED010A20
:100B1000401E30EE600A83ED010A91ED020AD2ED2B
:100B2000020A01F1080102F1080230EE600A83EDC9
:100B3000020A03F10803E7D170BC00207047B4EC4F
:100B4000010A401EFCEC010A30EE600AA3EC010A27
:100B5000F5D1F1E72DE9F04F02884768B0F802803F
:100B60004888D1F8049082B04FF0000A16468242BD
:100B700007BF098888456FF0020002B018BFBDE8C2
:100B8000F08F4FEA980B02EB42000190C8F340004F
:100B9000CDF8000009EB8A01BBF1000F33D00198BA
:100BA00001EB820C01EB80043B46E64601EBC205FB
:100BB0004FEA0B0093ED000A401E81ED000A93ED11
:100BC000010A01EB02118CED000A93ED020A0CEB15
:100BD000021C85ED000A93ED030A05EB021584ED76
:100BE000000A04EB021403F11003E3D10EEB8200C0
:100BF00000EB820000EB8201ABF10100504307EBF8
:100C00000B1701EB001118F0030C21D03B1FA1EBD7
:100C100082011CF0010F06D093ED010A01EB820165
:100C20001B1D81ED000A009880B100BF93ED010A01
:100C300001EB820401EBC20184ED000A93ED020A8C
:100C4000401E81ED000A03F10803EFD107EB8C078A
:100C50000AF101001FFA80FA701E0604360C99D1C1
:100C600002B00020BDE8F08F2DE9F05F05460020BE
:100C700092469B4688460646814640241BE028460D
:100C800041464746224600F061FA53465A46C01A8A
:100C9000914110D311461846224600F048FA2D1A09
:100CA00067EB01084F4622460120002100F03FFA81
:100CB00017EB00094E41201EA4F10104DFDC484679
:100CC00031462A464346BDE8F09F40EA01039B07B0
:100CD00003D009E008C9121F08C0042AFAD203E0B1
:100CE00011F8013B00F8013B521EF9D27047D2B215
:100CF00001E000F8012B491EFBD270470022F6E705
:100D000010B513460A4604461946FFF7F0FF204681
:100D100010BD30B504460020034600E05B1C934242
:100D200003D2E05CCD5C401BF8D030BD70B5054C03
:100D3000054D04E02046016808448047241DAC426C
:100D4000F8D170BD881D01088C1D01082DE9FE4FEA
:100D5000804681EA0300C00F0C46009021F000415C
:100D600023F00045B8EB0200A94105D240462146D8
:100D700090461C460B46024623F00040104347D0E5
:100D8000270DC7F30A00C3F30A510290401A0190DD
:100D900040286BDAC3F3130040F4801B009892469E
:100DA00020B10023D2EB030A63EB0B0B01985946E9
:100DB000C0F14002504600F0BAF906460D465046D2
:100DC0005946019A00F0D2F910EB08006141002465
:100DD00087EA115284EAE7731A4340D0009A62B35B
:100DE000019A012A4FEA075215DC001B61EB020150
:100DF0004FF0004202EA0752CDE90042001C41F5E3
:100E0000801132462B4600F009FA03B0BDE8F08F9E
:100E100040462146F9E7001B61EB0201001C41F549
:100E2000801300185B412018A2F5001747EB03015F
:100E300040EAD570B6196D4111E06D084FEA3606EB
:100E400045EAC0754FEA0752001B61EB0201001C26
:100E500041F5801149084FEA3000001951413246EE
:100E60002B4603B0BDE8F04F00F0C9B9009801224D
:100E700040000023D0EB020263EBE07300982146B0
:100E80004FEAE074B8EB000061EB0401E9E783F09E
:100E900000435BE781F0004158E72DE9FE4F81EA0E
:100EA000030404F0004421F0004100944FF0000BD3
:100EB00023F0004350EA01045ED052EA03045BD001
:100EC000C3F30A54C1F30A552C44A4F2F334019439
:100ED000A0FB0254C1F3130141F48011C3F31303C7
:100EE00043F4801301FB024400FB034E840A970A7B
:100EF00044EA815447EA8357A4FB076802958D0AA8
:100F000005FB07854FEA932C04FB0C542705029D33
:100F10004FEA065847EA1637B5EB08056EEB070CA3
:100F2000870E920E47EA811742EA8312A7FB02015D
:100F3000B6EB0B0164EB00042B0D43EA0C335E1897
:100F400044EB1C50DA465146E7FB0201C5F313049B
:100F50004FEA0B3343EA14534FEA0432019C43EA4D
:100F60000603A4F10C040294009CCDE900B400F047
:100F700055F903B0BDE8F08F00200146F9E72DE9EF
:100F8000F04D81EA030404F0004B21F000451446C3
:100F90004FF0000A23F0004150EA050220D054EA45
:100FA00001021DD0C5F30A570246C5F31303C1F36E
:100FB0001300C1F30A5640F4801543F48013A7EBE5
:100FC0000608101BD64608F2FD3873EB050002D365
:100FD00008F1010801E092185B41B8F1000F03DA53
:100FE00000200146BDE8F08D00204FF48011064638
:100FF00084460EE0171B73EB050705D3121B63EB4A
:10100000050306434CEA010C49084FEA30009218E8
:101010005B4150EA0107EDD152EA030012D082EAA7
:10102000040083EA0501084305D0101BAB4106D23A
:101030000122002306E000224FF0004302E06FF09F
:10104000010253101AEB06004CEB085110EB0A009A
:1010500041EB0B01BDE8F04D00F0D1B830B40446CF
:1010600096230800214604D0B62330BC002200F0AD
:1010700098B820460021F8E70EB540F233410291BE
:101080000021CDE900110A460B4600F0C7F803B075
:1010900000BD70B5C1F30A5201F000450024C1F350
:1010A000130140F2FF3341F480119A4201DA00202B
:1010B00070BD40F233439A42A2F2334203DC524203
:1010C00000F044F800E090402C43F1D0404270BD65
:1010D00000F0004230F000400AD0C10D01F560710F
:1010E000C0F3160042EA0151C2084007114370479D
:1010F00000200146704701F0004330B421F0004168
:1011000050EA010206D00A0DA2F56072C1F3130184
:10111000002A02DC30BC00207047440F44EAC104BE
:10112000C100E01830BC00EBC25000F031B8202AFA
:1011300004DB203A00FA02F1002070479140C2F12E
:10114000200320FA03F3194390407047202A04DB60
:10115000203A21FA02F00021704721FA02F3D04030
:10116000C2F120029140084319467047202A06DB4D
:10117000CB17203A41FA02F043EAE07306E041FA65
:1011800002F3D040C2F12002914008431946704753
:101190000029A8BF7047401C490008BF20F001008B
:1011A000704710B4B0FA80FC00FA0CF050EA010469
:1011B00004BF10BC704749B1CCF1200421FA04F4FB
:1011C00011FA0CF118BF012121430843A3EB0C01D4
:1011D000CB1D4FEA00614FEA102042BF002010BC37
:1011E000704700EBC35010440029A4BF10BC7047E7
:1011F000401C490008BF20F0010010BC704710B52A
:10120000141E73F1000408DA401C41F10001921829
:101210005B411A4301D120F0010010BD2DE9F04DD2
:1012200092469B4611B1B1FA81F202E0B0FA80F227
:1012300020329046FFF77BFF04460F4640EA0A0043
:1012400041EA0B0153465A46084313D0114653EA6C
:10125000010019D0C8F140025046FFF777FF05465C
:101260000E46504659464246FFF761FF084305D0F7
:10127000012004E020463946BDE8F08D00200543FA
:1012800046EAE0762C4337430A986305E40AA0EB6C
:1012900008000022FD0A44EA47540A3002D5002023
:1012A0000146E9E7010510196941DDE90845001922
:1012B0006941BDE8F04DA2E7064C074D06E0E06845
:1012C00040F0010394E8070098471034AC42F6D38D
:1012D000FEF75EFF681D0108881D01080EB5C10FED
:1012E00080EAE0700844CA07002140F233438DE8E9
:1012F0000E000A460B46FFF791FF03B000BD70B524
:101300008C1810F8015B15F0070301D110F8013BB0
:101310002A1106D110F8012B03E010F8016B01F837
:10132000016B5B1EF9D12B0705D40023521E0DD48F
:1013300001F8013BFAE710F8013BCB1A921C03E0DD
:1013400013F8015B01F8015B521EF9D5A142D8D315
:10135000002070BD70B50C4640F2D46142F6B47501
:10136000C2F20001C2F20005002608602E700CF0E7
:1013700099F92978084328700CF04AFA297840EA4C
:10138000010028701CB100F0C3F9287870BD40F24C
:101390008C6043F6AC0142F27123C2F20000C3F646
:1013A0002231C3F6807341F2B06247F2B07E49F653
:1013B0002A044CF6923CC0E908310021C3F6CE1253
:1013C000C3F64C6EC3F69354C4F21C1CC4F2202125
:1013D000C0E90A22C0E90CE4C0E90E6C81612878FA
:1013E00070BD000080B50020C4F20200102101226F
:1013F00003F050F980BD000080B50020C4F2020067
:101400001021002203F046F980BD000080B540F2B3
:101410000040C4F202000121012203F03BF980BD2B
:1014200080B540F20040C4F202000121002203F026
:1014300031F980BD70B50446FFF7DEFF922000F061
:10144000DDF840F2CC65C2F20005122029460622E2
:1014500000F0B0F8FFF7C6FFB5F9000094ED082AD8
:1014600000EE100A40F20C00C2F2000090ED001AEB
:10147000B8EEC00A21EE000A22EE000A84ED000A4E
:10148000B5F9021090ED001A00EE101AB8EEC00A7D
:1014900021EE000A22EE000A84ED010AB5F90400EB
:1014A00000EE100AB8EEC00A21EE000A22EE000A91
:1014B00084ED020AFFF7B4FF002029460822002627
:1014C00000F078F8FFF7A2FF28780F284AD1B5F985
:1014D000021040F2726000EE101A40F21001C2F2E7
:1014E0000000C2F200010078B8EEC01A91ED000AC7
:1014F00020EE011A00B394ED092AB5F90400B5F9FC
:10150000061031EE421A02EE100A94ED0A3AB8EED5
:10151000C22A84ED031A01EE101A94ED0B4A20EE54
:10152000022AB8EEC11A32EE432A20EE010A84EDF7
:10153000042A30EE440A13E0B5F90400B5F90610A8
:1015400002EE100A84ED031A01EE101AB8EEC22A58
:10155000B8EEC11A20EE022A20EE010A84ED042A18
:1015600084ED050AFFF748FFA22000F047F822208B
:101570002946022200F01EF8FFF734FF2878697828
:10158000C00040EA51104FF60001CFF6FF71B6EBF4
:10159000902F18BF084300EE100AB8EEC00AB4EE50
:1015A000001A20EE010AB3EE071A30EE010A84EDAC
:1015B000070A70BDB0B540F0800014460D4600F03B
:1015C0001DF8002C08BFB0BD013D00BF552000F044
:1015D00015F8013C210605F8010FF7D1B0BD000058
:1015E00080B540F0800000F009F8552000F006F8C2
:1015F00044F23021C2F20001087080BD80B582B093
:1016000040F2D461C2F200010B688DF807004FF47C
:101610007A7C0DF107010DF1060218460123CDF881
:1016200000C004F0CBFA9DF8060002B080BD0000B7
:1016300010B50C46FFF7E2FF2046FFF7DFFF10BDB5
:10164000FEE7000080B543F2A820C2F2000002F0DD
:101650002FFA80BD80B543F2D020C2F2000002F024
:1016600027FA80BD80B588B0029100210823CDE91A
:101670000311059106938DF81C10019102A901AB8D
:1016800002F0C8F808B080BD002070470020704705
:1016900010B542F6CC74C2F2000442F20C61C2F200
:1016A0000001204600220AF011F841F60C61C2F256
:1016B0000001204609F0FCFF002010BD10B542F6E5
:1016C000CC74C2F200040146204609F0F1FF204626
:1016D00009F0C8FF002010BD0020704710B542F689
:1016E000CC72C2F20002D2F8BC22D2F81432002B23
:1016F0001CBF012010BD42F6CC74C2F200040A46A1
:101700000146204609F0E2FF20460AF07DF810BDB0
:101710002DE9F04F81B02DED108B88B00020CDE980
:10172000060000F0F3FF40F24074C2F2000484EDC2
:10173000000A00F0EBFF94ED001AB2EE08BA30EEAA
:10174000410AB4EE4B0A40F28C66F1EE10FAC2F296
:10175000000621DD43F6AC0041F2B061C3F6223051
:10176000C3F6CE11C6E909014CF69230C4F21C1042
:10177000F0630020C4F22020F162B06196ED0F0A00
:101780009FEDAB1A81EE000A86ED080A08B0BDECA9
:10179000108B01B0BDE8F08F9FEDEDCA03AD6F4631
:1017A0009FEDEC8A42F6C0789FEDEDEADFEDED9A11
:1017B000DFEDE9AADFEDECBA9FEDE89AA5F1040AA6
:1017C000A7F1040B06ACC2F20008B6EE00DAB4EEE4
:1017D00000FAF3EE078AF0EE4CCA0EE000F096FF36
:1017E00040F24070C2F2000090ED001A30EE410A63
:1017F000B4EE4B0AF1EE10FAACDCB0EE480A00F0A1
:1018000043FF4FF00009C6F83C90C6E90999C6F8B5
:101810002C9000BFFFF7F0FD9220FFF7EFFE1220A3
:1018200021460622FFF7C6FEFFF7DCFDBDF91800D2
:10183000BDF91A1000EE100A40F20C00C2F20000CE
:1018400090ED001AB8EEC00ABDF91C2021EE002A66
:1018500000EE101AB8EEC00A21EE003A00EE102A8F
:10186000B8EEC00A21EE001A22EE020A23EE034A65
:1018700030EE040A21EE014A30EE040AB1EEC0AAAD
:1018800086ED002A86ED013A86ED021AB4EE4AAAE8
:10189000F1EE10FA80F1C78096ED0F0A3AEE000AD9
:1018A00086ED0F0AFFF7BCFD002021460822FFF756
:1018B00081FEFFF7ABFD9DF818000F2835D1BDF96B
:1018C0001A00BDF91C1000EE100A40F21000C2F21E
:1018D000000090ED001AB8EEC00A96ED092A21EE3C
:1018E000000A86ED030A32EE000A02EE101ABDF974
:1018F0001E2096ED0A3AB8EEC22A21EE022A86EDA3
:10190000042A33EE022A03EE102A96ED0B4AB8EEB3
:10191000C33A21EE031A86ED051A34EE011A86ED5C
:10192000090A86ED0A2A86ED0B1AB9F1000F2BD0B1
:10193000002000BF311891ED030A291891ED001A1B
:10194000B4EE410AF1EE10FAC8BF81ED000A391871
:1019500091ED001A0430B4EE410AF1EE10FAB8BF6E
:1019600081ED000A0C28E5D1B4EE6CAAF1EE10FA74
:10197000B4EE4CAAC8BFF0EE4ACAF1EE10FAB8BFF6
:10198000B0EE4ACA0DE000BF7169D6E90302F0EE7D
:101990004ACACDE90421CDE90002CDE90210B0EE3A
:1019A0004ACA42F6B8703CEECC0AC2F2000080EDA2
:1019B000000A6FF003005946524600BF92ED011A2B
:1019C00091ED012A08EB000304300432043131EEBA
:1019D000421A082883ED011AF0D1B4EE4D0AF1EE57
:1019E00010FA27DC98ED000AB4EE6A0AF1EE10FA5C
:1019F00020DC98ED010AB4EE6A0AF1EE10FA19DC67
:101A000098ED020AB4EE6A0AF1EE10FA12DCB0EEBA
:101A1000490A00F039FE41F26F70814509F1010970
:101A2000FFF4F8AE06E00EF02BFEB0EE40AA33E76E
:101A3000C3F51C4196ED0F0A202080EE0E0A86EDBC
:101A40000F0A00BF311891ED010A043080EE0E0A32
:101A50002C2881ED010AF5D1FFF7CEFCA220FFF77B
:101A6000CDFD222021460222FFF7A4FDFFF7BAFC9C
:101A70009DF818009DF81910C00040EA511000218F
:101A8000B1EB902F4FF60001CFF6FF7118BF08435E
:101A900000EE100AB8EEC00A20EE0F0A42F6B87146
:101AA00030EE280A42F6A872C2F2000186ED060A5C
:101AB000C2F2000291ED000A1088B4EE4D0A013026
:101AC000F1EE10FA10803FF789AE98ED020AB4EEFD
:101AD0006A0AF1EE10FA3FF781AE98ED010AB4EE12
:101AE0006A0AF1EE10FA3FF779AE98ED000AB4EE0B
:101AF0006A0AF1EE10FA3FF771AE96ED0F0A30EE7A
:101B0000290AB0EEC00AB4EE4D0AF1EE10FA3FF722
:101B100065AE96ED090AB0EEC00AB4EE6B0AF1EEBE
:101B200010FA3FF75BAE96ED0A0AB0EEC00AB4EECB
:101B30006B0AF1EE10FA3FF751AE96ED0B0AB0EEDC
:101B4000C00AB4EE6B0AF1EE10FA3FF747AE15E6A5
:101B5000000000000AD7A33B9A99193E6F12033A7E
:101B60000080BB45CDCC1CC10AD7233C80B58AB0D0
:101B700001220792026846F20043C4F200030021EA
:101B80009A424FF00E030691CDE90011CDE9021102
:101B9000099308D046F60001C4F200018A4205D13B
:101BA00001220E2100E00022CDE90421012108914B
:101BB000694601F079FE0AB080BD000080B540F6AC
:101BC0007400C2F20000007B01280AD142F60C60CA
:101BD000C2F200000078022806D040B900F00AFAEC
:101BE00080BD00F0EBF980BD00F0F6FB80BD00F099
:101BF00045FC80BD80B540F66800C2F20000018857
:101C000044F27A22C2F200021180D0F802108079E8
:101C1000C2F80210907140F22070C2F20000007809
:101C200000210328D17131D8DFE800F0020B1D2715
:101C300041F2A830C2F20000417801F0E1014170A8
:101C400024E042F60C60C2F20000017859B3022988
:101C50001CD141F2A830C2F20000417801F0E1014C
:101C60000831417012E041F2A830C2F20000417820
:101C700001F0E1010231417008E041F2A830C2F206
:101C80000000417801F0E1010431417043F2D020BD
:101C900044F27A22C2F20000C2F200024FF48871CC
:101CA000FFF7E0FC80BD90F87A1040F2547EC2F25B
:101CB000000EC1B19EF800209AB941F2A83CC2F2D0
:101CC000000C9CF80130062003F01E0203F0E10333
:101CD000062A08BF082018448CF8010001208EF85D
:101CE00000000029D2D141F2A831C2F200014A78A5
:101CF00002F01E0006281EBF02F0E1000830487006
:101D000000208EF80000C1E780B52DED068B41F272
:101D10004250C2F200004FF4AB619FED1E9A9FED5E
:101D20001EAA018040F27070B1EE048AC2F2000077
:101D3000B7EE001A4FF4FA51B0EE480AF0EE490A35
:101D4000F0EE491AB0EE492AF0EE492AB0EE4A3ACE
:101D500007F0CCFE40F2E870C2F20000B0EE001ACC
:101D60004FF4FA51B0EE480AF0EE490AF0EE491A83
:101D7000B0EE492AF0EE492AB0EE4A3A07F0B6FE34
:101D800040F22070C2F2000001210170BDEC068B10
:101D900080BD00BF000000006F12833A0000000009
:101DA0002DE9F0412DED028B40F22077C2F20007C1
:101DB000387803280CD8DFE800F0025B0F2C40F6DF
:101DC0006800C2F200000021818001600121817160
:101DD000BDEC028BBDE8F08142F60C60C2F200005F
:101DE00090ED050A9FED731A40F668049FED722A84
:101DF000C2F2000420EE010AB4F9040020EE020A47
:101E0000BDEEC00A01EE100AB8EE400AF8EEC10AB3
:101E100021E042F60C60C2F2000090ED010AB5EE3E
:101E2000400AF1EE10FAD3D190ED020AB5EE400A65
:101E3000F1EE10FACCD190F878000028C8D140F625
:101E40006804C2F20004B4F9040000EE100AF8EECF
:101E5000C00A9FED570AB2EE0E1A07F0BBFEBDEEA8
:101E6000C00A10EE100AA080BDEC028BBDE8F08124
:101E700042F60C68C2F20008D8F80C00D8F86440AA
:101E8000FFF726F9054620460E46FFF721F99FED9C
:101E9000460B53EC102BFFF700F82A463346FEF7AB
:101EA00055FFFFF728F940F6A806C2F2000640F2F7
:101EB00018043188C2F20004E060A1F6595080B2E3
:101EC00040F6FF720023904240F6FE7238BF0123B5
:101ED000904241F2405041F25855C2F2000088BF92
:101EE0004FF4AB65037000EE101A084640F2A921CA
:101EF0007D80B8EE408A07F05DFE40F2707500EE1E
:101F0000100AC2F20005F8EEC00A2846B0EE480AF0
:101F100007F0BEFBB6F9020040F2E87600EE100AC8
:101F2000D5ED110AC2F20006B8EEC00A304607F03D
:101F3000AFFB95ED110A96ED111A204631EE408A5D
:101F400086ED118A00F064FD98ED051A9FED192ABF
:101F50009FED193A21EE021A38EE000A21EE031A1B
:101F600030EE010ABDEEC00A4CF2A52110EE100AB7
:101F7000CFF6FF718842C8BF014643F65B508142ED
:101F8000A8BF014641F2E040C2F20000007840F6EE
:101F90006802C2F20002002818BF00219180BDEC47
:101FA000028BBDE8F08100BF9A9999999999E93F10
:101FB0000058C4450000FA44DB0F494080B540F6A4
:101FC0006800C2F2000001220021827144F27A22EC
:101FD00081800160C2F200024FF48030506043F211
:101FE000D0201160C2F200004FF48871FFF73AFB75
:101FF00080BD000070B540F2207CC2F2000C9CF85D
:10200000000040F2567E002804BF02208CF8000039
:10201000C2F2000EBEF8000040F66801431CC2F296
:1020200000010020887142F60C61C2F2000191F8B3
:10203000754091F87420BFEE001A91F87760002C7B
:10204000B0EE412AB7EE003AAEF8003091F8765083
:102050009FED280A08BFB0EE402A002AB0EE434A9E
:1020600008BFB0EE424A002E08BFB0EE403A002D45
:1020700008BFB0EE431A91F87C4040F25572C2F2AC
:10208000000281ED011A81ED024A84B1157855B93B
:102090009CF800500326032D4FF0010508BF0226CF
:1020A0008CF800601570002C08BF107000E01070F4
:1020B00091F87D2041F2E040C2F200000AB10478BC
:1020C00054B172B99AB2B2F5FA7F0AD90278002AED
:1020D0001CBF0022027004E0012202700020AEF852
:1020E000000091F8790000281CBF01208CF8000046
:1020F00070BD00BF000000002DE9F04F81B02DED54
:10210000048B41F24050C2F20000007840F2607B44
:10211000C2F2000B20B1012814D141F2585101E064
:102120004FF4AB6140F6A802C2F2000212889FEDA4
:10213000A61A891A00EE101AB8EEC00A80EE010A3B
:102140008BED000A9BED000A9FEDA01A41F2AE3222
:1021500020EE010ABDEEC00A10EE101AC2F2000213
:1021600042F60C65D18041F2E871C2F20005C2F27C
:10217000000141F6585295F878600A8041F2F44126
:10218000C2F2000140F6585241F65834002E40F297
:102190005C7A40F2647940F266780A8008BF4FF4B6
:1021A0007A64C2F2000A0128C2F20009C2F20008F1
:1021B000AAF8004013D090BB95ED021A02EE104A27
:1021C000B8EE422A21EE421A95ED010ABDEEC11A7F
:1021D00011EE100AA9F8000020EE420A11E095ED78
:1021E000021A02EE104AB8EE422A95ED010A21EEDB
:1021F000021ABDEEC11A11EE100A20EE020AA9F869
:10220000000010EE100AFEF763FF9FED6B0B53EC1E
:10221000102BFEF742FEFEF73CFFA8F8000040F24C
:102220002077C2F20007387803285FD16EB995EDA8
:10223000010AB5EE400AF1EE10FA06D195ED020A58
:10224000B5EE400AF1EE10FA50D040F2687140F25B
:102250005876C2F200010120C2F2000696ED008A13
:1022600008702046FEF708FF9FED550B54EC105BFD
:102270002A462346FEF783FEFEF73DFF9FED549A64
:1022800001EE100AB0EE490AF0EE480A07F0A2FC8F
:1022900040F26870C2F2000086ED000A007840F655
:1022A0006806C2F200060028B6F904009FED498ACC
:1022B00018BFB0EE498A00EE100ABAF80000B8EE76
:1022C000C09AFEF7D9FE2A462346FEF758FEFEF7CF
:1022D00012FF01EE100AB0EE480AF0EE490A07F0CC
:1022E00079FCBDEEC00A10EE100AB08040F6740012
:1022F000C2F20000C178B9F9000001294CD1397847
:10230000032949D140429BED001A00EE100AB8EEB5
:10231000C08AB1EE410AFDF791FFB8F900009BEDCC
:10232000001A20EE088A00EE100AB8EEC09AB1EE4C
:10233000410AFDF747FF20EE090A38EE000AB9F915
:102340000010BDEEC00A9BED001A10EE100A40F618
:10235000680400EE101AC2F20004B8EEC08AB1EEB2
:10236000410A6080FDF72EFFB8F900009BED001ACE
:1023700020EE088A00EE100AB8EEC09AB1EE410ACB
:10238000FDF75CFF20EE090A38EE000ABDEEC00A38
:1023900010EE100A208008E040F66801B8F800202E
:1023A00080B2C2F2000108804A80BDEC048B01B00B
:1023B000BDE8F08F00BF00BF666666666666E63FF2
:1023C00000000000007087407BF4A24400007A44C3
:1023D000005044450000000040F22070C2F20000AE
:1023E00040F668010278C2F200010023002A8B71D6
:1023F00004BF0221017042F60C61C2F2000191EDAE
:10240000071AB7EE000AB4EE401A40F2E072F1EE9D
:1024100010FAC2F200020CD1137853B903784FF0CE
:10242000010C012B4FF0010308BF0223037082F857
:1024300000C0B5EE401AF1EE10FA04BF002313708D
:1024400091ED081A40F2E171B4EE401AF1EE10FA83
:10245000C2F2000109D10A783AB902780323032AAB
:1024600008BF0223037001200870B5EE401AF1EE98
:1024700010FA04BF002008707047000040F220707E
:10248000C2F200000021017070470000FFF73CFC21
:1024900040F65804C2F200040DF0AEFB2060FFF7D6
:1024A0008DFBFFF77DFCFFF727FEFFF7A3FB204620
:1024B00001210CF00DFDEFE710B50A8844F6D35E5C
:1024C00013BA4FEA134CA0F800C04A88C1F2620E5A
:1024D000D2BA52FB0EF2940904EBD27242808A887F
:1024E000D2BA52FB0EF2940904EBD27282808A793E
:1024F00082710289CC79C2EB134109B2B1F5805FD8
:10250000C47102DD4289013A428111F5805F02DA2D
:10251000418901314181B0F90A109FED081A0CEB95
:10252000413100EE101AB8EEC00A20EE010AC16077
:1025300080ED040AA0F808C010BD00BF0000343DC3
:1025400080B543F27840C2F2000001F051FE80BD38
:1025500080B543F2D840C2F2000001F049FE80BDD0
:1025600080B543F2B830C2F2000001F041FE80BDF8
:1025700080B543F21840C2F2000001F039FE80BD80
:10258000D0F800C06FF00F024AF6AB2352FA8CF27B
:10259000CAF6AA230146A2FB0330000905A31B5C6F
:1025A00040F2FF302CEA00005F2A88BF0430C1E906
:1025B0001603704700061016000610168269816A1D
:1025C000B2F5005F06D06AB9022912D0012914D0F1
:1025D000D1B90EE0032917D8DFE801F0020B020F92
:1025E0000120704703293CBF012070471CBF002019
:1025F0007047C06AC0F300607047C06AA0F1C07045
:10260000B0FA80F0400970470020704780B5D0F8DC
:1026100000C0D0F808E0DCF80000BEF1400F20F464
:102620008020CCF800000846CCF8043004BF1046E7
:102630000A46CCF80800CCF80C2080BD80B582B0EA
:1026400013685268009301926A46FFF70BF802B0D4
:1026500080BD000081B041F20400CEF200000068AD
:10266000009040F23870C2F2000000990268914276
:1026700006D240F23C71C2F200010A6801320A60DF
:102680000099016001B0704741F2040040F22472E9
:10269000CEF20000C2F20002016892ED001AB8EE1C
:1026A000411A21EE000A00BF0268521A01EE102AF8
:1026B000B8EE411AB4EE410AF1EE10FAF4DC7047BC
:1026C00080B52DED028B82B041F20401CEF2000103
:1026D0000968019101990268891A00EE101A40F206
:1026E0002471C2F2000191ED001A0199B8EE400A7E
:1026F000B8EE411A80EE018A0160FFF7ABFFB0EE41
:10270000480A02B0BDEC028B80BD000080B500F02D
:1027100065F841F6D800C2F20000818890ED000A09
:1027200001EE101A9FED0A2AB8EE411AC088B8EEE1
:10273000400A21EE021A31EE000A01EE100A9FED66
:10274000052AB8EE411A21EE021A30EE010A80BDC8
:102750006F12833ABD37863510B54EF6FC5CCEF26B
:10276000000CDCF8002044F24023C0F20F0342F0DA
:102770008072584344F6D353CCF8002041F2000253
:10278000C1F26203CEF200024FF0000CA0FB033E48
:10279000C2F804C04DF683611368C4F21B31A0FB7C
:1027A000011443F00101116040F22471C2F20001F2
:1027B000086040F228714FEA9E10C2F200010860E2
:1027C00040F22C71A00CC2F20001086040F23C7093
:1027D000C2F20000C0F800C010BD0000F0B581B02A
:1027E00041F20400CEF2000000680090FFF732FFD3
:1027F00040F23C70C2F200000068009C00254FF0DF
:10280000FF31E0FB014540F22471C2F2000140F2C9
:1028100030700E68C2F20000C0E90045204629462B
:1028200032460023FEF720FAA0FB062301FB063107
:10283000A41A8D4140F22871C2F2000141F6D80776
:102840000E68C2F20007386020462946324600234F
:10285000FEF70AFAB88080B240F22C717043C2F2DF
:102860000001201A0A6865F100010023FEF7FCF957
:10287000F88001B0F0BD00007047000041F64C0048
:10288000C2F20000017A31B3032941F6D401C2F249
:1028900000010FD141F2F052C2F20002B2F902205F
:1028A00002EBE23383EAE23292B2142A02D80A88B7
:1028B00001320A800A88322A03D3042301320372C8
:1028C0000A800A8840F227239A4238BF70470022C4
:1028D0000A8003210172704780B5082001F0FEFDD7
:1028E00080BD000080B5102001F0F8FD80BD000023
:1028F00080B5202001F0F2FD402001F0EFFD8020A6
:1029000001F0ECFD80BD000072B600BFFEE70000E4
:1029100080B5007A01380B2888BF80BDDFE800F061
:1029200006121E252C3D4D545B62697007F070F94C
:10293000013040F67400C2F200000CBF02210121F8
:10294000017080BD04F064FA013040F67400C2F2F8
:1029500000000CBF02210121417080BD40F67400CF
:10296000C2F200000121C17080BD40F67400C2F2C5
:1029700000000121817080BD41F67400C2F20000A8
:10298000283007F07DF9013040F67400C2F20000F3
:102990000CBF02210121C17180BD41F67400C2F259
:1029A000000007F06DF9013040F67400C2F200003B
:1029B0000CBF02210121817180BD40F67400C2F27A
:1029C00000000121017280BD40F67400C2F20000D7
:1029D0000121417280BD40F67400C2F20000012165
:1029E000817280BD40F67400C2F200000121C17204
:1029F00080BD40F67400C2F200000121017380BD69
:102A000040F67400C2F200000121017180BD000097
:102A100090ED032A90ED023A90ED000A90ED011A34
:102A200032EE433A22EE000A23EE011A30EE013A6A
:102A300090ED050A80ED043AB1EE401AB4EE413A49
:102A4000F1EE10FA80ED022AB8BF80ED041A90ED85
:102A5000041AB4EE401AF1EE10FAC8BF80ED040A71
:102A600090ED040A7047000080B500210160FFF777
:102A70004FFF80BDB0B547F61021C1F6FF71086861
:102A80008A68801808BFB0BD40F25865C2F20005E0
:102A90004C68A91C082205F057F905F112012046DF
:102AA000042205F051F9B0BD80B540F67400C2F2C1
:102AB0000000007B01280AD142F60C60C2F200003F
:102AC0000078022806D010B900F0C4FC80BD00F0E8
:102AD0005DFE80BD00F016FD80BD0000B0B52DED9F
:102AE0000A8B40F6E400C2F200000021017040F6BB
:102AF000E500C2F200000122027041F68C1040F69F
:102B0000D8249FEDD98AC2F20000C2F20004B0EED0
:102B100000BA016020464FF48041B0EE480AF0EE62
:102B2000480AB0EE4B1AF0EE481AB0EE482AF0EE22
:102B3000482AB0EE483A06F0D9FF41F22005C2F229
:102B40000005B1EE049A28464FF48041B0EE480AE1
:102B5000F0EE480AB0EE491AF0EE481AB0EE482AF4
:102B6000F0EE482AB0EE483A06F0C0FFB7EE00AAF1
:102B700004F17000B3EE041A4FF48041B0EE4A0A3B
:102B8000F0EE480AF0EE481AB0EE482AF0EE482A75
:102B9000B0EE483A06F0AAFF05F170004FF480410C
:102BA000B0EE4A0AF0EE480AB0EE4B1AF0EE481AC0
:102BB000B0EE482AF0EE482AB0EE483A06F096FF0A
:102BC00004F1E0004FF48041B0EE480AF0EE480A0C
:102BD000B0EE481AF0EE481AB0EE482AF0EE482A55
:102BE000B0EE483A06F082FF05F1E0004FF4804174
:102BF000B0EE480AF0EE480AB0EE481AF0EE481A75
:102C0000B0EE482AF0EE482AB0EE483A06F06EFFE1
:102C100040F61814C2F2000420464FF48041B0EE92
:102C2000480AF0EE480AB0EE491AF0EE481AB0EE43
:102C3000482AF0EE482AB0EE483A06F057FF40F630
:102C40006065C2F20005B0EE08CA28464FF4804124
:102C5000B0EE480AF0EE480AB0EE4C1AF0EE481A10
:102C6000B0EE482AF0EE482AB0EE483A06F03EFFB1
:102C70009FED7E2A04F17000B2EE041A4FF48041F9
:102C8000B0EE4A0AF0EE480AF0EE481AF0EE482A92
:102C9000B0EE483A06F02AFF9FED751A05F1700074
:102CA0004FF48041B0EE4A0AF0EE480AF0EE481ABE
:102CB000B0EE482AF0EE482AB0EE483A06F016FF89
:102CC00004F1E0004FF48041B0EE480AF0EE480A0B
:102CD000B0EE481AF0EE481AB0EE482AF0EE482A54
:102CE000B0EE483A06F002FF05F1E0004FF48041F3
:102CF000B0EE480AF0EE480AB0EE481AF0EE481A74
:102D0000B0EE482AF0EE482AB0EE483A06F0EEFE61
:102D100040F69845C2F2000528464FF48041B0EED7
:102D2000480AF0EE480AB0EE4B1AF0EE481AB0EE40
:102D3000482AF0EE482AB0EE483A06F0D7FE41F2B3
:102D4000E014C2F2000420464FF48041B0EE480A7D
:102D5000F0EE480AB0EE4C1AF0EE481AB0EE482AEF
:102D6000F0EE482AB0EE483A06F0C0FE9FED412A48
:102D700005F170004FF48041B0EE4A0AF0EE480AC7
:102D8000B0EE491AF0EE481AF0EE482AB0EE483A92
:102D900006F0ACFE9FED381A04F170004FF480414C
:102DA000B0EE4A0AF0EE480AF0EE481AB0EE482AB1
:102DB000F0EE482AB0EE483A06F098FE05F5A87005
:102DC0004FF48041B0EE4A0AF0EE480AB0EE491ADC
:102DD000F0EE481AB0EE482AF0EE482AB0EE483A33
:102DE00006F084FE9FED25BA04F5A8704FF48041EB
:102DF000B0EE4A0AF0EE480AB0EE4B1AF0EE481A6E
:102E0000B0EE482AF0EE482AB0EE483A06F06EFEE0
:102E10009FED1B2A05F1E0004FF48041B0EE480A17
:102E2000F0EE480AB0EE491AF0EE481AF0EE482AE1
:102E3000B0EE483A06F05AFE04F1E0004FF480414B
:102E4000B0EE480AF0EE480AB0EE4B1AF0EE481A1F
:102E5000B0EE482AF0EE482AB0EE483A06F046FEB8
:102E6000BDEC0A8BB0BD00BF000000000000C842EE
:102E7000000048C200004843000070420000484281
:102E8000000016430000000010B540F24410C2F2EA
:102E9000000041689FEDE24A00EE101A41F2BC3199
:102EA000C2F2000191ED051A30EE410AB4EE440A77
:102EB000F1EE10FA02DD9FEDDD1A08E09FEDD91A60
:102EC000B4EE410AF1EE10FA03DA9FEDD71A30EEB4
:102ED000010A40F6A802C2F2000292ED041AB3EE13
:102EE0000E2A91ED063A32EE412AB4EE442A30EE33
:102EF000030AF1EE10FA81ED070A02DD9FEDCB4ADD
:102F000008E09FEDC84AB4EE442AF1EE10FA03DA65
:102F10009FEDC54A32EE042A40F6E402C2F20002F6
:102F20001278022A4DD0012A16D0002A5BD142F62F
:102F3000BC70C2F2000042F60C620078C2F20002DD
:102F4000137801287AD1002B00F08980022B40F001
:102F50009C8002F1100084E040F67401C2F200018E
:102F6000897A012940D1C1699FEDB11A02EE101A88
:102F7000B4EE412AF1EE10FA36DD80689FEDAF1A0B
:102F800040F6BC0102EE100AC2F200010022B4EECB
:102F9000412AC1E90722F1EE10FAB8BFB0EE412A8A
:102FA000B2EE041AB4EE412AF1EE10FA81ED012AD4
:102FB00081ED020A40F3D1800020C4F22010486065
:102FC000CBE040F6BC00C2F200000022C0E90722BC
:102FD000426241F6B852C2F2000212690969C26047
:102FE000416080ED023A10BD42F60C61C2F2000170
:102FF0000878022800F08580002840F09A80D1E906
:103000001904FEF765F89FED820B53EC102BFDF7CA
:1030100044FFFEF770F840F6BC01C2F200010862FE
:103020002046FEF755F89FED7C0B53EC102BFDF777
:1030300034FFFEF760F800EE100A74E040F6BC00C2
:103040000021002BC2F20000CCF2602100F08C8045
:10305000022B40F09B8002F110030C3287E002F15A
:10306000680040F6BC0131EE020AC2F2000181EDB7
:10307000020A90ED000A9FED6E1A0022CCF2B422F3
:1030800020EE010ACA6081ED070A40F6BC00C2F2D8
:10309000000090ED010A90ED031A90ED072A9FEDD4
:1030A000683A30EE420AB4EE431AF1EE10FA80EDBF
:1030B000010ABEBF0021CCF22731C16090ED031A96
:1030C0009FED602AB4EE421A9FED5C1AF1EE10FA01
:1030D000B4EE410AC2BF0021CCF26021C160F1EE22
:1030E00010FABEBF0021CCF22021416090ED010A10
:1030F000B2EE041AB4EE410AF1EE10FA7FF773AFA4
:1031000080E091ED030A9FED4B1A91ED042A20EE29
:10311000010A40F6BC009FED481AC2F2000080EDA3
:10312000080A22EE010A40F6BC00C2F2000080ED5F
:10313000070A40F6BC00C2F2000090ED010A90EDD3
:10314000021A90ED072A90ED083A30EE420A31EE6D
:10315000431A80ED010A80ED021A40F6BC00C2F26B
:1031600000000121016010BD02F16803643292ED9C
:10317000000A9FED2F1A93ED002A20EE010A22EE9D
:10318000011AC16080ED071A80ED080A90ED010A6E
:1031900090ED073A90ED021A90ED032A90ED084A5F
:1031A00030EE430A9FED263A31EE441AB4EE432A3C
:1031B00080ED010AF1EE10FA80ED021ABEBF002286
:1031C000CCF22732C26090ED031A9FED1E2AB4EEB6
:1031D000421A9FED1A1AF1EE10FAB4EE410AC8BF76
:1031E000C160F1EE10FABEBF0021CCF22021416097
:1031F00090ED010AB2EE041AB4EE410AF1EE10FAB3
:10320000D8BF10BD0021C4F22011416010BD00BF25
:10321000333333333333C33F7B14AE47E17A843FD8
:1032200000003443000034C30000B4430000B4C3C2
:10323000CDCCCC3D9A99993E0AD723BC000020C240
:10324000000027C3000060C22DE9F04140F6600095
:10325000C2F2000090ED000A41F2D840C2F2000034
:1032600090ED001A40F6E400C2F20000007840F64B
:10327000900420EE010AC2F20004012884ED000A45
:103280005AD140F67400C2F20000807A012853D16E
:1032900040F24415C2F20005E8699FED6D0A01EEA7
:1032A000100AB4EE401AF1EE10FA45DD41F2BC36D8
:1032B00040F6BC08C2F20006C2F2000840F6181739
:1032C00096ED040AD8ED010AC2F2000707F1E0000A
:1032D00006F0DEF9286997ED491A02EE100A40F669
:1032E000606096ED010AC2F2000071EE020AE03061
:1032F00006F0CEF940F6984796ED060AD8ED020A98
:10330000C2F2000707F1E00006F0C2F9E86897EDA5
:10331000491A02EE100A94ED003A41F2E01096EDDF
:10332000020A31EE021AC2F2000071EE030AE03026
:1033300006F0AEF9BDE8F08142F6BC70C2F20000C2
:10334000007841F2BC3440F6BC050128C2F200040A
:10335000C2F200052DD140F6A806C2F2000640F6E2
:10336000984796ED040AD5ED020AC2F2000707F568
:10337000A87006F08DF9B6F90200D7ED650A00EEE7
:10338000100A41F2E010C2F20000B8EEC00A00F5E7
:10339000A87006F07DF995ED020A96ED041A30EE5C
:1033A000410AB0EE001AB4EE410AF1EE10FA36DA34
:1033B00016E040F6984694ED060AD5ED020AC2F2F0
:1033C000000606F1700006F063F941F2E01094ED9A
:1033D000020AD6ED2D0AC2F20000703006F058F94C
:1033E00041F6B856C2F2000640F6D82796ED040A18
:1033F000D5ED030AC2F2000707F1700006F048F9A4
:10340000B6F90200D7ED2D0A00EE100A41F22000B5
:10341000C2F20000B8EEC00A703006F039F9D5EDFE
:10342000010A40F6181594ED040AC2F2000505F1F0
:10343000700006F02DF940F6606094ED010AD5EDBC
:103440002D0AC2F20000703006F022F9BDE8F081CA
:10345000CDCCCC3D10B540F6E40EC2F2000E9EF885
:10346000000042F60C64022804BF00208EF8000021
:103470009EF80010C2F2000401291CD094F87D309F
:1034800040F6101CC2F2000C93B19CF8000070B919
:1034900040F6BC00C2F2000090ED020A9FED181A3F
:1034A00030EE010A80ED020A01208CF8000013B909
:1034B00000208CF8000094F87A0040F61113C2F254
:1034C000000328B11A78002A04BF01221A7008B933
:1034D0000020187094F8723040F61212C2F2000206
:1034E0005BB1107830B9481E18BF01208EF800007B
:1034F00001201070002B18BF10BD0020107010BDEF
:103500000000344340F6E401C2F200010878B7EE4F
:10351000000A022804BF0020087042F60C60C2F2C4
:10352000000090ED061A40F65862B4EE401AF1EE33
:1035300010FAC2F2000208D1137833B90B78013BBC
:1035400018BF01230B7001211170B5EE401AF1EE86
:1035500010FA04BF0021117090ED071AB4EE401A62
:10356000F1EE10FA18BF704742F6BC70C2F20000CC
:10357000017801291EBF01210170704700210170EF
:1035800041F2BC30C2F20000806940F6BC01C2F2D8
:103590000001886070470000B0B52DED028B41F24C
:1035A000BC30C2F2000090ED048AB2EE0E1A9FED1C
:1035B000740AB4EE418AF1EE10FA2FDA9FED711A17
:1035C000B4EE418AF1EE10FA28DD40F2DC00C2F2DE
:1035D00000000068FDF77CFD044618EE100A20F09C
:1035E00000400D46FDF774FD9FED610B53EC102B71
:1035F000FDF753FC9FED600B53EC102BFDF7BFFC68
:1036000041EC100B0CF0D8FF51EC100B22462B466E
:10361000FDF743FCFDF76FFD00EE100A40F6E400F5
:10362000C2F20000007840F6E80140F67404C2F2ED
:1036300000010228C2F2000481ED000A39D00128FD
:1036400040D1A17A012932D140F24411C2F20001E5
:10365000CA699FED4D1A02EE102AB4EE412AF1EE2E
:1036600010FA24DD40F66060C2F2000090ED490AD5
:10367000886940F24C7201EE100A30EE010ABDEE8C
:10368000C00A10EE100AC2F20002508041F2E010AF
:103690004969C2F2000090ED490A01EE101A30EEBD
:1036A000010ABDEEC00A10EE100AD0803CE00228EC
:1036B00008D140F24C70C2F200000021C180C0F875
:1036C000021031E041F22001C2F2000191ED2D1A09
:1036D00040F24C72BDEEC11A42F6BC7011EE101AE7
:1036E000C2F20002C2F20000918041F2E0110078C3
:1036F000C2F2000101F1B403012808BF01F5CA7349
:1037000093ED001A40F66061BDEEC11AC2F20001ED
:1037100011EE100A91ED2D1AD08030EE010ABDEEA7
:10372000C00A10EE100A508043F2D02040F24C72D2
:10373000C2F20000C2F2000240F2FE31FEF77EFF4C
:10374000A07841F2A832E178C2F200020138137881
:10375000B0FA80F00139400903F0FC03B1FA81F1BD
:103760001844490940EA41001070BDEC028BB0BD1D
:1037700000000060FB21094000000000008066405E
:103780000000000000000CC2CDCCCC3D40F6E400AF
:10379000C2F20000022101707047000041F2A03423
:1037A00041F6E00540F6E506C2F20004C2F200056B
:1037B000C2F200060CE000BFFFF776F9FFF764FBEA
:1037C000FFF742FDFFF7E8FE204601210BF080FBEA
:1037D0000CF012FA297820600129EDD03078002809
:1037E00008BFFFF77BF905F05BFAF1E790F82020BE
:1037F000013A012A04D8006800F11402002004E014
:1038000000F1240201204FF4802113681943116054
:103810007047000010B590F820E0D0F800C0AEF17D
:10382000010EBEF1010FDCF808E00ED81EF0E05FDB
:1038300011D0CEF3016E012000FA0EF018608B68F3
:103840007BB1486843EAC0030DE000F12401012088
:103850004FF4802223E000F1240101204FF40012F4
:103860001DE008684305D1E9030403430CEB0E1087
:10387000C0F88031C0F88441097D012905D100F5E7
:10388000C2710B6843F480730B605168C0F88C11EF
:10389000126800F5C071C0F88821002001220B6871
:1038A0001A430A6010BD0000B0B590F82020013A1C
:1038B000012A2FD846F20060C4F20000026842F0EC
:1038C00001020260026822F47C520260D1F814E026
:1038D000CC694A6A0368012C43EA022202600EF0B6
:1038E0001F024FF0010303FA02F2C3696FEA020CF0
:1038F00023EA0203C36113D02CBBC36803EA0C03A1
:10390000C360CB688C8844EA034300EBCE04236495
:103910000B4611E0416A41F4802141620120B0BDB3
:10392000C3681343C3600B688C8844EA034300EB0D
:10393000CE04236401F10C038C681B8843EA044322
:1039400000EBCE04636443688D6943EA0204D1F856
:1039500010E0096A002D08BF03EA0C0444604369C3
:10396000BEF1000F43EA020408BF03EA0C04012978
:10397000446102D1C1691143C161016821F00101B3
:1039800001600020B0BD00007047000010B590F845
:103990002040013C012C0AD8046871B12469A407B5
:1039A0000ED100F1240101204FF4001276E000F165
:1039B000240101204FF4802270E0E468A40771D054
:1039C000046804EB011CDCF8B0410CF5D87E14F05F
:1039D00004049460DCF8B04119BFE4085460640D3D
:1039E0001460DEF800400CF5DA7E04F00204D460C6
:1039F000DCF8B44124075ABFDEF8004004F00F049D
:103A000008241461DEF800400029C4F307249461FF
:103A1000DEF800404FEA14445461DCF8B8211A7013
:103A2000026802EB0112D2F8B8214FEA12225A7052
:103A3000026802EB0112D2F8B8214FEA12429A70E2
:103A4000026802EB0112D2F8B8214FEA1262DA7072
:103A5000026802EB0112D2F8BC211A71026802EB73
:103A60000112D2F8BC214FEA12225A71026802EB0D
:103A70000112D2F8BC214FEA12429A71026802EB9D
:103A80000112D2F8BC214FEA1262DA71006814BF49
:103A900000F1100100F10C01002020220B681A43F4
:103AA0000A6010BD00F1240101204FF40012F5E777
:103AB0002DE9F04F81B0044600684669D0F80490C3
:103AC0008768D0F80CB0D0F810A0D0F81880F107B3
:103AD00003D1002530071CD423E0F90710D00121C1
:103AE000BA07816009D4780700F1AA80380700F18D
:103AF000B080204600F01CFB02E0204600F01AFBDC
:103B00000025F80500F18480F80300F1AA80300751
:103B100007D51BF0100004D0206845F40075102173
:103B2000C160700708D51BF0080005D02068082187
:103B3000C160204600F0E4F9B00706D52068C068EF
:103B4000800702D0204600F0DDF9700607D51AF094
:103B5000100004D0206845F4806510210161B00692
:103B600008D51AF0080005D0206808210161204618
:103B700000F020FAF00606D520680069800702D020
:103B8000204600F019FAB00308D519F0100005D04E
:103B9000206810214160204600F09AFAF00308D511
:103BA00019F0080005D0206808214160204600F087
:103BB000CBFA300440F18F805FEA497040F1888091
:103BC00006F4807008EA102028435FEA88710146F5
:103BD00048BF41F00201B20558BF01465FEA487094
:103BE0000D4648BF45F00405700558BF0D46300529
:103BF0006ED518F070006BD010380009052862D817
:103C0000DFE800F0035356595C5F45F008055AE0C1
:103C100020684FF48071BA0581600AD4780512D407
:103C2000380519D4204600F087FAF8037FF56FAF06
:103C300017E0204600F082FAF8037FF568AF10E045
:103C40004FF400655DE705F50055F8037FF55FAFBC
:103C500007E04FF4805554E705F58045F8037FF5FC
:103C600056AF20684FF48031BA0381600AD47803DC
:103C70000FD4380313D4204600F062FA30073FF522
:103C800048AF4EE7204600F05DFA30073FF541AF00
:103C900047E705F5004530073FF53BAF41E705F540
:103CA000803530073FF535AF3BE745F010050AE0BA
:103CB00045F0200507E045F0400504E045F08005AB
:103CC00001E045F480752068816921F0700181610F
:103CD0002068042141602DB1606A2843606220465B
:103CE000FFF752FE01B0BDE8F08F0000B0B5C8B1DB
:103CF000044690F8200010B9204600F071F82068C2
:103D0000016841F00101016000F0CAFC054600BFF6
:103D100020684168C90707D100F0C2FC401B0B288E
:103D2000F6D312E00120B0BD016821F0020101606C
:103D300000F0B6FC054600BF2068416889070DD534
:103D400000F0AEFC401B0B28F6D3606A052140F45E
:103D500000306062012084F82010B0BD217E02682E
:103D6000012922F0800208BF80320260617E026871
:103D7000012922F0400208BF40320260A17E0268A1
:103D8000012922F0200208BF20320260E17E026891
:103D9000012922F0100218BF10320260217F026850
:103DA000012922F0080208BF08320260617F026820
:103DB000012922F0040208BF04320260D4E901C2E2
:103DC000D4E9033561691A432A431143ACF1010276
:103DD0001143C16100200121606284F82010B0BD50
:103DE00010B586B0006846F60002C4F20002002159
:103DF0009042CDE90411CDE90211019134D046F28F
:103E00000041C4F20001884277D141F2B831C2F2D8
:103E100000010A6843F64000C4F20200531C0B6024
:103E200052B900210091016841F000710160016800
:103E300001F00071009100990021009150F8101CD0
:103E4000142441F0080140F8101C50F8100C00F048
:103E50000800009000980320019040F20040C4F256
:103E6000020000F5006035E043F64000C4F20200B5
:103E70000091016841F080610160016801F080619A
:103E80000091009941F2B831C2F200010A68531C56
:103E90000B6052B900210091016841F0007101608E
:103EA000016801F00071009100990021009150F823
:103EB000101C412441F0020140F8101C50F8100C75
:103EC00000F00200009000986020019040F2004055
:103ED000C4F2020002210291002103910321049106
:103EE0000921059101A900F007FB204605210022C8
:103EF00000F084FC204600F07DFC06B010BD000000
:103F00007047000010B5016846F20042C4F200029A
:103F1000914200D010BD41F61404C2F2000440F2F8
:103F2000D863C2F2000300212246FFF72FFD20686C
:103F300040F20321884219D040F20221884228D061
:103F400040F20121884218BF10BD41F2F05040F20A
:103F5000D861C2F20000C2F2000105F099FE41F200
:103F6000E450C2F20000FEF77FFD10BD41F6740080
:103F7000C2F2000040F2D8612830C2F2000105F020
:103F800087FE41F65800C2F200000C30FEF76CFDCF
:103F900010BD41F6740040F2D861C2F20000C2F2D6
:103FA000000105F075FE41F65800C2F20000FEF770
:103FB0005BFD10BD70470000B0B5016846F6000219
:103FC000C4F20002914200D0B0BD41F6140540F2A7
:103FD000E064C2F20005C2F2000405F11C020121F6
:103FE0002346FFF7D3FCE86940F2013188421DDD2A
:103FF00040F2023188422FD040F2033188423CD057
:10400000B0F5417F18BFB0BD40F6A80040F2E061B6
:10401000C2F20000C2F20001FEF74EFA40F6EC00D8
:10402000C2F200000C30FEF71FFDB0BD40F20111DE
:10403000884234D0B0F5817FC6D140F66000216857
:104040006268C2F20000C0E9001240F68400C2F2C9
:104050000000FEF709FDB0BD40F6940040F2E061BB
:10406000C2F20000C2F20001FEF726FA40F6EC00B0
:10407000C2F20000FEF7F8FCB0BD41F6B85040F2C5
:10408000E061C2F20000C2F20001FEF715FA40F64C
:10409000EC00C2F200001830FEF7E6FCB0BD20884C
:1040A00041F2F8716288C2F20001088010BAA28859
:1040B000000C488010BAE288000C888010BA000C0E
:1040C000C88041F2EC70C2F20000FEF7CDFCB0BD3A
:1040D00070470000B0B5044690F8200001281DD1BB
:1040E000022084F820002068016821F001010160AD
:1040F00000F0D6FA054600BF20684068C00713D01C
:1041000000F0CEFA401B0B28F6D3606A40F4003072
:104110006062052084F820000120B0BD606A40F490
:10412000002060620120B0BD00206062B0BD0000D0
:1041300070470000704700007047000070470000A3
:1041400070470000704700007047000070B5866D32
:10415000044600F0A5FA94F83510022925D1054649
:104160002068216C026822F016020260426922F087
:104170008002426109B9A16C19B1016821F00801FE
:104180000160016821F00101016000BF2068006842
:10419000C0070ED000F084FA401B0628F6D320207A
:1041A0006065032084F835000CE080206065012004
:1041B00008E0E06D3F2101FA00F0B060012084F8D2
:1041C00035000020002184F8341070BD90F83510BF
:1041D000022909D1052180F835100068016821F015
:1041E0000101016000207047802141650120704776
:1041F000F0B581B004460020009040F2A050C2F219
:1042000000000268D4E9166048F2B5133768082147
:10421000C1F64E3381403942A2FB03250CD02268FF
:1042200013685B0708D5136823F004031360B160BB
:10423000616D41F00101616501218140394208D081
:1042400022685269120604D5B160616D41F0020125
:10425000616504218140394208D0226812689207C2
:1042600004D5B160616D41F00401616510218140A8
:10427000394215D020680268120711D5B160026872
:104280000168520306D4C90506D4016821F008016B
:10429000016001E0080342D4216C09B1204688473F
:1042A000E16D202000FA01F23A4244D02068036810
:1042B000DB0640D5B26094F835300268052B1ED17C
:1042C00022F016020260426922F080024261226CF2
:1042D0000AB9A26C1AB1026822F0080202603F20FB
:1042E0008840B060012084F83500216D002000294D
:1042F00084F8340040D02046884701B0F0BD016802
:10430000520310D4C90512D4016821F010010160D4
:10431000012084F83500002084F8340007E0A16C07
:104320000029BBD1BCE7080301D4616C00E0E16B5C
:1043300009B120468847606DF0B1606DC00717D0A5
:10434000052084F835002068A90A026822F00102DD
:10435000026000BF009A01328A42009202D80268CD
:10436000D207F7D1012084F83500002084F834000A
:10437000E16C09B12046884701B0F0BD2DE9F0415C
:10438000044600F08DF9C4B10546022084F83500DA
:104390000020216884F83400086820F001000860DB
:1043A00026683068C0070BD000F07AF9401B05285A
:1043B000F6D903212022032042E00120BDE8F0814C
:1043C000306848F23F01CFF21001251D00EA010CD0
:1043D0002ECDD4E9050E41EA0C01114319432943BE
:1043E000D4E90778084340EA0E01606A394304289B
:1043F00041EA080103D1D4E90B2311431943316089
:104400007169042821F0070141EA00050CD1D4E9C3
:104410000A1045EA010538B12046FEF7CFF818B179
:104420000121402201200BE020467561FEF7A8F82B
:10443000E16D3F2202FA01F181600022012100209A
:10444000626584F83510BDE8F0810000B0B504461F
:1044500090F83400012828D0012084F83400A56D9C
:1044600094F8350001281DD1022084F83500002081
:1044700060652046FEF7CAF8E26D3F23206803FA24
:1044800002F2216CAA60026842F01602026019B1C1
:10449000016841F008010160016841F0010101601B
:1044A0000020B0BD002084F834000220B0BD000020
:1044B000B0B5044600F0F4F8054640F27960C2F267
:1044C00000000078611C18BF044400BF00F0E8F849
:1044D000401BA042FAD3B0BD7047000080B543F640
:1044E0001441C4F201010A68024208BF80BD08609D
:1044F000FFF7F2FF80BD00002DE9F04F83B000F11F
:104500003E4202F1FF724FEAB22241F600470192A9
:10451000C4F2020708224FF0010E00254FF0000AF6
:104520004FF00008B84208BF072200920AE000BF1F
:1045300008F101080AF1040AB8F1100F05F10205AB
:1045400000F0A4800C680EFA08FB14EA0B09EFD007
:104550004C6804F0030CACF1010EBEF1010F11D850
:104560000322876802FA05F6CA68B743AA403A43AD
:1045700082604268C4F3001722EA0B0207FA08F7C8
:104580003A434260BCF1030F1CD0C26803238E681B
:1045900003FA05F7BA4306FA05F73A43BCF1020FEE
:1045A000C2600FD16FF0030202EA580202440AF01F
:1045B0001C060F23176A03FA06F40B69A743B340DE
:1045C0003B431362026803234F68AB409A4307F0F2
:1045D0000303AB401A4317F4403F4FF0010E026053
:1045E000A6D0002243F644030292C4F202031A68E2
:1045F00043F6004442F480421A601A68C4F201048F
:1046000002F480420292029A28F003024FF6084B0D
:104610002244CFF6FF7B52F80B300AF00C070F262E
:10462000BE4023EA060C019B009E072B38BF1E46A6
:1046300006FA07F747EA0C0342F80B30A2684B680A
:1046400042EA090743F60C4CDE0258BF22EA09078A
:10465000A760C4F2010CDCF800209E0242EA0907C0
:1046600058BF22EA0907CCF8007062689E0342EA4C
:10467000090758BF22EA090767602268DB0342EA9C
:10468000090358BF22EA0903236051E703B0BDE8DC
:10469000F08F0000002A08BF090481617047000004
:1046A0004AF2A420C2F200000068704740F279602C
:1046B0004AF2A421C2F20000C2F2000100780A68A6
:1046C000104408607047000080B543F60040C4F213
:1046D0000200016841F400710160016841F48061E9
:1046E0000160016841F480710160032000F096F8D8
:1046F000002000F005F800F059F8002080BD00000F
:1047000070B586B0002543F640010195C4F2020160
:104710000A68044642F001020A60096801A801F033
:10472000010101910199694600F0C4FE049E002E2A
:1047300018BF012600F0E4FE4DF68361B040C4F2DC
:104740001B31A0FB01014FF0FF3000EB914143F61C
:10475000D420C2F200004FF0804240F2E733C0E9BB
:104760000021C0E902530561856101F083FB054624
:10477000C0B943F6D420C2F2000001F0E3FB0546C5
:1047800080B91C2000F036F80F2C0AD81C202146D6
:10479000002200F033F840F27C60C2F200000460B6
:1047A00000E00125284606B070BD000080B582B04B
:1047B000002043F640010190C4F202014A6842F42D
:1047C00080424A604A6802F480420192019A009055
:1047D0000868002240F08050086008680F2100F04F
:1047E0008050009000986FF0010000F007F802B0D0
:1047F00080BD000080B508F005FF80BD70B514468F
:104800000D46064608F00EFF2946224604F016FD26
:104810000146304608F00EFF70BD000080B508F07C
:1048200023FF80BD7047000002680020516270477E
:1048300010B5D0F800C0DCF82400D9B1DCF828307D
:10484000B1F1010E00EB13430CD00021002000BF9A
:104850000CEB8101D1F804410130C1B28E4503EB6C
:104860001443F5D843EA02400CEB8E01C1F8040171
:10487000002010BD40EA0240CCF82800002010BD06
:1048800080B5D0F8E00407F09DFA80BD80B501EB5B
:10489000C102D0F8E03400EB8200026A184607F04B
:1048A000FBF980BD80B501EBC102D0F8E03400EB2C
:1048B0008200D0F86022184607F048FA80BD000058
:1048C00080B5D0F8E00407F07FFA80BD80B501F034
:1048D0000F0202EBC20200EB820303F1140209068D
:1048E000006858BF03F51572114608F01DF980BD28
:1048F00010B50446080601F00F0000EBC00104EB00
:10490000810205D402F51571002382F8553203E0C7
:10491000012302F11401537594F894240870012ABC
:1049200004BF022010BD2068012284F8942407F0FF
:104930006DFE002084F8940410BD0000B0B502792B
:10494000044601F00F00904284BF0120B0BD09066B
:1049500009D400EBC00104EB810202F515710023BC
:1049600082F8553207E000EBC00104EB810201231D
:1049700002F11401537594F894240025012A8D70D6
:10498000087004BF0220B0BD2068012284F894247E
:1049900007F090FF284684F89454B0BD01F00F0151
:1049A00001EBC10100EB8100D0F868027047000004
:1049B000B0B50546080601F00F0000EBC00105EB9D
:1049C000810C05D40CF5157100248CF8554204E0D7
:1049D00001240CF114018CF815404C786FF3DF22A0
:1049E000002C08708A600B7118BF4883022B04BF2B
:1049F0000020487195F89404012804BF0220B0BD3E
:104A00002868012285F8942407F03AFD002085F8F3
:104A10009404B0BD10B501F00F0404EBC40100EB29
:104A2000810E4FF0000CCEF868C28EF855C290F897
:104A300006C0CEF86022CEF86432BCF1010F8EF8C9
:104A4000544208BFCEF8702200680EF51571624618
:104A500007F080FF002010BDB0B50446007901F0DA
:104A60000F05854284BF0120B0BD080609D401EBC3
:104A7000C10004EB800000F51571002280F855227A
:104A800007E005EBC50004EB8000012200F11401F2
:104A9000427594F89404012201288A700D7004BFB5
:104AA0000220B0BD206884F8942407F02BFF2DB9B4
:104AB0002068A17904F29C4207F0CEFE002084F821
:104AC0009404B0BD80B501F00F0C0CEBCC0100EBF1
:104AD000810E714601F814CF4FF0000CC1F814C0DC
:104AE0004FF0010C81F801C090F806C0CA60BCF11B
:104AF000010F0B6108BFCEF830200068624607F056
:104B000029FF002080BD00002DE9F04F83B006682A
:104B10008346304608F0AAF810B103B0BDE8F08F24
:104B2000DBF8000008F0D0F80028F6D0D6F8080826
:104B3000C0F30D21DBF80000CBF8D41408F0C4F862
:104B4000800705D5DBF80000416901F002014161F1
:104B5000DBF8000006F5006708F0B6F8C00640D59F
:104B6000DBF80000816921F010018161346AC4F32F
:104B70004340062804F00F051CD002282BD147F62D
:104B8000F070044027D005EBC5000BEB8005D5F88D
:104B900060122209304608F09BF8D5F86002D5F87B
:104BA000681200EB1410C5F8600201EB1410C5F890
:104BB000680210E00BF29C413046082208F088F8A9
:104BC00005EBC5000BEB8000D0F86812C4F30A12A5
:104BD0001144C0F86812DBF80000816941F010014F
:104BE0008161DBF80000CDE9017608F06DF8000383
:104BF0005ED5DBF8000008F045F8002858D00646DE
:104C000002984FF0000900F5306440F25725002764
:104C100017E000BF0220A0605FEA8A6044BF202046
:104C2000A0605FEA8A4044BF4FF40050A0600137A3
:104C3000B9EB560F4FEA560604F1200405F124059E
:104C400036D0F007F3D0DBF800005FFA87F8414672
:104C500008F032F88246C00705D00120A06058460F
:104C6000394604F041FC5FEA0A7005D50820A060CF
:104C70005846394604F012FC5FEACA6044BF10206F
:104C8000A0605FEA8A70C7D502984069000604D523
:104C90000199486840F4806048601BF805000128CD
:104CA000B8D1584641460BF8059000F00DFAB1E72F
:104CB000DBF8000008F008F8400372D5DBF80000CC
:104CC00007F0D8FF00286CD006460BF29C400090FD
:104CD00002980BF1170800F510644FF00009002747
:104CE0000AE000BF0137B9EB560F4FEA560604F150
:104CF000200408F1240854D0F007F3D0DBF80000BA
:104D00005FFA87FA514607F0C5FF0546C00723D072
:104D1000019A07F00F00516B012303FA00F021EA1A
:104D200000005063A3609BF80600012810D1D8F85A
:104D30000500D8F809100844C8F8090047B9D8F8A0
:104D40000D0028B9DBF80000009A012107F084FD6E
:104D500058465146FFF79AFD280744BF0820A06037
:104D6000E80644BF1020A060680644BF4020A06051
:104D7000A8070FD50298394607F046FF98F80000BB
:104D8000012805D15846514688F8009000F096F960
:104D90000220A0602806A5D55846394604F010FC2C
:104DA000A0E7DBF8000007F08FFFDDE90198B0F124
:104DB000FF3F1ADCD9F8040020F00100C9F8040014
:104DC0009BF8CC04012807D100208BF8CC0458466E
:104DD0000021FFF727FD02E0584600F057FADBF804
:104DE0000000416901F000414161DBF8000007F07B
:104DF0006BFF00050CD5D9F80800C00702D0584653
:104E000000F08EFADBF80000416901F400614161B5
:104E1000DBF8000007F058FFC00460D5D9F80400A3
:104E2000102120F00100C9F80400DBF8000007F0B1
:104E3000EBFE9BF80400F8B19BF8041008F5106035
:104E400000224FF67F3300BF83600768013227F4EA
:104E500000170760C0F80832D0F800728A4227F4C1
:104E60000017C0F80072D0F8007247F00067C0F871
:104E7000007200F12000E7D3D9F81C0040F00110C7
:104E8000C9F81C009BF80F0040B1D9F8840040F02D
:104E90000B00C9F8840009F1440008E0D9F81400B7
:104EA00042F22B010843C9F8140009F1100001680F
:104EB0000BF29C4241F00B010160D9F8000020F494
:104EC000FE60C9F80000DBF800009BF8061007F050
:104ED000C3FCDBF80000416901F480514161DBF85B
:104EE000000007F0F1FE80041CD5DBF8000007F09D
:104EF00013FBDBF8000007F0ABFEDBF800408BF89B
:104F0000070000F0F7FA9BF807200146204607F05B
:104F100059FF584600F0A8F9DBF80000416901F498
:104F200000514161DBF8000007F0CEFE000708D514
:104F3000584600F0B1F9DBF80000416901F00801C2
:104F40004161DBF8000007F0BFFE00061ED5D8F86F
:104F5000180020F08000C8F818009BF80400022810
:104F600014D3012440F27B2507E000BF9BF8040026
:104F70000134844205F1240508D21BF805000128FC
:104F8000F4D1E1B25846FFF7A1FCEFE7DBF80000EF
:104F900007F09AFEC00229D59BF8040002281FD30F
:104FA00008F512640BF13C050126012708E000BF5B
:104FB0009BF8040001372034874205F124050FD205
:104FC0002068B0F1FF3FF3DC28780128F0D147F0EA
:104FD0008000C1B2584605F8016CFFF777FCE7E79F
:104FE000DBF80000416901F480114161DBF8000049
:104FF00007F06AFE80023AD59BF80400022830D3FD
:1050000008F532600BF51F710122012308E000BF93
:105010009BF8047001332030BB4201F1240120D2FF
:105020000768B7F1FF3FF3DC0E78012EF0D1DBF813
:10503000D46407F4803706F00106B742E8D101F8DE
:10504000012CD8F8187047F08007C8F81870D8F805
:1050500014703F06DCD4D9F8040040F40070C9F89D
:105060000400DBF80000416901F400114161DBF844
:10507000000007F029FE400008D55846FFF700FC65
:10508000DBF80000416901F080414161DBF800007C
:1050900007F01AFE40077FF540ADDBF800004468DA
:1050A000600702D55846FFF70BFCDBF800004168AB
:1050B0002143416003B0BDE8F08F000080B5D0F817
:1050C000E00406F0DDFE80BD80B5D0F8E00406F017
:1050D000EBFE80BDB0B582B008B30446056890F819
:1050E000950428B9002084F89404204600F078F84C
:1050F0000320B5F1A04F84F8950404BF0020A071EF
:10510000206807F0A1FB94E80F00257C009507F0CC
:1051100013FA30B1022084F8950401255CE00125E2
:105120005AE02068002107F0FFFD20B1022084F83A
:105130009504012550E094F804C0BCF1000F1DD087
:1051400094F804C04FF0010E6046BCF1010F98BF07
:10515000704600EBC000820000230025002000BF45
:10516000611924350875C885AA4200F1010081F84B
:1051700015E00B76C1E907334B62F1D1BCF1000FAA
:1051800016D00CEBCC00800000210022002300BFD1
:10519000A518243285F85432904203F1010385F8B2
:1051A000551285F85812C5E99711C5F86412EFD168
:1051B00094E80F00257C009507F092FA20B10220B8
:1051C00084F89504012507E000250120657484F822
:1051D0009504206807F074FA284602B0B0BD0000BC
:1051E000B0B586B000680024B0F1A04F0594CDE9B9
:1051F00003440294019401D006B0B0BD43F63005DB
:105200000094C4F20205286801A940F0010028605A
:10521000286800F00100009000984FF4C050019001
:105220000220CDE90204032004900A20059000200A
:10523000C4F20200FFF760F96868052140F08000C1
:10524000686000946869002240F480406861686981
:1052500000F48040009000984320FFF7CFFA4320ED
:10526000FFF7C8FA06B0B0BD10B5C179044621B148
:10527000022918BFFDF748FB0121D4F8E00406F02D
:1052800085FED4F8E00406F037FE10BD80B5D0F8F6
:10529000E00406F063FE80BD80B5D0F8E00406F0BF
:1052A00067FE80BD10B5044690F89404012804BF41
:1052B000022010BD012084F894046174206807F076
:1052C00067FD002084F8940410BD000080B5D0F87C
:1052D000E02400F29C41104606F064FE80BD000010
:1052E00010B5044690F89404012804BF022010BDB4
:1052F0002068012184F89414C168490606D5617BB1
:10530000012903D1816B41F48031816307F050FCA6
:10531000206807F0C5F9002084F8940410BD00004F
:1053200010B50446D0F8E00406F078FE2068D0F806
:10533000001E41F00101C0F8001EE07A002808BFFD
:1053400010BD4EF61050CEF20000016841F006018B
:10535000016010BD2DE9F041002800F08B8043F67C
:105360000808C4F202080446D8F8F8030D4600F015
:105370000700884207D288F8F853D8F8F80300F0FD
:105380000700A84276D12068810717D5410705D5C7
:10539000D8F8001041F4E051C8F80010010705D515
:1053A000D8F8001041F46041C8F80010D8F8001097
:1053B000A26821F0F0011143C8F80010C0073FD1E6
:1053C000D8F8F80300F00700A84207D988F8F85386
:1053D000D8F8F80300F00700A8424BD12068410735
:1053E00007D5D8F80010E26821F4E0511143C8F85D
:1053F0000010000708D5D8F80000216920F46040AB
:1054000040EAC100C8F8000000F09EF8D8F800108B
:1054100041F63012C1F30311C0F60102515C40F2B3
:10542000A05220FA01F140F27C60C2F20000006854
:10543000C2F200021160FFF763F90020BDE8F081BD
:105440006068811E022907D258F8081C89015CBFD8
:105450000120BDE8F08110E0012807D158F8081CB0
:1054600089035CBF0120BDE8F08106E058F8081C04
:10547000890702D40120BDE8F081D8F8001021F09E
:1054800003010843C8F80000FFF70AF9064641F295
:10549000883700BFD8F80000616800F00C00B0EB5E
:1054A000810F8DD0FFF7FCF8801BB842F2D90320A2
:1054B000BDE8F0810F22026043F60802C4F2020246
:1054C000136803F003034360136803F0F003836081
:1054D000136803F4E053C360D2F800C04FF4E05304
:1054E00003EADC030361D2F8F80300F00700086068
:1054F0007047000040F2A050C2F200000068704700
:1055000080B5FFF7F7FF43F60801C4F2020109680E
:1055100041F64012C1F38221C0F60102515CC8403D
:1055200080BD000080B5FFF7E5FF43F60801C4F237
:105530000201096841F64012C1F34231C0F601028E
:10554000515CC84080BD000010B543F60404C4F2AD
:105550000204606800F00C0008280AD0042819BF73
:1055600042F20040C0F2F40041F60030C0F2B70051
:1055700010BD206821682368490241F60031C0F25D
:10558000B70100F03F02C3F388105CBF42F2004154
:10559000C0F2F401A1FB00010023FBF765FB2168C9
:1055A0000222C1F3014102EB4101B0FBF1F010BD59
:1055B0002DE9F04182B0002800F0A2800446007876
:1055C00043F60006C007C4F2020643D0B06800F0FC
:1055D0000C00042805D1306880033BD56068C8BB47
:1055E0008EE0B06800F00C00082802D1706840021C
:1055F000F1D46568B5F5A02F0AD0B5F5803F0BD082
:10560000306820F480303060306820F4802006E07C
:10561000306840F480203060306840F48030306082
:10562000FFF73EF8002D054611D000BF306880031B
:1056300010D4FFF735F8401B6428F7D922E100BFEA
:10564000FFF72EF8401B64284FF0030055D8306850
:105650008003F5D4207880071AD5B06810F00C0FBD
:1056600009D0B06800F00C00082840F08A8070680B
:10567000400200F186803068800702D5E06801288A
:105680003ED13068216920F0F80040EAC100306066
:105690002078000738D4207840074CD4A5695DB342
:1056A000B06800F00C00082840F09E80012D27D043
:1056B0007068E16900F480028A4221D1216A00F019
:1056C0003F028A421CD147F6C071626A0140B1EBC9
:1056D000821F15D1A26A0023CFF6FF7303EBC232FB
:1056E00000F440316FF30F02914209D1E16A00F0FA
:1056F0007060B0EB016F03D1002002B0BDE8F08113
:10570000012002B0BDE8F0816069002840F200008D
:10571000C4F2472057D00121C0F8801EFEF7C0FF19
:10572000054600BF706F8007B5D4FEF7B9FF401B78
:105730000228F7D9A6E0306C10F080580AD100207A
:105740000190306C40F080503064306C00F080503C
:105750000190019847F20007C4F200073868C005BD
:1057600024D4386840F480703860FEF799FF05460D
:105770003868C0051AD4FEF793FF401B0228F7D9FA
:1057800080E0E068002851D00020C4F247200121C9
:105790000160FEF785FF0546306880073FF571AF71
:1057A000FEF77EFF401B0228F6D96BE0A568052DA9
:1057B00050D0012D52D0306F20F001003067306F93
:1057C00020F004004DE00021C0F8801EFEF768FFC5
:1057D000054600BF706F80077FF55DAFFEF760FF85
:1057E000401B0228F6D94DE00027C4F247270020CD
:1057F0003866FEF755FF022D05460BD13068800153
:1058000058D5FEF74DFF401B02284FF00300F5D995
:1058100073E700BF306880017FF56EAFFEF740FF91
:10582000401B02284FF00300F4D966E70020C4F2C1
:10583000472000210160FEF733FF054630688007EE
:105840007FF526AFFEF72CFF401B02284FF0030028
:10585000F4D952E7306F40F004003067306F40F009
:1058600001003067FEF71CFF002D054641F2883726
:1058700014D000BF306F800713D4FEF711FF401B18
:10588000B842F7D9032002B0BDE8F081FEF708FF67
:10589000401BB8424FF003003FF62FAF306F800738
:1058A000F4D4B8F1000F7FF4F9AE306C20F08050E2
:1058B0003064F3E604F11C052FCD08430021CFF638
:1058C000FF7140EA821001EBC3316FF30F0140EA30
:1058D00005600843706001203866FEF7E1FE04466B
:1058E000306880013FF508AFFEF7DAFE001B0228A2
:1058F0004FF00300F4D900E77047000010B50446EC
:10590000006841688A0615D44A0615D4C90710D024
:10591000016821F0080101608168E1606079042874
:1059200008BF10BD0120607100202071204600F0EA
:105930004DF810BD102000E00820A0600420607128
:105940002046FFF7D9FF20686FF06001416010BD6D
:10595000002804BF0120704710B50446407920B9E3
:1059600000202071204600F00DF8022060712068B0
:10597000016841F004010160012060710020A06015
:1059800010BD000080B582B0006840F60001C5F28D
:105990000601884201D002B080BD0020019043F68C
:1059A0003400C4F202000168002241F040010160AD
:1059B0000068052100F04000019001985020FEF79A
:1059C0001DFF5020FEF716FF02B080BD704700009B
:1059D00070B538B10446406A30B10020206104F14E
:1059E000140007E0012070BD6068B0F5827F03D02D
:1059F00004F11C00002101600026A66294F8510009
:105A000020B9204684F8506000F03CF8022084F869
:105A1000510094E80F0001F48271056802F4044219
:105A200025F040050560114403F400622369114428
:105A300003F002026369114403F00102A369E569FE
:105A4000114403F40072114405F03802256A114430
:105A500005F08002A56A114305F40052114301606C
:105A6000626A042101EA134102F01002114441600C
:105A7000C16921F40061C1610120666584F85100AB
:105A8000304670BD2DE9F04F87B0044643F2000761
:105A90000068C4F201070026B8420696CDE9046604
:105AA0000396029602D007B0BDE8F08F43F63000AF
:105AB0000196C4F20200416902AD41F48051416196
:105AC00041694FF0020901F4805101910199019659
:105AD00001684FF0010A41F00201016001684FF0D6
