:020000040800F2
:10000000982A0120A10100089D930008796F00083B
:100010000191000841160008ADD000080000000062
:10002000000000000000000000000000C1A1000866
:10003000E127000800000000819C000839AA0008A0
:10004000BB010008BB010008BB010008BB010008A0
:10005000BB010008BB010008BB010008BB01000890
:10006000BB010008412800084D280008BB0100081A
:10007000A9240008BB010008BB010008BB0100085F
:10008000BB010008BB010008BB010008BB01000860
:1000900045160008BB010008BB01000859280008EC
:1000A000BB010008BB010008BB010008BB01000840
:1000B0000DAB00081DAB0008BB010008BB01000828
:1000C000BB010008BB010008BB010008BB01000820
:1000D000BB010008CDB30008BB010008DDB3000878
:1000E000BB010008BB010008BB010008BB01000800
:1000F000BB010008BB010008BB010008BB010008F0
:10010000BB010008BB010008BB010008BB010008DF
:10011000BB010008BB010008BB010008BB010008CF
:10012000BB010008B9240008BB010008BB0100089E
:10013000BB010008BB010008BB010008BB010008AF
:10014000BB01000855160008BB010008F195000826
:10015000C9240008BB010008D92400089DB4000888
:10016000BB010008BB010008BB010008BB0100087F
:10017000BB010008BB010008BB0100080000000033
:10018000556E0008BB010008DFF810D001F094F8AC
:1001900000F0CCFD0048004721E00008982A01202B
:1001A0000648804706480047FEE7FEE7FEE7FEE711
:1001B000FEE7FEE7FEE7FEE7FEE7FEE7F9AA000836
:1001C000890100089FED1A1AF5EE000A40EE010AB7
:1001D000BDEEE00AF5EEC00A10EE100AF1EE10FADC
:1001E00038BF401E00EE100A1349F7EE001AB8EEB1
:1001F000C00A30EEC00ADFED0F0A20EE200AFCEE46
:10020000C00A10EE900AC0F3080000EE900A01EB5D
:100210008000F8EE600A90ED011A70EE600A90ED31
:10022000000A71EEE01A21EE800A00EE810A7047A2
:1002300083F9223E00000044BC110108B5EEC00A5B
:10024000F1EE10FA07D2DFED1E0AB4EEE00AF1EE8D
:1002500010FAA8BF7047DFED1B0AB5EEC00A60EECA
:10026000200ABDEEE01A11EE100AF1EE10FA38BFC6
:10027000401E00EE100A1549F7EE001AB8EEC00A4B
:1002800030EEC00ADFED100A60EE200ABCEEE00A94
:1002900010EE100AC0F3080000EE100A01EB800017
:1002A000B8EE400A90ED011A70EEC00A90ED000A17
:1002B00071EEE01A21EE800A00EE810A704700001C
:1002C000CD024CB483F9223E00000044BC11010869
:1002D00070B405880E884468D1F804C05368B542EC
:1002E00008D140884988884201BF11888D425188D1
:1002F000884203D070BC6FF00200704705FB00F12C
:10030000880827D094ED001ADCED000A94ED010A6C
:10031000DCED011A31EE201AD4ED020A70EE211A3A
:100320009CED020A83ED001AC3ED011A94ED031A45
:10033000DCED031A30EE800A401E71EE210A83EDD7
:10034000020A04F11004C3ED030A03F110030CF1D7
:10035000100CD7D111F0030030D0B0F1004F30D2E3
:1003600000282BDD211F1B1FACF1040210F0010F30
:100370000AD091ED010AD2ED010A091D121D30EEDD
:10038000200A83ED010A1B1D400817D091ED010AD8
:10039000D2ED010A401E30EE200A83ED010A91EDF4
:1003A000020AD2ED020A01F1080102F1080230EE60
:1003B000200A83ED020A03F10803E7D170BC002094
:1003C0007047B4EC010A401EFCEC010A30EE200A32
:1003D000A3EC010AF5D1F1E7018042804360704748
:1003E0002DE9F34F84B0049840680090486801906C
:1003F0000498B0F800E04588DFEDFE0A0020029086
:10040000B0EE600AAE4506D108884988884204BF2C
:100410007146864504D06FF0020006B0BDE8F08F4B
:1004200001985FEA010C18BFB7EE001A3DD000BF7B
:10043000BEEB0C0117D0B1F1004F80F01F820029F4
:1004400011DD021F11F0010F1CBFC2ED010A121DC8
:100450004B1006D0C2ED010AC2ED020A08325B1E43
:10046000F8D100EB8100BCF10102A0EC011A19D017
:10047000B2F1004F80F00882002A13DD031F12F052
:10048000010F1CBFC3ED010A1B1D511008D000BF96
:10049000C3ED010AC3ED020A491E03F10803F7D1B7
:1004A00000EB8200BCF1010CC2D14FF000080395B3
:1004B000002D14BFB0EE602A002000F0BF8100BF05
:1004C000009908FB05F001EB800B0199DBED002A98
:1004D00001EB80000346F0EE421AC64552D9AEEB5E
:1004E0000802ABEB850112F0010F17D001EB85017B
:1004F00091ED000AB5EEC00AF1EE10FA07DDB4EE98
:10050000E10AF1EE10FA09DDF0EE401A06E0B1EE74
:10051000400AF4EEC01AF1EE10FAF5D3521031D0C1
:1005200001EB850C9CED000AB5EEC00AF1EE10FA65
:1005300005DDB4EEE10AF1EE10FA09DD06E0B1EEF8
:10054000400AF4EEC01AF1EE10FA01D2F0EE401AB1
:1005500001EBC50191ED000AB5EEC00AF1EE10FA0B
:1005600005DDB4EEE10AF1EE10FA09DD06E0B1EEC8
:10057000400AF4EEC01AF1EE10FA01D2F0EE401A81
:10058000521ECDD1F5EEC01AF1EE10FA00F07381D3
:10059000F5EEC02A0126F1EE10FA0099D4BFB1EEB3
:1005A000620AB0EE620AB4EE610AF1EE10FA1CBF04
:1005B000AEEB0802B2F1010C47D005FB08F201EBEB
:1005C000820292ED001A00BFB0EE410A05FB06F46C
:1005D000B5EEC00A00EB8404F1EE10FACCBFF0EEE9
:1005E000400AF1EE400AF4EE610AF1EE10FA28D169
:1005F000B5EB080C11D0BCF1004F7DD2BCF1000F5F
:100600000BDD00BF92ED000AD1ED000ABCF1010C38
:10061000E2EC010AA1EC010AF4D129000ED0B1F1FB
:10062000004F6AD2002909DD94ED000AD0ED000ADE
:10063000491EE4EC010AA0EC010AF5D10120029068
:100640000BE0761CBCF1010CBED10298012804D04D
:10065000F5EEC02AF1EE10FA7ED09BED000AB5EB64
:1006600008009A465946064622D0B0F1004F74D28F
:1006700000281DDD091F10F0010F06D0F0EE400A22
:1006800080EEA01A81ED011A091D401010D000BFA4
:10069000D1ED010A401E80EE801A81ED011A91ED24
:1006A000021AC1EE000AC1ED020A01F10801EFD100
:1006B000280026D0B0F1004F7ED2002821DDAAF11B
:1006C000040110F0010F06D0D1ED010A80EE801A6E
:1006D00081ED011A091D401013D000BFD1ED010AB0
:1006E000401E80EE801A81ED011AD1ED020A80EEE3
:1006F000801A81ED021A01E0CBE0D6E001F1080199
:10070000ECD1DDE900124FF000095FEA0E0773D06B
:10071000C14504BF01EB860102EB850274D091ED67
:10072000000ADC465046331E35D01C46B6F1004F59
:100730007ED2002C2FDD0B1FABF1040C16F0010F45
:100740000FD0F0EE400ADCED011AB0EE601A00EEB8
:10075000E11A83ED011A01E08DE0B1E01B1D0CF1FF
:10076000040C741015D000BFD3ED010A9CED011AE2
:1007700040EE410AC3ED010AD3ED020A9CED021AD4
:100780000CF1080C40EE410AC3ED020A0833641E66
:10079000EAD101EB86012B0036D0B3F1004F72D2C3
:1007A000002B31DDA2F1040CAAF1040013F0010FBB
:1007B0000CD0DCED010A00E08BE090ED011A001D89
:1007C00040EE410ACCED010A0CF1040C5C1019D08A
:1007D000DCED010A90ED011A40EE410ACCED010A70
:1007E000DCED020A90ED021A083040EE410ACCED31
:1007F000020A03E0000000000DE005E0641E0CF1B9
:10080000080CE5D102EB830201EB88017F1E09F1A0
:1008100001097FF47DAF009808F10108001D0090E8
:100820000398401E03907FF44BAE0299012900E02B
:1008300058E004BF06B0BDE8F08F00BFB5EEC00AB7
:10084000F1EE10FA7FF4E9AD04990EFB05F3002BED
:100850004A684FF000010BD902EB810C9CED000AB5
:10086000B5EEC00AF1EE10FA02D1491C8B42F3D862
:100870008B427FF4D2AD6FF00400CEE5E0EC010ACC
:10088000491EFBD1EFE538E0E0EC010A521EFBD136
:1008900008E692ED000AD1ED000ABCF1010CE2EC91
:1008A000010AA1EC010AF4D1B7E694ED000AD0EDFB
:1008B000000A491EE4EC010AA0EC010AF5D1BDE6EC
:1008C000D1ED000A401E80EE801AA1EC011AF7D18A
:1008D000EEE6D3ED000A401E80EE801AA3EC011A6A
:1008E000F7D10EE7BCEC011AD1ED000A5B1E40EE19
:1008F000410AE1EC010AF5D14DE7B0EC011AD2ED65
:10090000000A5B1E40EE410AE2EC010AF5D17BE7EA
:100910002DE9F04F82B046685368019305884788F7
:100920004B88002000900888874201BFB2F800C0C1
:100930006545528893421EBF6FF0020002B0BDE8C9
:10094000F08F9FED412A4FEA970EC7F3400B00BF8F
:10095000DDE9000202EB800A4A6898464FF0000980
:10096000B0EE420AB4465FEA0E0025D092ED001ABE
:10097000DCED001A02EB8302DCED010A01EE810AD4
:1009800092ED001A02EB8302401ED2ED001A02EB38
:10099000830200EE810A9CED021ADCED030A0004DA
:1009A0000CF1100C000C01EE210A92ED001A02EB82
:1009B000830200EE810AD9D117F0030026D0ACF1F2
:1009C0000404A2EB830210F0010F08D002EB8302B3
:1009D000D4ED010A92ED001A241D00EE810A5FEAAF
:1009E0000B0013D002EB830CD4ED010A9CED001A2E
:1009F00002EBC302401E00EE810AD4ED020A92ED22
:100A0000001A04F1080400EE810AEBD109F101009B
:100A1000AAEC010A1FFA80F9486800EB8902A8F1E4
:100A200001001FFA80F8B8F1000F99D1009806EB89
:100A30008706184480B20090681E05042D0C87D1EB
:100A400002B00020BDE8F08F0000000070B40588FF
:100A50000E884468D1F804C05368B54208D1408874
:100A60004988884201BF11888D425188884203D04D
:100A700070BC6FF00200704705FB00F1880827D0BA
:100A800094ED001ADCED000A94ED010ADCED011A88
:100A900031EE601AD4ED020A70EE611A9CED020A82
:100AA00083ED001AC3ED011A94ED031ADCED031A6D
:100AB00030EEC00A401E71EE610A83ED020A04F1B5
:100AC0001004C3ED030A03F110030CF1100CD7D18D
:100AD00011F0030030D0B0F1004F30D200282BDDF0
:100AE000211F1B1FACF1040210F0010F0AD091ED81
:100AF000010AD2ED010A091D121D30EE600A83EDD4
:100B0000010A1B1D400817D091ED010AD2ED010A20
:100B1000401E30EE600A83ED010A91ED020AD2ED2B
:100B2000020A01F1080102F1080230EE600A83EDC9
:100B3000020A03F10803E7D170BC00207047B4EC4F
:100B4000010A401EFCEC010A30EE600AA3EC010A27
:100B5000F5D1F1E72DE9F04F02884768B0F802803F
:100B60004888D1F8049082B04FF0000A16468242BD
:100B700007BF098888456FF0020002B018BFBDE8C2
:100B8000F08F4FEA980B02EB42000190C8F340004F
:100B9000CDF8000009EB8A01BBF1000F33D00198BA
:100BA00001EB820C01EB80043B46E64601EBC205FB
:100BB0004FEA0B0093ED000A401E81ED000A93ED11
:100BC000010A01EB02118CED000A93ED020A0CEB15
:100BD000021C85ED000A93ED030A05EB021584ED76
:100BE000000A04EB021403F11003E3D10EEB8200C0
:100BF00000EB820000EB8201ABF10100504307EBF8
:100C00000B1701EB001118F0030C21D03B1FA1EBD7
:100C100082011CF0010F06D093ED010A01EB820165
:100C20001B1D81ED000A009880B100BF93ED010A01
:100C300001EB820401EBC20184ED000A93ED020A8C
:100C4000401E81ED000A03F10803EFD107EB8C078A
:100C50000AF101001FFA80FA701E0604360C99D1C1
:100C600002B00020BDE8F08F2DE9F05F05460020BE
:100C700092469B4688460646814640241BE028460D
:100C800041464746224600F061FA53465A46C01A8A
:100C9000914110D311461846224600F048FA2D1A09
:100CA00067EB01084F4622460120002100F03FFA81
:100CB00017EB00094E41201EA4F10104DFDC484679
:100CC00031462A464346BDE8F09F40EA01039B07B0
:100CD00003D009E008C9121F08C0042AFAD203E0B1
:100CE00011F8013B00F8013B521EF9D27047D2B215
:100CF00001E000F8012B491EFBD270470022F6E705
:100D000010B513460A4604461946FFF7F0FF204681
:100D100010BD30B504460020034600E05B1C934242
:100D200003D2E05CCD5C401BF8D030BD70B5054C03
:100D3000054D04E02046016808448047241DAC426C
:100D4000F8D170BD401F0108441F01082DE9FE4F76
:100D5000804681EA0300C00F0C46009021F000415C
:100D600023F00045B8EB0200A94105D240462146D8
:100D700090461C460B46024623F00040104347D0E5
:100D8000270DC7F30A00C3F30A510290401A0190DD
:100D900040286BDAC3F3130040F4801B009892469E
:100DA00020B10023D2EB030A63EB0B0B01985946E9
:100DB000C0F14002504600F0BAF906460D465046D2
:100DC0005946019A00F0D2F910EB08006141002465
:100DD00087EA115284EAE7731A4340D0009A62B35B
:100DE000019A012A4FEA075215DC001B61EB020150
:100DF0004FF0004202EA0752CDE90042001C41F5E3
:100E0000801132462B4600F009FA03B0BDE8F08F9E
:100E100040462146F9E7001B61EB0201001C41F549
:100E2000801300185B412018A2F5001747EB03015F
:100E300040EAD570B6196D4111E06D084FEA3606EB
:100E400045EAC0754FEA0752001B61EB0201001C26
:100E500041F5801149084FEA3000001951413246EE
:100E60002B4603B0BDE8F04F00F0C9B9009801224D
:100E700040000023D0EB020263EBE07300982146B0
:100E80004FEAE074B8EB000061EB0401E9E783F09E
:100E900000435BE781F0004158E72DE9FE4F81EA0E
:100EA000030404F0004421F0004100944FF0000BD3
:100EB00023F0004350EA01045ED052EA03045BD001
:100EC000C3F30A54C1F30A552C44A4F2F334019439
:100ED000A0FB0254C1F3130141F48011C3F31303C7
:100EE00043F4801301FB024400FB034E840A970A7B
:100EF00044EA815447EA8357A4FB076802958D0AA8
:100F000005FB07854FEA932C04FB0C542705029D33
:100F10004FEA065847EA1637B5EB08056EEB070CA3
:100F2000870E920E47EA811742EA8312A7FB02015D
:100F3000B6EB0B0164EB00042B0D43EA0C335E1897
:100F400044EB1C50DA465146E7FB0201C5F313049B
:100F50004FEA0B3343EA14534FEA0432019C43EA4D
:100F60000603A4F10C040294009CCDE900B400F047
:100F700055F903B0BDE8F08F00200146F9E72DE9EF
:100F8000F04D81EA030404F0004B21F000451446C3
:100F90004FF0000A23F0004150EA050220D054EA45
:100FA00001021DD0C5F30A570246C5F31303C1F36E
:100FB0001300C1F30A5640F4801543F48013A7EBE5
:100FC0000608101BD64608F2FD3873EB050002D365
:100FD00008F1010801E092185B41B8F1000F03DA53
:100FE00000200146BDE8F08D00204FF48011064638
:100FF00084460EE0171B73EB050705D3121B63EB4A
:10100000050306434CEA010C49084FEA30009218E8
:101010005B4150EA0107EDD152EA030012D082EAA7
:10102000040083EA0501084305D0101BAB4106D23A
:101030000122002306E000224FF0004302E06FF09F
:10104000010253101AEB06004CEB085110EB0A009A
:1010500041EB0B01BDE8F04D00F0D1B830B40446CF
:1010600096230800214604D0B62330BC002200F0AD
:1010700098B820460021F8E70EB540F233410291BE
:101080000021CDE900110A460B4600F0C7F803B075
:1010900000BD70B5C1F30A5201F000450024C1F350
:1010A000130140F2FF3341F480119A4201DA00202B
:1010B00070BD40F233439A42A2F2334203DC524203
:1010C00000F044F800E090402C43F1D0404270BD65
:1010D00000F0004230F000400AD0C10D01F560710F
:1010E000C0F3160042EA0151C2084007114370479D
:1010F00000200146704701F0004330B421F0004168
:1011000050EA010206D00A0DA2F56072C1F3130184
:10111000002A02DC30BC00207047440F44EAC104BE
:10112000C100E01830BC00EBC25000F031B8202AFA
:1011300004DB203A00FA02F1002070479140C2F12E
:10114000200320FA03F3194390407047202A04DB60
:10115000203A21FA02F00021704721FA02F3D04030
:10116000C2F120029140084319467047202A06DB4D
:10117000CB17203A41FA02F043EAE07306E041FA65
:1011800002F3D040C2F12002914008431946704753
:101190000029A8BF7047401C490008BF20F001008B
:1011A000704710B4B0FA80FC00FA0CF050EA010469
:1011B00004BF10BC704749B1CCF1200421FA04F4FB
:1011C00011FA0CF118BF012121430843A3EB0C01D4
:1011D000CB1D4FEA00614FEA102042BF002010BC37
:1011E000704700EBC35010440029A4BF10BC7047E7
:1011F000401C490008BF20F0010010BC704710B52A
:10120000141E73F1000408DA401C41F10001921829
:101210005B411A4301D120F0010010BD2DE9F04DD2
:1012200092469B4611B1B1FA81F202E0B0FA80F227
:1012300020329046FFF77BFF04460F4640EA0A0043
:1012400041EA0B0153465A46084313D0114653EA6C
:10125000010019D0C8F140025046FFF777FF05465C
:101260000E46504659464246FFF761FF084305D0F7
:10127000012004E020463946BDE8F08D00200543FA
:1012800046EAE0762C4337430A986305E40AA0EB6C
:1012900008000022FD0A44EA47540A3002D5002023
:1012A0000146E9E7010510196941DDE90845001922
:1012B0006941BDE8F04DA2E7064C074D06E0E06845
:1012C00040F0010394E8070098471034AC42F6D38D
:1012D000FEF75EFF201F0108401F01080EB5C10F79
:1012E00080EAE0700844CA07002140F233438DE8E9
:1012F0000E000A460B46FFF791FF03B000BD70B524
:101300008C1810F8015B15F0070301D110F8013BB0
:101310002A1106D110F8012B03E010F8016B01F837
:10132000016B5B1EF9D12B0705D40023521E0DD48F
:1013300001F8013BFAE710F8013BCB1A921C03E0DD
:1013400013F8015B01F8015B521EF9D5A142D8D315
:10135000002070BD70B50C4640F2DC6142F6C875E5
:10136000C2F20001C2F20005002608602E700CF0E7
:1013700077FA2978084328700CF028FB297840EA8E
:10138000010028701CB100F0C3F9287870BD40F24C
:10139000946043F6AC0142F27123C2F20000C3F63E
:1013A0002231C3F6807341F2B06247F2B07E49F653
:1013B0002A044CF6923CC0E908310021C3F6CE1253
:1013C000C3F64C6EC3F69354C4F21C1CC4F2202125
:1013D000C0E90A22C0E90CE4C0E90E6C81612878FA
:1013E00070BD000080B50020C4F20200102101226F
:1013F00003F006FA80BD000080B50020C4F20200B0
:101400001021002203F0FCF980BD000080B540F2FD
:101410000040C4F202000121012203F0F1F980BD75
:1014200080B540F20040C4F202000121002203F026
:10143000E7F980BD70B50446FFF7DEFF922000F0AB
:10144000DDF840F2D465C2F20005122029460622DA
:1014500000F0B0F8FFF7C6FFB5F9000094ED082AD8
:1014600000EE100A40F20C00C2F2000090ED001AEB
:10147000B8EEC00A21EE000A22EE000A84ED000A4E
:10148000B5F9021090ED001A00EE101AB8EEC00A7D
:1014900021EE000A22EE000A84ED010AB5F90400EB
:1014A00000EE100AB8EEC00A21EE000A22EE000A91
:1014B00084ED020AFFF7B4FF002029460822002627
:1014C00000F078F8FFF7A2FF28780F284AD1B5F985
:1014D000021040F27A6000EE101A40F21001C2F2DF
:1014E0000000C2F200010078B8EEC01A91ED000AC7
:1014F00020EE011A00B394ED092AB5F90400B5F9FC
:10150000061031EE421A02EE100A94ED0A3AB8EED5
:10151000C22A84ED031A01EE101A94ED0B4A20EE54
:10152000022AB8EEC11A32EE432A20EE010A84EDF7
:10153000042A30EE440A13E0B5F90400B5F90610A8
:1015400002EE100A84ED031A01EE101AB8EEC22A58
:10155000B8EEC11A20EE022A20EE010A84ED042A18
:1015600084ED050AFFF748FFA22000F047F822208B
:101570002946022200F01EF8FFF734FF2878697828
:10158000C00040EA51104FF60001CFF6FF71B6EBF4
:10159000902F18BF084300EE100AB8EEC00AB4EE50
:1015A000001A20EE010AB3EE071A30EE010A84EDAC
:1015B000070A70BDB0B540F0800014460D4600F03B
:1015C0001DF8002C08BFB0BD013D00BF552000F044
:1015D00015F8013C210605F8010FF7D1B0BD000058
:1015E00080B540F0800000F009F8552000F006F8C2
:1015F00044F24421C2F20001087080BD80B582B07F
:1016000040F2DC61C2F200010B688DF807004FF474
:101610007A7C0DF107010DF1060218460123CDF881
:1016200000C004F081FB9DF8060002B080BD000000
:1016300010B50C46FFF7E2FF2046FFF7DFFF10BDB5
:10164000FEE7000080B543F2BC20C2F2000002F0C9
:10165000E5FA80BD80B543F2E420C2F2000002F05A
:10166000DDFA80BD80B588B0029100210823CDE964
:101670000311059106938DF81C10019102A901AB8D
:1016800002F07EF908B080BD00207047002070474E
:1016900010B542F6E074C2F2000442F22061C2F2D8
:1016A0000001204600220AF0CBF841F62061C2F288
:1016B000000120460AF0B6F8002010BD10B542F631
:1016C000E074C2F20004014620460AF0ABF820465E
:1016D0000AF082F8002010BD0020704710B542F6D5
:1016E000E072C2F20002D2F8BC22D2F81432002B0F
:1016F0001CBF012010BD42F6E074C2F200040A468D
:10170000014620460AF09CF820460AF037F910BD41
:101710002DE9F04F81B02DED108B88B00020CDE980
:10172000060000F0A7FF40F24874C2F2000484ED06
:10173000000A00F09FFF94ED001AB2EE08BA30EEF6
:10174000410AB4EE4B0A40F29466F1EE10FAC2F28E
:10175000000621DD43F6AC0041F2B061C3F6223051
:10176000C3F6CE11C6E909014CF69230C4F21C1042
:10177000F0630020C4F22020F162B06196ED0F0A00
:101780009FEDAB1A81EE000A86ED080A08B0BDECA9
:10179000108B01B0BDE8F08F9FEDEDCA03AD6F4631
:1017A0009FEDEC8A42F6D4789FEDEDEADFEDED9AFD
:1017B000DFEDE9AADFEDECBA9FEDE89AA5F1040AA6
:1017C000A7F1040B06ACC2F20008B6EE00DAB4EEE4
:1017D00000FAF3EE078AF0EE4CCA0EE000F04AFF82
:1017E00040F24870C2F2000090ED001A30EE410A5B
:1017F000B4EE4B0AF1EE10FAACDCB0EE480A00F0A1
:10180000F7FE4FF00009C6F83C90C6E90999C6F802
:101810002C9000BFFFF7F0FD9220FFF7EFFE1220A3
:1018200021460622FFF7C6FEFFF7DCFDBDF91800D2
:10183000BDF91A1000EE100A40F20C00C2F20000CE
:1018400090ED001AB8EEC00ABDF91C2021EE002A66
:1018500000EE101AB8EEC00A21EE003A00EE102A8F
:10186000B8EEC00A21EE001A22EE020A23EE034A65
:1018700030EE040A21EE014A30EE040AB1EEC0AAAD
:1018800086ED002A86ED013A86ED021AB4EE4AAAE8
:10189000F1EE10FA80F1C78096ED0F0A3AEE000AD9
:1018A00086ED0F0AFFF7BCFD002021460822FFF756
:1018B00081FEFFF7ABFD9DF818000F2835D1BDF96B
:1018C0001A00BDF91C1000EE100A40F21000C2F21E
:1018D000000090ED001AB8EEC00A96ED092A21EE3C
:1018E000000A86ED030A32EE000A02EE101ABDF974
:1018F0001E2096ED0A3AB8EEC22A21EE022A86EDA3
:10190000042A33EE022A03EE102A96ED0B4AB8EEB3
:10191000C33A21EE031A86ED051A34EE011A86ED5C
:10192000090A86ED0A2A86ED0B1AB9F1000F2BD0B1
:10193000002000BF311891ED030A291891ED001A1B
:10194000B4EE410AF1EE10FAC8BF81ED000A391871
:1019500091ED001A0430B4EE410AF1EE10FAB8BF6E
:1019600081ED000A0C28E5D1B4EE6CAAF1EE10FA74
:10197000B4EE4CAAC8BFF0EE4ACAF1EE10FAB8BFF6
:10198000B0EE4ACA0DE000BF7169D6E90302F0EE7D
:101990004ACACDE90421CDE90002CDE90210B0EE3A
:1019A0004ACA42F6CC703CEECC0AC2F2000080ED8E
:1019B000000A6FF003005946524600BF92ED011A2B
:1019C00091ED012A08EB000304300432043131EEBA
:1019D000421A082883ED011AF0D1B4EE4D0AF1EE57
:1019E00010FA27DC98ED000AB4EE6A0AF1EE10FA5C
:1019F00020DC98ED010AB4EE6A0AF1EE10FA19DC67
:101A000098ED020AB4EE6A0AF1EE10FA12DCB0EEBA
:101A1000490A00F0EDFD41F26F70814509F10109BD
:101A2000FFF4F8AE06E00EF007FFB0EE40AA33E791
:101A3000C3F51C4196ED0F0A202080EE0E0A86EDBC
:101A40000F0A00BF311891ED010A043080EE0E0A32
:101A50002C2881ED010AF5D1FFF7CEFCA220FFF77B
:101A6000CDFD222021460222FFF7A4FDFFF7BAFC9C
:101A70009DF818009DF81910C00040EA511000218F
:101A8000B1EB902F4FF60001CFF6FF7118BF08435E
:101A900000EE100AB8EEC00A20EE0F0A42F6CC7132
:101AA00030EE280A42F6BC72C2F2000186ED060A48
:101AB000C2F2000291ED000A1088B4EE4D0A013026
:101AC000F1EE10FA10803FF789AE98ED020AB4EEFD
:101AD0006A0AF1EE10FA3FF781AE98ED010AB4EE12
:101AE0006A0AF1EE10FA3FF779AE98ED000AB4EE0B
:101AF0006A0AF1EE10FA3FF771AE96ED0F0A30EE7A
:101B0000290AB0EEC00AB4EE4D0AF1EE10FA3FF722
:101B100065AE96ED090AB0EEC00AB4EE6B0AF1EEBE
:101B200010FA3FF75BAE96ED0A0AB0EEC00AB4EECB
:101B30006B0AF1EE10FA3FF751AE96ED0B0AB0EEDC
:101B4000C00AB4EE6B0AF1EE10FA3FF747AE15E6A5
:101B5000000000000AD7A33B9A99193E6F12033A7E
:101B60000080BB45CDCC1CC10AD7233C80B58AB0D0
:101B700001220792026846F20043C4F200030021EA
:101B80009A424FF00E030691CDE90011CDE9021102
:101B9000099308D046F60001C4F200018A4205D13B
:101BA00001220E2100E00022CDE90421012108914B
:101BB000694601F02FFF0AB080BD000080B540F6F5
:101BC0007C00C2F20000007B01280AD142F62060AE
:101BD000C2F200000078022806D040B900F0C6F931
:101BE00080BD00F0A7F980BD00F0A4FB80BD00F02F
:101BF000F3FB80BD80B540F67000C2F200000188A2
:101C000044F28E22C2F200021180D0F802108079D4
:101C1000C2F80210907140F22870C2F20000017800
:101C200000200329D07116D841F2B830C2F200006A
:101C3000DFE801F00206090C417821F01E0109E0FD
:101C40004178042204E04178012201E04178022237
:101C500062F34401417043F2E42044F28E22C2F266
:101C60000000C2F200024FF48871FFF7FBFC80BD58
:101C700080B52DED068B41F25650C2F200004FF4B4
:101C8000AB619FED1E9A9FED1EAA018040F2787015
:101C9000B1EE048AC2F20000B7EE001A4FF4FA5116
:101CA000B0EE480AF0EE490AF0EE491AB0EE492AC1
:101CB000F0EE492AB0EE4A3A07F0CAFF40F2F0705F
:101CC000C2F20000B0EE001A4FF4FA51B0EE480A2A
:101CD000F0EE490AF0EE491AB0EE492AF0EE492A30
:101CE000B0EE4A3A07F0B4FF40F22870C2F20000AA
:101CF00001210170BDEC068B80BD00BF000000001B
:101D00006F12833A000000002DE9F0412DED028BA7
:101D100040F22877C2F20007387803280CD8DFE8B1
:101D200000F0025B0F2C40F67000C2F200000021B0
:101D30008180016001218171BDEC028BBDE8F081E1
:101D400042F62060C2F2000090ED050A9FED771A7E
:101D500040F670049FED762AC2F2000420EE010ADC
:101D6000B4F9040020EE020ABDEEC00A01EE100A2A
:101D7000B8EE400AF8EEC10A21E042F62060C2F255
:101D8000000090ED010AB5EE400AF1EE10FAD3D151
:101D900090ED020AB5EE400AF1EE10FACCD190F8BF
:101DA00078000028C8D140F67004C2F20004B4F9EB
:101DB000040000EE100AF8EEC00A9FED5B0AB2EED6
:101DC0000E1A07F0BFFFBDEEC00A10EE100AA08089
:101DD000BDEC028BBDE8F08142F62068C2F200083B
:101DE000D8F80C00D8F86440FFF772F90546204691
:101DF0000E46FFF76DF99FED4A0B53EC102BFFF7E2
:101E00004CF82A463346FEF7A1FFFFF774F940F677
:101E1000B406C2F2000640F218043288C2F200048E
:101E2000E060A2F6595080B240F6FF71002388426C
:101E300040F6FE7538BF0123A84241F2545041F2EA
:101E40005851C2F2000088BF4FF4AB61037042F6F4
:101E5000D070C2F20000007800EE102A0028104670
:101E60007980B8EE408A18BF40F27D2107F05AFF12
:101E700040F2787500EE100AC2F20005F8EEC00AD2
:101E80002846B0EE480A07F0B5FCB6F9020040F269
:101E9000F07600EE100AD5ED110AC2F20006B8EE97
:101EA000C00A304607F0A6FC95ED110A96ED111A0E
:101EB000204631EE408A86ED118A00F05DFD98EDF6
:101EC000051A9FED1A2A9FED1A3A21EE021A38EEF2
:101ED000000A21EE031A30EE010ABDEEC00A4CF2F0
:101EE000A52110EE100ACFF6FF718842C8BF014647
:101EF00043F65B508142A8BF014641F2F440C2F272
:101F00000000007840F67002C2F20002002818BFFC
:101F100000219180BDEC028BBDE8F08100BF00BFC5
:101F20009A9999999999E93F0058C4450000FA4453
:101F3000DB0F494080B540F67000C2F2000001227C
:101F40000021827144F28E2281800160C2F200027F
:101F50004FF48030506043F2E4201160C2F2000080
:101F60004FF48871FFF77EFB80BD000070B540F232
:101F7000287EC2F2000E9EF8000040F25E7C00282F
:101F800004BF02208EF80000C2F2000CBCF8000072
:101F900042F62061431C40F67000C2F20001C2F21A
:101FA0000000002291F87540827191F87400BFEE34
:101FB000001A91F87760002CB0EE412AB7EE003A93
:101FC000ACF8003091F876509FED380A08BFB0EEBB
:101FD000402A0028B0EE434A08BFB0EE424A002E25
:101FE00008BFB0EE403A002D08BFB0EE431A91F89A
:101FF0007A4040F25C70C2F2000081ED011A81ED7E
:10200000024A84B1057855B99EF800500126012D89
:102010004FF0010508BF02258EF800500670002C15
:1020200008BF027000E0027091F87C0040F25D721F
:10203000C2F2000268B1147854B99EF8004003253A
:10204000032C4FF0010408BF02258EF800501470D5
:1020500008B90020107091F87D0041F2F442C2F2FC
:10206000000208B1147854B170B998B2B0F5FA7F93
:102070000AD9107800281CBF0020107004E001204D
:1020800010700020ACF8000091F8790000281CBF07
:1020900001218EF80010002818BF70BD9EF80000C6
:1020A000012804BF02208EF8000070BD000000006F
:1020B0002DE9F04F81B02DED048B40F6B400C2F253
:1020C000000000889FED961AC0F5AB6000EE100A84
:1020D000B8EEC00A80EE010A40F2687A9FED911ACC
:1020E000C2F2000A41F2BE31C2F2000142F620649F
:1020F000C2F2000494F878504FF47A66002D40F252
:10210000647B40F26C7940F26E788AED000A20EE32
:10211000010ABDEEC00A10EE100AC88041F2F87044
:10212000C2F2000041F65851018041F20850C2F25B
:10213000000040F65851018041F25450C2F20000B4
:1021400008BF4FF4FA660078C2F2000B0128C2F211
:102150000009C2F20008ABF8006000D0F8B994EDB5
:10216000021A00EE106AB8EE400A21EE401ABDEEE7
:10217000C11A11EE100A94ED011AA9F8000021EE1F
:10218000000A10EE100AFEF7A3FF9FED610B53EC5F
:10219000102BFEF782FEFEF77CFFA8F8000040F24D
:1021A0002870C2F20000007840F670070328C2F2DF
:1021B000000750D16DB994ED010AB5EE400AF1EE79
:1021C00010FA06D194ED020AB5EE400AF1EE10FACB
:1021D00041D000EE106A9FED541AB8EE400A80EE2E
:1021E000011A40F26075C2F200059FED508A40F27C
:1021F0007074D5ED000AC2F200040120B0EE480A66
:10220000207007F09FFD20789FED499A0028B7F9CC
:10221000040085ED000A18BFB0EE489A00EE100ADF
:10222000BBF80000B8EEC08AFEF726FF9FED3A0B20
:1022300053EC102BFEF7A3FEFEF75DFF01EE100A34
:10224000B0EE490AF0EE480A07F07CFDBDEEC00A88
:1022500010EE100AB88040F67C00C2F20000C1788F
:10226000B9F80000012947D142F6D071C2F200014D
:102270000978002940D100B29AED001A00EE100A48
:10228000B8EEC08AB1EE410AFDF7D8FFB8F90000F8
:102290009AED001A20EE088A00EE100AB8EEC09AF5
:1022A000B1EE410AFDF78EFF20EE090A38EE000A72
:1022B000BDEEC00AB9F9001010EE100A9AED000A3E
:1022C00001EE101A3880B8EEC18AFDF77BFFB8F92D
:1022D000000020EE088A9AED000A01EE100AB8EE1E
:1022E000C19AFDF7ABFF20EE090A38EE000ABDEEF9
:1022F000C00A10EE101A02E0B8F800103880798099
:10230000BDEC048B01B0BDE8F08F00BF00BF00BF83
:10231000666666666666E63F0000000000708740FD
:102320007BF4A24400007A4400803B4400504445C2
:102330000000000040F22870C2F2000040F6700178
:102340000278C2F200010023002A8B7104BF02212F
:10235000017042F62061C2F2000191ED071AB7EE5A
:10236000000AB4EE401A40F2E872F1EE10FAC2F23E
:1023700000020CD1137853B903784FF0010C012BF4
:102380004FF0010308BF0223037082F800C0B5EECE
:10239000401AF1EE10FA04BF0023137091ED081AF1
:1023A00040F2E971B4EE401AF1EE10FAC2F2000107
:1023B00009D10A783AB902780323032A08BF022315
:1023C000037001200870B5EE401AF1EE10FA04BF58
:1023D000002008707047000040F22870C2F2000030
:1023E0000021017070470000FFF742FC40F66004D6
:1023F000C2F200040DF0DEFC2060FFF7DFFBFFF708
:1024000083FCFFF755FEFFF7F5FB204601210CF09A
:102410003DFEEFE710B50A8844F6D35E92FA82FCDF
:102420004FEA1C4202804B88C1F2620EDBBA53FBBA
:102430000EF39C0904EBD37343808B88DBBA53FB08
:102440000EF39C0904EBD37383808B79837103892A
:10245000CC79C3EB1C4109B2B1F5805FC47102DBDA
:102460004389013B438111F5805F02DC41890131E1
:102470004181B0F90A1000EE102A02EB41319FEDC4
:10248000091A02EE101AB8EE400AB8EEC22A20EE7F
:10249000010A22EE011AC16080ED040A80ED051ADE
:1024A000028110BD0000343D80B543F28C40C2F281
:1024B000000001F053FF80BD80B543F2EC40C2F252
:1024C000000001F04BFF80BD80B543F2CC30C2F27A
:1024D000000001F043FF80BD80B543F22C40C2F202
:1024E000000001F03BFF80BDD0F800C06FF00F028C
:1024F0004AF6AB2352FA8CF2CAF6AA230146A2FB93
:102500000330000905A31B5C40F2FF302CEA0000F9
:102510005F2A88BF0430C1E9160370470006101611
:10252000000610168269816AB2F5005F06D06AB9AA
:10253000022912D0012914D0D1B90EE0032917D8ED
:10254000DFE801F0020B020F0120704703293CBFB6
:10255000012070471CBF00207047C06AC0F30060B4
:102560007047C06AA0F1C070B0FA80F040097047AF
:102570000020704780B5D0F800C0D0F808E0DCF843
:102580000000BEF1400F20F48020CCF80000084687
:10259000CCF8043004BF10460A46CCF80800CCF84A
:1025A0000C2080BD80B582B0136852680093019200
:1025B0006A46FFF757F802B080BD000081B041F2D3
:1025C0000400CEF200000068009040F24070C2F2B9
:1025D000000000990268914206D240F24471C2F2B2
:1025E00000010A6801320A600099016001B0704779
:1025F00041F2040040F22C72CEF20000C2F200025E
:10260000016892ED001AB8EE411A21EE000A00BFEF
:102610000268521A01EE102AB8EE411AB4EE410ACD
:10262000F1EE10FAF4DC704780B52DED028B82B02C
:1026300041F20401CEF2000109680191019902689A
:10264000891A00EE101A40F22C71C2F2000191EDCD
:10265000001A0199B8EE400AB8EE411A80EE018ADC
:102660000160FFF7ABFFB0EE480A02B0BDEC028B91
:1026700080BD000080B500F065F841F6E800C2F2C8
:102680000000818890ED000A01EE101A9FED0A2AE1
:10269000B8EE411AC088B8EE400A21EE021A31EEB7
:1026A000000A01EE100A9FED052AB8EE411A21EE4C
:1026B000021A30EE010A80BD6F12833ABD378635AB
:1026C00010B54EF6FC5CCEF2000CDCF8002044F2B3
:1026D0004023C0F20F0342F08072584344F6D353B4
:1026E000CCF8002041F20002C1F26203CEF20002F7
:1026F0004FF0000CA0FB033EC2F804C04DF683610E
:102700001368C4F21B31A0FB011443F001011160F6
:1027100040F22C71C2F20001086040F230714FEAC1
:102720009E10C2F20001086040F23471A00CC2F2A7
:102730000001086040F24470C2F20000C0F800C01E
:1027400010BD0000F0B581B041F20400CEF20000EF
:1027500000680090FFF732FF40F24470C2F20000C0
:102760000068009C00254FF0FF31E0FB014540F27E
:102770002C71C2F2000140F238700E68C2F2000003
:10278000C0E900452046294632460023FEF76CFA90
:10279000A0FB062301FB0631A41A8D4140F23071E3
:1027A000C2F2000141F6E8070E68C2F20007386085
:1027B0002046294632460023FEF756FAB88080B2FA
:1027C00040F234717043C2F20001201A0A6865F1C8
:1027D00000010023FEF748FAF88001B0F0BD0000C8
:1027E0007047000041F65C00C2F20000017A31B38C
:1027F000032941F6E401C2F200010FD141F2046263
:10280000C2F20002B2F9022002EBE23383EAE232C2
:1028100092B2142A02D80A8801320A800A88322A1F
:1028200003D30423013203720A800A8840F227236B
:102830009A4238BF704700220A8003210172704714
:1028400080B5082001F000FF80BD000080B5102099
:1028500001F0FAFE80BD000080B5202001F0F4FEFA
:10286000402001F0F1FE802001F0EEFE80BD00006E
:1028700072B600BFFEE7000080B5007A01380B2871
:1028800088BF80BDDFE800F006121E252C3D4D54A8
:102890005B62697007F074FA013040F67C00C2F2A6
:1028A00000000CBF02210121017080BD04F066FB15
:1028B000013040F67C00C2F200000CBF0221012171
:1028C000417080BD40F67C00C2F200000121C17061
:1028D00080BD40F67C00C2F200000121817080BD05
:1028E00041F68400C2F20000283007F081FA01307E
:1028F00040F67C00C2F200000CBF02210121C17130
:1029000080BD41F68400C2F2000007F071FA013088
:1029100040F67C00C2F200000CBF0221012181714F
:1029200080BD40F67C00C2F200000121017280BD32
:1029300040F67C00C2F200000121417280BD40F6E9
:102940007C00C2F200000121817280BD40F67C0053
:10295000C2F200000121C17280BD40F67C00C2F2CB
:1029600000000121017380BD40F67C00C2F200002E
:102970000121017180BD000090ED032A90ED023A23
:1029800090ED000A90ED011A32EE433A22EE000A71
:1029900023EE011A30EE013A90ED050A80ED043A7B
:1029A000B1EE401AB4EE413AF1EE10FA80ED022A8F
:1029B000B8BF80ED041A90ED041AB4EE401AF1EE9F
:1029C00010FAC8BF80ED040A90ED040A70470000B9
:1029D00080B500210160FFF74FFF80BDB0B547F61D
:1029E0001021C1F6FF7108688A68801808BFB0BD61
:1029F00040F26065C2F200054C68A91C082205F08F
:102A000059FA05F112012046042205F053FAB0BD2F
:102A1000F0B581B02DED028B40F67C00C2F20000D3
:102A2000007B012840F0CA8041F2CC37C2F2000797
:102A300097ED048AB3EE041A9FED6B0AB4EE418A57
:102A4000F1EE10FA2FDA9FED691AB4EE418AF1EE39
:102A500010FA28DD40F2DC00C2F200000068FEF748
:102A600037FB044618EE100A20F000400D46FEF732
:102A70002FFB9FED590B53EC102BFEF70EFA9FED39
:102A8000580B53EC102BFEF77AFA41EC100B0DF0BB
:102A90006FFE51EC100B22462B46FEF7FEF9FEF7B7
:102AA0002AFB00EE100A40F6F800C2F2000080EDAA
:102AB000000A40F2E000C2F200000068FEF708FBE6
:102AC00041F6C852C2F2000292ED050A9FED481A83
:102AD0009FED492A30EE010A9FED461A044620EE8A
:102AE000010A80EE020A0D4610EE100AFEF7F0FA17
:102AF00041EC100B0DF03CFE51EC100B22462B4626
:102B0000FEF7CBF90D4640F25471C2F200010446C3
:102B100040F2E400B1F90210C2F2000090ED000AA8
:102B200001EE101AB8EEC11A20EE010A10EE100ADA
:102B3000FEF7CEFA02460B4620462946FEF706F976
:102B4000044641F2E840C2F2000000680D46FEF77C
:102B5000BFFA064638690F4620F00040FEF7B8FA83
:102B60009FED1D0B53EC102BFEF797F99FED1C0BFF
:102B700053EC102BFEF703FA41EC100B0DF0F8FDAF
:102B800051EC100B32463B46FEF787F902460B46E6
:102B900020462946FEF7DAF8FEF7ADFA42F6206144
:102BA000C2F20001097840F6FC02C2F200020229DA
:102BB000106006D041B900F00DFD07E000F09CFE6A
:102BC00004E000F079FD01E000F096FEBDEC028B20
:102BD00001B0F0BD00BF00BF00000060FB21094054
:102BE000000000000080664000000000000048C2B5
:102BF00000003043DB0F494000003443B0B52DEDF9
:102C00000C8B40F6F400C2F200000021017040F687
:102C1000F500C2F200000122027041F69C1040F65D
:102C2000E8249FEDD98AC2F20000C2F20004B0EE9F
:102C300000BA016020464FF48041B0EE480AF0EE41
:102C4000480AB0EE4B1AF0EE481AB0EE482AF0EE01
:102C5000482AB0EE483A06F0FBFF41F23005C2F2D6
:102C60000005B1EE049A28464FF48041B0EE480AC0
:102C7000F0EE480AB0EE491AF0EE481AB0EE482AD3
:102C8000F0EE482AB0EE483A06F0E2FFB7EE00AAAE
:102C900004F17000B3EE041A4FF48041B0EE4A0A1A
:102CA000F0EE480AF0EE481AB0EE482AF0EE482A54
:102CB000B0EE483A06F0CCFF05F170004FF48041C9
:102CC000B0EE4A0AF0EE480AB0EE4B1AF0EE481A9F
:102CD000B0EE482AF0EE482AB0EE483A06F0B8FFC7
:102CE00004F1E0004FF48041B0EE480AF0EE480AEB
:102CF000B0EE481AF0EE481AB0EE482AF0EE482A34
:102D0000B0EE483A06F0A4FF05F1E0004FF4804130
:102D1000B0EE480AF0EE480AB0EE481AF0EE481A53
:102D2000B0EE482AF0EE482AB0EE483A06F090FF9E
:102D300040F62815C2F2000528464FF48041B0EE57
:102D4000480AF0EE480AB0EE491AF0EE481AB0EE22
:102D5000482AF0EE482AB0EE483A06F079FF40F6ED
:102D60007064C2F2000420464FF48041B0EE480A7D
:102D7000F0EE480AB0EE491AF0EE481AB0EE482AD2
:102D8000F0EE482AB0EE483A06F062FF9FED7F2A47
:102D900005F17000B2EE041A4FF48041B0EE4A0A19
:102DA000F0EE480AF0EE481AF0EE482AB0EE483A43
:102DB00006F04EFF9FED761A04F170004FF480414B
:102DC000B0EE4A0AF0EE480AF0EE481AB0EE482A91
:102DD000F0EE482AB0EE483A06F03AFF9FED6DCA91
:102DE000B3EE09DA05F1E0004FF48041B0EE480A95
:102DF000F0EE480AB0EE4D1AF0EE481AB0EE4C2A4A
:102E0000F0EE482AB0EE483A06F022FF9FED621A33
:102E100004F1E0004FF48041B0EE480AF0EE480AB9
:102E2000F0EE481AB0EE482AF0EE482AB0EE483AE2
:102E300006F00EFF40F6A844C2F2000420464FF40C
:102E40008041B0EE480AF0EE480AB0EE4B1AF0EEC0
:102E5000481AB0EE482AF0EE482AB0EE483A06F09A
:102E6000F7FE41F2F015C2F20005B0EE081A28464E
:102E70004FF48041B0EE480AF0EE480AF0EE481AEE
:102E8000B0EE482AF0EE482AB0EE483A06F0E0FEEE
:102E90009FED422A04F170004FF48041B0EE4A0ADF
:102EA000F0EE480AB0EE491AF0EE481AF0EE482A61
:102EB000B0EE483A06F0CCFE9FED391A05F17000ED
:102EC0004FF48041B0EE4A0AF0EE480AF0EE481A9C
:102ED000B0EE482AF0EE482AB0EE483A06F0B8FEC6
:102EE00004F5A8704FF48041B0EE4A0AF0EE480AAB
:102EF000B0EE491AF0EE481AB0EE482AF0EE482A31
:102F0000B0EE483A06F0A4FE9FED261A05F5A8702B
:102F10004FF48041B0EE4A0AF0EE480AF0EE481A4B
:102F2000B0EE482AF0EE482AB0EE483A06F090FE9D
:102F300004F1E0004FF48041B0EE480AF0EE480A98
:102F4000B0EE4D1AF0EE481AB0EE4C2AF0EE482AD8
:102F5000B0EE483A06F07CFE9FED131A05F1E00052
:102F60004FF48041B0EE480AF0EE480AF0EE481AFD
:102F7000B0EE482AF0EE482AB0EE483A06F068FE75
:102F8000BDEC0C8BB0BD00BF000000000000C842CB
:102F9000000048C2000096430000C8C20000484339
:102FA000000070420000484200008C420000000017
:102FB00010B540F24C10C2F2000041F2CC32416830
:102FC000C2F2000292ED051A00EE101A9FEDE63AE9
:102FD00030EE410AB4EE430AF1EE10FA02DD9FED45
:102FE000E51A08E09FEDE11AB4EE410AF1EE10FA9D
:102FF00003DA9FEDDF1A30EE010A92ED062A40F661
:10300000B401C2F2000130EE021A91ED040AB3EEEF
:103010000C4A34EE400AB4EE430AF1EE10FA82EDA7
:10302000071A02DD9FEDD33A08E09FEDD03AB4EEE7
:10303000430AF1EE10FA03DA9FEDCD3A30EE030ABF
:1030400040F6F403C2F200031B78022B4ED0012B92
:1030500017D0002B5AD142F6D070C2F2000042F6CF
:1030600020620078C2F200021378012879D1002B87
:1030700000F08880022B40F0A48002F110000C3296
:1030800083E040F67C01C2F20001897A01293ED139
:10309000C1699FEDB90A02EE101AB4EE402AF1EEB2
:1030A00010FA34DD80689FEDB70A40F6CC0102EEDD
:1030B000100AC2F200010022B4EE402AC1E9072240
:1030C000F1EE10FAB8BFB0EE402AB1EE080AB4EE45
:1030D000402AF1EE10FA81ED012A81ED021A40F347
:1030E000E0800020C4F2C0004860DAE040F6CC0086
:1030F000C2F200000021C0E90711416200211269FB
:10310000CCF29821C160426080ED022A10BD42F6E7
:103110002061C2F200010878022800F096800028A1
:1031200040F0AB80D1E91904FDF7D2FF9FED8A0B87
:1031300053EC102BFDF7B1FEFDF7DDFF40F6CC019F
:10314000C2F2000108622046FDF7C2FF9FED840B2A
:1031500053EC102BFDF7A1FEFDF7CDFF00EE100A9A
:1031600085E040F6CC000021002BC2F20000CCF23A
:10317000982100F09D80022B40F0AC8002F11003FA
:103180000C3298E002F16800643291ED051A40F6C5
:10319000CC0130EE010AC2F2000181ED020A92ED8B
:1031A000000A9FED751A90ED002A0023CCF230330F
:1031B00020EE010A22EE011ACB6081ED071A81EDA3
:1031C000080A40F6CC00C2F2000090ED070A90ED2C
:1031D000012A90ED081A90ED023A90ED034A32EE82
:1031E000400A9FED692A33EE411AB4EE424A80ED5F
:1031F000010AF1EE10FA80ED021ABEBF0021CCF2F6
:103200003031C16090ED031A9FED602AB4EE421A8E
:103210009FED5C1AF1EE10FAB4EE410AC2BF002134
:10322000CCF29821C160F1EE10FABEBF0021CCF2C1
:103230004821416090ED010AB1EE081AB4EE410A4E
:10324000F1EE10FA7FF762AF80E091ED030A9FED97
:103250004B1A91ED042A20EE010A40F6CC009FEDB6
:10326000481AC2F2000080ED080A22EE010A40F678
:10327000CC00C2F2000080ED070A40F6CC00C2F29A
:10328000000090ED010A90ED021A90ED072A90EDF2
:10329000083A30EE420A31EE431A80ED010A80ED21
:1032A000021A40F6CC00C2F200000121016010BDFC
:1032B00002F16803643292ED000A9FED2F1A93ED3C
:1032C000002A20EE010A22EE011AC16080ED071AE1
:1032D00080ED080A90ED010A90ED073A90ED021A90
:1032E00090ED032A90ED084A30EE430A9FED263A0E
:1032F00031EE441AB4EE432A80ED010AF1EE10FAE1
:1033000080ED021ABEBF0022CCF23032C26090EDD6
:10331000031A9FED1E2AB4EE421A9FED1A1AF1EE1F
:1033200010FAB4EE410AC8BFC160F1EE10FABEBF98
:103330000021CCF24821416090ED010AB1EE081A5B
:10334000B4EE410AF1EE10FAD8BF10BD0021C4F26C
:10335000C001416010BD00BF333333333333C33F4B
:103360007B14AE47E17A843F00003443000034C34D
:103370000000B4430000B4C3CDCCCC3D9A99993E33
:103380000AD723BC000048C2000030C3000098C226
:103390002DE9F04140F66800C2F2000090ED000A0D
:1033A00041F2EC40C2F2000090ED001A40F6F40049
:1033B000C2F20000007840F6980420EE010AC2F242
:1033C0000004012884ED000A75D140F67C00C2F2A9
:1033D0000000807A01286ED140F24C16C2F200063D
:1033E000F0699FED7B0A01EE100AB4EE401AF1EE8F
:1033F00010FA60DD41F2CC3740F6CC08C2F200078B
:10340000C2F2000840F6281597ED040AD8ED010A2B
:10341000C2F2000505F1E00006F0ECF9306995ED27
:10342000491A02EE100A40F6706097ED010AC2F2E6
:10343000000071EE020AE03006F0DCF940F6A84523
:1034400097ED060AD8ED020AC2F2000505F1E00088
:1034500006F0D0F9F06895ED491A02EE100A94EDE5
:10346000003A41F2F01097ED020A31EE021AC2F270
:10347000000071EE030AE03006F0BCF941F6C854D2
:10348000C2F2000440F6E82594ED050AD8ED030ADF
:10349000C2F2000505F1700006F0ACF9B4F90200C3
:1034A000D5ED2D0A00EE100A41F23000B8EEC00A48
:1034B000C2F2000086E042F6D070C2F2000000784E
:1034C00041F2CC3440F6CC050128C2F20004C2F22D
:1034D00000052DD140F6B406C2F2000640F6A8471A
:1034E00096ED050AD5ED020AC2F2000707F5A870AD
:1034F00006F080F9B6F90200D7ED650A00EE100A71
:1035000041F2F010C2F20000B8EEC00A00F5A87057
:1035100006F070F995ED020A96ED051A30EE410AB3
:10352000B1EE001AB4EE410AF1EE10FA17DB35E005
:1035300040F6A84694ED060AD5ED020AC2F200064E
:1035400006F1700006F056F941F2F01094ED020A0F
:10355000D6ED2D0AC2F20000703006F04BF941F6AC
:10356000C856C2F2000640F6E82796ED050AD5EDEA
:10357000030AC2F2000707F1700006F03BF9B6F942
:103580000200D7ED2D0A00EE100A41F23000C2F21F
:103590000000B8EEC00A703006F02CF9D5ED010A33
:1035A00040F6281594ED040AC2F2000505F17000FA
:1035B00006F020F994ED010AD5ED2D0A40F6706071
:1035C000C2F20000703006F015F9BDE8F08100BFCE
:1035D000CDCCCC3D10B540F6F400C2F2000001782D
:1035E00042F62064022904BF002101700178C2F272
:1035F0000004002948D194F87D3040F6241CC2F222
:10360000000C93B19CF8002072B940F6CC02C2F2D3
:10361000000292ED020A9FED271A30EE010A82EDB8
:10362000020A01228CF8002013B900228CF8002035
:1036300094F87A3040F6251CC2F2000C0BB39CF8CB
:103640000020EAB942F6D07EC2F2000E9EF80020B9
:10365000012A0FD100228EF8002041F2CC32C2F2B2
:103660000002D2F818E040F6CC02C2F20002C2F822
:1036700008E002E001228EF8002001228CF80020F0
:1036800013B900228CF8002094F8723040F626120C
:10369000C2F2000253B114782CB9013918BF0121CC
:1036A000017001201070002B18BF10BD0020107099
:1036B00010BD00BF0000344340F6F401C2F2000127
:1036C0000878B7EE000A022804BF0020087042F60E
:1036D0002060C2F2000090ED061A40F66862B4EE77
:1036E000401AF1EE10FAC2F2000208D1137833B991
:1036F0000B78013B18BF01230B7001211170B5EE4F
:10370000401AF1EE10FA04BF0021117090ED071A73
:10371000B4EE401AF1EE10FA18BF704742F6D070BE
:10372000C2F20000017801291EBF0121017070471B
:103730000021017041F2CC30C2F20000806940F6F5
:10374000CC01C2F20001886070470000B0B540F6BD
:10375000F400C2F20000007840F2547240F67C059A
:1037600040F24C140228C2F20002C2F20005C2F27A
:10377000000431D0012834D1A97A01292AD1E16984
:103780009FED5B0A01EE101AB4EE401AF1EE10FA4A
:1037900020DD40F67060C2F2000090ED490AA06999
:1037A000616901EE100A30EE010ABDEEC00A10EEAA
:1037B000100A508041F2F010C2F2000090ED490A68
:1037C00001EE101A30EE010ABDEEC00A10EE100A2A
:1037D000D0802FE0022804D10020D080C2F802005F
:1037E00028E042F6D070C2F2000041F2F0110078F9
:1037F000C2F2000101F1B403012808BF01F5CA7348
:1038000093ED000A40F67061BDEEC00AC2F20001FD
:1038100010EE100A91ED2D0A40F6F801C2F20001F7
:1038200091ED001AD08030EE010ABDEEC00A10EE14
:10383000100A508041F23000C2F2000090ED2D0AD3
:1038400040F6FC00C2F2000090ED001A40F2FE319A
:1038500030EE010ABDEEC00A10EE100A908043F26D
:10386000E420C2F20000FEF79DFEA87841F2B833D2
:10387000E978C2F200032A7901381D78B0FA80F0A5
:103880000139400905F0F805B1FA81F128444909E8
:1038900040EA4100511EB1FA81F1490940EA810034
:1038A000E16941F2CC3200EE101ABDEEC00AC2F25C
:1038B0000002187010EE100A92ED040A41F2BE31B7
:1038C00041F6C852C2F20001BDEEC00AC2F20002C7
:1038D000088010EE100A92ED050A9FED061A488046
:1038E00030EE010ABDEEC00A10EE100A8880B0BDAD
:1038F000CDCCCC3D0000304340F6F400C2F20000D5
:10390000022101707047000041F2B03441F6F00529
:1039100040F6F506C2F20004C2F20005C2F200064B
:103920000CE000BFFFF774F8FFF742FBFFF730FD34
:10393000FFF70CFF204601210BF0A8FB0CF03AFA30
:10394000297820600129EDD03078002808BFFFF7E2
:1039500055F905F057FAF1E790F82020013A012ACD
:1039600004D8006800F11402002004E000F12402F1
:1039700001204FF480211368194311607047000043
:1039800010B590F820E0D0F800C0AEF1010EBEF105
:10399000010FDCF808E00ED81EF0E05F11D0CEF386
:1039A000016E012000FA0EF018608B687BB1486848
:1039B00043EAC0030DE000F1240101204FF480220E
:1039C00023E000F1240101204FF400121DE00868FB
:1039D0004305D1E9030403430CEB0E10C0F880311A
:1039E000C0F88441097D012905D100F5C2710B6839
:1039F00043F480730B605168C0F88C11126800F5B5
:103A0000C071C0F88821002001220B681A430A60A7
:103A100010BD0000B0B590F82020013A012A2FD83F
:103A200046F20060C4F20000026842F00102026047
:103A3000026822F47C520260D1F814E0CC694A6A30
:103A40000368012C43EA022202600EF01F024FF0CD
:103A5000010303FA02F2C3696FEA020C23EA0203CC
:103A6000C36113D02CBBC36803EA0C03C360CB68EB
:103A70008C8844EA034300EBCE0423640B4611E038
:103A8000416A41F4802141620120B0BDC368134303
:103A9000C3600B688C8844EA034300EBCE042364C4
:103AA00001F10C038C681B8843EA044300EBCE044D
:103AB000636443688D6943EA0204D1F810E0096A3F
:103AC000002D08BF03EA0C0444604369BEF1000FF7
:103AD00043EA020408BF03EA0C040129446102D14D
:103AE000C1691143C161016821F001010160002039
:103AF000B0BD00007047000010B590F82040013CB8
:103B0000012C0AD8046871B12469A4070ED100F110
:103B1000240101204FF4001276E000F1240101207D
:103B20004FF4802270E0E468A40771D0046804EBCD
:103B3000011CDCF8B0410CF5D87E14F0040494604C
:103B4000DCF8B04119BFE4085460640D1460DEF87D
:103B500000400CF5DA7E04F00204D460DCF8B441D5
:103B600024075ABFDEF8004004F00F040824146153
:103B7000DEF800400029C4F307249461DEF8004019
:103B80004FEA14445461DCF8B8211A70026802EB61
:103B90000112D2F8B8214FEA12225A70026802EBE1
:103BA0000112D2F8B8214FEA12429A70026802EB71
:103BB0000112D2F8B8214FEA1262DA70026802EB01
:103BC0000112D2F8BC211A71026802EB0112D2F87C
:103BD000BC214FEA12225A71026802EB0112D2F89C
:103BE000BC214FEA12429A71026802EB0112D2F82C
:103BF000BC214FEA1262DA71006814BF00F11001B3
:103C000000F10C01002020220B681A430A6010BD4D
:103C100000F1240101204FF40012F5E72DE9F04FE7
:103C200081B0044600684669D0F804908768D0F8EF
:103C30000CB0D0F810A0D0F81880F10703D10025FF
:103C400030071CD423E0F90710D00121BA078160A6
:103C500009D4780700F1AA80380700F1B080204627
:103C600000F01CFB02E0204600F01AFB0025F805DE
:103C700000F18480F80300F1AA80300707D51BF01B
:103C8000100004D0206845F400751021C160700751
:103C900008D51BF0080005D020680821C160204627
:103CA00000F0E4F9B00706D52068C068800702D0AC
:103CB000204600F0DDF9700607D51AF0100004D098
:103CC000206845F4806510210161B00608D51AF01E
:103CD000080005D0206808210161204600F020FA84
:103CE000F00606D520680069800702D0204600F063
:103CF00019FAB00308D519F0100005D0206810217A
:103D00004160204600F09AFAF00308D519F0080047
:103D100005D0206808214160204600F0CBFA30042D
:103D200040F18F805FEA497040F1888006F480702E
:103D300008EA102028435FEA8871014648BF41F035
:103D40000201B20558BF01465FEA48700D4648BF00
:103D500045F00405700558BF0D4630056ED518F0C6
:103D600070006BD010380009052862D8DFE800F039
:103D7000035356595C5F45F008055AE020684FF43C
:103D80008071BA0581600AD4780512D4380519D437
:103D9000204600F087FAF8037FF56FAF17E0204662
:103DA00000F082FAF8037FF568AF10E04FF4006589
:103DB0005DE705F50055F8037FF55FAF07E04FF4C9
:103DC000805554E705F58045F8037FF556AF206828
:103DD0004FF48031BA0381600AD478030FD43803DA
:103DE00013D4204600F062FA30073FF548AF4EE7A3
:103DF000204600F05DFA30073FF541AF47E705F593
:103E0000004530073FF53BAF41E705F5803530070A
:103E10003FF535AF3BE745F010050AE045F02005DA
:103E200007E045F0400504E045F0800501E045F479
:103E300080752068816921F070018161206804210A
:103E400041602DB1606A284360622046FFF752FE50
:103E500001B0BDE8F08F0000B0B5C8B1044690F8DD
:103E6000200010B9204600F071F82068016841F088
:103E70000101016000F0CAFC054600BF20684168EE
:103E8000C90707D100F0C2FC401B0B28F6D312E093
:103E90000120B0BD016821F00201016000F0B6FC14
:103EA000054600BF2068416889070DD500F0AEFCCB
:103EB000401B0B28F6D3606A052140F40030606295
:103EC000012084F82010B0BD217E0268012922F073
:103ED000800208BF80320260617E0268012922F000
:103EE000400208BF40320260A17E0268012922F030
:103EF000200208BF20320260E17E0268012922F020
:103F0000100218BF10320260217F0268012922F0DE
:103F1000080208BF08320260617F0268012922F0AE
:103F2000040208BF04320260D4E901C2D4E90335B7
:103F300061691A432A431143ACF101021143C16183
:103F400000200121606284F82010B0BD10B586B059
:103F5000006846F60002C4F2000200219042CDE95A
:103F60000411CDE90211019134D046F20041C4F2AE
:103F70000001884277D141F2C831C2F200010A68DB
:103F800043F64000C4F20200531C0B6052B90021FA
:103F90000091016841F000710160016801F0007159
:103FA000009100990021009150F8101C142441F058
:103FB000080140F8101C50F8100C00F008000090A8
:103FC00000980320019040F20040C4F2020000F586
:103FD000006035E043F64000C4F202000091016841
:103FE00041F080610160016801F0806100910099F9
:103FF00041F2C831C2F200010A68531C0B6052B989
:1040000000210091016841F000710160016801F038
:104010000071009100990021009150F8101C41247A
:1040200041F0020140F8101C50F8100C00F00200A2
:10403000009000986020019040F20040C4F202001D
:10404000022102910021039103210491092105918C
:1040500001A900F007FB20460521002200F084FCA6
:10406000204600F07DFC06B010BD00007047000047
:1040700010B5016846F20042C4F20002914200D03D
:1040800010BD41F62404C2F2000440F2E063C2F223
:10409000000300212246FFF72FFD206840F2032194
:1040A000884219D040F20221884228D040F20121F2
:1040B000884218BF10BD41F2046040F2E061C2F2D4
:1040C0000000C2F2000105F09BFE41F2F850C2F27E
:1040D0000000FEF77DFC10BD41F68400C2F2000036
:1040E00040F2E0612830C2F2000105F089FE41F69D
:1040F0006800C2F200000C30FEF76AFC10BD41F609
:10410000840040F2E061C2F20000C2F2000105F05A
:1041100077FE41F66800C2F20000FEF759FC10BDC0
:1041200070470000B0B5016846F60002C4F2000214
:10413000914200D0B0BD41F6240540F2E864C2F2DD
:104140000005C2F2000405F11C0201212346FFF71D
:10415000D3FCE86940F2013188421DDD40F20231B2
:1041600088422FD040F2033188423CD0B0F5417FE5
:1041700018BFB0BD40F6B40040F2E861C2F20000E2
:10418000C2F20001FEF746F940F60010C2F200004C
:104190000C30FEF71DFCB0BD40F20111884234D056
:1041A000B0F5817FC6D140F6680021686268C2F22E
:1041B0000000C0E9001240F68C00C2F20000FEF7D9
:1041C00007FCB0BD40F69C0040F2E861C2F200007E
:1041D000C2F20001FEF71EF940F60010C2F2000024
:1041E000FEF7F6FBB0BD41F6C85040F2E861C2F2FE
:1041F0000000C2F20001FEF70DF940F60010C2F215
:1042000000001830FEF7E4FBB0BD208841F608013D
:104210006288C2F20001088010BAA288000C4880AF
:1042200010BAE288000C888010BA000CC88041F2F5
:10423000FC70C2F20000FEF7CBFBB0BD704700007F
:10424000B0B5044690F8200001281DD1022084F862
:1042500020002068016821F00101016000F0D6FA19
:10426000054600BF20684068C00713D000F0CEFAB2
:10427000401B0B28F6D3606A40F4003060620520D2
:1042800084F820000120B0BD606A40F40020606224
:104290000120B0BD00206062B0BD0000704700008A
:1042A0007047000070470000704700007047000032
:1042B000704700007047000070B5866D044600F03E
:1042C000A5FA94F83510022925D105462068216CFD
:1042D000026822F016020260426922F08002426106
:1042E00009B9A16C19B1016821F0080101600168E8
:1042F00021F00101016000BF20680068C0070ED0F6
:1043000000F084FA401B0628F6D3202060650320C5
:1043100084F835000CE080206065012008E0E06D45
:104320003F2101FA00F0B060012084F83500002040
:10433000002184F8341070BD90F83510022909D19D
:10434000052180F835100068016821F00101016045
:10435000002070478021416501207047F0B581B091
:1043600004460020009040F2A850C2F2000002680B
:10437000D4E9166048F2B51337680821C1F64E3308
:1043800081403942A2FB03250CD0226813685B07E9
:1043900008D5136823F004031360B160616D41F028
:1043A0000101616501218140394208D022685269CA
:1043B000120604D5B160616D41F00201616504210E
:1043C0008140394208D022681268920704D5B16052
:1043D000616D41F00401616510218140394215D0C1
:1043E00020680268120711D5B160026801685203A3
:1043F00006D4C90506D4016821F00801016001E076
:10440000080342D4216C09B120468847E16D202081
:1044100000FA01F23A4244D020680368DB0640D536
:10442000B26094F835300268052B1ED122F01602D6
:104430000260426922F080024261226C0AB9A26CD9
:104440001AB1026822F0080202603F208840B06082
:10445000012084F83500216D0020002984F8340003
:1044600040D02046884701B0F0BD0168520310D407
:10447000C90512D4016821F010010160012084F8FF
:104480003500002084F8340007E0A16C0029BBD17E
:10449000BCE7080301D4616C00E0E16B09B1204680
:1044A0008847606DF0B1606DC00717D0052084F8B3
:1044B00035002068A90A026822F00102026000BFEC
:1044C000009A01328A42009202D80268D207F7D1DC
:1044D000012084F83500002084F83400E16C09B133
:1044E0002046884701B0F0BD2DE9F041044600F0B8
:1044F0008DF9C4B10546022084F8350000202168FA
:1045000084F83400086820F00100086026683068EC
:10451000C0070BD000F07AF9401B0528F6D903211B
:104520002022032042E00120BDE8F081306848F2FB
:104530003F01CFF21001251D00EA010C2ECDD4E978
:10454000050E41EA0C01114319432943D4E90778C8
:10455000084340EA0E01606A3943042841EA080131
:1045600003D1D4E90B231143194331607169042845
:1045700021F0070141EA00050CD1D4E90A1045EA0F
:10458000010538B12046FDF7CDFF18B101214022C9
:1045900001200BE020467561FDF7A6FFE16D3F228B
:1045A00002FA01F18160002201210020626584F895
:1045B0003510BDE8F0810000B0B5044690F8340035
:1045C000012828D0012084F83400A56D94F8350026
:1045D00001281DD1022084F83500002060652046A6
:1045E000FDF7C8FFE26D3F23206803FA02F2216C59
:1045F000AA60026842F01602026019B1016841F037
:1046000008010160016841F0010101600020B0BDB6
:10461000002084F834000220B0BD0000B0B504468C
:1046200000F0F4F8054640F28160C2F20000007824
:10463000611C18BF044400BF00F0E8F8401BA04212
:10464000FAD3B0BD7047000080B543F61441C4F200
:1046500001010A68024208BF80BD0860FFF7F2FF4F
:1046600080BD00002DE9F04F83B000F13E4202F121
:10467000FF724FEAB22241F600470192C4F20207EC
:1046800008224FF0010E00254FF0000A4FF00008FD
:10469000B84208BF072200920AE000BF08F10108F3
:1046A0000AF1040AB8F1100F05F1020500F0A48028
:1046B0000C680EFA08FB14EA0B09EFD04C6804F002
:1046C000030CACF1010EBEF1010F11D80322876873
:1046D00002FA05F6CA68B743AA403A4382604268C4
:1046E000C4F3001722EA0B0207FA08F73A434260C4
:1046F000BCF1030F1CD0C26803238E6803FA05F7D0
:10470000BA4306FA05F73A43BCF1020FC2600FD173
:104710006FF0030202EA580202440AF01C060F235B
:10472000176A03FA06F40B69A743B3403B431362CD
:10473000026803234F68AB409A4307F00303AB4082
:104740001A4317F4403F4FF0010E0260A6D000223A
:1047500043F644030292C4F202031A6843F600448B
:1047600042F480421A601A68C4F2010402F48042E2
:104770000292029A28F003024FF6084B2244CFF629
:10478000FF7B52F80B300AF00C070F26BE4023EADD
:10479000060C019B009E072B38BF1E4606FA07F742
:1047A00047EA0C0342F80B30A2684B6842EA09075B
:1047B00043F60C4CDE0258BF22EA0907A760C4F298
:1047C000010CDCF800209E0242EA090758BF22EAE9
:1047D0000907CCF8007062689E0342EA090758BFD7
:1047E00022EA090767602268DB0342EA090358BF2F
:1047F00022EA0903236051E703B0BDE8F08F00000F
:10480000002A08BF09048161704700004AF2B820FD
:10481000C2F200000068704740F281604AF2B8219D
:10482000C2F20000C2F2000100780A681044086079
:104830007047000080B543F60040C4F202000168F2
:1048400041F400710160016841F480610160016818
:1048500041F480710160032000F096F8002000F020
:1048600005F800F059F8002080BD000070B586B052
:10487000002543F640010195C4F202010A6804468E
:1048800042F001020A60096801A801F001010191EA
:104890000199694600F0C4FE049E002E18BF01264F
:1048A00000F0E4FE4DF68361B040C4F21B31A0FB82
:1048B00001014FF0FF3000EB914143F6E820C2F2D6
:1048C00000004FF0804240F2E733C0E90021C0E928
:1048D00002530561856101F083FB0546C0B943F6CB
:1048E000E820C2F2000001F0E3FB054680B91C207D
:1048F00000F036F80F2C0AD81C202146002200F0C8
:1049000033F840F28460C2F20000046000E0012548
:10491000284606B070BD000080B582B0002043F686
:1049200040010190C4F202014A6842F480424A60A8
:104930004A6802F480420192019A009008680022BD
:1049400040F08050086008680F2100F0805000900F
:1049500000986FF0010000F007F802B080BD000081
:1049600080B508F02DFF80BD70B514460D46064693
:1049700008F036FF2946224604F012FD0146304673
:1049800008F036FF70BD000080B508F04BFF80BD19
:1049900070470000026800205162704710B5D0F8DF
:1049A00000C0DCF82400D9B1DCF82830B1F1010EE8
:1049B00000EB13430CD00021002000BF0CEB810161
:1049C000D1F804410130C1B28E4503EB1443F5D850
:1049D00043EA02400CEB8E01C1F80401002010BD37
:1049E00040EA0240CCF82800002010BD80B5D0F885
:1049F000E00407F0A1FA80BD80B501EBC102D0F858
:104A0000E03400EB8200026A184607F0FFF980BD2F
:104A100080B501EBC102D0F8E03400EB8200D0F8A1
:104A20006022184607F04CFA80BD000080B5D0F82F
:104A3000E00407F083FA80BD80B501F00F0202EBBD
:104A4000C20200EB820303F114020906006858BF9A
:104A500003F51572114608F021F980BD10B5044622
:104A6000080601F00F0000EBC00104EB810205D441
:104A700002F51571002382F8553203E0012302F19B
:104A80001401537594F894240870012A04BF02207D
:104A900010BD2068012284F8942407F071FE0020E4
:104AA00084F8940410BD0000B0B50279044601F00A
:104AB0000F00904284BF0120B0BD090609D400EB6D
:104AC000C00104EB810202F51571002382F8553212
:104AD00007E000EBC00104EB8102012302F11401A5
:104AE000537594F894240025012A8D70087004BF32
:104AF0000220B0BD2068012284F8942407F094FFBE
:104B0000284684F89454B0BD01F00F0101EBC101B7
:104B100000EB8100D0F8680270470000B0B5054690
:104B2000080601F00F0000EBC00105EB810C05D475
:104B30000CF5157100248CF8554204E001240CF1A9
:104B400014018CF815404C786FF3DF22002C0870AC
:104B50008A600B7118BF4883022B04BF0020487184
:104B600095F89404012804BF0220B0BD28680122F2
:104B700085F8942407F03EFD002085F89404B0BD2C
:104B800010B501F00F0404EBC40100EB810E4FF0EF
:104B9000000CCEF868C28EF855C290F806C0CEF868
:104BA0006022CEF86432BCF1010F8EF8544208BF87
:104BB000CEF8702200680EF51571624607F084FF8A
:104BC000002010BDB0B50446007901F00F05854204
:104BD00084BF0120B0BD080609D401EBC10004EB7D
:104BE000800000F51571002280F8552207E005EBE2
:104BF000C50004EB8000012200F11401427594F815
:104C00009404012201288A700D7004BF0220B0BDF7
:104C1000206884F8942407F02FFF2DB92068A1792B
:104C200004F29C4207F0D2FE002084F89404B0BD48
:104C300080B501F00F0C0CEBCC0100EB810E71463E
:104C400001F814CF4FF0000CC1F814C04FF0010C64
:104C500081F801C090F806C0CA60BCF1010F0B6179
:104C600008BFCEF830200068624607F02DFF002014
:104C700080BD00002DE9F04F83B0066883463046C2
:104C800008F0AEF810B103B0BDE8F08FDBF800001B
:104C900008F0D4F80028F6D0D6F80808C0F30D21A3
:104CA000DBF80000CBF8D41408F0C8F8800705D56D
:104CB000DBF80000416901F002014161DBF800000E
:104CC00006F5006708F0BAF8C00640D5DBF800002A
:104CD000816921F010018161346AC4F343400628E0
:104CE00004F00F051CD002282BD147F6F0700440C9
:104CF00027D005EBC5000BEB8005D5F86012220923
:104D0000304608F09FF8D5F86002D5F8681200EB3D
:104D10001410C5F8600201EB1410C5F8680210E029
:104D20000BF29C413046082208F08CF805EBC500D8
:104D30000BEB8000D0F86812C4F30A121144C0F8DB
:104D40006812DBF80000816941F010018161DBF835
:104D50000000CDE9017608F071F800035ED5DBF8BC
:104D6000000008F049F8002858D0064602984FF095
:104D7000000900F5306440F25725002717E000BF16
:104D80000220A0605FEA8A6044BF2020A0605FEA42
:104D90008A4044BF4FF40050A0600137B9EB560F72
:104DA0004FEA560604F1200405F1240536D0F00739
:104DB000F3D0DBF800005FFA87F8414608F036F8D8
:104DC0008246C00705D00120A0605846394604F04D
:104DD0003DFC5FEA0A7005D50820A06058463946B8
:104DE00004F00EFC5FEACA6044BF1020A0605FEAD6
:104DF0008A70C7D502984069000604D501994868B1
:104E000040F4806048601BF805000128B8D158467E
:104E100041460BF8059000F00DFAB1E7DBF8000011
:104E200008F00CF8400372D5DBF8000007F0DCFF57
:104E300000286CD006460BF29C40009002980BF1C3
:104E4000170800F510644FF0000900270AE000BFC2
:104E50000137B9EB560F4FEA560604F1200408F16A
:104E6000240854D0F007F3D0DBF800005FFA87FA8B
:104E7000514607F0C9FF0546C00723D0019A07F045
:104E80000F00516B012303FA00F021EA0000506388
:104E9000A3609BF80600012810D1D8F80500D8F8C7
:104EA00009100844C8F8090047B9D8F80D0028B916
:104EB000DBF80000009A012107F088FD58465146B2
:104EC000FFF79AFD280744BF0820A060E80644BF0A
:104ED0001020A060680644BF4020A060A8070FD53E
:104EE0000298394607F04AFF98F80000012805D1DA
:104EF0005846514688F8009000F096F90220A060CC
:104F00002806A5D55846394604F00CFCA0E7DBF886
:104F1000000007F093FFDDE90198B0F1FF3F1ADCD4
:104F2000D9F8040020F00100C9F804009BF8CC0473
:104F3000012807D100208BF8CC0458460021FFF748
:104F400027FD02E0584600F057FADBF800004169FF
:104F500001F000414161DBF8000007F06FFF000540
:104F60000CD5D9F80800C00702D0584600F08EFAD8
:104F7000DBF80000416901F400614161DBF80000E9
:104F800007F05CFFC00460D5D9F80400102120F0C0
:104F90000100C9F80400DBF8000007F0EFFE9BF801
:104FA0000400F8B19BF8041008F5106000224FF6D9
:104FB0007F3300BF83600768013227F40017076062
:104FC000C0F80832D0F800728A4227F40017C0F8FF
:104FD0000072D0F8007247F00067C0F8007200F16C
:104FE0002000E7D3D9F81C0040F00110C9F81C00DC
:104FF0009BF80F0040B1D9F8840040F00B00C9F8CD
:10500000840009F1440008E0D9F8140042F22B01B1
:105010000843C9F8140009F1100001680BF29C4222
:1050200041F00B010160D9F8000020F4FE60C9F8DE
:105030000000DBF800009BF8061007F0C7FCDBF867
:105040000000416901F480514161DBF8000007F084
:10505000F5FE80041CD5DBF8000007F017FBDBF839
:10506000000007F0AFFEDBF800408BF8070000F00F
:10507000F7FA9BF807200146204607F05DFF5846E7
:1050800000F0A8F9DBF80000416901F4005141612A
:10509000DBF8000007F0D2FE000708D5584600F004
:1050A000B1F9DBF80000416901F008014161DBF86A
:1050B000000007F0C3FE00061ED5D8F8180020F047
:1050C0008000C8F818009BF80400022814D30124BB
:1050D00040F27B2507E000BF9BF8040001348442C6
:1050E00005F1240508D21BF805000128F4D1E1B22E
:1050F0005846FFF7A1FCEFE7DBF8000007F09EFE43
:10510000C00229D59BF8040002281FD308F51264B9
:105110000BF13C050126012708E000BF9BF80400C5
:1051200001372034874205F124050FD22068B0F101
:10513000FF3FF3DC28780128F0D147F08000C1B2AE
:10514000584605F8016CFFF777FCE7E7DBF800004D
:10515000416901F480114161DBF8000007F06EFE47
:1051600080023AD59BF80400022830D308F532605B
:105170000BF51F710122012308E000BF9BF80470AA
:1051800001332030BB4201F1240120D20768B7F17E
:10519000FF3FF3DC0E78012EF0D1DBF8D46407F486
:1051A000803706F00106B742E8D101F8012CD8F8A3
:1051B000187047F08007C8F81870D8F814703F06C8
:1051C000DCD4D9F8040040F40070C9F80400DBF81E
:1051D0000000416901F400114161DBF8000007F0B3
:1051E0002DFE400008D55846FFF700FCDBF8000014
:1051F000416901F080414161DBF8000007F01EFECB
:1052000040077FF540ADDBF800004468600702D539
:105210005846FFF70BFCDBF8000041682143416072
:1052200003B0BDE8F08F000080B5D0F8E00406F0D0
:10523000E1FE80BD80B5D0F8E00406F0EFFE80BD51
:10524000B0B582B008B30446056890F8950428B953
:10525000002084F89404204600F078F80320B5F18B
:10526000A04F84F8950404BF0020A071206807F0C7
:10527000A5FB94E80F00257C009507F017FA30B1E4
:10528000022084F8950401255CE001255AE020689D
:10529000002107F003FE20B1022084F895040125C7
:1052A00050E094F804C0BCF1000F1DD094F804C085
:1052B0004FF0010E6046BCF1010F98BF704600EB45
:1052C000C000820000230025002000BF61192435A2
:1052D0000875C885AA4200F1010081F815E00B7637
:1052E000C1E907334B62F1D1BCF1000F16D00CEBD2
:1052F000CC00800000210022002300BFA51824322A
:1053000085F85432904203F1010385F8551285F86F
:105310005812C5E99711C5F86412EFD194E80F004F
:10532000257C009507F096FA20B1022084F89504B8
:10533000012507E000250120657484F895042068A4
:1053400007F078FA284602B0B0BD0000B0B586B0CC
:1053500000680024B0F1A04F0594CDE90344029405
:10536000019401D006B0B0BD43F630050094C4F2FC
:105370000205286801A940F001002860286800F0B3
:105380000100009000984FF4C05001900220CDE938
:105390000204032004900A2005900020C4F20200B9
:1053A000FFF760F96868052140F0800068600094AC
:1053B0006869002240F480406861686900F48040B8
:1053C000009000984320FFF7CFFA4320FFF7C8FA78
:1053D00006B0B0BD10B5C179044621B1022918BF8D
:1053E000FDF746FA0121D4F8E00406F089FED4F86E
:1053F000E00406F03BFE10BD80B5D0F8E00406F0F6
:1054000067FE80BD80B5D0F8E00406F06BFE80BD7D
:1054100010B5044690F89404012804BF022010BD82
:10542000012084F894046174206807F06BFD00206B
:1054300084F8940410BD000080B5D0F8E02400F298
:105440009C41104606F068FE80BD000010B5044681
:1054500090F89404012804BF022010BD20680121A7
:1054600084F89414C168490606D5617B012903D1EB
:10547000816B41F48031816307F054FC206807F0B0
:10548000C9F9002084F8940410BD000010B504464A
:10549000D0F8E00406F07CFE2068D0F8001E41F051
:1054A0000101C0F8001EE07A002808BF10BD4EF6CA
:1054B0001050CEF20000016841F00601016010BDFD
:1054C0002DE9F041002800F08B8043F60808C4F273
:1054D00002080446D8F8F8030D4600F00700884299
:1054E00007D288F8F853D8F8F80300F00700A8426C
:1054F00076D12068810717D5410705D5D8F8001067
:1055000041F4E051C8F80010010705D5D8F80010A3
:1055100041F46041C8F80010D8F80010A26821F0EA
:10552000F0011143C8F80010C0073FD1D8F8F803C4
:1055300000F00700A84207D988F8F853D8F8F80314
:1055400000F00700A8424BD12068410707D5D8F8E2
:105550000010E26821F4E0511143C8F80010000780
:1055600008D5D8F80000216920F4604040EAC10065
:10557000C8F8000000F09EF8D8F8001041F6E822C4
:10558000C1F30311C0F60102515C40F2A85220FAA7
:1055900001F140F28460C2F200000068C2F2000231
:1055A0001160FFF763F90020BDE8F0816068811E9B
:1055B000022907D258F8081C89015CBF0120BDE808
:1055C000F08110E0012807D158F8081C89035CBF5E
:1055D0000120BDE8F08106E058F8081C890702D4D4
:1055E0000120BDE8F081D8F8001021F00301084344
:1055F000C8F80000FFF70AF9064641F2883700BFF5
:10560000D8F80000616800F00C00B0EB810F8DD07D
:10561000FFF7FCF8801BB842F2D90320BDE8F08107
:105620000F22026043F60802C4F20202136803F07C
:1056300003034360136803F0F0038360136803F40B
:10564000E053C360D2F800C04FF4E05303EADC0338
:105650000361D2F8F80300F007000860704700000B
:1056600040F2A850C2F200000068704780B5FFF712
:10567000F7FF43F60801C4F20201096841F6F82277
:10568000C1F38221C0F60102515CC84080BD000018
:1056900080B5FFF7E5FF43F60801C4F2020109688F
:1056A00041F6F822C1F34231C0F60102515CC84014
:1056B00080BD000010B543F60404C4F20204606823
:1056C00000F00C0008280AD0042819BF42F200405C
:1056D000C0F2F40041F60030C0F2B70010BD2068FF
:1056E00021682368490241F60031C0F2B70100F099
:1056F0003F02C3F388105CBF42F20041C0F2F401E4
:10570000A1FB00010023FBF7AFFA21680222C1F3DD
:10571000014102EB4101B0FBF1F010BD2DE9F04178
:1057200082B0002800F0A2800446007843F600060C
:10573000C007C4F2020643D0B06800F00C00042891
:1057400005D1306880033BD56068C8BB8EE0B06887
:1057500000F00C00082802D170684002F1D465689E
:10576000B5F5A02F0AD0B5F5803F0BD0306820F4F6
:1057700080303060306820F4802006E0306840F4EB
:1057800080203060306840F480303060FFF73EF8B1
:10579000002D054611D000BF3068800310D4FFF7FC
:1057A00035F8401B6428F7D922E100BFFFF72EF837
:1057B000401B64284FF0030055D830688003F5D4AF
:1057C000207880071AD5B06810F00C0F09D0B068A7
:1057D00000F00C00082840F08A807068400200F158
:1057E00086803068800702D5E06801283ED13068A5
:1057F000216920F0F80040EAC100306020780007FD
:1058000038D4207840074CD4A5695DB3B06800F067
:105810000C00082840F09E80012D27D07068E169B7
:1058200000F480028A4221D1216A00F03F028A42BC
:105830001CD147F6C071626A0140B1EB821F15D1DD
:10584000A26A0023CFF6FF7303EBC23200F44031AB
:105850006FF30F02914209D1E16A00F07060B0EB82
:10586000016F03D1002002B0BDE8F081012002B039
:10587000BDE8F0816069002840F20000C4F24720D2
:1058800057D00121C0F8801EFEF7C0FF054600BFBB
:10589000706F8007B5D4FEF7B9FF401B0228F7D917
:1058A000A6E0306C10F080580AD100200190306CD6
:1058B00040F080503064306C00F0805001900198CE
:1058C00047F20007C4F200073868C00524D43868DE
:1058D00040F480703860FEF799FF05463868C005CF
:1058E0001AD4FEF793FF401B0228F7D980E0E06846
:1058F000002851D00020C4F2472001210160FEF7AA
:1059000085FF0546306880073FF571AFFEF77EFFE3
:10591000401B0228F6D96BE0A568052D50D0012D5B
:1059200052D0306F20F001003067306F20F004005B
:105930004DE00021C0F8801EFEF768FF054600BF5D
:10594000706F80077FF55DAFFEF760FF401B022898
:10595000F6D94DE00027C4F2472700203866FEF74D
:1059600055FF022D05460BD13068800158D5FEF752
:105970004DFF401B02284FF00300F5D973E700BF2D
:10598000306880017FF56EAFFEF740FF401B0228B4
:105990004FF00300F4D966E70020C4F2472000214D
:1059A0000160FEF733FF0546306880077FF526AFBC
:1059B000FEF72CFF401B02284FF00300F4D952E7FA
:1059C000306F40F004003067306F40F00100306706
:1059D000FEF71CFF002D054641F2883714D000BFAA
:1059E000306F800713D4FEF711FF401BB842F7D980
:1059F000032002B0BDE8F081FEF708FF401BB8426B
:105A00004FF003003FF62FAF306F8007F4D4B8F1AA
:105A1000000F7FF4F9AE306C20F080503064F3E674
:105A200004F11C052FCD08430021CFF6FF7140EA99
:105A3000821001EBC3316FF30F0140EA05600843A8
:105A4000706001203866FEF7E1FE04463068800190
:105A50003FF508AFFEF7DAFE001B02284FF0030007
:105A6000F4D900E77047000010B5044600684168AB
:105A70008A0615D44A0615D4C90710D0016821F04A
:105A8000080101608168E1606079042808BF10BDE9
:105A90000120607100202071204600F04DF810BDFB
:105AA000102000E00820A060042060712046FFF76D
:105AB000D9FF20686FF06001416010BD002804BF6D
:105AC0000120704710B50446407920B900202071AC
:105AD000204600F00DF8022060712068016841F056
